{
	"src/funding/src/contracts/Funding.sol": {
		"Funding": {
			"abi": [
				{
					"constant": false,
					"inputs": [],
					"name": "support",
					"outputs": [],
					"payable": true,
					"stateMutability": "payable",
					"type": "function"
				},
				{
					"constant": true,
					"inputs": [],
					"name": "getBalance",
					"outputs": [
						{
							"name": "",
							"type": "uint256"
						}
					],
					"payable": false,
					"stateMutability": "view",
					"type": "function"
				},
				{
					"constant": true,
					"inputs": [],
					"name": "endTime",
					"outputs": [
						{
							"name": "",
							"type": "uint256"
						}
					],
					"payable": false,
					"stateMutability": "view",
					"type": "function"
				},
				{
					"constant": true,
					"inputs": [
						{
							"name": "",
							"type": "uint256"
						}
					],
					"name": "supporters",
					"outputs": [
						{
							"name": "",
							"type": "address"
						}
					],
					"payable": false,
					"stateMutability": "view",
					"type": "function"
				},
				{
					"constant": true,
					"inputs": [],
					"name": "getSupporters",
					"outputs": [
						{
							"name": "",
							"type": "address[]"
						}
					],
					"payable": false,
					"stateMutability": "view",
					"type": "function"
				},
				{
					"constant": true,
					"inputs": [],
					"name": "manager",
					"outputs": [
						{
							"name": "",
							"type": "address"
						}
					],
					"payable": false,
					"stateMutability": "view",
					"type": "function"
				},
				{
					"constant": false,
					"inputs": [],
					"name": "refund",
					"outputs": [],
					"payable": false,
					"stateMutability": "nonpayable",
					"type": "function"
				},
				{
					"constant": false,
					"inputs": [
						{
							"name": "_purpose",
							"type": "string"
						},
						{
							"name": "_cost",
							"type": "uint256"
						},
						{
							"name": "_shopAddress",
							"type": "address"
						}
					],
					"name": "createRequest",
					"outputs": [],
					"payable": false,
					"stateMutability": "nonpayable",
					"type": "function"
				},
				{
					"constant": true,
					"inputs": [],
					"name": "targetMoney",
					"outputs": [
						{
							"name": "",
							"type": "uint256"
						}
					],
					"payable": false,
					"stateMutability": "view",
					"type": "function"
				},
				{
					"constant": true,
					"inputs": [],
					"name": "projectName",
					"outputs": [
						{
							"name": "",
							"type": "string"
						}
					],
					"payable": false,
					"stateMutability": "view",
					"type": "function"
				},
				{
					"constant": true,
					"inputs": [],
					"name": "supportMoney",
					"outputs": [
						{
							"name": "",
							"type": "uint256"
						}
					],
					"payable": false,
					"stateMutability": "view",
					"type": "function"
				},
				{
					"constant": false,
					"inputs": [
						{
							"name": "_requestId",
							"type": "uint256"
						}
					],
					"name": "approveRequest",
					"outputs": [],
					"payable": false,
					"stateMutability": "nonpayable",
					"type": "function"
				},
				{
					"inputs": [
						{
							"name": "_projectName",
							"type": "string"
						},
						{
							"name": "_targetMoney",
							"type": "uint256"
						},
						{
							"name": "_supportMoney",
							"type": "uint256"
						},
						{
							"name": "_duration",
							"type": "uint256"
						}
					],
					"payable": false,
					"stateMutability": "nonpayable",
					"type": "constructor"
				}
			],
			"devdoc": {
				"methods": {}
			},
			"evm": {
				"assembly": "    /* \"src/funding/src/contracts/Funding.sol\":28:2496  contract Funding {\r... */\n  mstore(0x40, 0x80)\n    /* \"src/funding/src/contracts/Funding.sol\":412:717  constructor (string _projectName, uint256 _targetMoney, uint256 _supportMoney, uint256 _duration) public {\r... */\n  callvalue\n    /* \"--CODEGEN--\":8:17   */\n  dup1\n    /* \"--CODEGEN--\":5:7   */\n  iszero\n  tag_1\n  jumpi\n    /* \"--CODEGEN--\":30:31   */\n  0x0\n    /* \"--CODEGEN--\":27:28   */\n  dup1\n    /* \"--CODEGEN--\":20:32   */\n  revert\n    /* \"--CODEGEN--\":5:7   */\ntag_1:\n    /* \"src/funding/src/contracts/Funding.sol\":412:717  constructor (string _projectName, uint256 _targetMoney, uint256 _supportMoney, uint256 _duration) public {\r... */\n  pop\n  mload(0x40)\n  sub(codesize, bytecodeSize)\n  dup1\n  bytecodeSize\n  dup4\n  codecopy\n  dup2\n  add\n  dup1\n  0x40\n  mstore\n  dup2\n  add\n  swap1\n  dup1\n  dup1\n  mload\n  dup3\n  add\n  swap3\n  swap2\n  swap1\n  0x20\n  add\n  dup1\n  mload\n  swap1\n  0x20\n  add\n  swap1\n  swap3\n  swap2\n  swap1\n  dup1\n  mload\n  swap1\n  0x20\n  add\n  swap1\n  swap3\n  swap2\n  swap1\n  dup1\n  mload\n  swap1\n  0x20\n  add\n  swap1\n  swap3\n  swap2\n  swap1\n  pop\n  pop\n  pop\n    /* \"src/funding/src/contracts/Funding.sol\":538:548  msg.sender */\n  caller\n    /* \"src/funding/src/contracts/Funding.sol\":528:535  manager */\n  0x0\n  dup1\n    /* \"src/funding/src/contracts/Funding.sol\":528:548  manager = msg.sender */\n  0x100\n  exp\n  dup2\n  sload\n  dup2\n  0xffffffffffffffffffffffffffffffffffffffff\n  mul\n  not\n  and\n  swap1\n  dup4\n  0xffffffffffffffffffffffffffffffffffffffff\n  and\n  mul\n  or\n  swap1\n  sstore\n  pop\n    /* \"src/funding/src/contracts/Funding.sol\":573:585  _projectName */\n  dup4\n    /* \"src/funding/src/contracts/Funding.sol\":559:570  projectName */\n  0x1\n    /* \"src/funding/src/contracts/Funding.sol\":559:585  projectName = _projectName */\n  swap1\n  dup1\n  mload\n  swap1\n  0x20\n  add\n  swap1\n  tag_4\n  swap3\n  swap2\n  swap1\n  jump\t// in(tag_5)\ntag_4:\n  pop\n    /* \"src/funding/src/contracts/Funding.sol\":610:622  _targetMoney */\n  dup3\n    /* \"src/funding/src/contracts/Funding.sol\":596:607  targetMoney */\n  0x2\n    /* \"src/funding/src/contracts/Funding.sol\":596:622  targetMoney = _targetMoney */\n  dup2\n  swap1\n  sstore\n  pop\n    /* \"src/funding/src/contracts/Funding.sol\":648:661  _supportMoney */\n  dup2\n    /* \"src/funding/src/contracts/Funding.sol\":633:645  supportMoney */\n  0x3\n    /* \"src/funding/src/contracts/Funding.sol\":633:661  supportMoney = _supportMoney */\n  dup2\n  swap1\n  sstore\n  pop\n    /* \"src/funding/src/contracts/Funding.sol\":700:709  _duration */\n  dup1\n    /* \"src/funding/src/contracts/Funding.sol\":682:697  block.timestamp */\n  timestamp\n    /* \"src/funding/src/contracts/Funding.sol\":682:709  block.timestamp + _duration */\n  add\n    /* \"src/funding/src/contracts/Funding.sol\":672:679  endTime */\n  0x4\n    /* \"src/funding/src/contracts/Funding.sol\":672:709  endTime = block.timestamp + _duration */\n  dup2\n  swap1\n  sstore\n  pop\n    /* \"src/funding/src/contracts/Funding.sol\":412:717  constructor (string _projectName, uint256 _targetMoney, uint256 _supportMoney, uint256 _duration) public {\r... */\n  pop\n  pop\n  pop\n  pop\n    /* \"src/funding/src/contracts/Funding.sol\":28:2496  contract Funding {\r... */\n  jump(tag_6)\ntag_5:\n  dup3\n  dup1\n  sload\n  0x1\n  dup2\n  0x1\n  and\n  iszero\n  0x100\n  mul\n  sub\n  and\n  0x2\n  swap1\n  div\n  swap1\n  0x0\n  mstore\n  keccak256(0x0, 0x20)\n  swap1\n  0x1f\n  add\n  0x20\n  swap1\n  div\n  dup2\n  add\n  swap3\n  dup3\n  0x1f\n  lt\n  tag_8\n  jumpi\n  dup1\n  mload\n  not(0xff)\n  and\n  dup4\n  dup1\n  add\n  or\n  dup6\n  sstore\n  jump(tag_7)\ntag_8:\n  dup3\n  dup1\n  add\n  0x1\n  add\n  dup6\n  sstore\n  dup3\n  iszero\n  tag_7\n  jumpi\n  swap2\n  dup3\n  add\ntag_9:\n  dup3\n  dup2\n  gt\n  iszero\n  tag_10\n  jumpi\n  dup3\n  mload\n  dup3\n  sstore\n  swap2\n  0x20\n  add\n  swap2\n  swap1\n  0x1\n  add\n  swap1\n  jump(tag_9)\ntag_10:\ntag_7:\n  pop\n  swap1\n  pop\n  tag_11\n  swap2\n  swap1\n  jump\t// in(tag_12)\ntag_11:\n  pop\n  swap1\n  jump\t// out\ntag_12:\n  tag_13\n  swap2\n  swap1\ntag_14:\n  dup1\n  dup3\n  gt\n  iszero\n  tag_15\n  jumpi\n  0x0\n  dup2\n  0x0\n  swap1\n  sstore\n  pop\n  0x1\n  add\n  jump(tag_14)\ntag_15:\n  pop\n  swap1\n  jump\ntag_13:\n  swap1\n  jump\t// out\ntag_6:\n  dataSize(sub_0)\n  dup1\n  dataOffset(sub_0)\n  0x0\n  codecopy\n  0x0\n  return\nstop\n\nsub_0: assembly {\n        /* \"src/funding/src/contracts/Funding.sol\":28:2496  contract Funding {\r... */\n      mstore(0x40, 0x80)\n      jumpi(tag_1, lt(calldatasize, 0x4))\n      calldataload(0x0)\n      0x100000000000000000000000000000000000000000000000000000000\n      swap1\n      div\n      0xffffffff\n      and\n      dup1\n      0x119f8747\n      eq\n      tag_2\n      jumpi\n      dup1\n      0x12065fe0\n      eq\n      tag_3\n      jumpi\n      dup1\n      0x3197cbb6\n      eq\n      tag_4\n      jumpi\n      dup1\n      0x3c24b7d7\n      eq\n      tag_5\n      jumpi\n      dup1\n      0x43020b1a\n      eq\n      tag_6\n      jumpi\n      dup1\n      0x481c6a75\n      eq\n      tag_7\n      jumpi\n      dup1\n      0x590e1ae3\n      eq\n      tag_8\n      jumpi\n      dup1\n      0x8a9cfd55\n      eq\n      tag_9\n      jumpi\n      dup1\n      0x8d7cdb91\n      eq\n      tag_10\n      jumpi\n      dup1\n      0x9a33e300\n      eq\n      tag_11\n      jumpi\n      dup1\n      0xa5d5c5dc\n      eq\n      tag_12\n      jumpi\n      dup1\n      0xd7d1bbdb\n      eq\n      tag_13\n      jumpi\n    tag_1:\n      0x0\n      dup1\n      revert\n        /* \"src/funding/src/contracts/Funding.sol\":752:940  function support() payable public {\r... */\n    tag_2:\n      tag_14\n      jump(tag_15)\n    tag_14:\n      stop\n        /* \"src/funding/src/contracts/Funding.sol\":1158:1256  function getBalance() public view returns (uint256){\r... */\n    tag_3:\n      callvalue\n        /* \"--CODEGEN--\":8:17   */\n      dup1\n        /* \"--CODEGEN--\":5:7   */\n      iszero\n      tag_16\n      jumpi\n        /* \"--CODEGEN--\":30:31   */\n      0x0\n        /* \"--CODEGEN--\":27:28   */\n      dup1\n        /* \"--CODEGEN--\":20:32   */\n      revert\n        /* \"--CODEGEN--\":5:7   */\n    tag_16:\n        /* \"src/funding/src/contracts/Funding.sol\":1158:1256  function getBalance() public view returns (uint256){\r... */\n      pop\n      tag_17\n      jump(tag_18)\n    tag_17:\n      mload(0x40)\n      dup1\n      dup3\n      dup2\n      mstore\n      0x20\n      add\n      swap2\n      pop\n      pop\n      mload(0x40)\n      dup1\n      swap2\n      sub\n      swap1\n      return\n        /* \"src/funding/src/contracts/Funding.sol\":182:204  uint256 public endTime */\n    tag_4:\n      callvalue\n        /* \"--CODEGEN--\":8:17   */\n      dup1\n        /* \"--CODEGEN--\":5:7   */\n      iszero\n      tag_19\n      jumpi\n        /* \"--CODEGEN--\":30:31   */\n      0x0\n        /* \"--CODEGEN--\":27:28   */\n      dup1\n        /* \"--CODEGEN--\":20:32   */\n      revert\n        /* \"--CODEGEN--\":5:7   */\n    tag_19:\n        /* \"src/funding/src/contracts/Funding.sol\":182:204  uint256 public endTime */\n      pop\n      tag_20\n      jump(tag_21)\n    tag_20:\n      mload(0x40)\n      dup1\n      dup3\n      dup2\n      mstore\n      0x20\n      add\n      swap2\n      pop\n      pop\n      mload(0x40)\n      dup1\n      swap2\n      sub\n      swap1\n      return\n        /* \"src/funding/src/contracts/Funding.sol\":237:264  address[] public supporters */\n    tag_5:\n      callvalue\n        /* \"--CODEGEN--\":8:17   */\n      dup1\n        /* \"--CODEGEN--\":5:7   */\n      iszero\n      tag_22\n      jumpi\n        /* \"--CODEGEN--\":30:31   */\n      0x0\n        /* \"--CODEGEN--\":27:28   */\n      dup1\n        /* \"--CODEGEN--\":20:32   */\n      revert\n        /* \"--CODEGEN--\":5:7   */\n    tag_22:\n        /* \"src/funding/src/contracts/Funding.sol\":237:264  address[] public supporters */\n      pop\n      tag_23\n      0x4\n      dup1\n      calldatasize\n      sub\n      dup2\n      add\n      swap1\n      dup1\n      dup1\n      calldataload\n      swap1\n      0x20\n      add\n      swap1\n      swap3\n      swap2\n      swap1\n      pop\n      pop\n      pop\n      jump(tag_24)\n    tag_23:\n      mload(0x40)\n      dup1\n      dup3\n      0xffffffffffffffffffffffffffffffffffffffff\n      and\n      0xffffffffffffffffffffffffffffffffffffffff\n      and\n      dup2\n      mstore\n      0x20\n      add\n      swap2\n      pop\n      pop\n      mload(0x40)\n      dup1\n      swap2\n      sub\n      swap1\n      return\n        /* \"src/funding/src/contracts/Funding.sol\":1264:1356  function getSupporters() public view returns (address[]){\r... */\n    tag_6:\n      callvalue\n        /* \"--CODEGEN--\":8:17   */\n      dup1\n        /* \"--CODEGEN--\":5:7   */\n      iszero\n      tag_25\n      jumpi\n        /* \"--CODEGEN--\":30:31   */\n      0x0\n        /* \"--CODEGEN--\":27:28   */\n      dup1\n        /* \"--CODEGEN--\":20:32   */\n      revert\n        /* \"--CODEGEN--\":5:7   */\n    tag_25:\n        /* \"src/funding/src/contracts/Funding.sol\":1264:1356  function getSupporters() public view returns (address[]){\r... */\n      pop\n      tag_26\n      jump(tag_27)\n    tag_26:\n      mload(0x40)\n      dup1\n      dup1\n      0x20\n      add\n      dup3\n      dup2\n      sub\n      dup3\n      mstore\n      dup4\n      dup2\n      dup2\n      mload\n      dup2\n      mstore\n      0x20\n      add\n      swap2\n      pop\n      dup1\n      mload\n      swap1\n      0x20\n      add\n      swap1\n      0x20\n      mul\n      dup1\n      dup4\n      dup4\n        /* \"--CODEGEN--\":23:24   */\n      0x0\n        /* \"--CODEGEN--\":8:108   */\n    tag_28:\n        /* \"--CODEGEN--\":33:36   */\n      dup4\n        /* \"--CODEGEN--\":30:31   */\n      dup2\n        /* \"--CODEGEN--\":27:37   */\n      lt\n        /* \"--CODEGEN--\":8:108   */\n      iszero\n      tag_29\n      jumpi\n        /* \"--CODEGEN--\":99:100   */\n      dup1\n        /* \"--CODEGEN--\":94:97   */\n      dup3\n        /* \"--CODEGEN--\":90:101   */\n      add\n        /* \"--CODEGEN--\":84:102   */\n      mload\n        /* \"--CODEGEN--\":80:81   */\n      dup2\n        /* \"--CODEGEN--\":75:78   */\n      dup5\n        /* \"--CODEGEN--\":71:82   */\n      add\n        /* \"--CODEGEN--\":64:103   */\n      mstore\n        /* \"--CODEGEN--\":52:54   */\n      0x20\n        /* \"--CODEGEN--\":49:50   */\n      dup2\n        /* \"--CODEGEN--\":45:55   */\n      add\n        /* \"--CODEGEN--\":40:55   */\n      swap1\n      pop\n        /* \"--CODEGEN--\":8:108   */\n      jump(tag_28)\n    tag_29:\n        /* \"--CODEGEN--\":12:26   */\n      pop\n        /* \"src/funding/src/contracts/Funding.sol\":1264:1356  function getSupporters() public view returns (address[]){\r... */\n      pop\n      pop\n      pop\n      swap1\n      pop\n      add\n      swap3\n      pop\n      pop\n      pop\n      mload(0x40)\n      dup1\n      swap2\n      sub\n      swap1\n      return\n        /* \"src/funding/src/contracts/Funding.sol\":54:76  address public manager */\n    tag_7:\n      callvalue\n        /* \"--CODEGEN--\":8:17   */\n      dup1\n        /* \"--CODEGEN--\":5:7   */\n      iszero\n      tag_31\n      jumpi\n        /* \"--CODEGEN--\":30:31   */\n      0x0\n        /* \"--CODEGEN--\":27:28   */\n      dup1\n        /* \"--CODEGEN--\":20:32   */\n      revert\n        /* \"--CODEGEN--\":5:7   */\n    tag_31:\n        /* \"src/funding/src/contracts/Funding.sol\":54:76  address public manager */\n      pop\n      tag_32\n      jump(tag_33)\n    tag_32:\n      mload(0x40)\n      dup1\n      dup3\n      0xffffffffffffffffffffffffffffffffffffffff\n      and\n      0xffffffffffffffffffffffffffffffffffffffff\n      and\n      dup2\n      mstore\n      0x20\n      add\n      swap2\n      pop\n      pop\n      mload(0x40)\n      dup1\n      swap2\n      sub\n      swap1\n      return\n        /* \"src/funding/src/contracts/Funding.sol\":966:1150  function refund() public {\r... */\n    tag_8:\n      callvalue\n        /* \"--CODEGEN--\":8:17   */\n      dup1\n        /* \"--CODEGEN--\":5:7   */\n      iszero\n      tag_34\n      jumpi\n        /* \"--CODEGEN--\":30:31   */\n      0x0\n        /* \"--CODEGEN--\":27:28   */\n      dup1\n        /* \"--CODEGEN--\":20:32   */\n      revert\n        /* \"--CODEGEN--\":5:7   */\n    tag_34:\n        /* \"src/funding/src/contracts/Funding.sol\":966:1150  function refund() public {\r... */\n      pop\n      tag_35\n      jump(tag_36)\n    tag_35:\n      stop\n        /* \"src/funding/src/contracts/Funding.sol\":1770:2214  function createRequest(string _purpose, uint256 _cost, address _shopAddress) public {\r... */\n    tag_9:\n      callvalue\n        /* \"--CODEGEN--\":8:17   */\n      dup1\n        /* \"--CODEGEN--\":5:7   */\n      iszero\n      tag_37\n      jumpi\n        /* \"--CODEGEN--\":30:31   */\n      0x0\n        /* \"--CODEGEN--\":27:28   */\n      dup1\n        /* \"--CODEGEN--\":20:32   */\n      revert\n        /* \"--CODEGEN--\":5:7   */\n    tag_37:\n        /* \"src/funding/src/contracts/Funding.sol\":1770:2214  function createRequest(string _purpose, uint256 _cost, address _shopAddress) public {\r... */\n      pop\n      tag_38\n      0x4\n      dup1\n      calldatasize\n      sub\n      dup2\n      add\n      swap1\n      dup1\n      dup1\n      calldataload\n      swap1\n      0x20\n      add\n      swap1\n      dup3\n      add\n      dup1\n      calldataload\n      swap1\n      0x20\n      add\n      swap1\n      dup1\n      dup1\n      0x1f\n      add\n      0x20\n      dup1\n      swap2\n      div\n      mul\n      0x20\n      add\n      mload(0x40)\n      swap1\n      dup2\n      add\n      0x40\n      mstore\n      dup1\n      swap4\n      swap3\n      swap2\n      swap1\n      dup2\n      dup2\n      mstore\n      0x20\n      add\n      dup4\n      dup4\n      dup1\n      dup3\n      dup5\n      calldatacopy\n      dup3\n      add\n      swap2\n      pop\n      pop\n      pop\n      pop\n      pop\n      pop\n      swap2\n      swap3\n      swap2\n      swap3\n      swap1\n      dup1\n      calldataload\n      swap1\n      0x20\n      add\n      swap1\n      swap3\n      swap2\n      swap1\n      dup1\n      calldataload\n      0xffffffffffffffffffffffffffffffffffffffff\n      and\n      swap1\n      0x20\n      add\n      swap1\n      swap3\n      swap2\n      swap1\n      pop\n      pop\n      pop\n      jump(tag_39)\n    tag_38:\n      stop\n        /* \"src/funding/src/contracts/Funding.sol\":115:141  uint256 public targetMoney */\n    tag_10:\n      callvalue\n        /* \"--CODEGEN--\":8:17   */\n      dup1\n        /* \"--CODEGEN--\":5:7   */\n      iszero\n      tag_40\n      jumpi\n        /* \"--CODEGEN--\":30:31   */\n      0x0\n        /* \"--CODEGEN--\":27:28   */\n      dup1\n        /* \"--CODEGEN--\":20:32   */\n      revert\n        /* \"--CODEGEN--\":5:7   */\n    tag_40:\n        /* \"src/funding/src/contracts/Funding.sol\":115:141  uint256 public targetMoney */\n      pop\n      tag_41\n      jump(tag_42)\n    tag_41:\n      mload(0x40)\n      dup1\n      dup3\n      dup2\n      mstore\n      0x20\n      add\n      swap2\n      pop\n      pop\n      mload(0x40)\n      dup1\n      swap2\n      sub\n      swap1\n      return\n        /* \"src/funding/src/contracts/Funding.sol\":83:108  string public projectName */\n    tag_11:\n      callvalue\n        /* \"--CODEGEN--\":8:17   */\n      dup1\n        /* \"--CODEGEN--\":5:7   */\n      iszero\n      tag_43\n      jumpi\n        /* \"--CODEGEN--\":30:31   */\n      0x0\n        /* \"--CODEGEN--\":27:28   */\n      dup1\n        /* \"--CODEGEN--\":20:32   */\n      revert\n        /* \"--CODEGEN--\":5:7   */\n    tag_43:\n        /* \"src/funding/src/contracts/Funding.sol\":83:108  string public projectName */\n      pop\n      tag_44\n      jump(tag_45)\n    tag_44:\n      mload(0x40)\n      dup1\n      dup1\n      0x20\n      add\n      dup3\n      dup2\n      sub\n      dup3\n      mstore\n      dup4\n      dup2\n      dup2\n      mload\n      dup2\n      mstore\n      0x20\n      add\n      swap2\n      pop\n      dup1\n      mload\n      swap1\n      0x20\n      add\n      swap1\n      dup1\n      dup4\n      dup4\n        /* \"--CODEGEN--\":23:24   */\n      0x0\n        /* \"--CODEGEN--\":8:108   */\n    tag_46:\n        /* \"--CODEGEN--\":33:36   */\n      dup4\n        /* \"--CODEGEN--\":30:31   */\n      dup2\n        /* \"--CODEGEN--\":27:37   */\n      lt\n        /* \"--CODEGEN--\":8:108   */\n      iszero\n      tag_47\n      jumpi\n        /* \"--CODEGEN--\":99:100   */\n      dup1\n        /* \"--CODEGEN--\":94:97   */\n      dup3\n        /* \"--CODEGEN--\":90:101   */\n      add\n        /* \"--CODEGEN--\":84:102   */\n      mload\n        /* \"--CODEGEN--\":80:81   */\n      dup2\n        /* \"--CODEGEN--\":75:78   */\n      dup5\n        /* \"--CODEGEN--\":71:82   */\n      add\n        /* \"--CODEGEN--\":64:103   */\n      mstore\n        /* \"--CODEGEN--\":52:54   */\n      0x20\n        /* \"--CODEGEN--\":49:50   */\n      dup2\n        /* \"--CODEGEN--\":45:55   */\n      add\n        /* \"--CODEGEN--\":40:55   */\n      swap1\n      pop\n        /* \"--CODEGEN--\":8:108   */\n      jump(tag_46)\n    tag_47:\n        /* \"--CODEGEN--\":12:26   */\n      pop\n        /* \"src/funding/src/contracts/Funding.sol\":83:108  string public projectName */\n      pop\n      pop\n      pop\n      swap1\n      pop\n      swap1\n      dup2\n      add\n      swap1\n      0x1f\n      and\n      dup1\n      iszero\n      tag_49\n      jumpi\n      dup1\n      dup3\n      sub\n      dup1\n      mload\n      0x1\n      dup4\n      0x20\n      sub\n      0x100\n      exp\n      sub\n      not\n      and\n      dup2\n      mstore\n      0x20\n      add\n      swap2\n      pop\n    tag_49:\n      pop\n      swap3\n      pop\n      pop\n      pop\n      mload(0x40)\n      dup1\n      swap2\n      sub\n      swap1\n      return\n        /* \"src/funding/src/contracts/Funding.sol\":148:175  uint256 public supportMoney */\n    tag_12:\n      callvalue\n        /* \"--CODEGEN--\":8:17   */\n      dup1\n        /* \"--CODEGEN--\":5:7   */\n      iszero\n      tag_50\n      jumpi\n        /* \"--CODEGEN--\":30:31   */\n      0x0\n        /* \"--CODEGEN--\":27:28   */\n      dup1\n        /* \"--CODEGEN--\":20:32   */\n      revert\n        /* \"--CODEGEN--\":5:7   */\n    tag_50:\n        /* \"src/funding/src/contracts/Funding.sol\":148:175  uint256 public supportMoney */\n      pop\n      tag_51\n      jump(tag_52)\n    tag_51:\n      mload(0x40)\n      dup1\n      dup3\n      dup2\n      mstore\n      0x20\n      add\n      swap2\n      pop\n      pop\n      mload(0x40)\n      dup1\n      swap2\n      sub\n      swap1\n      return\n        /* \"src/funding/src/contracts/Funding.sol\":2243:2489  function approveRequest(uint256 _requestId){\r... */\n    tag_13:\n      callvalue\n        /* \"--CODEGEN--\":8:17   */\n      dup1\n        /* \"--CODEGEN--\":5:7   */\n      iszero\n      tag_53\n      jumpi\n        /* \"--CODEGEN--\":30:31   */\n      0x0\n        /* \"--CODEGEN--\":27:28   */\n      dup1\n        /* \"--CODEGEN--\":20:32   */\n      revert\n        /* \"--CODEGEN--\":5:7   */\n    tag_53:\n        /* \"src/funding/src/contracts/Funding.sol\":2243:2489  function approveRequest(uint256 _requestId){\r... */\n      pop\n      tag_54\n      0x4\n      dup1\n      calldatasize\n      sub\n      dup2\n      add\n      swap1\n      dup1\n      dup1\n      calldataload\n      swap1\n      0x20\n      add\n      swap1\n      swap3\n      swap2\n      swap1\n      pop\n      pop\n      pop\n      jump(tag_55)\n    tag_54:\n      stop\n        /* \"src/funding/src/contracts/Funding.sol\":752:940  function support() payable public {\r... */\n    tag_15:\n        /* \"src/funding/src/contracts/Funding.sol\":818:830  supportMoney */\n      sload(0x3)\n        /* \"src/funding/src/contracts/Funding.sol\":805:814  msg.value */\n      callvalue\n        /* \"src/funding/src/contracts/Funding.sol\":805:830  msg.value == supportMoney */\n      eq\n        /* \"src/funding/src/contracts/Funding.sol\":797:853  require(msg.value == supportMoney, \"投资金额错误\") */\n      iszero\n      iszero\n      tag_57\n      jumpi\n      mload(0x40)\n      0x8c379a000000000000000000000000000000000000000000000000000000000\n      dup2\n      mstore\n      0x4\n      add\n      dup1\n      dup1\n      0x20\n      add\n      dup3\n      dup2\n      sub\n      dup3\n      mstore\n      0x12\n      dup2\n      mstore\n      0x20\n      add\n      dup1\n      0xe68a95e8b584e98791e9a29de99499e8afaf0000000000000000000000000000\n      dup2\n      mstore\n      pop\n      0x20\n      add\n      swap2\n      pop\n      pop\n      mload(0x40)\n      dup1\n      swap2\n      sub\n      swap1\n      revert\n    tag_57:\n        /* \"src/funding/src/contracts/Funding.sol\":864:874  supporters */\n      0x5\n        /* \"src/funding/src/contracts/Funding.sol\":880:890  msg.sender */\n      caller\n        /* \"src/funding/src/contracts/Funding.sol\":864:891  supporters.push(msg.sender) */\n      swap1\n      dup1\n        /* \"--CODEGEN--\":39:40   */\n      0x1\n        /* \"--CODEGEN--\":33:36   */\n      dup2\n        /* \"--CODEGEN--\":27:37   */\n      sload\n        /* \"--CODEGEN--\":23:41   */\n      add\n        /* \"--CODEGEN--\":57:67   */\n      dup1\n        /* \"--CODEGEN--\":52:55   */\n      dup3\n        /* \"--CODEGEN--\":45:68   */\n      sstore\n        /* \"--CODEGEN--\":79:89   */\n      dup1\n        /* \"--CODEGEN--\":72:89   */\n      swap2\n      pop\n        /* \"--CODEGEN--\":0:93   */\n      pop\n        /* \"src/funding/src/contracts/Funding.sol\":864:891  supporters.push(msg.sender) */\n      swap1\n      0x1\n      dup3\n      sub\n      swap1\n      0x0\n      mstore\n      keccak256(0x0, 0x20)\n      add\n      0x0\n      swap1\n      swap2\n      swap3\n      swap1\n      swap2\n      swap1\n      swap2\n      0x100\n      exp\n      dup2\n      sload\n      dup2\n      0xffffffffffffffffffffffffffffffffffffffff\n      mul\n      not\n      and\n      swap1\n      dup4\n      0xffffffffffffffffffffffffffffffffffffffff\n      and\n      mul\n      or\n      swap1\n      sstore\n      pop\n      pop\n        /* \"src/funding/src/contracts/Funding.sol\":928:932  true */\n      0x1\n        /* \"src/funding/src/contracts/Funding.sol\":902:915  supportersMap */\n      0x6\n        /* \"src/funding/src/contracts/Funding.sol\":902:927  supportersMap[msg.sender] */\n      0x0\n        /* \"src/funding/src/contracts/Funding.sol\":916:926  msg.sender */\n      caller\n        /* \"src/funding/src/contracts/Funding.sol\":902:927  supportersMap[msg.sender] */\n      0xffffffffffffffffffffffffffffffffffffffff\n      and\n      0xffffffffffffffffffffffffffffffffffffffff\n      and\n      dup2\n      mstore\n      0x20\n      add\n      swap1\n      dup2\n      mstore\n      0x20\n      add\n      0x0\n      keccak256\n      0x0\n        /* \"src/funding/src/contracts/Funding.sol\":902:932  supportersMap[msg.sender]=true */\n      0x100\n      exp\n      dup2\n      sload\n      dup2\n      0xff\n      mul\n      not\n      and\n      swap1\n      dup4\n      iszero\n      iszero\n      mul\n      or\n      swap1\n      sstore\n      pop\n        /* \"src/funding/src/contracts/Funding.sol\":752:940  function support() payable public {\r... */\n      jump\t// out\n        /* \"src/funding/src/contracts/Funding.sol\":1158:1256  function getBalance() public view returns (uint256){\r... */\n    tag_18:\n        /* \"src/funding/src/contracts/Funding.sol\":1201:1208  uint256 */\n      0x0\n        /* \"src/funding/src/contracts/Funding.sol\":1235:1239  this */\n      address\n        /* \"src/funding/src/contracts/Funding.sol\":1227:1248  address(this).balance */\n      0xffffffffffffffffffffffffffffffffffffffff\n      and\n      balance\n        /* \"src/funding/src/contracts/Funding.sol\":1220:1248  return address(this).balance */\n      swap1\n      pop\n        /* \"src/funding/src/contracts/Funding.sol\":1158:1256  function getBalance() public view returns (uint256){\r... */\n      swap1\n      jump\t// out\n        /* \"src/funding/src/contracts/Funding.sol\":182:204  uint256 public endTime */\n    tag_21:\n      sload(0x4)\n      dup2\n      jump\t// out\n        /* \"src/funding/src/contracts/Funding.sol\":237:264  address[] public supporters */\n    tag_24:\n      0x5\n      dup2\n      dup2\n      sload\n      dup2\n      lt\n      iszero\n      iszero\n      tag_60\n      jumpi\n      invalid\n    tag_60:\n      swap1\n      0x0\n      mstore\n      keccak256(0x0, 0x20)\n      add\n      0x0\n      swap2\n      pop\n      sload\n      swap1\n      0x100\n      exp\n      swap1\n      div\n      0xffffffffffffffffffffffffffffffffffffffff\n      and\n      dup2\n      jump\t// out\n        /* \"src/funding/src/contracts/Funding.sol\":1264:1356  function getSupporters() public view returns (address[]){\r... */\n    tag_27:\n        /* \"src/funding/src/contracts/Funding.sol\":1310:1319  address[] */\n      0x60\n        /* \"src/funding/src/contracts/Funding.sol\":1338:1348  supporters */\n      0x5\n        /* \"src/funding/src/contracts/Funding.sol\":1331:1348  return supporters */\n      dup1\n      sload\n      dup1\n      0x20\n      mul\n      0x20\n      add\n      mload(0x40)\n      swap1\n      dup2\n      add\n      0x40\n      mstore\n      dup1\n      swap3\n      swap2\n      swap1\n      dup2\n      dup2\n      mstore\n      0x20\n      add\n      dup3\n      dup1\n      sload\n      dup1\n      iszero\n      tag_63\n      jumpi\n      0x20\n      mul\n      dup3\n      add\n      swap2\n      swap1\n      0x0\n      mstore\n      keccak256(0x0, 0x20)\n      swap1\n    tag_64:\n      dup2\n      0x0\n      swap1\n      sload\n      swap1\n      0x100\n      exp\n      swap1\n      div\n      0xffffffffffffffffffffffffffffffffffffffff\n      and\n      0xffffffffffffffffffffffffffffffffffffffff\n      and\n      dup2\n      mstore\n      0x20\n      add\n      swap1\n      0x1\n      add\n      swap1\n      dup1\n      dup4\n      gt\n      tag_64\n      jumpi\n    tag_63:\n      pop\n      pop\n      pop\n      pop\n      pop\n      swap1\n      pop\n        /* \"src/funding/src/contracts/Funding.sol\":1264:1356  function getSupporters() public view returns (address[]){\r... */\n      swap1\n      jump\t// out\n        /* \"src/funding/src/contracts/Funding.sol\":54:76  address public manager */\n    tag_33:\n      0x0\n      dup1\n      swap1\n      sload\n      swap1\n      0x100\n      exp\n      swap1\n      div\n      0xffffffffffffffffffffffffffffffffffffffff\n      and\n      dup2\n      jump\t// out\n        /* \"src/funding/src/contracts/Funding.sol\":966:1150  function refund() public {\r... */\n    tag_36:\n        /* \"src/funding/src/contracts/Funding.sol\":1007:1016  uint256 i */\n      0x0\n        /* \"src/funding/src/contracts/Funding.sol\":1019:1020  0 */\n      dup1\n        /* \"src/funding/src/contracts/Funding.sol\":1007:1020  uint256 i = 0 */\n      swap1\n      pop\n        /* \"src/funding/src/contracts/Funding.sol\":1002:1113  for (uint256 i = 0; i < supporters.length; i++) {\r... */\n    tag_66:\n        /* \"src/funding/src/contracts/Funding.sol\":1026:1036  supporters */\n      0x5\n        /* \"src/funding/src/contracts/Funding.sol\":1026:1043  supporters.length */\n      dup1\n      sload\n      swap1\n      pop\n        /* \"src/funding/src/contracts/Funding.sol\":1022:1023  i */\n      dup2\n        /* \"src/funding/src/contracts/Funding.sol\":1022:1043  i < supporters.length */\n      lt\n        /* \"src/funding/src/contracts/Funding.sol\":1002:1113  for (uint256 i = 0; i < supporters.length; i++) {\r... */\n      iszero\n      tag_67\n      jumpi\n        /* \"src/funding/src/contracts/Funding.sol\":1065:1075  supporters */\n      0x5\n        /* \"src/funding/src/contracts/Funding.sol\":1076:1077  i */\n      dup2\n        /* \"src/funding/src/contracts/Funding.sol\":1065:1078  supporters[i] */\n      dup2\n      sload\n      dup2\n      lt\n      iszero\n      iszero\n      tag_69\n      jumpi\n      invalid\n    tag_69:\n      swap1\n      0x0\n      mstore\n      keccak256(0x0, 0x20)\n      add\n      0x0\n      swap1\n      sload\n      swap1\n      0x100\n      exp\n      swap1\n      div\n      0xffffffffffffffffffffffffffffffffffffffff\n      and\n        /* \"src/funding/src/contracts/Funding.sol\":1065:1087  supporters[i].transfer */\n      0xffffffffffffffffffffffffffffffffffffffff\n      and\n        /* \"src/funding/src/contracts/Funding.sol\":1065:1101  supporters[i].transfer(supportMoney) */\n      0x8fc\n        /* \"src/funding/src/contracts/Funding.sol\":1088:1100  supportMoney */\n      sload(0x3)\n        /* \"src/funding/src/contracts/Funding.sol\":1065:1101  supporters[i].transfer(supportMoney) */\n      swap1\n      dup2\n      iszero\n      mul\n      swap1\n      mload(0x40)\n      0x0\n      mload(0x40)\n      dup1\n      dup4\n      sub\n      dup2\n      dup6\n      dup9\n      dup9\n      call\n      swap4\n      pop\n      pop\n      pop\n      pop\n      iszero\n        /* \"--CODEGEN--\":8:17   */\n      dup1\n        /* \"--CODEGEN--\":5:7   */\n      iszero\n      tag_71\n      jumpi\n        /* \"--CODEGEN--\":45:61   */\n      returndatasize\n        /* \"--CODEGEN--\":42:43   */\n      0x0\n        /* \"--CODEGEN--\":39:40   */\n      dup1\n        /* \"--CODEGEN--\":24:62   */\n      returndatacopy\n        /* \"--CODEGEN--\":77:93   */\n      returndatasize\n        /* \"--CODEGEN--\":74:75   */\n      0x0\n        /* \"--CODEGEN--\":67:94   */\n      revert\n        /* \"--CODEGEN--\":5:7   */\n    tag_71:\n        /* \"src/funding/src/contracts/Funding.sol\":1065:1101  supporters[i].transfer(supportMoney) */\n      pop\n        /* \"src/funding/src/contracts/Funding.sol\":1045:1048  i++ */\n      dup1\n      dup1\n      0x1\n      add\n      swap2\n      pop\n      pop\n        /* \"src/funding/src/contracts/Funding.sol\":1002:1113  for (uint256 i = 0; i < supporters.length; i++) {\r... */\n      jump(tag_66)\n    tag_67:\n        /* \"src/funding/src/contracts/Funding.sol\":1131:1141  supporters */\n      0x5\n      0x0\n        /* \"src/funding/src/contracts/Funding.sol\":1123:1142  delete (supporters) */\n      tag_72\n      swap2\n      swap1\n      jump\t// in(tag_73)\n    tag_72:\n        /* \"src/funding/src/contracts/Funding.sol\":966:1150  function refund() public {\r... */\n      pop\n      jump\t// out\n        /* \"src/funding/src/contracts/Funding.sol\":1770:2214  function createRequest(string _purpose, uint256 _cost, address _shopAddress) public {\r... */\n    tag_39:\n        /* \"src/funding/src/contracts/Funding.sol\":1955:1977  Request memory request */\n      tag_74\n      jump\t// in(tag_75)\n    tag_74:\n        /* \"src/funding/src/contracts/Funding.sol\":1887:1894  manager */\n      0x0\n      dup1\n      swap1\n      sload\n      swap1\n      0x100\n      exp\n      swap1\n      div\n      0xffffffffffffffffffffffffffffffffffffffff\n      and\n        /* \"src/funding/src/contracts/Funding.sol\":1873:1894  msg.sender == manager */\n      0xffffffffffffffffffffffffffffffffffffffff\n      and\n        /* \"src/funding/src/contracts/Funding.sol\":1873:1883  msg.sender */\n      caller\n        /* \"src/funding/src/contracts/Funding.sol\":1873:1894  msg.sender == manager */\n      0xffffffffffffffffffffffffffffffffffffffff\n      and\n      eq\n        /* \"src/funding/src/contracts/Funding.sol\":1865:1944  require(msg.sender == manager, \"只有项目发起人可以发起支付请求\") */\n      iszero\n      iszero\n      tag_77\n      jumpi\n      mload(0x40)\n      0x8c379a000000000000000000000000000000000000000000000000000000000\n      dup2\n      mstore\n      0x4\n      add\n      dup1\n      dup1\n      0x20\n      add\n      dup3\n      dup2\n      sub\n      dup3\n      mstore\n      0x2d\n      dup2\n      mstore\n      0x20\n      add\n      dup1\n      0xe58faae69c89e9a1b9e79baee58f91e8b5b7e4babae58fafe4bba5e58f91e8b5\n      dup2\n      mstore\n      0x20\n      add\n      0xb7e694afe4bb98e8afb7e6b18200000000000000000000000000000000000000\n      dup2\n      mstore\n      pop\n      0x40\n      add\n      swap2\n      pop\n      pop\n      mload(0x40)\n      dup1\n      swap2\n      sub\n      swap1\n      revert\n    tag_77:\n        /* \"src/funding/src/contracts/Funding.sol\":1980:2163  Request({\r... */\n      0xa0\n      mload(0x40)\n      swap1\n      dup2\n      add\n      0x40\n      mstore\n      dup1\n        /* \"src/funding/src/contracts/Funding.sol\":2011:2019  _purpose */\n      dup6\n        /* \"src/funding/src/contracts/Funding.sol\":1980:2163  Request({\r... */\n      dup2\n      mstore\n      0x20\n      add\n        /* \"src/funding/src/contracts/Funding.sol\":2039:2044  _cost */\n      dup5\n        /* \"src/funding/src/contracts/Funding.sol\":1980:2163  Request({\r... */\n      dup2\n      mstore\n      0x20\n      add\n        /* \"src/funding/src/contracts/Funding.sol\":2071:2083  _shopAddress */\n      dup4\n        /* \"src/funding/src/contracts/Funding.sol\":1980:2163  Request({\r... */\n      0xffffffffffffffffffffffffffffffffffffffff\n      and\n      dup2\n      mstore\n      0x20\n      add\n        /* \"src/funding/src/contracts/Funding.sol\":2108:2109  0 */\n      0x0\n        /* \"src/funding/src/contracts/Funding.sol\":1980:2163  Request({\r... */\n      dup2\n      mstore\n      0x20\n      add\n        /* \"src/funding/src/contracts/Funding.sol\":2131:2151  RequestStatus.Voting */\n      0x0\n        /* \"src/funding/src/contracts/Funding.sol\":1980:2163  Request({\r... */\n      0x3\n      dup2\n      gt\n      iszero\n      tag_78\n      jumpi\n      invalid\n    tag_78:\n      dup2\n      mstore\n      pop\n        /* \"src/funding/src/contracts/Funding.sol\":1955:2163  Request memory request = Request({\r... */\n      swap1\n      pop\n        /* \"src/funding/src/contracts/Funding.sol\":2184:2192  requests */\n      0x7\n        /* \"src/funding/src/contracts/Funding.sol\":2198:2205  request */\n      dup2\n        /* \"src/funding/src/contracts/Funding.sol\":2184:2206  requests.push(request) */\n      swap1\n      dup1\n        /* \"--CODEGEN--\":39:40   */\n      0x1\n        /* \"--CODEGEN--\":33:36   */\n      dup2\n        /* \"--CODEGEN--\":27:37   */\n      sload\n        /* \"--CODEGEN--\":23:41   */\n      add\n        /* \"--CODEGEN--\":57:67   */\n      dup1\n        /* \"--CODEGEN--\":52:55   */\n      dup3\n        /* \"--CODEGEN--\":45:68   */\n      sstore\n        /* \"--CODEGEN--\":79:89   */\n      dup1\n        /* \"--CODEGEN--\":72:89   */\n      swap2\n      pop\n        /* \"--CODEGEN--\":0:93   */\n      pop\n        /* \"src/funding/src/contracts/Funding.sol\":2184:2206  requests.push(request) */\n      swap1\n      0x1\n      dup3\n      sub\n      swap1\n      0x0\n      mstore\n      keccak256(0x0, 0x20)\n      swap1\n      0x6\n      mul\n      add\n      0x0\n      swap1\n      swap2\n      swap3\n      swap1\n      swap2\n      swap1\n      swap2\n      pop\n      0x0\n      dup3\n      add\n      mload\n      dup2\n      0x0\n      add\n      swap1\n      dup1\n      mload\n      swap1\n      0x20\n      add\n      swap1\n      tag_80\n      swap3\n      swap2\n      swap1\n      jump\t// in(tag_81)\n    tag_80:\n      pop\n      0x20\n      dup3\n      add\n      mload\n      dup2\n      0x1\n      add\n      sstore\n      0x40\n      dup3\n      add\n      mload\n      dup2\n      0x2\n      add\n      exp(0x100, 0x0)\n      dup2\n      sload\n      dup2\n      0xffffffffffffffffffffffffffffffffffffffff\n      mul\n      not\n      and\n      swap1\n      dup4\n      0xffffffffffffffffffffffffffffffffffffffff\n      and\n      mul\n      or\n      swap1\n      sstore\n      pop\n      0x60\n      dup3\n      add\n      mload\n      dup2\n      0x3\n      add\n      sstore\n      0x80\n      dup3\n      add\n      mload\n      dup2\n      0x5\n      add\n      exp(0x100, 0x0)\n      dup2\n      sload\n      dup2\n      0xff\n      mul\n      not\n      and\n      swap1\n      dup4\n      0x3\n      dup2\n      gt\n      iszero\n      tag_82\n      jumpi\n      invalid\n    tag_82:\n      mul\n      or\n      swap1\n      sstore\n      pop\n      pop\n      pop\n      pop\n        /* \"src/funding/src/contracts/Funding.sol\":1770:2214  function createRequest(string _purpose, uint256 _cost, address _shopAddress) public {\r... */\n      pop\n      pop\n      pop\n      pop\n      jump\t// out\n        /* \"src/funding/src/contracts/Funding.sol\":115:141  uint256 public targetMoney */\n    tag_42:\n      sload(0x2)\n      dup2\n      jump\t// out\n        /* \"src/funding/src/contracts/Funding.sol\":83:108  string public projectName */\n    tag_45:\n      0x1\n      dup1\n      sload\n      0x1\n      dup2\n      0x1\n      and\n      iszero\n      0x100\n      mul\n      sub\n      and\n      0x2\n      swap1\n      div\n      dup1\n      0x1f\n      add\n      0x20\n      dup1\n      swap2\n      div\n      mul\n      0x20\n      add\n      mload(0x40)\n      swap1\n      dup2\n      add\n      0x40\n      mstore\n      dup1\n      swap3\n      swap2\n      swap1\n      dup2\n      dup2\n      mstore\n      0x20\n      add\n      dup3\n      dup1\n      sload\n      0x1\n      dup2\n      0x1\n      and\n      iszero\n      0x100\n      mul\n      sub\n      and\n      0x2\n      swap1\n      div\n      dup1\n      iszero\n      tag_83\n      jumpi\n      dup1\n      0x1f\n      lt\n      tag_84\n      jumpi\n      0x100\n      dup1\n      dup4\n      sload\n      div\n      mul\n      dup4\n      mstore\n      swap2\n      0x20\n      add\n      swap2\n      jump(tag_83)\n    tag_84:\n      dup3\n      add\n      swap2\n      swap1\n      0x0\n      mstore\n      keccak256(0x0, 0x20)\n      swap1\n    tag_85:\n      dup2\n      sload\n      dup2\n      mstore\n      swap1\n      0x1\n      add\n      swap1\n      0x20\n      add\n      dup1\n      dup4\n      gt\n      tag_85\n      jumpi\n      dup3\n      swap1\n      sub\n      0x1f\n      and\n      dup3\n      add\n      swap2\n    tag_83:\n      pop\n      pop\n      pop\n      pop\n      pop\n      dup2\n      jump\t// out\n        /* \"src/funding/src/contracts/Funding.sol\":148:175  uint256 public supportMoney */\n    tag_52:\n      sload(0x3)\n      dup2\n      jump\t// out\n        /* \"src/funding/src/contracts/Funding.sol\":2243:2489  function approveRequest(uint256 _requestId){\r... */\n    tag_55:\n        /* \"src/funding/src/contracts/Funding.sol\":2337:2352  Request request */\n      0x0\n        /* \"src/funding/src/contracts/Funding.sol\":2354:2362  requests */\n      0x7\n        /* \"src/funding/src/contracts/Funding.sol\":2363:2373  _requestId */\n      dup3\n        /* \"src/funding/src/contracts/Funding.sol\":2354:2374  requests[_requestId] */\n      dup2\n      sload\n      dup2\n      lt\n      iszero\n      iszero\n      tag_87\n      jumpi\n      invalid\n    tag_87:\n      swap1\n      0x0\n      mstore\n      keccak256(0x0, 0x20)\n      swap1\n      0x6\n      mul\n      add\n        /* \"src/funding/src/contracts/Funding.sol\":2337:2374  Request request= requests[_requestId] */\n      swap1\n      pop\n        /* \"src/funding/src/contracts/Funding.sol\":2430:2443  supportersMap */\n      0x6\n        /* \"src/funding/src/contracts/Funding.sol\":2430:2455  supportersMap[msg.sender] */\n      0x0\n        /* \"src/funding/src/contracts/Funding.sol\":2444:2454  msg.sender */\n      caller\n        /* \"src/funding/src/contracts/Funding.sol\":2430:2455  supportersMap[msg.sender] */\n      0xffffffffffffffffffffffffffffffffffffffff\n      and\n      0xffffffffffffffffffffffffffffffffffffffff\n      and\n      dup2\n      mstore\n      0x20\n      add\n      swap1\n      dup2\n      mstore\n      0x20\n      add\n      0x0\n      keccak256\n      0x0\n      swap1\n      sload\n      swap1\n      0x100\n      exp\n      swap1\n      div\n      0xff\n      and\n        /* \"src/funding/src/contracts/Funding.sol\":2422:2477  require(supportersMap[msg.sender],\"只有投资人有\") */\n      iszero\n      iszero\n      tag_89\n      jumpi\n      mload(0x40)\n      0x8c379a000000000000000000000000000000000000000000000000000000000\n      dup2\n      mstore\n      0x4\n      add\n      dup1\n      dup1\n      0x20\n      add\n      dup3\n      dup2\n      sub\n      dup3\n      mstore\n      0x12\n      dup2\n      mstore\n      0x20\n      add\n      dup1\n      0xe58faae69c89e68a95e8b584e4babae69c890000000000000000000000000000\n      dup2\n      mstore\n      pop\n      0x20\n      add\n      swap2\n      pop\n      pop\n      mload(0x40)\n      dup1\n      swap2\n      sub\n      swap1\n      revert\n    tag_89:\n        /* \"src/funding/src/contracts/Funding.sol\":2243:2489  function approveRequest(uint256 _requestId){\r... */\n      pop\n      pop\n      jump\t// out\n        /* \"src/funding/src/contracts/Funding.sol\":28:2496  contract Funding {\r... */\n    tag_73:\n      pop\n      dup1\n      sload\n      0x0\n      dup3\n      sstore\n      swap1\n      0x0\n      mstore\n      keccak256(0x0, 0x20)\n      swap1\n      dup2\n      add\n      swap1\n      tag_91\n      swap2\n      swap1\n      jump\t// in(tag_92)\n    tag_91:\n      pop\n      jump\t// out\n    tag_75:\n      0xa0\n      mload(0x40)\n      swap1\n      dup2\n      add\n      0x40\n      mstore\n      dup1\n      0x60\n      dup2\n      mstore\n      0x20\n      add\n      0x0\n      dup2\n      mstore\n      0x20\n      add\n      and(0xffffffffffffffffffffffffffffffffffffffff, 0x0)\n      dup2\n      mstore\n      0x20\n      add\n      0x0\n      dup2\n      mstore\n      0x20\n      add\n      0x0\n      0x3\n      dup2\n      gt\n      iszero\n      tag_93\n      jumpi\n      invalid\n    tag_93:\n      dup2\n      mstore\n      pop\n      swap1\n      jump\t// out\n    tag_81:\n      dup3\n      dup1\n      sload\n      0x1\n      dup2\n      0x1\n      and\n      iszero\n      0x100\n      mul\n      sub\n      and\n      0x2\n      swap1\n      div\n      swap1\n      0x0\n      mstore\n      keccak256(0x0, 0x20)\n      swap1\n      0x1f\n      add\n      0x20\n      swap1\n      div\n      dup2\n      add\n      swap3\n      dup3\n      0x1f\n      lt\n      tag_95\n      jumpi\n      dup1\n      mload\n      not(0xff)\n      and\n      dup4\n      dup1\n      add\n      or\n      dup6\n      sstore\n      jump(tag_94)\n    tag_95:\n      dup3\n      dup1\n      add\n      0x1\n      add\n      dup6\n      sstore\n      dup3\n      iszero\n      tag_94\n      jumpi\n      swap2\n      dup3\n      add\n    tag_96:\n      dup3\n      dup2\n      gt\n      iszero\n      tag_97\n      jumpi\n      dup3\n      mload\n      dup3\n      sstore\n      swap2\n      0x20\n      add\n      swap2\n      swap1\n      0x1\n      add\n      swap1\n      jump(tag_96)\n    tag_97:\n    tag_94:\n      pop\n      swap1\n      pop\n      tag_98\n      swap2\n      swap1\n      jump\t// in(tag_92)\n    tag_98:\n      pop\n      swap1\n      jump\t// out\n    tag_92:\n      tag_99\n      swap2\n      swap1\n    tag_100:\n      dup1\n      dup3\n      gt\n      iszero\n      tag_101\n      jumpi\n      0x0\n      dup2\n      0x0\n      swap1\n      sstore\n      pop\n      0x1\n      add\n      jump(tag_100)\n    tag_101:\n      pop\n      swap1\n      jump\n    tag_99:\n      swap1\n      jump\t// out\n\n    auxdata: 0xa165627a7a72305820baa4201c8142969cc0ab2288c9445addb5d4e40579237df8b7f4ecd58142d8b50029\n}\n",
				"bytecode": {
					"linkReferences": {},
					"object": "608060405234801561001057600080fd5b50604051610d77380380610d7783398101806040528101908080518201929190602001805190602001909291908051906020019092919080519060200190929190505050336000806101000a81548173ffffffffffffffffffffffffffffffffffffffff021916908373ffffffffffffffffffffffffffffffffffffffff16021790555083600190805190602001906100aa9291906100cb565b50826002819055508160038190555080420160048190555050505050610170565b828054600181600116156101000203166002900490600052602060002090601f016020900481019282601f1061010c57805160ff191683800117855561013a565b8280016001018555821561013a579182015b8281111561013957825182559160200191906001019061011e565b5b509050610147919061014b565b5090565b61016d91905b80821115610169576000816000905550600101610151565b5090565b90565b610bf88061017f6000396000f3006080604052600436106100ba576000357c0100000000000000000000000000000000000000000000000000000000900463ffffffff168063119f8747146100bf57806312065fe0146100c95780633197cbb6146100f45780633c24b7d71461011f57806343020b1a1461018c578063481c6a75146101f8578063590e1ae31461024f5780638a9cfd55146102665780638d7cdb91146102f95780639a33e30014610324578063a5d5c5dc146103b4578063d7d1bbdb146103df575b600080fd5b6100c761040c565b005b3480156100d557600080fd5b506100de610545565b6040518082815260200191505060405180910390f35b34801561010057600080fd5b50610109610564565b6040518082815260200191505060405180910390f35b34801561012b57600080fd5b5061014a6004803603810190808035906020019092919050505061056a565b604051808273ffffffffffffffffffffffffffffffffffffffff1673ffffffffffffffffffffffffffffffffffffffff16815260200191505060405180910390f35b34801561019857600080fd5b506101a16105a8565b6040518080602001828103825283818151815260200191508051906020019060200280838360005b838110156101e45780820151818401526020810190506101c9565b505050509050019250505060405180910390f35b34801561020457600080fd5b5061020d610636565b604051808273ffffffffffffffffffffffffffffffffffffffff1673ffffffffffffffffffffffffffffffffffffffff16815260200191505060405180910390f35b34801561025b57600080fd5b5061026461065b565b005b34801561027257600080fd5b506102f7600480360381019080803590602001908201803590602001908080601f016020809104026020016040519081016040528093929190818152602001838380828437820191505050505050919291929080359060200190929190803573ffffffffffffffffffffffffffffffffffffffff16906020019092919050505061070e565b005b34801561030557600080fd5b5061030e610925565b6040518082815260200191505060405180910390f35b34801561033057600080fd5b5061033961092b565b6040518080602001828103825283818151815260200191508051906020019080838360005b8381101561037957808201518184015260208101905061035e565b50505050905090810190601f1680156103a65780820380516001836020036101000a031916815260200191505b509250505060405180910390f35b3480156103c057600080fd5b506103c96109c9565b6040518082815260200191505060405180910390f35b3480156103eb57600080fd5b5061040a600480360381019080803590602001909291905050506109cf565b005b60035434141515610485576040517f08c379a00000000000000000000000000000000000000000000000000000000081526004018080602001828103825260128152602001807fe68a95e8b584e98791e9a29de99499e8afaf000000000000000000000000000081525060200191505060405180910390fd5b60053390806001815401808255809150509060018203906000526020600020016000909192909190916101000a81548173ffffffffffffffffffffffffffffffffffffffff021916908373ffffffffffffffffffffffffffffffffffffffff160217905550506001600660003373ffffffffffffffffffffffffffffffffffffffff1673ffffffffffffffffffffffffffffffffffffffff16815260200190815260200160002060006101000a81548160ff021916908315150217905550565b60003073ffffffffffffffffffffffffffffffffffffffff1631905090565b60045481565b60058181548110151561057957fe5b906000526020600020016000915054906101000a900473ffffffffffffffffffffffffffffffffffffffff1681565b6060600580548060200260200160405190810160405280929190818152602001828054801561062c57602002820191906000526020600020905b8160009054906101000a900473ffffffffffffffffffffffffffffffffffffffff1673ffffffffffffffffffffffffffffffffffffffff16815260200190600101908083116105e2575b5050505050905090565b6000809054906101000a900473ffffffffffffffffffffffffffffffffffffffff1681565b60008090505b6005805490508110156106fd5760058181548110151561067d57fe5b9060005260206000200160009054906101000a900473ffffffffffffffffffffffffffffffffffffffff1673ffffffffffffffffffffffffffffffffffffffff166108fc6003549081150290604051600060405180830381858888f193505050501580156106ef573d6000803e3d6000fd5b508080600101915050610661565b6005600061070b9190610ab5565b50565b610716610ad6565b6000809054906101000a900473ffffffffffffffffffffffffffffffffffffffff1673ffffffffffffffffffffffffffffffffffffffff163373ffffffffffffffffffffffffffffffffffffffff16141515610800576040517f08c379a000000000000000000000000000000000000000000000000000000000815260040180806020018281038252602d8152602001807fe58faae69c89e9a1b9e79baee58f91e8b5b7e4babae58fafe4bba5e58f91e8b581526020017fb7e694afe4bb98e8afb7e6b1820000000000000000000000000000000000000081525060400191505060405180910390fd5b60a0604051908101604052808581526020018481526020018373ffffffffffffffffffffffffffffffffffffffff168152602001600081526020016000600381111561084857fe5b8152509050600781908060018154018082558091505090600182039060005260206000209060060201600090919290919091506000820151816000019080519060200190610897929190610b27565b506020820151816001015560408201518160020160006101000a81548173ffffffffffffffffffffffffffffffffffffffff021916908373ffffffffffffffffffffffffffffffffffffffff1602179055506060820151816003015560808201518160050160006101000a81548160ff0219169083600381111561091757fe5b021790555050505050505050565b60025481565b60018054600181600116156101000203166002900480601f0160208091040260200160405190810160405280929190818152602001828054600181600116156101000203166002900480156109c15780601f10610996576101008083540402835291602001916109c1565b820191906000526020600020905b8154815290600101906020018083116109a457829003601f168201915b505050505081565b60035481565b60006007828154811015156109e057fe5b90600052602060002090600602019050600660003373ffffffffffffffffffffffffffffffffffffffff1673ffffffffffffffffffffffffffffffffffffffff16815260200190815260200160002060009054906101000a900460ff161515610ab1576040517f08c379a00000000000000000000000000000000000000000000000000000000081526004018080602001828103825260128152602001807fe58faae69c89e68a95e8b584e4babae69c89000000000000000000000000000081525060200191505060405180910390fd5b5050565b5080546000825590600052602060002090810190610ad39190610ba7565b50565b60a0604051908101604052806060815260200160008152602001600073ffffffffffffffffffffffffffffffffffffffff1681526020016000815260200160006003811115610b2157fe5b81525090565b828054600181600116156101000203166002900490600052602060002090601f016020900481019282601f10610b6857805160ff1916838001178555610b96565b82800160010185558215610b96579182015b82811115610b95578251825591602001919060010190610b7a565b5b509050610ba39190610ba7565b5090565b610bc991905b80821115610bc5576000816000905550600101610bad565b5090565b905600a165627a7a72305820baa4201c8142969cc0ab2288c9445addb5d4e40579237df8b7f4ecd58142d8b50029",
					"opcodes": "PUSH1 0x80 PUSH1 0x40 MSTORE CALLVALUE DUP1 ISZERO PUSH2 0x10 JUMPI PUSH1 0x0 DUP1 REVERT JUMPDEST POP PUSH1 0x40 MLOAD PUSH2 0xD77 CODESIZE SUB DUP1 PUSH2 0xD77 DUP4 CODECOPY DUP2 ADD DUP1 PUSH1 0x40 MSTORE DUP2 ADD SWAP1 DUP1 DUP1 MLOAD DUP3 ADD SWAP3 SWAP2 SWAP1 PUSH1 0x20 ADD DUP1 MLOAD SWAP1 PUSH1 0x20 ADD SWAP1 SWAP3 SWAP2 SWAP1 DUP1 MLOAD SWAP1 PUSH1 0x20 ADD SWAP1 SWAP3 SWAP2 SWAP1 DUP1 MLOAD SWAP1 PUSH1 0x20 ADD SWAP1 SWAP3 SWAP2 SWAP1 POP POP POP CALLER PUSH1 0x0 DUP1 PUSH2 0x100 EXP DUP2 SLOAD DUP2 PUSH20 0xFFFFFFFFFFFFFFFFFFFFFFFFFFFFFFFFFFFFFFFF MUL NOT AND SWAP1 DUP4 PUSH20 0xFFFFFFFFFFFFFFFFFFFFFFFFFFFFFFFFFFFFFFFF AND MUL OR SWAP1 SSTORE POP DUP4 PUSH1 0x1 SWAP1 DUP1 MLOAD SWAP1 PUSH1 0x20 ADD SWAP1 PUSH2 0xAA SWAP3 SWAP2 SWAP1 PUSH2 0xCB JUMP JUMPDEST POP DUP3 PUSH1 0x2 DUP2 SWAP1 SSTORE POP DUP2 PUSH1 0x3 DUP2 SWAP1 SSTORE POP DUP1 TIMESTAMP ADD PUSH1 0x4 DUP2 SWAP1 SSTORE POP POP POP POP POP PUSH2 0x170 JUMP JUMPDEST DUP3 DUP1 SLOAD PUSH1 0x1 DUP2 PUSH1 0x1 AND ISZERO PUSH2 0x100 MUL SUB AND PUSH1 0x2 SWAP1 DIV SWAP1 PUSH1 0x0 MSTORE PUSH1 0x20 PUSH1 0x0 KECCAK256 SWAP1 PUSH1 0x1F ADD PUSH1 0x20 SWAP1 DIV DUP2 ADD SWAP3 DUP3 PUSH1 0x1F LT PUSH2 0x10C JUMPI DUP1 MLOAD PUSH1 0xFF NOT AND DUP4 DUP1 ADD OR DUP6 SSTORE PUSH2 0x13A JUMP JUMPDEST DUP3 DUP1 ADD PUSH1 0x1 ADD DUP6 SSTORE DUP3 ISZERO PUSH2 0x13A JUMPI SWAP2 DUP3 ADD JUMPDEST DUP3 DUP2 GT ISZERO PUSH2 0x139 JUMPI DUP3 MLOAD DUP3 SSTORE SWAP2 PUSH1 0x20 ADD SWAP2 SWAP1 PUSH1 0x1 ADD SWAP1 PUSH2 0x11E JUMP JUMPDEST JUMPDEST POP SWAP1 POP PUSH2 0x147 SWAP2 SWAP1 PUSH2 0x14B JUMP JUMPDEST POP SWAP1 JUMP JUMPDEST PUSH2 0x16D SWAP2 SWAP1 JUMPDEST DUP1 DUP3 GT ISZERO PUSH2 0x169 JUMPI PUSH1 0x0 DUP2 PUSH1 0x0 SWAP1 SSTORE POP PUSH1 0x1 ADD PUSH2 0x151 JUMP JUMPDEST POP SWAP1 JUMP JUMPDEST SWAP1 JUMP JUMPDEST PUSH2 0xBF8 DUP1 PUSH2 0x17F PUSH1 0x0 CODECOPY PUSH1 0x0 RETURN STOP PUSH1 0x80 PUSH1 0x40 MSTORE PUSH1 0x4 CALLDATASIZE LT PUSH2 0xBA JUMPI PUSH1 0x0 CALLDATALOAD PUSH29 0x100000000000000000000000000000000000000000000000000000000 SWAP1 DIV PUSH4 0xFFFFFFFF AND DUP1 PUSH4 0x119F8747 EQ PUSH2 0xBF JUMPI DUP1 PUSH4 0x12065FE0 EQ PUSH2 0xC9 JUMPI DUP1 PUSH4 0x3197CBB6 EQ PUSH2 0xF4 JUMPI DUP1 PUSH4 0x3C24B7D7 EQ PUSH2 0x11F JUMPI DUP1 PUSH4 0x43020B1A EQ PUSH2 0x18C JUMPI DUP1 PUSH4 0x481C6A75 EQ PUSH2 0x1F8 JUMPI DUP1 PUSH4 0x590E1AE3 EQ PUSH2 0x24F JUMPI DUP1 PUSH4 0x8A9CFD55 EQ PUSH2 0x266 JUMPI DUP1 PUSH4 0x8D7CDB91 EQ PUSH2 0x2F9 JUMPI DUP1 PUSH4 0x9A33E300 EQ PUSH2 0x324 JUMPI DUP1 PUSH4 0xA5D5C5DC EQ PUSH2 0x3B4 JUMPI DUP1 PUSH4 0xD7D1BBDB EQ PUSH2 0x3DF JUMPI JUMPDEST PUSH1 0x0 DUP1 REVERT JUMPDEST PUSH2 0xC7 PUSH2 0x40C JUMP JUMPDEST STOP JUMPDEST CALLVALUE DUP1 ISZERO PUSH2 0xD5 JUMPI PUSH1 0x0 DUP1 REVERT JUMPDEST POP PUSH2 0xDE PUSH2 0x545 JUMP JUMPDEST PUSH1 0x40 MLOAD DUP1 DUP3 DUP2 MSTORE PUSH1 0x20 ADD SWAP2 POP POP PUSH1 0x40 MLOAD DUP1 SWAP2 SUB SWAP1 RETURN JUMPDEST CALLVALUE DUP1 ISZERO PUSH2 0x100 JUMPI PUSH1 0x0 DUP1 REVERT JUMPDEST POP PUSH2 0x109 PUSH2 0x564 JUMP JUMPDEST PUSH1 0x40 MLOAD DUP1 DUP3 DUP2 MSTORE PUSH1 0x20 ADD SWAP2 POP POP PUSH1 0x40 MLOAD DUP1 SWAP2 SUB SWAP1 RETURN JUMPDEST CALLVALUE DUP1 ISZERO PUSH2 0x12B JUMPI PUSH1 0x0 DUP1 REVERT JUMPDEST POP PUSH2 0x14A PUSH1 0x4 DUP1 CALLDATASIZE SUB DUP2 ADD SWAP1 DUP1 DUP1 CALLDATALOAD SWAP1 PUSH1 0x20 ADD SWAP1 SWAP3 SWAP2 SWAP1 POP POP POP PUSH2 0x56A JUMP JUMPDEST PUSH1 0x40 MLOAD DUP1 DUP3 PUSH20 0xFFFFFFFFFFFFFFFFFFFFFFFFFFFFFFFFFFFFFFFF AND PUSH20 0xFFFFFFFFFFFFFFFFFFFFFFFFFFFFFFFFFFFFFFFF AND DUP2 MSTORE PUSH1 0x20 ADD SWAP2 POP POP PUSH1 0x40 MLOAD DUP1 SWAP2 SUB SWAP1 RETURN JUMPDEST CALLVALUE DUP1 ISZERO PUSH2 0x198 JUMPI PUSH1 0x0 DUP1 REVERT JUMPDEST POP PUSH2 0x1A1 PUSH2 0x5A8 JUMP JUMPDEST PUSH1 0x40 MLOAD DUP1 DUP1 PUSH1 0x20 ADD DUP3 DUP2 SUB DUP3 MSTORE DUP4 DUP2 DUP2 MLOAD DUP2 MSTORE PUSH1 0x20 ADD SWAP2 POP DUP1 MLOAD SWAP1 PUSH1 0x20 ADD SWAP1 PUSH1 0x20 MUL DUP1 DUP4 DUP4 PUSH1 0x0 JUMPDEST DUP4 DUP2 LT ISZERO PUSH2 0x1E4 JUMPI DUP1 DUP3 ADD MLOAD DUP2 DUP5 ADD MSTORE PUSH1 0x20 DUP2 ADD SWAP1 POP PUSH2 0x1C9 JUMP JUMPDEST POP POP POP POP SWAP1 POP ADD SWAP3 POP POP POP PUSH1 0x40 MLOAD DUP1 SWAP2 SUB SWAP1 RETURN JUMPDEST CALLVALUE DUP1 ISZERO PUSH2 0x204 JUMPI PUSH1 0x0 DUP1 REVERT JUMPDEST POP PUSH2 0x20D PUSH2 0x636 JUMP JUMPDEST PUSH1 0x40 MLOAD DUP1 DUP3 PUSH20 0xFFFFFFFFFFFFFFFFFFFFFFFFFFFFFFFFFFFFFFFF AND PUSH20 0xFFFFFFFFFFFFFFFFFFFFFFFFFFFFFFFFFFFFFFFF AND DUP2 MSTORE PUSH1 0x20 ADD SWAP2 POP POP PUSH1 0x40 MLOAD DUP1 SWAP2 SUB SWAP1 RETURN JUMPDEST CALLVALUE DUP1 ISZERO PUSH2 0x25B JUMPI PUSH1 0x0 DUP1 REVERT JUMPDEST POP PUSH2 0x264 PUSH2 0x65B JUMP JUMPDEST STOP JUMPDEST CALLVALUE DUP1 ISZERO PUSH2 0x272 JUMPI PUSH1 0x0 DUP1 REVERT JUMPDEST POP PUSH2 0x2F7 PUSH1 0x4 DUP1 CALLDATASIZE SUB DUP2 ADD SWAP1 DUP1 DUP1 CALLDATALOAD SWAP1 PUSH1 0x20 ADD SWAP1 DUP3 ADD DUP1 CALLDATALOAD SWAP1 PUSH1 0x20 ADD SWAP1 DUP1 DUP1 PUSH1 0x1F ADD PUSH1 0x20 DUP1 SWAP2 DIV MUL PUSH1 0x20 ADD PUSH1 0x40 MLOAD SWAP1 DUP2 ADD PUSH1 0x40 MSTORE DUP1 SWAP4 SWAP3 SWAP2 SWAP1 DUP2 DUP2 MSTORE PUSH1 0x20 ADD DUP4 DUP4 DUP1 DUP3 DUP5 CALLDATACOPY DUP3 ADD SWAP2 POP POP POP POP POP POP SWAP2 SWAP3 SWAP2 SWAP3 SWAP1 DUP1 CALLDATALOAD SWAP1 PUSH1 0x20 ADD SWAP1 SWAP3 SWAP2 SWAP1 DUP1 CALLDATALOAD PUSH20 0xFFFFFFFFFFFFFFFFFFFFFFFFFFFFFFFFFFFFFFFF AND SWAP1 PUSH1 0x20 ADD SWAP1 SWAP3 SWAP2 SWAP1 POP POP POP PUSH2 0x70E JUMP JUMPDEST STOP JUMPDEST CALLVALUE DUP1 ISZERO PUSH2 0x305 JUMPI PUSH1 0x0 DUP1 REVERT JUMPDEST POP PUSH2 0x30E PUSH2 0x925 JUMP JUMPDEST PUSH1 0x40 MLOAD DUP1 DUP3 DUP2 MSTORE PUSH1 0x20 ADD SWAP2 POP POP PUSH1 0x40 MLOAD DUP1 SWAP2 SUB SWAP1 RETURN JUMPDEST CALLVALUE DUP1 ISZERO PUSH2 0x330 JUMPI PUSH1 0x0 DUP1 REVERT JUMPDEST POP PUSH2 0x339 PUSH2 0x92B JUMP JUMPDEST PUSH1 0x40 MLOAD DUP1 DUP1 PUSH1 0x20 ADD DUP3 DUP2 SUB DUP3 MSTORE DUP4 DUP2 DUP2 MLOAD DUP2 MSTORE PUSH1 0x20 ADD SWAP2 POP DUP1 MLOAD SWAP1 PUSH1 0x20 ADD SWAP1 DUP1 DUP4 DUP4 PUSH1 0x0 JUMPDEST DUP4 DUP2 LT ISZERO PUSH2 0x379 JUMPI DUP1 DUP3 ADD MLOAD DUP2 DUP5 ADD MSTORE PUSH1 0x20 DUP2 ADD SWAP1 POP PUSH2 0x35E JUMP JUMPDEST POP POP POP POP SWAP1 POP SWAP1 DUP2 ADD SWAP1 PUSH1 0x1F AND DUP1 ISZERO PUSH2 0x3A6 JUMPI DUP1 DUP3 SUB DUP1 MLOAD PUSH1 0x1 DUP4 PUSH1 0x20 SUB PUSH2 0x100 EXP SUB NOT AND DUP2 MSTORE PUSH1 0x20 ADD SWAP2 POP JUMPDEST POP SWAP3 POP POP POP PUSH1 0x40 MLOAD DUP1 SWAP2 SUB SWAP1 RETURN JUMPDEST CALLVALUE DUP1 ISZERO PUSH2 0x3C0 JUMPI PUSH1 0x0 DUP1 REVERT JUMPDEST POP PUSH2 0x3C9 PUSH2 0x9C9 JUMP JUMPDEST PUSH1 0x40 MLOAD DUP1 DUP3 DUP2 MSTORE PUSH1 0x20 ADD SWAP2 POP POP PUSH1 0x40 MLOAD DUP1 SWAP2 SUB SWAP1 RETURN JUMPDEST CALLVALUE DUP1 ISZERO PUSH2 0x3EB JUMPI PUSH1 0x0 DUP1 REVERT JUMPDEST POP PUSH2 0x40A PUSH1 0x4 DUP1 CALLDATASIZE SUB DUP2 ADD SWAP1 DUP1 DUP1 CALLDATALOAD SWAP1 PUSH1 0x20 ADD SWAP1 SWAP3 SWAP2 SWAP1 POP POP POP PUSH2 0x9CF JUMP JUMPDEST STOP JUMPDEST PUSH1 0x3 SLOAD CALLVALUE EQ ISZERO ISZERO PUSH2 0x485 JUMPI PUSH1 0x40 MLOAD PUSH32 0x8C379A000000000000000000000000000000000000000000000000000000000 DUP2 MSTORE PUSH1 0x4 ADD DUP1 DUP1 PUSH1 0x20 ADD DUP3 DUP2 SUB DUP3 MSTORE PUSH1 0x12 DUP2 MSTORE PUSH1 0x20 ADD DUP1 PUSH32 0xE68A95E8B584E98791E9A29DE99499E8AFAF0000000000000000000000000000 DUP2 MSTORE POP PUSH1 0x20 ADD SWAP2 POP POP PUSH1 0x40 MLOAD DUP1 SWAP2 SUB SWAP1 REVERT JUMPDEST PUSH1 0x5 CALLER SWAP1 DUP1 PUSH1 0x1 DUP2 SLOAD ADD DUP1 DUP3 SSTORE DUP1 SWAP2 POP POP SWAP1 PUSH1 0x1 DUP3 SUB SWAP1 PUSH1 0x0 MSTORE PUSH1 0x20 PUSH1 0x0 KECCAK256 ADD PUSH1 0x0 SWAP1 SWAP2 SWAP3 SWAP1 SWAP2 SWAP1 SWAP2 PUSH2 0x100 EXP DUP2 SLOAD DUP2 PUSH20 0xFFFFFFFFFFFFFFFFFFFFFFFFFFFFFFFFFFFFFFFF MUL NOT AND SWAP1 DUP4 PUSH20 0xFFFFFFFFFFFFFFFFFFFFFFFFFFFFFFFFFFFFFFFF AND MUL OR SWAP1 SSTORE POP POP PUSH1 0x1 PUSH1 0x6 PUSH1 0x0 CALLER PUSH20 0xFFFFFFFFFFFFFFFFFFFFFFFFFFFFFFFFFFFFFFFF AND PUSH20 0xFFFFFFFFFFFFFFFFFFFFFFFFFFFFFFFFFFFFFFFF AND DUP2 MSTORE PUSH1 0x20 ADD SWAP1 DUP2 MSTORE PUSH1 0x20 ADD PUSH1 0x0 KECCAK256 PUSH1 0x0 PUSH2 0x100 EXP DUP2 SLOAD DUP2 PUSH1 0xFF MUL NOT AND SWAP1 DUP4 ISZERO ISZERO MUL OR SWAP1 SSTORE POP JUMP JUMPDEST PUSH1 0x0 ADDRESS PUSH20 0xFFFFFFFFFFFFFFFFFFFFFFFFFFFFFFFFFFFFFFFF AND BALANCE SWAP1 POP SWAP1 JUMP JUMPDEST PUSH1 0x4 SLOAD DUP2 JUMP JUMPDEST PUSH1 0x5 DUP2 DUP2 SLOAD DUP2 LT ISZERO ISZERO PUSH2 0x579 JUMPI INVALID JUMPDEST SWAP1 PUSH1 0x0 MSTORE PUSH1 0x20 PUSH1 0x0 KECCAK256 ADD PUSH1 0x0 SWAP2 POP SLOAD SWAP1 PUSH2 0x100 EXP SWAP1 DIV PUSH20 0xFFFFFFFFFFFFFFFFFFFFFFFFFFFFFFFFFFFFFFFF AND DUP2 JUMP JUMPDEST PUSH1 0x60 PUSH1 0x5 DUP1 SLOAD DUP1 PUSH1 0x20 MUL PUSH1 0x20 ADD PUSH1 0x40 MLOAD SWAP1 DUP2 ADD PUSH1 0x40 MSTORE DUP1 SWAP3 SWAP2 SWAP1 DUP2 DUP2 MSTORE PUSH1 0x20 ADD DUP3 DUP1 SLOAD DUP1 ISZERO PUSH2 0x62C JUMPI PUSH1 0x20 MUL DUP3 ADD SWAP2 SWAP1 PUSH1 0x0 MSTORE PUSH1 0x20 PUSH1 0x0 KECCAK256 SWAP1 JUMPDEST DUP2 PUSH1 0x0 SWAP1 SLOAD SWAP1 PUSH2 0x100 EXP SWAP1 DIV PUSH20 0xFFFFFFFFFFFFFFFFFFFFFFFFFFFFFFFFFFFFFFFF AND PUSH20 0xFFFFFFFFFFFFFFFFFFFFFFFFFFFFFFFFFFFFFFFF AND DUP2 MSTORE PUSH1 0x20 ADD SWAP1 PUSH1 0x1 ADD SWAP1 DUP1 DUP4 GT PUSH2 0x5E2 JUMPI JUMPDEST POP POP POP POP POP SWAP1 POP SWAP1 JUMP JUMPDEST PUSH1 0x0 DUP1 SWAP1 SLOAD SWAP1 PUSH2 0x100 EXP SWAP1 DIV PUSH20 0xFFFFFFFFFFFFFFFFFFFFFFFFFFFFFFFFFFFFFFFF AND DUP2 JUMP JUMPDEST PUSH1 0x0 DUP1 SWAP1 POP JUMPDEST PUSH1 0x5 DUP1 SLOAD SWAP1 POP DUP2 LT ISZERO PUSH2 0x6FD JUMPI PUSH1 0x5 DUP2 DUP2 SLOAD DUP2 LT ISZERO ISZERO PUSH2 0x67D JUMPI INVALID JUMPDEST SWAP1 PUSH1 0x0 MSTORE PUSH1 0x20 PUSH1 0x0 KECCAK256 ADD PUSH1 0x0 SWAP1 SLOAD SWAP1 PUSH2 0x100 EXP SWAP1 DIV PUSH20 0xFFFFFFFFFFFFFFFFFFFFFFFFFFFFFFFFFFFFFFFF AND PUSH20 0xFFFFFFFFFFFFFFFFFFFFFFFFFFFFFFFFFFFFFFFF AND PUSH2 0x8FC PUSH1 0x3 SLOAD SWAP1 DUP2 ISZERO MUL SWAP1 PUSH1 0x40 MLOAD PUSH1 0x0 PUSH1 0x40 MLOAD DUP1 DUP4 SUB DUP2 DUP6 DUP9 DUP9 CALL SWAP4 POP POP POP POP ISZERO DUP1 ISZERO PUSH2 0x6EF JUMPI RETURNDATASIZE PUSH1 0x0 DUP1 RETURNDATACOPY RETURNDATASIZE PUSH1 0x0 REVERT JUMPDEST POP DUP1 DUP1 PUSH1 0x1 ADD SWAP2 POP POP PUSH2 0x661 JUMP JUMPDEST PUSH1 0x5 PUSH1 0x0 PUSH2 0x70B SWAP2 SWAP1 PUSH2 0xAB5 JUMP JUMPDEST POP JUMP JUMPDEST PUSH2 0x716 PUSH2 0xAD6 JUMP JUMPDEST PUSH1 0x0 DUP1 SWAP1 SLOAD SWAP1 PUSH2 0x100 EXP SWAP1 DIV PUSH20 0xFFFFFFFFFFFFFFFFFFFFFFFFFFFFFFFFFFFFFFFF AND PUSH20 0xFFFFFFFFFFFFFFFFFFFFFFFFFFFFFFFFFFFFFFFF AND CALLER PUSH20 0xFFFFFFFFFFFFFFFFFFFFFFFFFFFFFFFFFFFFFFFF AND EQ ISZERO ISZERO PUSH2 0x800 JUMPI PUSH1 0x40 MLOAD PUSH32 0x8C379A000000000000000000000000000000000000000000000000000000000 DUP2 MSTORE PUSH1 0x4 ADD DUP1 DUP1 PUSH1 0x20 ADD DUP3 DUP2 SUB DUP3 MSTORE PUSH1 0x2D DUP2 MSTORE PUSH1 0x20 ADD DUP1 PUSH32 0xE58FAAE69C89E9A1B9E79BAEE58F91E8B5B7E4BABAE58FAFE4BBA5E58F91E8B5 DUP2 MSTORE PUSH1 0x20 ADD PUSH32 0xB7E694AFE4BB98E8AFB7E6B18200000000000000000000000000000000000000 DUP2 MSTORE POP PUSH1 0x40 ADD SWAP2 POP POP PUSH1 0x40 MLOAD DUP1 SWAP2 SUB SWAP1 REVERT JUMPDEST PUSH1 0xA0 PUSH1 0x40 MLOAD SWAP1 DUP2 ADD PUSH1 0x40 MSTORE DUP1 DUP6 DUP2 MSTORE PUSH1 0x20 ADD DUP5 DUP2 MSTORE PUSH1 0x20 ADD DUP4 PUSH20 0xFFFFFFFFFFFFFFFFFFFFFFFFFFFFFFFFFFFFFFFF AND DUP2 MSTORE PUSH1 0x20 ADD PUSH1 0x0 DUP2 MSTORE PUSH1 0x20 ADD PUSH1 0x0 PUSH1 0x3 DUP2 GT ISZERO PUSH2 0x848 JUMPI INVALID JUMPDEST DUP2 MSTORE POP SWAP1 POP PUSH1 0x7 DUP2 SWAP1 DUP1 PUSH1 0x1 DUP2 SLOAD ADD DUP1 DUP3 SSTORE DUP1 SWAP2 POP POP SWAP1 PUSH1 0x1 DUP3 SUB SWAP1 PUSH1 0x0 MSTORE PUSH1 0x20 PUSH1 0x0 KECCAK256 SWAP1 PUSH1 0x6 MUL ADD PUSH1 0x0 SWAP1 SWAP2 SWAP3 SWAP1 SWAP2 SWAP1 SWAP2 POP PUSH1 0x0 DUP3 ADD MLOAD DUP2 PUSH1 0x0 ADD SWAP1 DUP1 MLOAD SWAP1 PUSH1 0x20 ADD SWAP1 PUSH2 0x897 SWAP3 SWAP2 SWAP1 PUSH2 0xB27 JUMP JUMPDEST POP PUSH1 0x20 DUP3 ADD MLOAD DUP2 PUSH1 0x1 ADD SSTORE PUSH1 0x40 DUP3 ADD MLOAD DUP2 PUSH1 0x2 ADD PUSH1 0x0 PUSH2 0x100 EXP DUP2 SLOAD DUP2 PUSH20 0xFFFFFFFFFFFFFFFFFFFFFFFFFFFFFFFFFFFFFFFF MUL NOT AND SWAP1 DUP4 PUSH20 0xFFFFFFFFFFFFFFFFFFFFFFFFFFFFFFFFFFFFFFFF AND MUL OR SWAP1 SSTORE POP PUSH1 0x60 DUP3 ADD MLOAD DUP2 PUSH1 0x3 ADD SSTORE PUSH1 0x80 DUP3 ADD MLOAD DUP2 PUSH1 0x5 ADD PUSH1 0x0 PUSH2 0x100 EXP DUP2 SLOAD DUP2 PUSH1 0xFF MUL NOT AND SWAP1 DUP4 PUSH1 0x3 DUP2 GT ISZERO PUSH2 0x917 JUMPI INVALID JUMPDEST MUL OR SWAP1 SSTORE POP POP POP POP POP POP POP POP JUMP JUMPDEST PUSH1 0x2 SLOAD DUP2 JUMP JUMPDEST PUSH1 0x1 DUP1 SLOAD PUSH1 0x1 DUP2 PUSH1 0x1 AND ISZERO PUSH2 0x100 MUL SUB AND PUSH1 0x2 SWAP1 DIV DUP1 PUSH1 0x1F ADD PUSH1 0x20 DUP1 SWAP2 DIV MUL PUSH1 0x20 ADD PUSH1 0x40 MLOAD SWAP1 DUP2 ADD PUSH1 0x40 MSTORE DUP1 SWAP3 SWAP2 SWAP1 DUP2 DUP2 MSTORE PUSH1 0x20 ADD DUP3 DUP1 SLOAD PUSH1 0x1 DUP2 PUSH1 0x1 AND ISZERO PUSH2 0x100 MUL SUB AND PUSH1 0x2 SWAP1 DIV DUP1 ISZERO PUSH2 0x9C1 JUMPI DUP1 PUSH1 0x1F LT PUSH2 0x996 JUMPI PUSH2 0x100 DUP1 DUP4 SLOAD DIV MUL DUP4 MSTORE SWAP2 PUSH1 0x20 ADD SWAP2 PUSH2 0x9C1 JUMP JUMPDEST DUP3 ADD SWAP2 SWAP1 PUSH1 0x0 MSTORE PUSH1 0x20 PUSH1 0x0 KECCAK256 SWAP1 JUMPDEST DUP2 SLOAD DUP2 MSTORE SWAP1 PUSH1 0x1 ADD SWAP1 PUSH1 0x20 ADD DUP1 DUP4 GT PUSH2 0x9A4 JUMPI DUP3 SWAP1 SUB PUSH1 0x1F AND DUP3 ADD SWAP2 JUMPDEST POP POP POP POP POP DUP2 JUMP JUMPDEST PUSH1 0x3 SLOAD DUP2 JUMP JUMPDEST PUSH1 0x0 PUSH1 0x7 DUP3 DUP2 SLOAD DUP2 LT ISZERO ISZERO PUSH2 0x9E0 JUMPI INVALID JUMPDEST SWAP1 PUSH1 0x0 MSTORE PUSH1 0x20 PUSH1 0x0 KECCAK256 SWAP1 PUSH1 0x6 MUL ADD SWAP1 POP PUSH1 0x6 PUSH1 0x0 CALLER PUSH20 0xFFFFFFFFFFFFFFFFFFFFFFFFFFFFFFFFFFFFFFFF AND PUSH20 0xFFFFFFFFFFFFFFFFFFFFFFFFFFFFFFFFFFFFFFFF AND DUP2 MSTORE PUSH1 0x20 ADD SWAP1 DUP2 MSTORE PUSH1 0x20 ADD PUSH1 0x0 KECCAK256 PUSH1 0x0 SWAP1 SLOAD SWAP1 PUSH2 0x100 EXP SWAP1 DIV PUSH1 0xFF AND ISZERO ISZERO PUSH2 0xAB1 JUMPI PUSH1 0x40 MLOAD PUSH32 0x8C379A000000000000000000000000000000000000000000000000000000000 DUP2 MSTORE PUSH1 0x4 ADD DUP1 DUP1 PUSH1 0x20 ADD DUP3 DUP2 SUB DUP3 MSTORE PUSH1 0x12 DUP2 MSTORE PUSH1 0x20 ADD DUP1 PUSH32 0xE58FAAE69C89E68A95E8B584E4BABAE69C890000000000000000000000000000 DUP2 MSTORE POP PUSH1 0x20 ADD SWAP2 POP POP PUSH1 0x40 MLOAD DUP1 SWAP2 SUB SWAP1 REVERT JUMPDEST POP POP JUMP JUMPDEST POP DUP1 SLOAD PUSH1 0x0 DUP3 SSTORE SWAP1 PUSH1 0x0 MSTORE PUSH1 0x20 PUSH1 0x0 KECCAK256 SWAP1 DUP2 ADD SWAP1 PUSH2 0xAD3 SWAP2 SWAP1 PUSH2 0xBA7 JUMP JUMPDEST POP JUMP JUMPDEST PUSH1 0xA0 PUSH1 0x40 MLOAD SWAP1 DUP2 ADD PUSH1 0x40 MSTORE DUP1 PUSH1 0x60 DUP2 MSTORE PUSH1 0x20 ADD PUSH1 0x0 DUP2 MSTORE PUSH1 0x20 ADD PUSH1 0x0 PUSH20 0xFFFFFFFFFFFFFFFFFFFFFFFFFFFFFFFFFFFFFFFF AND DUP2 MSTORE PUSH1 0x20 ADD PUSH1 0x0 DUP2 MSTORE PUSH1 0x20 ADD PUSH1 0x0 PUSH1 0x3 DUP2 GT ISZERO PUSH2 0xB21 JUMPI INVALID JUMPDEST DUP2 MSTORE POP SWAP1 JUMP JUMPDEST DUP3 DUP1 SLOAD PUSH1 0x1 DUP2 PUSH1 0x1 AND ISZERO PUSH2 0x100 MUL SUB AND PUSH1 0x2 SWAP1 DIV SWAP1 PUSH1 0x0 MSTORE PUSH1 0x20 PUSH1 0x0 KECCAK256 SWAP1 PUSH1 0x1F ADD PUSH1 0x20 SWAP1 DIV DUP2 ADD SWAP3 DUP3 PUSH1 0x1F LT PUSH2 0xB68 JUMPI DUP1 MLOAD PUSH1 0xFF NOT AND DUP4 DUP1 ADD OR DUP6 SSTORE PUSH2 0xB96 JUMP JUMPDEST DUP3 DUP1 ADD PUSH1 0x1 ADD DUP6 SSTORE DUP3 ISZERO PUSH2 0xB96 JUMPI SWAP2 DUP3 ADD JUMPDEST DUP3 DUP2 GT ISZERO PUSH2 0xB95 JUMPI DUP3 MLOAD DUP3 SSTORE SWAP2 PUSH1 0x20 ADD SWAP2 SWAP1 PUSH1 0x1 ADD SWAP1 PUSH2 0xB7A JUMP JUMPDEST JUMPDEST POP SWAP1 POP PUSH2 0xBA3 SWAP2 SWAP1 PUSH2 0xBA7 JUMP JUMPDEST POP SWAP1 JUMP JUMPDEST PUSH2 0xBC9 SWAP2 SWAP1 JUMPDEST DUP1 DUP3 GT ISZERO PUSH2 0xBC5 JUMPI PUSH1 0x0 DUP2 PUSH1 0x0 SWAP1 SSTORE POP PUSH1 0x1 ADD PUSH2 0xBAD JUMP JUMPDEST POP SWAP1 JUMP JUMPDEST SWAP1 JUMP STOP LOG1 PUSH6 0x627A7A723058 KECCAK256 0xba LOG4 KECCAK256 SHR DUP2 TIMESTAMP SWAP7 SWAP13 0xc0 0xab 0x22 DUP9 0xc9 DIFFICULTY GAS 0xdd 0xb5 0xd4 0xe4 SDIV PUSH26 0x237DF8B7F4ECD58142D8B5002900000000000000000000000000 "
				},
				"gasEstimates": {
					"creation": {
						"codeDepositCost": "612800",
						"executionCost": "infinite",
						"totalCost": "infinite"
					},
					"external": {
						"approveRequest(uint256)": "1200",
						"createRequest(string,uint256,address)": "infinite",
						"endTime()": "438",
						"getBalance()": "629",
						"getSupporters()": "infinite",
						"manager()": "552",
						"projectName()": "infinite",
						"refund()": "infinite",
						"support()": "61279",
						"supportMoney()": "614",
						"supporters(uint256)": "852",
						"targetMoney()": "570"
					}
				},
				"methodIdentifiers": {
					"approveRequest(uint256)": "d7d1bbdb",
					"createRequest(string,uint256,address)": "8a9cfd55",
					"endTime()": "3197cbb6",
					"getBalance()": "12065fe0",
					"getSupporters()": "43020b1a",
					"manager()": "481c6a75",
					"projectName()": "9a33e300",
					"refund()": "590e1ae3",
					"support()": "119f8747",
					"supportMoney()": "a5d5c5dc",
					"supporters(uint256)": "3c24b7d7",
					"targetMoney()": "8d7cdb91"
				}
			},
			"userdoc": {
				"methods": {}
			}
		}
	}
}