{
	"src/funding/src/contracts/FundingFactory.sol": {
		"FundingFactory": {
			"abi": [
				{
					"constant": false,
					"inputs": [
						{
							"name": "_projectName",
							"type": "string"
						},
						{
							"name": "_targetMoney",
							"type": "uint256"
						},
						{
							"name": "_supportMoney",
							"type": "uint256"
						},
						{
							"name": "_duration",
							"type": "uint256"
						}
					],
					"name": "createFunding",
					"outputs": [],
					"payable": false,
					"stateMutability": "nonpayable",
					"type": "function"
				},
				{
					"constant": true,
					"inputs": [],
					"name": "getAllFundings",
					"outputs": [
						{
							"name": "",
							"type": "address[]"
						}
					],
					"payable": false,
					"stateMutability": "view",
					"type": "function"
				},
				{
					"constant": true,
					"inputs": [],
					"name": "getSupporterFundings",
					"outputs": [
						{
							"name": "",
							"type": "address[]"
						}
					],
					"payable": false,
					"stateMutability": "view",
					"type": "function"
				},
				{
					"constant": true,
					"inputs": [],
					"name": "getCreatorFundings",
					"outputs": [
						{
							"name": "",
							"type": "address[]"
						}
					],
					"payable": false,
					"stateMutability": "view",
					"type": "function"
				},
				{
					"inputs": [],
					"payable": false,
					"stateMutability": "nonpayable",
					"type": "constructor"
				}
			],
			"devdoc": {
				"methods": {}
			},
			"evm": {
				"assembly": "    /* \"src/funding/src/contracts/FundingFactory.sol\":55:1244  contract FundingFactory {\r... */\n  mstore(0x40, 0x80)\n    /* \"src/funding/src/contracts/FundingFactory.sol\":367:500  constructor()public{\r... */\n  callvalue\n    /* \"--CODEGEN--\":8:17   */\n  dup1\n    /* \"--CODEGEN--\":5:7   */\n  iszero\n  tag_1\n  jumpi\n    /* \"--CODEGEN--\":30:31   */\n  0x0\n    /* \"--CODEGEN--\":27:28   */\n  dup1\n    /* \"--CODEGEN--\":20:32   */\n  revert\n    /* \"--CODEGEN--\":5:7   */\ntag_1:\n    /* \"src/funding/src/contracts/FundingFactory.sol\":367:500  constructor()public{\r... */\n  pop\n    /* \"src/funding/src/contracts/FundingFactory.sol\":415:425  msg.sender */\n  caller\n    /* \"src/funding/src/contracts/FundingFactory.sol\":397:412  platformManager */\n  0x0\n  dup1\n    /* \"src/funding/src/contracts/FundingFactory.sol\":397:425  platformManager = msg.sender */\n  0x100\n  exp\n  dup2\n  sload\n  dup2\n  0xffffffffffffffffffffffffffffffffffffffff\n  mul\n  not\n  and\n  swap1\n  dup4\n  0xffffffffffffffffffffffffffffffffffffffff\n  and\n  mul\n  or\n  swap1\n  sstore\n  pop\n    /* \"src/funding/src/contracts/FundingFactory.sol\":464:492  new SupportFundingContract() */\n  tag_4\n  jump\t// in(tag_5)\ntag_4:\n  mload(0x40)\n  dup1\n  swap2\n  sub\n  swap1\n  0x0\n  create\n  dup1\n  iszero\n    /* \"--CODEGEN--\":8:17   */\n  dup1\n    /* \"--CODEGEN--\":5:7   */\n  iszero\n  tag_6\n  jumpi\n    /* \"--CODEGEN--\":45:61   */\n  returndatasize\n    /* \"--CODEGEN--\":42:43   */\n  0x0\n    /* \"--CODEGEN--\":39:40   */\n  dup1\n    /* \"--CODEGEN--\":24:62   */\n  returndatacopy\n    /* \"--CODEGEN--\":77:93   */\n  returndatasize\n    /* \"--CODEGEN--\":74:75   */\n  0x0\n    /* \"--CODEGEN--\":67:94   */\n  revert\n    /* \"--CODEGEN--\":5:7   */\ntag_6:\n    /* \"src/funding/src/contracts/FundingFactory.sol\":464:492  new SupportFundingContract() */\n  pop\n    /* \"src/funding/src/contracts/FundingFactory.sol\":436:461  supporterFundingsContract */\n  0x3\n  0x0\n    /* \"src/funding/src/contracts/FundingFactory.sol\":436:492  supporterFundingsContract = new SupportFundingContract() */\n  0x100\n  exp\n  dup2\n  sload\n  dup2\n  0xffffffffffffffffffffffffffffffffffffffff\n  mul\n  not\n  and\n  swap1\n  dup4\n  0xffffffffffffffffffffffffffffffffffffffff\n  and\n  mul\n  or\n  swap1\n  sstore\n  pop\n    /* \"src/funding/src/contracts/FundingFactory.sol\":55:1244  contract FundingFactory {\r... */\n  jump(tag_7)\ntag_5:\n  mload(0x40)\n  dataSize(sub_1)\n  dup1\n  dataOffset(sub_1)\n  dup4\n  codecopy\n  add\n  swap1\n  jump\t// out\ntag_7:\n  dataSize(sub_0)\n  dup1\n  dataOffset(sub_0)\n  0x0\n  codecopy\n  0x0\n  return\nstop\n\nsub_0: assembly {\n        /* \"src/funding/src/contracts/FundingFactory.sol\":55:1244  contract FundingFactory {\r... */\n      mstore(0x40, 0x80)\n      jumpi(tag_1, lt(calldatasize, 0x4))\n      calldataload(0x0)\n      0x100000000000000000000000000000000000000000000000000000000\n      swap1\n      div\n      0xffffffff\n      and\n      dup1\n      0x62786e17\n      eq\n      tag_2\n      jumpi\n      dup1\n      0x72a3143c\n      eq\n      tag_3\n      jumpi\n      dup1\n      0xb74ae5cd\n      eq\n      tag_4\n      jumpi\n      dup1\n      0xfc93110a\n      eq\n      tag_5\n      jumpi\n    tag_1:\n      0x0\n      dup1\n      revert\n        /* \"src/funding/src/contracts/FundingFactory.sol\":508:871  function createFunding(string _projectName, uint256 _targetMoney, uint256 _supportMoney, uint256 _duration) public{\r... */\n    tag_2:\n      callvalue\n        /* \"--CODEGEN--\":8:17   */\n      dup1\n        /* \"--CODEGEN--\":5:7   */\n      iszero\n      tag_6\n      jumpi\n        /* \"--CODEGEN--\":30:31   */\n      0x0\n        /* \"--CODEGEN--\":27:28   */\n      dup1\n        /* \"--CODEGEN--\":20:32   */\n      revert\n        /* \"--CODEGEN--\":5:7   */\n    tag_6:\n        /* \"src/funding/src/contracts/FundingFactory.sol\":508:871  function createFunding(string _projectName, uint256 _targetMoney, uint256 _supportMoney, uint256 _duration) public{\r... */\n      pop\n      tag_7\n      0x4\n      dup1\n      calldatasize\n      sub\n      dup2\n      add\n      swap1\n      dup1\n      dup1\n      calldataload\n      swap1\n      0x20\n      add\n      swap1\n      dup3\n      add\n      dup1\n      calldataload\n      swap1\n      0x20\n      add\n      swap1\n      dup1\n      dup1\n      0x1f\n      add\n      0x20\n      dup1\n      swap2\n      div\n      mul\n      0x20\n      add\n      mload(0x40)\n      swap1\n      dup2\n      add\n      0x40\n      mstore\n      dup1\n      swap4\n      swap3\n      swap2\n      swap1\n      dup2\n      dup2\n      mstore\n      0x20\n      add\n      dup4\n      dup4\n      dup1\n      dup3\n      dup5\n      calldatacopy\n      dup3\n      add\n      swap2\n      pop\n      pop\n      pop\n      pop\n      pop\n      pop\n      swap2\n      swap3\n      swap2\n      swap3\n      swap1\n      dup1\n      calldataload\n      swap1\n      0x20\n      add\n      swap1\n      swap3\n      swap2\n      swap1\n      dup1\n      calldataload\n      swap1\n      0x20\n      add\n      swap1\n      swap3\n      swap2\n      swap1\n      dup1\n      calldataload\n      swap1\n      0x20\n      add\n      swap1\n      swap3\n      swap2\n      swap1\n      pop\n      pop\n      pop\n      jump(tag_8)\n    tag_7:\n      stop\n        /* \"src/funding/src/contracts/FundingFactory.sol\":879:973  function getAllFundings() public view returns (address[]){\r... */\n    tag_3:\n      callvalue\n        /* \"--CODEGEN--\":8:17   */\n      dup1\n        /* \"--CODEGEN--\":5:7   */\n      iszero\n      tag_9\n      jumpi\n        /* \"--CODEGEN--\":30:31   */\n      0x0\n        /* \"--CODEGEN--\":27:28   */\n      dup1\n        /* \"--CODEGEN--\":20:32   */\n      revert\n        /* \"--CODEGEN--\":5:7   */\n    tag_9:\n        /* \"src/funding/src/contracts/FundingFactory.sol\":879:973  function getAllFundings() public view returns (address[]){\r... */\n      pop\n      tag_10\n      jump(tag_11)\n    tag_10:\n      mload(0x40)\n      dup1\n      dup1\n      0x20\n      add\n      dup3\n      dup2\n      sub\n      dup3\n      mstore\n      dup4\n      dup2\n      dup2\n      mload\n      dup2\n      mstore\n      0x20\n      add\n      swap2\n      pop\n      dup1\n      mload\n      swap1\n      0x20\n      add\n      swap1\n      0x20\n      mul\n      dup1\n      dup4\n      dup4\n        /* \"--CODEGEN--\":23:24   */\n      0x0\n        /* \"--CODEGEN--\":8:108   */\n    tag_12:\n        /* \"--CODEGEN--\":33:36   */\n      dup4\n        /* \"--CODEGEN--\":30:31   */\n      dup2\n        /* \"--CODEGEN--\":27:37   */\n      lt\n        /* \"--CODEGEN--\":8:108   */\n      iszero\n      tag_13\n      jumpi\n        /* \"--CODEGEN--\":99:100   */\n      dup1\n        /* \"--CODEGEN--\":94:97   */\n      dup3\n        /* \"--CODEGEN--\":90:101   */\n      add\n        /* \"--CODEGEN--\":84:102   */\n      mload\n        /* \"--CODEGEN--\":80:81   */\n      dup2\n        /* \"--CODEGEN--\":75:78   */\n      dup5\n        /* \"--CODEGEN--\":71:82   */\n      add\n        /* \"--CODEGEN--\":64:103   */\n      mstore\n        /* \"--CODEGEN--\":52:54   */\n      0x20\n        /* \"--CODEGEN--\":49:50   */\n      dup2\n        /* \"--CODEGEN--\":45:55   */\n      add\n        /* \"--CODEGEN--\":40:55   */\n      swap1\n      pop\n        /* \"--CODEGEN--\":8:108   */\n      jump(tag_12)\n    tag_13:\n        /* \"--CODEGEN--\":12:26   */\n      pop\n        /* \"src/funding/src/contracts/FundingFactory.sol\":879:973  function getAllFundings() public view returns (address[]){\r... */\n      pop\n      pop\n      pop\n      swap1\n      pop\n      add\n      swap3\n      pop\n      pop\n      pop\n      mload(0x40)\n      dup1\n      swap2\n      sub\n      swap1\n      return\n        /* \"src/funding/src/contracts/FundingFactory.sol\":1103:1241  function getSupporterFundings() public view returns (address[]){\r... */\n    tag_4:\n      callvalue\n        /* \"--CODEGEN--\":8:17   */\n      dup1\n        /* \"--CODEGEN--\":5:7   */\n      iszero\n      tag_15\n      jumpi\n        /* \"--CODEGEN--\":30:31   */\n      0x0\n        /* \"--CODEGEN--\":27:28   */\n      dup1\n        /* \"--CODEGEN--\":20:32   */\n      revert\n        /* \"--CODEGEN--\":5:7   */\n    tag_15:\n        /* \"src/funding/src/contracts/FundingFactory.sol\":1103:1241  function getSupporterFundings() public view returns (address[]){\r... */\n      pop\n      tag_16\n      jump(tag_17)\n    tag_16:\n      mload(0x40)\n      dup1\n      dup1\n      0x20\n      add\n      dup3\n      dup2\n      sub\n      dup3\n      mstore\n      dup4\n      dup2\n      dup2\n      mload\n      dup2\n      mstore\n      0x20\n      add\n      swap2\n      pop\n      dup1\n      mload\n      swap1\n      0x20\n      add\n      swap1\n      0x20\n      mul\n      dup1\n      dup4\n      dup4\n        /* \"--CODEGEN--\":23:24   */\n      0x0\n        /* \"--CODEGEN--\":8:108   */\n    tag_18:\n        /* \"--CODEGEN--\":33:36   */\n      dup4\n        /* \"--CODEGEN--\":30:31   */\n      dup2\n        /* \"--CODEGEN--\":27:37   */\n      lt\n        /* \"--CODEGEN--\":8:108   */\n      iszero\n      tag_19\n      jumpi\n        /* \"--CODEGEN--\":99:100   */\n      dup1\n        /* \"--CODEGEN--\":94:97   */\n      dup3\n        /* \"--CODEGEN--\":90:101   */\n      add\n        /* \"--CODEGEN--\":84:102   */\n      mload\n        /* \"--CODEGEN--\":80:81   */\n      dup2\n        /* \"--CODEGEN--\":75:78   */\n      dup5\n        /* \"--CODEGEN--\":71:82   */\n      add\n        /* \"--CODEGEN--\":64:103   */\n      mstore\n        /* \"--CODEGEN--\":52:54   */\n      0x20\n        /* \"--CODEGEN--\":49:50   */\n      dup2\n        /* \"--CODEGEN--\":45:55   */\n      add\n        /* \"--CODEGEN--\":40:55   */\n      swap1\n      pop\n        /* \"--CODEGEN--\":8:108   */\n      jump(tag_18)\n    tag_19:\n        /* \"--CODEGEN--\":12:26   */\n      pop\n        /* \"src/funding/src/contracts/FundingFactory.sol\":1103:1241  function getSupporterFundings() public view returns (address[]){\r... */\n      pop\n      pop\n      pop\n      swap1\n      pop\n      add\n      swap3\n      pop\n      pop\n      pop\n      mload(0x40)\n      dup1\n      swap2\n      sub\n      swap1\n      return\n        /* \"src/funding/src/contracts/FundingFactory.sol\":981:1095  function getCreatorFundings() public view returns (address[]){\r... */\n    tag_5:\n      callvalue\n        /* \"--CODEGEN--\":8:17   */\n      dup1\n        /* \"--CODEGEN--\":5:7   */\n      iszero\n      tag_21\n      jumpi\n        /* \"--CODEGEN--\":30:31   */\n      0x0\n        /* \"--CODEGEN--\":27:28   */\n      dup1\n        /* \"--CODEGEN--\":20:32   */\n      revert\n        /* \"--CODEGEN--\":5:7   */\n    tag_21:\n        /* \"src/funding/src/contracts/FundingFactory.sol\":981:1095  function getCreatorFundings() public view returns (address[]){\r... */\n      pop\n      tag_22\n      jump(tag_23)\n    tag_22:\n      mload(0x40)\n      dup1\n      dup1\n      0x20\n      add\n      dup3\n      dup2\n      sub\n      dup3\n      mstore\n      dup4\n      dup2\n      dup2\n      mload\n      dup2\n      mstore\n      0x20\n      add\n      swap2\n      pop\n      dup1\n      mload\n      swap1\n      0x20\n      add\n      swap1\n      0x20\n      mul\n      dup1\n      dup4\n      dup4\n        /* \"--CODEGEN--\":23:24   */\n      0x0\n        /* \"--CODEGEN--\":8:108   */\n    tag_24:\n        /* \"--CODEGEN--\":33:36   */\n      dup4\n        /* \"--CODEGEN--\":30:31   */\n      dup2\n        /* \"--CODEGEN--\":27:37   */\n      lt\n        /* \"--CODEGEN--\":8:108   */\n      iszero\n      tag_25\n      jumpi\n        /* \"--CODEGEN--\":99:100   */\n      dup1\n        /* \"--CODEGEN--\":94:97   */\n      dup3\n        /* \"--CODEGEN--\":90:101   */\n      add\n        /* \"--CODEGEN--\":84:102   */\n      mload\n        /* \"--CODEGEN--\":80:81   */\n      dup2\n        /* \"--CODEGEN--\":75:78   */\n      dup5\n        /* \"--CODEGEN--\":71:82   */\n      add\n        /* \"--CODEGEN--\":64:103   */\n      mstore\n        /* \"--CODEGEN--\":52:54   */\n      0x20\n        /* \"--CODEGEN--\":49:50   */\n      dup2\n        /* \"--CODEGEN--\":45:55   */\n      add\n        /* \"--CODEGEN--\":40:55   */\n      swap1\n      pop\n        /* \"--CODEGEN--\":8:108   */\n      jump(tag_24)\n    tag_25:\n        /* \"--CODEGEN--\":12:26   */\n      pop\n        /* \"src/funding/src/contracts/FundingFactory.sol\":981:1095  function getCreatorFundings() public view returns (address[]){\r... */\n      pop\n      pop\n      pop\n      swap1\n      pop\n      add\n      swap3\n      pop\n      pop\n      pop\n      mload(0x40)\n      dup1\n      swap2\n      sub\n      swap1\n      return\n        /* \"src/funding/src/contracts/FundingFactory.sol\":508:871  function createFunding(string _projectName, uint256 _targetMoney, uint256 _supportMoney, uint256 _duration) public{\r... */\n    tag_8:\n        /* \"src/funding/src/contracts/FundingFactory.sol\":633:655  address fundingAddress */\n      0x0\n        /* \"src/funding/src/contracts/FundingFactory.sol\":670:680  msg.sender */\n      caller\n        /* \"src/funding/src/contracts/FundingFactory.sol\":682:694  _projectName */\n      dup6\n        /* \"src/funding/src/contracts/FundingFactory.sol\":696:708  _targetMoney */\n      dup6\n        /* \"src/funding/src/contracts/FundingFactory.sol\":710:723  _supportMoney */\n      dup6\n        /* \"src/funding/src/contracts/FundingFactory.sol\":725:734  _duration */\n      dup6\n        /* \"src/funding/src/contracts/FundingFactory.sol\":735:760  supporterFundingsContract */\n      0x3\n      0x0\n      swap1\n      sload\n      swap1\n      0x100\n      exp\n      swap1\n      div\n      0xffffffffffffffffffffffffffffffffffffffff\n      and\n        /* \"src/funding/src/contracts/FundingFactory.sol\":658:761  new Funding(msg.sender, _projectName, _targetMoney, _supportMoney, _duration,supporterFundingsContract) */\n      tag_28\n      jump\t// in(tag_29)\n    tag_28:\n      dup1\n      dup8\n      0xffffffffffffffffffffffffffffffffffffffff\n      and\n      0xffffffffffffffffffffffffffffffffffffffff\n      and\n      dup2\n      mstore\n      0x20\n      add\n      dup1\n      0x20\n      add\n      dup7\n      dup2\n      mstore\n      0x20\n      add\n      dup6\n      dup2\n      mstore\n      0x20\n      add\n      dup5\n      dup2\n      mstore\n      0x20\n      add\n      dup4\n      0xffffffffffffffffffffffffffffffffffffffff\n      and\n      0xffffffffffffffffffffffffffffffffffffffff\n      and\n      dup2\n      mstore\n      0x20\n      add\n      dup3\n      dup2\n      sub\n      dup3\n      mstore\n      dup8\n      dup2\n      dup2\n      mload\n      dup2\n      mstore\n      0x20\n      add\n      swap2\n      pop\n      dup1\n      mload\n      swap1\n      0x20\n      add\n      swap1\n      dup1\n      dup4\n      dup4\n        /* \"--CODEGEN--\":23:24   */\n      0x0\n        /* \"--CODEGEN--\":8:108   */\n    tag_30:\n        /* \"--CODEGEN--\":33:36   */\n      dup4\n        /* \"--CODEGEN--\":30:31   */\n      dup2\n        /* \"--CODEGEN--\":27:37   */\n      lt\n        /* \"--CODEGEN--\":8:108   */\n      iszero\n      tag_31\n      jumpi\n        /* \"--CODEGEN--\":99:100   */\n      dup1\n        /* \"--CODEGEN--\":94:97   */\n      dup3\n        /* \"--CODEGEN--\":90:101   */\n      add\n        /* \"--CODEGEN--\":84:102   */\n      mload\n        /* \"--CODEGEN--\":80:81   */\n      dup2\n        /* \"--CODEGEN--\":75:78   */\n      dup5\n        /* \"--CODEGEN--\":71:82   */\n      add\n        /* \"--CODEGEN--\":64:103   */\n      mstore\n        /* \"--CODEGEN--\":52:54   */\n      0x20\n        /* \"--CODEGEN--\":49:50   */\n      dup2\n        /* \"--CODEGEN--\":45:55   */\n      add\n        /* \"--CODEGEN--\":40:55   */\n      swap1\n      pop\n        /* \"--CODEGEN--\":8:108   */\n      jump(tag_30)\n    tag_31:\n        /* \"--CODEGEN--\":12:26   */\n      pop\n        /* \"src/funding/src/contracts/FundingFactory.sol\":658:761  new Funding(msg.sender, _projectName, _targetMoney, _supportMoney, _duration,supporterFundingsContract) */\n      pop\n      pop\n      pop\n      swap1\n      pop\n      swap1\n      dup2\n      add\n      swap1\n      0x1f\n      and\n      dup1\n      iszero\n      tag_33\n      jumpi\n      dup1\n      dup3\n      sub\n      dup1\n      mload\n      0x1\n      dup4\n      0x20\n      sub\n      0x100\n      exp\n      sub\n      not\n      and\n      dup2\n      mstore\n      0x20\n      add\n      swap2\n      pop\n    tag_33:\n      pop\n      swap8\n      pop\n      pop\n      pop\n      pop\n      pop\n      pop\n      pop\n      pop\n      mload(0x40)\n      dup1\n      swap2\n      sub\n      swap1\n      0x0\n      create\n      dup1\n      iszero\n        /* \"--CODEGEN--\":8:17   */\n      dup1\n        /* \"--CODEGEN--\":5:7   */\n      iszero\n      tag_34\n      jumpi\n        /* \"--CODEGEN--\":45:61   */\n      returndatasize\n        /* \"--CODEGEN--\":42:43   */\n      0x0\n        /* \"--CODEGEN--\":39:40   */\n      dup1\n        /* \"--CODEGEN--\":24:62   */\n      returndatacopy\n        /* \"--CODEGEN--\":77:93   */\n      returndatasize\n        /* \"--CODEGEN--\":74:75   */\n      0x0\n        /* \"--CODEGEN--\":67:94   */\n      revert\n        /* \"--CODEGEN--\":5:7   */\n    tag_34:\n        /* \"src/funding/src/contracts/FundingFactory.sol\":658:761  new Funding(msg.sender, _projectName, _targetMoney, _supportMoney, _duration,supporterFundingsContract) */\n      pop\n        /* \"src/funding/src/contracts/FundingFactory.sol\":633:761  address fundingAddress = new Funding(msg.sender, _projectName, _targetMoney, _supportMoney, _duration,supporterFundingsContract) */\n      swap1\n      pop\n        /* \"src/funding/src/contracts/FundingFactory.sol\":772:783  allFundings */\n      0x1\n        /* \"src/funding/src/contracts/FundingFactory.sol\":789:803  fundingAddress */\n      dup2\n        /* \"src/funding/src/contracts/FundingFactory.sol\":772:804  allFundings.push(fundingAddress) */\n      swap1\n      dup1\n        /* \"--CODEGEN--\":39:40   */\n      0x1\n        /* \"--CODEGEN--\":33:36   */\n      dup2\n        /* \"--CODEGEN--\":27:37   */\n      sload\n        /* \"--CODEGEN--\":23:41   */\n      add\n        /* \"--CODEGEN--\":57:67   */\n      dup1\n        /* \"--CODEGEN--\":52:55   */\n      dup3\n        /* \"--CODEGEN--\":45:68   */\n      sstore\n        /* \"--CODEGEN--\":79:89   */\n      dup1\n        /* \"--CODEGEN--\":72:89   */\n      swap2\n      pop\n        /* \"--CODEGEN--\":0:93   */\n      pop\n        /* \"src/funding/src/contracts/FundingFactory.sol\":772:804  allFundings.push(fundingAddress) */\n      swap1\n      0x1\n      dup3\n      sub\n      swap1\n      0x0\n      mstore\n      keccak256(0x0, 0x20)\n      add\n      0x0\n      swap1\n      swap2\n      swap3\n      swap1\n      swap2\n      swap1\n      swap2\n      0x100\n      exp\n      dup2\n      sload\n      dup2\n      0xffffffffffffffffffffffffffffffffffffffff\n      mul\n      not\n      and\n      swap1\n      dup4\n      0xffffffffffffffffffffffffffffffffffffffff\n      and\n      mul\n      or\n      swap1\n      sstore\n      pop\n      pop\n        /* \"src/funding/src/contracts/FundingFactory.sol\":815:830  creatorFundings */\n      0x2\n        /* \"src/funding/src/contracts/FundingFactory.sol\":815:842  creatorFundings[msg.sender] */\n      0x0\n        /* \"src/funding/src/contracts/FundingFactory.sol\":831:841  msg.sender */\n      caller\n        /* \"src/funding/src/contracts/FundingFactory.sol\":815:842  creatorFundings[msg.sender] */\n      0xffffffffffffffffffffffffffffffffffffffff\n      and\n      0xffffffffffffffffffffffffffffffffffffffff\n      and\n      dup2\n      mstore\n      0x20\n      add\n      swap1\n      dup2\n      mstore\n      0x20\n      add\n      0x0\n      keccak256\n        /* \"src/funding/src/contracts/FundingFactory.sol\":848:862  fundingAddress */\n      dup2\n        /* \"src/funding/src/contracts/FundingFactory.sol\":815:863  creatorFundings[msg.sender].push(fundingAddress) */\n      swap1\n      dup1\n        /* \"--CODEGEN--\":39:40   */\n      0x1\n        /* \"--CODEGEN--\":33:36   */\n      dup2\n        /* \"--CODEGEN--\":27:37   */\n      sload\n        /* \"--CODEGEN--\":23:41   */\n      add\n        /* \"--CODEGEN--\":57:67   */\n      dup1\n        /* \"--CODEGEN--\":52:55   */\n      dup3\n        /* \"--CODEGEN--\":45:68   */\n      sstore\n        /* \"--CODEGEN--\":79:89   */\n      dup1\n        /* \"--CODEGEN--\":72:89   */\n      swap2\n      pop\n        /* \"--CODEGEN--\":0:93   */\n      pop\n        /* \"src/funding/src/contracts/FundingFactory.sol\":815:863  creatorFundings[msg.sender].push(fundingAddress) */\n      swap1\n      0x1\n      dup3\n      sub\n      swap1\n      0x0\n      mstore\n      keccak256(0x0, 0x20)\n      add\n      0x0\n      swap1\n      swap2\n      swap3\n      swap1\n      swap2\n      swap1\n      swap2\n      0x100\n      exp\n      dup2\n      sload\n      dup2\n      0xffffffffffffffffffffffffffffffffffffffff\n      mul\n      not\n      and\n      swap1\n      dup4\n      0xffffffffffffffffffffffffffffffffffffffff\n      and\n      mul\n      or\n      swap1\n      sstore\n      pop\n      pop\n        /* \"src/funding/src/contracts/FundingFactory.sol\":508:871  function createFunding(string _projectName, uint256 _targetMoney, uint256 _supportMoney, uint256 _duration) public{\r... */\n      pop\n      pop\n      pop\n      pop\n      pop\n      jump\t// out\n        /* \"src/funding/src/contracts/FundingFactory.sol\":879:973  function getAllFundings() public view returns (address[]){\r... */\n    tag_11:\n        /* \"src/funding/src/contracts/FundingFactory.sol\":926:935  address[] */\n      0x60\n        /* \"src/funding/src/contracts/FundingFactory.sol\":954:965  allFundings */\n      0x1\n        /* \"src/funding/src/contracts/FundingFactory.sol\":947:965  return allFundings */\n      dup1\n      sload\n      dup1\n      0x20\n      mul\n      0x20\n      add\n      mload(0x40)\n      swap1\n      dup2\n      add\n      0x40\n      mstore\n      dup1\n      swap3\n      swap2\n      swap1\n      dup2\n      dup2\n      mstore\n      0x20\n      add\n      dup3\n      dup1\n      sload\n      dup1\n      iszero\n      tag_38\n      jumpi\n      0x20\n      mul\n      dup3\n      add\n      swap2\n      swap1\n      0x0\n      mstore\n      keccak256(0x0, 0x20)\n      swap1\n    tag_39:\n      dup2\n      0x0\n      swap1\n      sload\n      swap1\n      0x100\n      exp\n      swap1\n      div\n      0xffffffffffffffffffffffffffffffffffffffff\n      and\n      0xffffffffffffffffffffffffffffffffffffffff\n      and\n      dup2\n      mstore\n      0x20\n      add\n      swap1\n      0x1\n      add\n      swap1\n      dup1\n      dup4\n      gt\n      tag_39\n      jumpi\n    tag_38:\n      pop\n      pop\n      pop\n      pop\n      pop\n      swap1\n      pop\n        /* \"src/funding/src/contracts/FundingFactory.sol\":879:973  function getAllFundings() public view returns (address[]){\r... */\n      swap1\n      jump\t// out\n        /* \"src/funding/src/contracts/FundingFactory.sol\":1103:1241  function getSupporterFundings() public view returns (address[]){\r... */\n    tag_17:\n        /* \"src/funding/src/contracts/FundingFactory.sol\":1156:1165  address[] */\n      0x60\n        /* \"src/funding/src/contracts/FundingFactory.sol\":1184:1209  supporterFundingsContract */\n      0x3\n      0x0\n      swap1\n      sload\n      swap1\n      0x100\n      exp\n      swap1\n      div\n      0xffffffffffffffffffffffffffffffffffffffff\n      and\n        /* \"src/funding/src/contracts/FundingFactory.sol\":1184:1221  supporterFundingsContract.getFundings */\n      0xffffffffffffffffffffffffffffffffffffffff\n      and\n      0x4ca765a7\n        /* \"src/funding/src/contracts/FundingFactory.sol\":1222:1232  msg.sender */\n      caller\n        /* \"src/funding/src/contracts/FundingFactory.sol\":1184:1233  supporterFundingsContract.getFundings(msg.sender) */\n      mload(0x40)\n      dup3\n      0xffffffff\n      and\n      0x100000000000000000000000000000000000000000000000000000000\n      mul\n      dup2\n      mstore\n      0x4\n      add\n      dup1\n      dup3\n      0xffffffffffffffffffffffffffffffffffffffff\n      and\n      0xffffffffffffffffffffffffffffffffffffffff\n      and\n      dup2\n      mstore\n      0x20\n      add\n      swap2\n      pop\n      pop\n      0x0\n      mload(0x40)\n      dup1\n      dup4\n      sub\n      dup2\n      0x0\n      dup8\n      dup1\n      extcodesize\n      iszero\n        /* \"--CODEGEN--\":8:17   */\n      dup1\n        /* \"--CODEGEN--\":5:7   */\n      iszero\n      tag_41\n      jumpi\n        /* \"--CODEGEN--\":30:31   */\n      0x0\n        /* \"--CODEGEN--\":27:28   */\n      dup1\n        /* \"--CODEGEN--\":20:32   */\n      revert\n        /* \"--CODEGEN--\":5:7   */\n    tag_41:\n        /* \"src/funding/src/contracts/FundingFactory.sol\":1184:1233  supporterFundingsContract.getFundings(msg.sender) */\n      pop\n      gas\n      call\n      iszero\n        /* \"--CODEGEN--\":8:17   */\n      dup1\n        /* \"--CODEGEN--\":5:7   */\n      iszero\n      tag_42\n      jumpi\n        /* \"--CODEGEN--\":45:61   */\n      returndatasize\n        /* \"--CODEGEN--\":42:43   */\n      0x0\n        /* \"--CODEGEN--\":39:40   */\n      dup1\n        /* \"--CODEGEN--\":24:62   */\n      returndatacopy\n        /* \"--CODEGEN--\":77:93   */\n      returndatasize\n        /* \"--CODEGEN--\":74:75   */\n      0x0\n        /* \"--CODEGEN--\":67:94   */\n      revert\n        /* \"--CODEGEN--\":5:7   */\n    tag_42:\n        /* \"src/funding/src/contracts/FundingFactory.sol\":1184:1233  supporterFundingsContract.getFundings(msg.sender) */\n      pop\n      pop\n      pop\n      pop\n      mload(0x40)\n        /* \"--CODEGEN--\":39:55   */\n      returndatasize\n        /* \"--CODEGEN--\":36:37   */\n      0x0\n        /* \"--CODEGEN--\":17:34   */\n      dup3\n        /* \"--CODEGEN--\":2:56   */\n      returndatacopy\n        /* \"src/funding/src/contracts/FundingFactory.sol\":1184:1233  supporterFundingsContract.getFundings(msg.sender) */\n      returndatasize\n        /* \"--CODEGEN--\":101:105   */\n      0x1f\n        /* \"--CODEGEN--\":97:106   */\n      not\n        /* \"--CODEGEN--\":90:94   */\n      0x1f\n        /* \"--CODEGEN--\":84:88   */\n      dup3\n        /* \"--CODEGEN--\":80:95   */\n      add\n        /* \"--CODEGEN--\":76:107   */\n      and\n        /* \"--CODEGEN--\":69:74   */\n      dup3\n        /* \"--CODEGEN--\":65:108   */\n      add\n        /* \"--CODEGEN--\":126:132   */\n      dup1\n        /* \"--CODEGEN--\":120:124   */\n      0x40\n        /* \"--CODEGEN--\":113:133   */\n      mstore\n        /* \"--CODEGEN--\":0:138   */\n      pop\n        /* \"--CODEGEN--\":13:15   */\n      0x20\n        /* \"--CODEGEN--\":8:11   */\n      dup2\n        /* \"--CODEGEN--\":5:16   */\n      lt\n        /* \"--CODEGEN--\":2:4   */\n      iszero\n      tag_43\n      jumpi\n        /* \"--CODEGEN--\":29:30   */\n      0x0\n        /* \"--CODEGEN--\":26:27   */\n      dup1\n        /* \"--CODEGEN--\":19:31   */\n      revert\n        /* \"--CODEGEN--\":2:4   */\n    tag_43:\n        /* \"src/funding/src/contracts/FundingFactory.sol\":1184:1233  supporterFundingsContract.getFundings(msg.sender) */\n      dup2\n      add\n      swap1\n      dup1\n      dup1\n      mload\n        /* \"--CODEGEN--\":20:31   */\n      0x100000000\n        /* \"--CODEGEN--\":15:18   */\n      dup2\n        /* \"--CODEGEN--\":12:32   */\n      gt\n        /* \"--CODEGEN--\":9:11   */\n      iszero\n      tag_44\n      jumpi\n        /* \"--CODEGEN--\":45:46   */\n      0x0\n        /* \"--CODEGEN--\":42:43   */\n      dup1\n        /* \"--CODEGEN--\":35:47   */\n      revert\n        /* \"--CODEGEN--\":9:11   */\n    tag_44:\n        /* \"--CODEGEN--\":73:84   */\n      dup3\n        /* \"--CODEGEN--\":68:71   */\n      dup2\n        /* \"--CODEGEN--\":64:85   */\n      add\n        /* \"--CODEGEN--\":57:85   */\n      swap1\n      pop\n        /* \"--CODEGEN--\":126:130   */\n      0x20\n        /* \"--CODEGEN--\":121:124   */\n      dup2\n        /* \"--CODEGEN--\":117:131   */\n      add\n        /* \"--CODEGEN--\":163:172   */\n      dup5\n        /* \"--CODEGEN--\":145:161   */\n      dup2\n        /* \"--CODEGEN--\":142:173   */\n      gt\n        /* \"--CODEGEN--\":139:141   */\n      iszero\n      tag_45\n      jumpi\n        /* \"--CODEGEN--\":186:187   */\n      0x0\n        /* \"--CODEGEN--\":183:184   */\n      dup1\n        /* \"--CODEGEN--\":176:188   */\n      revert\n        /* \"--CODEGEN--\":139:141   */\n    tag_45:\n        /* \"--CODEGEN--\":224:227   */\n      dup2\n        /* \"--CODEGEN--\":218:228   */\n      mload\n        /* \"--CODEGEN--\":339:348   */\n      dup6\n        /* \"--CODEGEN--\":333:335   */\n      0x20\n        /* \"--CODEGEN--\":319:331   */\n      dup3\n        /* \"--CODEGEN--\":315:336   */\n      mul\n        /* \"--CODEGEN--\":297:313   */\n      dup4\n        /* \"--CODEGEN--\":293:337   */\n      add\n        /* \"--CODEGEN--\":290:349   */\n      gt\n        /* \"--CODEGEN--\":268:279   */\n      0x100000000\n        /* \"--CODEGEN--\":254:266   */\n      dup3\n        /* \"--CODEGEN--\":251:280   */\n      gt\n        /* \"--CODEGEN--\":239:358   */\n      or\n        /* \"--CODEGEN--\":236:238   */\n      iszero\n      tag_46\n      jumpi\n        /* \"--CODEGEN--\":371:372   */\n      0x0\n        /* \"--CODEGEN--\":368:369   */\n      dup1\n        /* \"--CODEGEN--\":361:373   */\n      revert\n        /* \"--CODEGEN--\":236:238   */\n    tag_46:\n        /* \"--CODEGEN--\":0:383   */\n      pop\n      pop\n        /* \"src/funding/src/contracts/FundingFactory.sol\":1184:1233  supporterFundingsContract.getFundings(msg.sender) */\n      swap3\n      swap2\n      swap1\n      pop\n      pop\n      pop\n        /* \"src/funding/src/contracts/FundingFactory.sol\":1177:1233  return supporterFundingsContract.getFundings(msg.sender) */\n      swap1\n      pop\n        /* \"src/funding/src/contracts/FundingFactory.sol\":1103:1241  function getSupporterFundings() public view returns (address[]){\r... */\n      swap1\n      jump\t// out\n        /* \"src/funding/src/contracts/FundingFactory.sol\":981:1095  function getCreatorFundings() public view returns (address[]){\r... */\n    tag_23:\n        /* \"src/funding/src/contracts/FundingFactory.sol\":1032:1041  address[] */\n      0x60\n        /* \"src/funding/src/contracts/FundingFactory.sol\":1060:1075  creatorFundings */\n      0x2\n        /* \"src/funding/src/contracts/FundingFactory.sol\":1060:1087  creatorFundings[msg.sender] */\n      0x0\n        /* \"src/funding/src/contracts/FundingFactory.sol\":1076:1086  msg.sender */\n      caller\n        /* \"src/funding/src/contracts/FundingFactory.sol\":1060:1087  creatorFundings[msg.sender] */\n      0xffffffffffffffffffffffffffffffffffffffff\n      and\n      0xffffffffffffffffffffffffffffffffffffffff\n      and\n      dup2\n      mstore\n      0x20\n      add\n      swap1\n      dup2\n      mstore\n      0x20\n      add\n      0x0\n      keccak256\n        /* \"src/funding/src/contracts/FundingFactory.sol\":1053:1087  return creatorFundings[msg.sender] */\n      dup1\n      sload\n      dup1\n      0x20\n      mul\n      0x20\n      add\n      mload(0x40)\n      swap1\n      dup2\n      add\n      0x40\n      mstore\n      dup1\n      swap3\n      swap2\n      swap1\n      dup2\n      dup2\n      mstore\n      0x20\n      add\n      dup3\n      dup1\n      sload\n      dup1\n      iszero\n      tag_48\n      jumpi\n      0x20\n      mul\n      dup3\n      add\n      swap2\n      swap1\n      0x0\n      mstore\n      keccak256(0x0, 0x20)\n      swap1\n    tag_49:\n      dup2\n      0x0\n      swap1\n      sload\n      swap1\n      0x100\n      exp\n      swap1\n      div\n      0xffffffffffffffffffffffffffffffffffffffff\n      and\n      0xffffffffffffffffffffffffffffffffffffffff\n      and\n      dup2\n      mstore\n      0x20\n      add\n      swap1\n      0x1\n      add\n      swap1\n      dup1\n      dup4\n      gt\n      tag_49\n      jumpi\n    tag_48:\n      pop\n      pop\n      pop\n      pop\n      pop\n      swap1\n      pop\n        /* \"src/funding/src/contracts/FundingFactory.sol\":981:1095  function getCreatorFundings() public view returns (address[]){\r... */\n      swap1\n      jump\t// out\n        /* \"src/funding/src/contracts/FundingFactory.sol\":55:1244  contract FundingFactory {\r... */\n    tag_29:\n      mload(0x40)\n      dataSize(sub_0)\n      dup1\n      dataOffset(sub_0)\n      dup4\n      codecopy\n      add\n      swap1\n      jump\t// out\n    stop\n\n    sub_0: assembly {\n            /* \"src/funding/src/contracts/Funding.sol\":62:4731  contract Funding {\r... */\n          mstore(0x40, 0x80)\n            /* \"src/funding/src/contracts/Funding.sol\":505:942  constructor (address _creator,string _projectName, uint256 _targetMoney, uint256 _supportMoney, uint256 _duration,    SupportFundingContract _supporterFundingsContract) public {\r... */\n          callvalue\n            /* \"--CODEGEN--\":8:17   */\n          dup1\n            /* \"--CODEGEN--\":5:7   */\n          iszero\n          tag_1\n          jumpi\n            /* \"--CODEGEN--\":30:31   */\n          0x0\n            /* \"--CODEGEN--\":27:28   */\n          dup1\n            /* \"--CODEGEN--\":20:32   */\n          revert\n            /* \"--CODEGEN--\":5:7   */\n        tag_1:\n            /* \"src/funding/src/contracts/Funding.sol\":505:942  constructor (address _creator,string _projectName, uint256 _targetMoney, uint256 _supportMoney, uint256 _duration,    SupportFundingContract _supporterFundingsContract) public {\r... */\n          pop\n          mload(0x40)\n          sub(codesize, bytecodeSize)\n          dup1\n          bytecodeSize\n          dup4\n          codecopy\n          dup2\n          add\n          dup1\n          0x40\n          mstore\n          dup2\n          add\n          swap1\n          dup1\n          dup1\n          mload\n          swap1\n          0x20\n          add\n          swap1\n          swap3\n          swap2\n          swap1\n          dup1\n          mload\n          dup3\n          add\n          swap3\n          swap2\n          swap1\n          0x20\n          add\n          dup1\n          mload\n          swap1\n          0x20\n          add\n          swap1\n          swap3\n          swap2\n          swap1\n          dup1\n          mload\n          swap1\n          0x20\n          add\n          swap1\n          swap3\n          swap2\n          swap1\n          dup1\n          mload\n          swap1\n          0x20\n          add\n          swap1\n          swap3\n          swap2\n          swap1\n          dup1\n          mload\n          swap1\n          0x20\n          add\n          swap1\n          swap3\n          swap2\n          swap1\n          pop\n          pop\n          pop\n            /* \"src/funding/src/contracts/Funding.sol\":702:710  _creator */\n          dup6\n            /* \"src/funding/src/contracts/Funding.sol\":692:699  manager */\n          0x0\n          dup1\n            /* \"src/funding/src/contracts/Funding.sol\":692:710  manager = _creator */\n          0x100\n          exp\n          dup2\n          sload\n          dup2\n          0xffffffffffffffffffffffffffffffffffffffff\n          mul\n          not\n          and\n          swap1\n          dup4\n          0xffffffffffffffffffffffffffffffffffffffff\n          and\n          mul\n          or\n          swap1\n          sstore\n          pop\n            /* \"src/funding/src/contracts/Funding.sol\":735:747  _projectName */\n          dup5\n            /* \"src/funding/src/contracts/Funding.sol\":721:732  projectName */\n          0x1\n            /* \"src/funding/src/contracts/Funding.sol\":721:747  projectName = _projectName */\n          swap1\n          dup1\n          mload\n          swap1\n          0x20\n          add\n          swap1\n          tag_4\n          swap3\n          swap2\n          swap1\n          jump\t// in(tag_5)\n        tag_4:\n          pop\n            /* \"src/funding/src/contracts/Funding.sol\":772:784  _targetMoney */\n          dup4\n            /* \"src/funding/src/contracts/Funding.sol\":758:769  targetMoney */\n          0x2\n            /* \"src/funding/src/contracts/Funding.sol\":758:784  targetMoney = _targetMoney */\n          dup2\n          swap1\n          sstore\n          pop\n            /* \"src/funding/src/contracts/Funding.sol\":810:823  _supportMoney */\n          dup3\n            /* \"src/funding/src/contracts/Funding.sol\":795:807  supportMoney */\n          0x3\n            /* \"src/funding/src/contracts/Funding.sol\":795:823  supportMoney = _supportMoney */\n          dup2\n          swap1\n          sstore\n          pop\n            /* \"src/funding/src/contracts/Funding.sol\":862:871  _duration */\n          dup2\n            /* \"src/funding/src/contracts/Funding.sol\":844:859  block.timestamp */\n          timestamp\n            /* \"src/funding/src/contracts/Funding.sol\":844:871  block.timestamp + _duration */\n          add\n            /* \"src/funding/src/contracts/Funding.sol\":834:841  endTime */\n          0x4\n            /* \"src/funding/src/contracts/Funding.sol\":834:871  endTime = block.timestamp + _duration */\n          dup2\n          swap1\n          sstore\n          pop\n            /* \"src/funding/src/contracts/Funding.sol\":908:934  _supporterFundingsContract */\n          dup1\n            /* \"src/funding/src/contracts/Funding.sol\":882:907  supporterFundingsContract */\n          0x8\n          0x0\n            /* \"src/funding/src/contracts/Funding.sol\":882:934  supporterFundingsContract=_supporterFundingsContract */\n          0x100\n          exp\n          dup2\n          sload\n          dup2\n          0xffffffffffffffffffffffffffffffffffffffff\n          mul\n          not\n          and\n          swap1\n          dup4\n          0xffffffffffffffffffffffffffffffffffffffff\n          and\n          mul\n          or\n          swap1\n          sstore\n          pop\n            /* \"src/funding/src/contracts/Funding.sol\":505:942  constructor (address _creator,string _projectName, uint256 _targetMoney, uint256 _supportMoney, uint256 _duration,    SupportFundingContract _supporterFundingsContract) public {\r... */\n          pop\n          pop\n          pop\n          pop\n          pop\n          pop\n            /* \"src/funding/src/contracts/Funding.sol\":62:4731  contract Funding {\r... */\n          jump(tag_6)\n        tag_5:\n          dup3\n          dup1\n          sload\n          0x1\n          dup2\n          0x1\n          and\n          iszero\n          0x100\n          mul\n          sub\n          and\n          0x2\n          swap1\n          div\n          swap1\n          0x0\n          mstore\n          keccak256(0x0, 0x20)\n          swap1\n          0x1f\n          add\n          0x20\n          swap1\n          div\n          dup2\n          add\n          swap3\n          dup3\n          0x1f\n          lt\n          tag_8\n          jumpi\n          dup1\n          mload\n          not(0xff)\n          and\n          dup4\n          dup1\n          add\n          or\n          dup6\n          sstore\n          jump(tag_7)\n        tag_8:\n          dup3\n          dup1\n          add\n          0x1\n          add\n          dup6\n          sstore\n          dup3\n          iszero\n          tag_7\n          jumpi\n          swap2\n          dup3\n          add\n        tag_9:\n          dup3\n          dup2\n          gt\n          iszero\n          tag_10\n          jumpi\n          dup3\n          mload\n          dup3\n          sstore\n          swap2\n          0x20\n          add\n          swap2\n          swap1\n          0x1\n          add\n          swap1\n          jump(tag_9)\n        tag_10:\n        tag_7:\n          pop\n          swap1\n          pop\n          tag_11\n          swap2\n          swap1\n          jump\t// in(tag_12)\n        tag_11:\n          pop\n          swap1\n          jump\t// out\n        tag_12:\n          tag_13\n          swap2\n          swap1\n        tag_14:\n          dup1\n          dup3\n          gt\n          iszero\n          tag_15\n          jumpi\n          0x0\n          dup2\n          0x0\n          swap1\n          sstore\n          pop\n          0x1\n          add\n          jump(tag_14)\n        tag_15:\n          pop\n          swap1\n          jump\n        tag_13:\n          swap1\n          jump\t// out\n        tag_6:\n          dataSize(sub_0)\n          dup1\n          dataOffset(sub_0)\n          0x0\n          codecopy\n          0x0\n          return\n        stop\n\n        sub_0: assembly {\n                /* \"src/funding/src/contracts/Funding.sol\":62:4731  contract Funding {\r... */\n              mstore(0x40, 0x80)\n              jumpi(tag_1, lt(calldatasize, 0x4))\n              calldataload(0x0)\n              0x100000000000000000000000000000000000000000000000000000000\n              swap1\n              div\n              0xffffffff\n              and\n              dup1\n              0x3441006\n              eq\n              tag_2\n              jumpi\n              dup1\n              0x119f8747\n              eq\n              tag_3\n              jumpi\n              dup1\n              0x12065fe0\n              eq\n              tag_4\n              jumpi\n              dup1\n              0x3197cbb6\n              eq\n              tag_5\n              jumpi\n              dup1\n              0x3410452a\n              eq\n              tag_6\n              jumpi\n              dup1\n              0x3c24b7d7\n              eq\n              tag_7\n              jumpi\n              dup1\n              0x43020b1a\n              eq\n              tag_8\n              jumpi\n              dup1\n              0x481c6a75\n              eq\n              tag_9\n              jumpi\n              dup1\n              0x590e1ae3\n              eq\n              tag_10\n              jumpi\n              dup1\n              0x63b393d8\n              eq\n              tag_11\n              jumpi\n              dup1\n              0x69efb694\n              eq\n              tag_12\n              jumpi\n              dup1\n              0x8a9cfd55\n              eq\n              tag_13\n              jumpi\n              dup1\n              0x8d7cdb91\n              eq\n              tag_14\n              jumpi\n              dup1\n              0x9a33e300\n              eq\n              tag_15\n              jumpi\n              dup1\n              0xa5d5c5dc\n              eq\n              tag_16\n              jumpi\n              dup1\n              0xd7d1bbdb\n              eq\n              tag_17\n              jumpi\n              dup1\n              0xfc2615d5\n              eq\n              tag_18\n              jumpi\n            tag_1:\n              0x0\n              dup1\n              revert\n                /* \"src/funding/src/contracts/Funding.sol\":3365:3947  function finalizeRequest(uint256 _requestId) public isManager{\r... */\n            tag_2:\n              callvalue\n                /* \"--CODEGEN--\":8:17   */\n              dup1\n                /* \"--CODEGEN--\":5:7   */\n              iszero\n              tag_19\n              jumpi\n                /* \"--CODEGEN--\":30:31   */\n              0x0\n                /* \"--CODEGEN--\":27:28   */\n              dup1\n                /* \"--CODEGEN--\":20:32   */\n              revert\n                /* \"--CODEGEN--\":5:7   */\n            tag_19:\n                /* \"src/funding/src/contracts/Funding.sol\":3365:3947  function finalizeRequest(uint256 _requestId) public isManager{\r... */\n              pop\n              tag_20\n              0x4\n              dup1\n              calldatasize\n              sub\n              dup2\n              add\n              swap1\n              dup1\n              dup1\n              calldataload\n              swap1\n              0x20\n              add\n              swap1\n              swap3\n              swap2\n              swap1\n              pop\n              pop\n              pop\n              jump(tag_21)\n            tag_20:\n              stop\n                /* \"src/funding/src/contracts/Funding.sol\":1088:1344  function support() payable public {\r... */\n            tag_3:\n              tag_22\n              jump(tag_23)\n            tag_22:\n              stop\n                /* \"src/funding/src/contracts/Funding.sol\":1571:1669  function getBalance() public view returns (uint256){\r... */\n            tag_4:\n              callvalue\n                /* \"--CODEGEN--\":8:17   */\n              dup1\n                /* \"--CODEGEN--\":5:7   */\n              iszero\n              tag_24\n              jumpi\n                /* \"--CODEGEN--\":30:31   */\n              0x0\n                /* \"--CODEGEN--\":27:28   */\n              dup1\n                /* \"--CODEGEN--\":20:32   */\n              revert\n                /* \"--CODEGEN--\":5:7   */\n            tag_24:\n                /* \"src/funding/src/contracts/Funding.sol\":1571:1669  function getBalance() public view returns (uint256){\r... */\n              pop\n              tag_25\n              jump(tag_26)\n            tag_25:\n              mload(0x40)\n              dup1\n              dup3\n              dup2\n              mstore\n              0x20\n              add\n              swap2\n              pop\n              pop\n              mload(0x40)\n              dup1\n              swap2\n              sub\n              swap1\n              return\n                /* \"src/funding/src/contracts/Funding.sol\":216:238  uint256 public endTime */\n            tag_5:\n              callvalue\n                /* \"--CODEGEN--\":8:17   */\n              dup1\n                /* \"--CODEGEN--\":5:7   */\n              iszero\n              tag_27\n              jumpi\n                /* \"--CODEGEN--\":30:31   */\n              0x0\n                /* \"--CODEGEN--\":27:28   */\n              dup1\n                /* \"--CODEGEN--\":20:32   */\n              revert\n                /* \"--CODEGEN--\":5:7   */\n            tag_27:\n                /* \"src/funding/src/contracts/Funding.sol\":216:238  uint256 public endTime */\n              pop\n              tag_28\n              jump(tag_29)\n            tag_28:\n              mload(0x40)\n              dup1\n              dup3\n              dup2\n              mstore\n              0x20\n              add\n              swap2\n              pop\n              pop\n              mload(0x40)\n              dup1\n              swap2\n              sub\n              swap1\n              return\n                /* \"src/funding/src/contracts/Funding.sol\":4183:4281  function getRequestsCount() public view returns (uint256){\r... */\n            tag_6:\n              callvalue\n                /* \"--CODEGEN--\":8:17   */\n              dup1\n                /* \"--CODEGEN--\":5:7   */\n              iszero\n              tag_30\n              jumpi\n                /* \"--CODEGEN--\":30:31   */\n              0x0\n                /* \"--CODEGEN--\":27:28   */\n              dup1\n                /* \"--CODEGEN--\":20:32   */\n              revert\n                /* \"--CODEGEN--\":5:7   */\n            tag_30:\n                /* \"src/funding/src/contracts/Funding.sol\":4183:4281  function getRequestsCount() public view returns (uint256){\r... */\n              pop\n              tag_31\n              jump(tag_32)\n            tag_31:\n              mload(0x40)\n              dup1\n              dup3\n              dup2\n              mstore\n              0x20\n              add\n              swap2\n              pop\n              pop\n              mload(0x40)\n              dup1\n              swap2\n              sub\n              swap1\n              return\n                /* \"src/funding/src/contracts/Funding.sol\":271:298  address[] public supporters */\n            tag_7:\n              callvalue\n                /* \"--CODEGEN--\":8:17   */\n              dup1\n                /* \"--CODEGEN--\":5:7   */\n              iszero\n              tag_33\n              jumpi\n                /* \"--CODEGEN--\":30:31   */\n              0x0\n                /* \"--CODEGEN--\":27:28   */\n              dup1\n                /* \"--CODEGEN--\":20:32   */\n              revert\n                /* \"--CODEGEN--\":5:7   */\n            tag_33:\n                /* \"src/funding/src/contracts/Funding.sol\":271:298  address[] public supporters */\n              pop\n              tag_34\n              0x4\n              dup1\n              calldatasize\n              sub\n              dup2\n              add\n              swap1\n              dup1\n              dup1\n              calldataload\n              swap1\n              0x20\n              add\n              swap1\n              swap3\n              swap2\n              swap1\n              pop\n              pop\n              pop\n              jump(tag_35)\n            tag_34:\n              mload(0x40)\n              dup1\n              dup3\n              0xffffffffffffffffffffffffffffffffffffffff\n              and\n              0xffffffffffffffffffffffffffffffffffffffff\n              and\n              dup2\n              mstore\n              0x20\n              add\n              swap2\n              pop\n              pop\n              mload(0x40)\n              dup1\n              swap2\n              sub\n              swap1\n              return\n                /* \"src/funding/src/contracts/Funding.sol\":1677:1769  function getSupporters() public view returns (address[]){\r... */\n            tag_8:\n              callvalue\n                /* \"--CODEGEN--\":8:17   */\n              dup1\n                /* \"--CODEGEN--\":5:7   */\n              iszero\n              tag_36\n              jumpi\n                /* \"--CODEGEN--\":30:31   */\n              0x0\n                /* \"--CODEGEN--\":27:28   */\n              dup1\n                /* \"--CODEGEN--\":20:32   */\n              revert\n                /* \"--CODEGEN--\":5:7   */\n            tag_36:\n                /* \"src/funding/src/contracts/Funding.sol\":1677:1769  function getSupporters() public view returns (address[]){\r... */\n              pop\n              tag_37\n              jump(tag_38)\n            tag_37:\n              mload(0x40)\n              dup1\n              dup1\n              0x20\n              add\n              dup3\n              dup2\n              sub\n              dup3\n              mstore\n              dup4\n              dup2\n              dup2\n              mload\n              dup2\n              mstore\n              0x20\n              add\n              swap2\n              pop\n              dup1\n              mload\n              swap1\n              0x20\n              add\n              swap1\n              0x20\n              mul\n              dup1\n              dup4\n              dup4\n                /* \"--CODEGEN--\":23:24   */\n              0x0\n                /* \"--CODEGEN--\":8:108   */\n            tag_39:\n                /* \"--CODEGEN--\":33:36   */\n              dup4\n                /* \"--CODEGEN--\":30:31   */\n              dup2\n                /* \"--CODEGEN--\":27:37   */\n              lt\n                /* \"--CODEGEN--\":8:108   */\n              iszero\n              tag_40\n              jumpi\n                /* \"--CODEGEN--\":99:100   */\n              dup1\n                /* \"--CODEGEN--\":94:97   */\n              dup3\n                /* \"--CODEGEN--\":90:101   */\n              add\n                /* \"--CODEGEN--\":84:102   */\n              mload\n                /* \"--CODEGEN--\":80:81   */\n              dup2\n                /* \"--CODEGEN--\":75:78   */\n              dup5\n                /* \"--CODEGEN--\":71:82   */\n              add\n                /* \"--CODEGEN--\":64:103   */\n              mstore\n                /* \"--CODEGEN--\":52:54   */\n              0x20\n                /* \"--CODEGEN--\":49:50   */\n              dup2\n                /* \"--CODEGEN--\":45:55   */\n              add\n                /* \"--CODEGEN--\":40:55   */\n              swap1\n              pop\n                /* \"--CODEGEN--\":8:108   */\n              jump(tag_39)\n            tag_40:\n                /* \"--CODEGEN--\":12:26   */\n              pop\n                /* \"src/funding/src/contracts/Funding.sol\":1677:1769  function getSupporters() public view returns (address[]){\r... */\n              pop\n              pop\n              pop\n              swap1\n              pop\n              add\n              swap3\n              pop\n              pop\n              pop\n              mload(0x40)\n              dup1\n              swap2\n              sub\n              swap1\n              return\n                /* \"src/funding/src/contracts/Funding.sol\":88:110  address public manager */\n            tag_9:\n              callvalue\n                /* \"--CODEGEN--\":8:17   */\n              dup1\n                /* \"--CODEGEN--\":5:7   */\n              iszero\n              tag_42\n              jumpi\n                /* \"--CODEGEN--\":30:31   */\n              0x0\n                /* \"--CODEGEN--\":27:28   */\n              dup1\n                /* \"--CODEGEN--\":20:32   */\n              revert\n                /* \"--CODEGEN--\":5:7   */\n            tag_42:\n                /* \"src/funding/src/contracts/Funding.sol\":88:110  address public manager */\n              pop\n              tag_43\n              jump(tag_44)\n            tag_43:\n              mload(0x40)\n              dup1\n              dup3\n              0xffffffffffffffffffffffffffffffffffffffff\n              and\n              0xffffffffffffffffffffffffffffffffffffffff\n              and\n              dup2\n              mstore\n              0x20\n              add\n              swap2\n              pop\n              pop\n              mload(0x40)\n              dup1\n              swap2\n              sub\n              swap1\n              return\n                /* \"src/funding/src/contracts/Funding.sol\":1370:1563  function refund() public isManager{\r... */\n            tag_10:\n              callvalue\n                /* \"--CODEGEN--\":8:17   */\n              dup1\n                /* \"--CODEGEN--\":5:7   */\n              iszero\n              tag_45\n              jumpi\n                /* \"--CODEGEN--\":30:31   */\n              0x0\n                /* \"--CODEGEN--\":27:28   */\n              dup1\n                /* \"--CODEGEN--\":20:32   */\n              revert\n                /* \"--CODEGEN--\":5:7   */\n            tag_45:\n                /* \"src/funding/src/contracts/Funding.sol\":1370:1563  function refund() public isManager{\r... */\n              pop\n              tag_46\n              jump(tag_47)\n            tag_46:\n              stop\n                /* \"src/funding/src/contracts/Funding.sol\":3955:4057  function getSupportersCount() public view returns (uint256){\r... */\n            tag_11:\n              callvalue\n                /* \"--CODEGEN--\":8:17   */\n              dup1\n                /* \"--CODEGEN--\":5:7   */\n              iszero\n              tag_48\n              jumpi\n                /* \"--CODEGEN--\":30:31   */\n              0x0\n                /* \"--CODEGEN--\":27:28   */\n              dup1\n                /* \"--CODEGEN--\":20:32   */\n              revert\n                /* \"--CODEGEN--\":5:7   */\n            tag_48:\n                /* \"src/funding/src/contracts/Funding.sol\":3955:4057  function getSupportersCount() public view returns (uint256){\r... */\n              pop\n              tag_49\n              jump(tag_50)\n            tag_49:\n              mload(0x40)\n              dup1\n              dup3\n              dup2\n              mstore\n              0x20\n              add\n              swap2\n              pop\n              pop\n              mload(0x40)\n              dup1\n              swap2\n              sub\n              swap1\n              return\n                /* \"src/funding/src/contracts/Funding.sol\":4291:4724  function getRequestDetailByIndex(uint256 _requestId) public view returns (string, uint256, address, uint256, bool, uint256){\r... */\n            tag_12:\n              callvalue\n                /* \"--CODEGEN--\":8:17   */\n              dup1\n                /* \"--CODEGEN--\":5:7   */\n              iszero\n              tag_51\n              jumpi\n                /* \"--CODEGEN--\":30:31   */\n              0x0\n                /* \"--CODEGEN--\":27:28   */\n              dup1\n                /* \"--CODEGEN--\":20:32   */\n              revert\n                /* \"--CODEGEN--\":5:7   */\n            tag_51:\n                /* \"src/funding/src/contracts/Funding.sol\":4291:4724  function getRequestDetailByIndex(uint256 _requestId) public view returns (string, uint256, address, uint256, bool, uint256){\r... */\n              pop\n              tag_52\n              0x4\n              dup1\n              calldatasize\n              sub\n              dup2\n              add\n              swap1\n              dup1\n              dup1\n              calldataload\n              swap1\n              0x20\n              add\n              swap1\n              swap3\n              swap2\n              swap1\n              pop\n              pop\n              pop\n              jump(tag_53)\n            tag_52:\n              mload(0x40)\n              dup1\n              dup1\n              0x20\n              add\n              dup8\n              dup2\n              mstore\n              0x20\n              add\n              dup7\n              0xffffffffffffffffffffffffffffffffffffffff\n              and\n              0xffffffffffffffffffffffffffffffffffffffff\n              and\n              dup2\n              mstore\n              0x20\n              add\n              dup6\n              dup2\n              mstore\n              0x20\n              add\n              dup5\n              iszero\n              iszero\n              iszero\n              iszero\n              dup2\n              mstore\n              0x20\n              add\n              dup4\n              dup2\n              mstore\n              0x20\n              add\n              dup3\n              dup2\n              sub\n              dup3\n              mstore\n              dup9\n              dup2\n              dup2\n              mload\n              dup2\n              mstore\n              0x20\n              add\n              swap2\n              pop\n              dup1\n              mload\n              swap1\n              0x20\n              add\n              swap1\n              dup1\n              dup4\n              dup4\n                /* \"--CODEGEN--\":23:24   */\n              0x0\n                /* \"--CODEGEN--\":8:108   */\n            tag_54:\n                /* \"--CODEGEN--\":33:36   */\n              dup4\n                /* \"--CODEGEN--\":30:31   */\n              dup2\n                /* \"--CODEGEN--\":27:37   */\n              lt\n                /* \"--CODEGEN--\":8:108   */\n              iszero\n              tag_55\n              jumpi\n                /* \"--CODEGEN--\":99:100   */\n              dup1\n                /* \"--CODEGEN--\":94:97   */\n              dup3\n                /* \"--CODEGEN--\":90:101   */\n              add\n                /* \"--CODEGEN--\":84:102   */\n              mload\n                /* \"--CODEGEN--\":80:81   */\n              dup2\n                /* \"--CODEGEN--\":75:78   */\n              dup5\n                /* \"--CODEGEN--\":71:82   */\n              add\n                /* \"--CODEGEN--\":64:103   */\n              mstore\n                /* \"--CODEGEN--\":52:54   */\n              0x20\n                /* \"--CODEGEN--\":49:50   */\n              dup2\n                /* \"--CODEGEN--\":45:55   */\n              add\n                /* \"--CODEGEN--\":40:55   */\n              swap1\n              pop\n                /* \"--CODEGEN--\":8:108   */\n              jump(tag_54)\n            tag_55:\n                /* \"--CODEGEN--\":12:26   */\n              pop\n                /* \"src/funding/src/contracts/Funding.sol\":4291:4724  function getRequestDetailByIndex(uint256 _requestId) public view returns (string, uint256, address, uint256, bool, uint256){\r... */\n              pop\n              pop\n              pop\n              swap1\n              pop\n              swap1\n              dup2\n              add\n              swap1\n              0x1f\n              and\n              dup1\n              iszero\n              tag_57\n              jumpi\n              dup1\n              dup3\n              sub\n              dup1\n              mload\n              0x1\n              dup4\n              0x20\n              sub\n              0x100\n              exp\n              sub\n              not\n              and\n              dup2\n              mstore\n              0x20\n              add\n              swap2\n              pop\n            tag_57:\n              pop\n              swap8\n              pop\n              pop\n              pop\n              pop\n              pop\n              pop\n              pop\n              pop\n              mload(0x40)\n              dup1\n              swap2\n              sub\n              swap1\n              return\n                /* \"src/funding/src/contracts/Funding.sol\":2263:2608  function createRequest(string _purpose, uint256 _cost, address _shopAddress) public isManager{\r... */\n            tag_13:\n              callvalue\n                /* \"--CODEGEN--\":8:17   */\n              dup1\n                /* \"--CODEGEN--\":5:7   */\n              iszero\n              tag_58\n              jumpi\n                /* \"--CODEGEN--\":30:31   */\n              0x0\n                /* \"--CODEGEN--\":27:28   */\n              dup1\n                /* \"--CODEGEN--\":20:32   */\n              revert\n                /* \"--CODEGEN--\":5:7   */\n            tag_58:\n                /* \"src/funding/src/contracts/Funding.sol\":2263:2608  function createRequest(string _purpose, uint256 _cost, address _shopAddress) public isManager{\r... */\n              pop\n              tag_59\n              0x4\n              dup1\n              calldatasize\n              sub\n              dup2\n              add\n              swap1\n              dup1\n              dup1\n              calldataload\n              swap1\n              0x20\n              add\n              swap1\n              dup3\n              add\n              dup1\n              calldataload\n              swap1\n              0x20\n              add\n              swap1\n              dup1\n              dup1\n              0x1f\n              add\n              0x20\n              dup1\n              swap2\n              div\n              mul\n              0x20\n              add\n              mload(0x40)\n              swap1\n              dup2\n              add\n              0x40\n              mstore\n              dup1\n              swap4\n              swap3\n              swap2\n              swap1\n              dup2\n              dup2\n              mstore\n              0x20\n              add\n              dup4\n              dup4\n              dup1\n              dup3\n              dup5\n              calldatacopy\n              dup3\n              add\n              swap2\n              pop\n              pop\n              pop\n              pop\n              pop\n              pop\n              swap2\n              swap3\n              swap2\n              swap3\n              swap1\n              dup1\n              calldataload\n              swap1\n              0x20\n              add\n              swap1\n              swap3\n              swap2\n              swap1\n              dup1\n              calldataload\n              0xffffffffffffffffffffffffffffffffffffffff\n              and\n              swap1\n              0x20\n              add\n              swap1\n              swap3\n              swap2\n              swap1\n              pop\n              pop\n              pop\n              jump(tag_60)\n            tag_59:\n              stop\n                /* \"src/funding/src/contracts/Funding.sol\":149:175  uint256 public targetMoney */\n            tag_14:\n              callvalue\n                /* \"--CODEGEN--\":8:17   */\n              dup1\n                /* \"--CODEGEN--\":5:7   */\n              iszero\n              tag_61\n              jumpi\n                /* \"--CODEGEN--\":30:31   */\n              0x0\n                /* \"--CODEGEN--\":27:28   */\n              dup1\n                /* \"--CODEGEN--\":20:32   */\n              revert\n                /* \"--CODEGEN--\":5:7   */\n            tag_61:\n                /* \"src/funding/src/contracts/Funding.sol\":149:175  uint256 public targetMoney */\n              pop\n              tag_62\n              jump(tag_63)\n            tag_62:\n              mload(0x40)\n              dup1\n              dup3\n              dup2\n              mstore\n              0x20\n              add\n              swap2\n              pop\n              pop\n              mload(0x40)\n              dup1\n              swap2\n              sub\n              swap1\n              return\n                /* \"src/funding/src/contracts/Funding.sol\":117:142  string public projectName */\n            tag_15:\n              callvalue\n                /* \"--CODEGEN--\":8:17   */\n              dup1\n                /* \"--CODEGEN--\":5:7   */\n              iszero\n              tag_64\n              jumpi\n                /* \"--CODEGEN--\":30:31   */\n              0x0\n                /* \"--CODEGEN--\":27:28   */\n              dup1\n                /* \"--CODEGEN--\":20:32   */\n              revert\n                /* \"--CODEGEN--\":5:7   */\n            tag_64:\n                /* \"src/funding/src/contracts/Funding.sol\":117:142  string public projectName */\n              pop\n              tag_65\n              jump(tag_66)\n            tag_65:\n              mload(0x40)\n              dup1\n              dup1\n              0x20\n              add\n              dup3\n              dup2\n              sub\n              dup3\n              mstore\n              dup4\n              dup2\n              dup2\n              mload\n              dup2\n              mstore\n              0x20\n              add\n              swap2\n              pop\n              dup1\n              mload\n              swap1\n              0x20\n              add\n              swap1\n              dup1\n              dup4\n              dup4\n                /* \"--CODEGEN--\":23:24   */\n              0x0\n                /* \"--CODEGEN--\":8:108   */\n            tag_67:\n                /* \"--CODEGEN--\":33:36   */\n              dup4\n                /* \"--CODEGEN--\":30:31   */\n              dup2\n                /* \"--CODEGEN--\":27:37   */\n              lt\n                /* \"--CODEGEN--\":8:108   */\n              iszero\n              tag_68\n              jumpi\n                /* \"--CODEGEN--\":99:100   */\n              dup1\n                /* \"--CODEGEN--\":94:97   */\n              dup3\n                /* \"--CODEGEN--\":90:101   */\n              add\n                /* \"--CODEGEN--\":84:102   */\n              mload\n                /* \"--CODEGEN--\":80:81   */\n              dup2\n                /* \"--CODEGEN--\":75:78   */\n              dup5\n                /* \"--CODEGEN--\":71:82   */\n              add\n                /* \"--CODEGEN--\":64:103   */\n              mstore\n                /* \"--CODEGEN--\":52:54   */\n              0x20\n                /* \"--CODEGEN--\":49:50   */\n              dup2\n                /* \"--CODEGEN--\":45:55   */\n              add\n                /* \"--CODEGEN--\":40:55   */\n              swap1\n              pop\n                /* \"--CODEGEN--\":8:108   */\n              jump(tag_67)\n            tag_68:\n                /* \"--CODEGEN--\":12:26   */\n              pop\n                /* \"src/funding/src/contracts/Funding.sol\":117:142  string public projectName */\n              pop\n              pop\n              pop\n              swap1\n              pop\n              swap1\n              dup2\n              add\n              swap1\n              0x1f\n              and\n              dup1\n              iszero\n              tag_70\n              jumpi\n              dup1\n              dup3\n              sub\n              dup1\n              mload\n              0x1\n              dup4\n              0x20\n              sub\n              0x100\n              exp\n              sub\n              not\n              and\n              dup2\n              mstore\n              0x20\n              add\n              swap2\n              pop\n            tag_70:\n              pop\n              swap3\n              pop\n              pop\n              pop\n              mload(0x40)\n              dup1\n              swap2\n              sub\n              swap1\n              return\n                /* \"src/funding/src/contracts/Funding.sol\":182:209  uint256 public supportMoney */\n            tag_16:\n              callvalue\n                /* \"--CODEGEN--\":8:17   */\n              dup1\n                /* \"--CODEGEN--\":5:7   */\n              iszero\n              tag_71\n              jumpi\n                /* \"--CODEGEN--\":30:31   */\n              0x0\n                /* \"--CODEGEN--\":27:28   */\n              dup1\n                /* \"--CODEGEN--\":20:32   */\n              revert\n                /* \"--CODEGEN--\":5:7   */\n            tag_71:\n                /* \"src/funding/src/contracts/Funding.sol\":182:209  uint256 public supportMoney */\n              pop\n              tag_72\n              jump(tag_73)\n            tag_72:\n              mload(0x40)\n              dup1\n              dup3\n              dup2\n              mstore\n              0x20\n              add\n              swap2\n              pop\n              pop\n              mload(0x40)\n              dup1\n              swap2\n              sub\n              swap1\n              return\n                /* \"src/funding/src/contracts/Funding.sol\":2637:3336  function approveRequest(uint256 _requestId) public {\r... */\n            tag_17:\n              callvalue\n                /* \"--CODEGEN--\":8:17   */\n              dup1\n                /* \"--CODEGEN--\":5:7   */\n              iszero\n              tag_74\n              jumpi\n                /* \"--CODEGEN--\":30:31   */\n              0x0\n                /* \"--CODEGEN--\":27:28   */\n              dup1\n                /* \"--CODEGEN--\":20:32   */\n              revert\n                /* \"--CODEGEN--\":5:7   */\n            tag_74:\n                /* \"src/funding/src/contracts/Funding.sol\":2637:3336  function approveRequest(uint256 _requestId) public {\r... */\n              pop\n              tag_75\n              0x4\n              dup1\n              calldatasize\n              sub\n              dup2\n              add\n              swap1\n              dup1\n              dup1\n              calldataload\n              swap1\n              0x20\n              add\n              swap1\n              swap3\n              swap2\n              swap1\n              pop\n              pop\n              pop\n              jump(tag_76)\n            tag_75:\n              stop\n                /* \"src/funding/src/contracts/Funding.sol\":4065:4175  function getRemainTime() public view returns (uint256){\r... */\n            tag_18:\n              callvalue\n                /* \"--CODEGEN--\":8:17   */\n              dup1\n                /* \"--CODEGEN--\":5:7   */\n              iszero\n              tag_77\n              jumpi\n                /* \"--CODEGEN--\":30:31   */\n              0x0\n                /* \"--CODEGEN--\":27:28   */\n              dup1\n                /* \"--CODEGEN--\":20:32   */\n              revert\n                /* \"--CODEGEN--\":5:7   */\n            tag_77:\n                /* \"src/funding/src/contracts/Funding.sol\":4065:4175  function getRemainTime() public view returns (uint256){\r... */\n              pop\n              tag_78\n              jump(tag_79)\n            tag_78:\n              mload(0x40)\n              dup1\n              dup3\n              dup2\n              mstore\n              0x20\n              add\n              swap2\n              pop\n              pop\n              mload(0x40)\n              dup1\n              swap2\n              sub\n              swap1\n              return\n                /* \"src/funding/src/contracts/Funding.sol\":3365:3947  function finalizeRequest(uint256 _requestId) public isManager{\r... */\n            tag_21:\n                /* \"src/funding/src/contracts/Funding.sol\":3477:3500  Request storage request */\n              0x0\n                /* \"src/funding/src/contracts/Funding.sol\":1003:1010  manager */\n              dup1\n              0x0\n              swap1\n              sload\n              swap1\n              0x100\n              exp\n              swap1\n              div\n              0xffffffffffffffffffffffffffffffffffffffff\n              and\n                /* \"src/funding/src/contracts/Funding.sol\":989:1010  msg.sender == manager */\n              0xffffffffffffffffffffffffffffffffffffffff\n              and\n                /* \"src/funding/src/contracts/Funding.sol\":989:999  msg.sender */\n              caller\n                /* \"src/funding/src/contracts/Funding.sol\":989:1010  msg.sender == manager */\n              0xffffffffffffffffffffffffffffffffffffffff\n              and\n              eq\n                /* \"src/funding/src/contracts/Funding.sol\":981:1033  require(msg.sender == manager, \"非项目管理人\") */\n              iszero\n              iszero\n              tag_81\n              jumpi\n              mload(0x40)\n              0x8c379a000000000000000000000000000000000000000000000000000000000\n              dup2\n              mstore\n              0x4\n              add\n              dup1\n              dup1\n              0x20\n              add\n              dup3\n              dup2\n              sub\n              dup3\n              mstore\n              0x12\n              dup2\n              mstore\n              0x20\n              add\n              dup1\n              0xe99d9ee9a1b9e79baee7aea1e79086e4baba0000000000000000000000000000\n              dup2\n              mstore\n              pop\n              0x20\n              add\n              swap2\n              pop\n              pop\n              mload(0x40)\n              dup1\n              swap2\n              sub\n              swap1\n              revert\n            tag_81:\n                /* \"src/funding/src/contracts/Funding.sol\":3503:3511  requests */\n              0x7\n                /* \"src/funding/src/contracts/Funding.sol\":3512:3522  _requestId */\n              dup3\n                /* \"src/funding/src/contracts/Funding.sol\":3503:3523  requests[_requestId] */\n              dup2\n              sload\n              dup2\n              lt\n              iszero\n              iszero\n              tag_83\n              jumpi\n              invalid\n            tag_83:\n              swap1\n              0x0\n              mstore\n              keccak256(0x0, 0x20)\n              swap1\n              0x6\n              mul\n              add\n                /* \"src/funding/src/contracts/Funding.sol\":3477:3523  Request storage request = requests[_requestId] */\n              swap1\n              pop\n                /* \"src/funding/src/contracts/Funding.sol\":3613:3620  request */\n              dup1\n                /* \"src/funding/src/contracts/Funding.sol\":3613:3625  request.cost */\n              0x1\n              add\n              sload\n                /* \"src/funding/src/contracts/Funding.sol\":3596:3600  this */\n              address\n                /* \"src/funding/src/contracts/Funding.sol\":3588:3609  address(this).balance */\n              0xffffffffffffffffffffffffffffffffffffffff\n              and\n              balance\n                /* \"src/funding/src/contracts/Funding.sol\":3588:3625  address(this).balance >= request.cost */\n              lt\n              iszero\n                /* \"src/funding/src/contracts/Funding.sol\":3580:3651  require(address(this).balance >= request.cost, \"合约中金额不足\") */\n              iszero\n              iszero\n              tag_85\n              jumpi\n              mload(0x40)\n              0x8c379a000000000000000000000000000000000000000000000000000000000\n              dup2\n              mstore\n              0x4\n              add\n              dup1\n              dup1\n              0x20\n              add\n              dup3\n              dup2\n              sub\n              dup3\n              mstore\n              0x15\n              dup2\n              mstore\n              0x20\n              add\n              dup1\n              0xe59088e7baa6e4b8ade98791e9a29de4b88de8b6b30000000000000000000000\n              dup2\n              mstore\n              pop\n              0x20\n              add\n              swap2\n              pop\n              pop\n              mload(0x40)\n              dup1\n              swap2\n              sub\n              swap1\n              revert\n            tag_85:\n                /* \"src/funding/src/contracts/Funding.sol\":3747:3748  2 */\n              0x2\n                /* \"src/funding/src/contracts/Funding.sol\":3727:3737  supporters */\n              0x5\n                /* \"src/funding/src/contracts/Funding.sol\":3727:3744  supporters.length */\n              dup1\n              sload\n              swap1\n              pop\n                /* \"src/funding/src/contracts/Funding.sol\":3727:3748  supporters.length / 2 */\n              dup2\n              iszero\n              iszero\n              tag_86\n              jumpi\n              invalid\n            tag_86:\n              div\n                /* \"src/funding/src/contracts/Funding.sol\":3707:3714  request */\n              dup2\n                /* \"src/funding/src/contracts/Funding.sol\":3707:3724  request.voteCount */\n              0x3\n              add\n              sload\n                /* \"src/funding/src/contracts/Funding.sol\":3707:3748  request.voteCount > supporters.length / 2 */\n              gt\n                /* \"src/funding/src/contracts/Funding.sol\":3699:3774  require(request.voteCount > supporters.length / 2, \"赞成人数未过半\") */\n              iszero\n              iszero\n              tag_87\n              jumpi\n              mload(0x40)\n              0x8c379a000000000000000000000000000000000000000000000000000000000\n              dup2\n              mstore\n              0x4\n              add\n              dup1\n              dup1\n              0x20\n              add\n              dup3\n              dup2\n              sub\n              dup3\n              mstore\n              0x15\n              dup2\n              mstore\n              0x20\n              add\n              dup1\n              0xe8b59ee68890e4babae695b0e69caae8bf87e58d8a0000000000000000000000\n              dup2\n              mstore\n              pop\n              0x20\n              add\n              swap2\n              pop\n              pop\n              mload(0x40)\n              dup1\n              swap2\n              sub\n              swap1\n              revert\n            tag_87:\n                /* \"src/funding/src/contracts/Funding.sol\":3819:3826  request */\n              dup1\n                /* \"src/funding/src/contracts/Funding.sol\":3819:3838  request.shopAddress */\n              0x2\n              add\n              0x0\n              swap1\n              sload\n              swap1\n              0x100\n              exp\n              swap1\n              div\n              0xffffffffffffffffffffffffffffffffffffffff\n              and\n                /* \"src/funding/src/contracts/Funding.sol\":3819:3847  request.shopAddress.transfer */\n              0xffffffffffffffffffffffffffffffffffffffff\n              and\n                /* \"src/funding/src/contracts/Funding.sol\":3819:3861  request.shopAddress.transfer(request.cost) */\n              0x8fc\n                /* \"src/funding/src/contracts/Funding.sol\":3848:3855  request */\n              dup3\n                /* \"src/funding/src/contracts/Funding.sol\":3848:3860  request.cost */\n              0x1\n              add\n              sload\n                /* \"src/funding/src/contracts/Funding.sol\":3819:3861  request.shopAddress.transfer(request.cost) */\n              swap1\n              dup2\n              iszero\n              mul\n              swap1\n              mload(0x40)\n              0x0\n              mload(0x40)\n              dup1\n              dup4\n              sub\n              dup2\n              dup6\n              dup9\n              dup9\n              call\n              swap4\n              pop\n              pop\n              pop\n              pop\n              iszero\n                /* \"--CODEGEN--\":8:17   */\n              dup1\n                /* \"--CODEGEN--\":5:7   */\n              iszero\n              tag_88\n              jumpi\n                /* \"--CODEGEN--\":45:61   */\n              returndatasize\n                /* \"--CODEGEN--\":42:43   */\n              0x0\n                /* \"--CODEGEN--\":39:40   */\n              dup1\n                /* \"--CODEGEN--\":24:62   */\n              returndatacopy\n                /* \"--CODEGEN--\":77:93   */\n              returndatasize\n                /* \"--CODEGEN--\":74:75   */\n              0x0\n                /* \"--CODEGEN--\":67:94   */\n              revert\n                /* \"--CODEGEN--\":5:7   */\n            tag_88:\n                /* \"src/funding/src/contracts/Funding.sol\":3819:3861  request.shopAddress.transfer(request.cost) */\n              pop\n                /* \"src/funding/src/contracts/Funding.sol\":3914:3937  RequestStatus.Completed */\n              0x2\n                /* \"src/funding/src/contracts/Funding.sol\":3897:3904  request */\n              dup2\n                /* \"src/funding/src/contracts/Funding.sol\":3897:3911  request.status */\n              0x5\n              add\n              0x0\n                /* \"src/funding/src/contracts/Funding.sol\":3897:3937  request.status = RequestStatus.Completed */\n              0x100\n              exp\n              dup2\n              sload\n              dup2\n              0xff\n              mul\n              not\n              and\n              swap1\n              dup4\n              0x3\n              dup2\n              gt\n              iszero\n              tag_89\n              jumpi\n              invalid\n            tag_89:\n              mul\n              or\n              swap1\n              sstore\n              pop\n                /* \"src/funding/src/contracts/Funding.sol\":3365:3947  function finalizeRequest(uint256 _requestId) public isManager{\r... */\n              pop\n              pop\n              jump\t// out\n                /* \"src/funding/src/contracts/Funding.sol\":1088:1344  function support() payable public {\r... */\n            tag_23:\n                /* \"src/funding/src/contracts/Funding.sol\":1154:1166  supportMoney */\n              sload(0x3)\n                /* \"src/funding/src/contracts/Funding.sol\":1141:1150  msg.value */\n              callvalue\n                /* \"src/funding/src/contracts/Funding.sol\":1141:1166  msg.value == supportMoney */\n              eq\n                /* \"src/funding/src/contracts/Funding.sol\":1133:1189  require(msg.value == supportMoney, \"投资金额错误\") */\n              iszero\n              iszero\n              tag_91\n              jumpi\n              mload(0x40)\n              0x8c379a000000000000000000000000000000000000000000000000000000000\n              dup2\n              mstore\n              0x4\n              add\n              dup1\n              dup1\n              0x20\n              add\n              dup3\n              dup2\n              sub\n              dup3\n              mstore\n              0x12\n              dup2\n              mstore\n              0x20\n              add\n              dup1\n              0xe68a95e8b584e98791e9a29de99499e8afaf0000000000000000000000000000\n              dup2\n              mstore\n              pop\n              0x20\n              add\n              swap2\n              pop\n              pop\n              mload(0x40)\n              dup1\n              swap2\n              sub\n              swap1\n              revert\n            tag_91:\n                /* \"src/funding/src/contracts/Funding.sol\":1200:1210  supporters */\n              0x5\n                /* \"src/funding/src/contracts/Funding.sol\":1216:1226  msg.sender */\n              caller\n                /* \"src/funding/src/contracts/Funding.sol\":1200:1227  supporters.push(msg.sender) */\n              swap1\n              dup1\n                /* \"--CODEGEN--\":39:40   */\n              0x1\n                /* \"--CODEGEN--\":33:36   */\n              dup2\n                /* \"--CODEGEN--\":27:37   */\n              sload\n                /* \"--CODEGEN--\":23:41   */\n              add\n                /* \"--CODEGEN--\":57:67   */\n              dup1\n                /* \"--CODEGEN--\":52:55   */\n              dup3\n                /* \"--CODEGEN--\":45:68   */\n              sstore\n                /* \"--CODEGEN--\":79:89   */\n              dup1\n                /* \"--CODEGEN--\":72:89   */\n              swap2\n              pop\n                /* \"--CODEGEN--\":0:93   */\n              pop\n                /* \"src/funding/src/contracts/Funding.sol\":1200:1227  supporters.push(msg.sender) */\n              swap1\n              0x1\n              dup3\n              sub\n              swap1\n              0x0\n              mstore\n              keccak256(0x0, 0x20)\n              add\n              0x0\n              swap1\n              swap2\n              swap3\n              swap1\n              swap2\n              swap1\n              swap2\n              0x100\n              exp\n              dup2\n              sload\n              dup2\n              0xffffffffffffffffffffffffffffffffffffffff\n              mul\n              not\n              and\n              swap1\n              dup4\n              0xffffffffffffffffffffffffffffffffffffffff\n              and\n              mul\n              or\n              swap1\n              sstore\n              pop\n              pop\n                /* \"src/funding/src/contracts/Funding.sol\":1266:1270  true */\n              0x1\n                /* \"src/funding/src/contracts/Funding.sol\":1238:1251  supportersMap */\n              0x6\n                /* \"src/funding/src/contracts/Funding.sol\":1238:1263  supportersMap[msg.sender] */\n              0x0\n                /* \"src/funding/src/contracts/Funding.sol\":1252:1262  msg.sender */\n              caller\n                /* \"src/funding/src/contracts/Funding.sol\":1238:1263  supportersMap[msg.sender] */\n              0xffffffffffffffffffffffffffffffffffffffff\n              and\n              0xffffffffffffffffffffffffffffffffffffffff\n              and\n              dup2\n              mstore\n              0x20\n              add\n              swap1\n              dup2\n              mstore\n              0x20\n              add\n              0x0\n              keccak256\n              0x0\n                /* \"src/funding/src/contracts/Funding.sol\":1238:1270  supportersMap[msg.sender] = true */\n              0x100\n              exp\n              dup2\n              sload\n              dup2\n              0xff\n              mul\n              not\n              and\n              swap1\n              dup4\n              iszero\n              iszero\n              mul\n              or\n              swap1\n              sstore\n              pop\n                /* \"src/funding/src/contracts/Funding.sol\":1283:1308  supporterFundingsContract */\n              0x8\n              0x0\n              swap1\n              sload\n              swap1\n              0x100\n              exp\n              swap1\n              div\n              0xffffffffffffffffffffffffffffffffffffffff\n              and\n                /* \"src/funding/src/contracts/Funding.sol\":1283:1319  supporterFundingsContract.addFunding */\n              0xffffffffffffffffffffffffffffffffffffffff\n              and\n              0x84b9ee43\n                /* \"src/funding/src/contracts/Funding.sol\":1320:1330  msg.sender */\n              caller\n                /* \"src/funding/src/contracts/Funding.sol\":1331:1335  this */\n              address\n                /* \"src/funding/src/contracts/Funding.sol\":1283:1336  supporterFundingsContract.addFunding(msg.sender,this) */\n              mload(0x40)\n              dup4\n              0xffffffff\n              and\n              0x100000000000000000000000000000000000000000000000000000000\n              mul\n              dup2\n              mstore\n              0x4\n              add\n              dup1\n              dup4\n              0xffffffffffffffffffffffffffffffffffffffff\n              and\n              0xffffffffffffffffffffffffffffffffffffffff\n              and\n              dup2\n              mstore\n              0x20\n              add\n              dup3\n              0xffffffffffffffffffffffffffffffffffffffff\n              and\n              0xffffffffffffffffffffffffffffffffffffffff\n              and\n              dup2\n              mstore\n              0x20\n              add\n              swap3\n              pop\n              pop\n              pop\n              0x0\n              mload(0x40)\n              dup1\n              dup4\n              sub\n              dup2\n              0x0\n              dup8\n              dup1\n              extcodesize\n              iszero\n                /* \"--CODEGEN--\":8:17   */\n              dup1\n                /* \"--CODEGEN--\":5:7   */\n              iszero\n              tag_93\n              jumpi\n                /* \"--CODEGEN--\":30:31   */\n              0x0\n                /* \"--CODEGEN--\":27:28   */\n              dup1\n                /* \"--CODEGEN--\":20:32   */\n              revert\n                /* \"--CODEGEN--\":5:7   */\n            tag_93:\n                /* \"src/funding/src/contracts/Funding.sol\":1283:1336  supporterFundingsContract.addFunding(msg.sender,this) */\n              pop\n              gas\n              call\n              iszero\n                /* \"--CODEGEN--\":8:17   */\n              dup1\n                /* \"--CODEGEN--\":5:7   */\n              iszero\n              tag_94\n              jumpi\n                /* \"--CODEGEN--\":45:61   */\n              returndatasize\n                /* \"--CODEGEN--\":42:43   */\n              0x0\n                /* \"--CODEGEN--\":39:40   */\n              dup1\n                /* \"--CODEGEN--\":24:62   */\n              returndatacopy\n                /* \"--CODEGEN--\":77:93   */\n              returndatasize\n                /* \"--CODEGEN--\":74:75   */\n              0x0\n                /* \"--CODEGEN--\":67:94   */\n              revert\n                /* \"--CODEGEN--\":5:7   */\n            tag_94:\n                /* \"src/funding/src/contracts/Funding.sol\":1283:1336  supporterFundingsContract.addFunding(msg.sender,this) */\n              pop\n              pop\n              pop\n              pop\n                /* \"src/funding/src/contracts/Funding.sol\":1088:1344  function support() payable public {\r... */\n              jump\t// out\n                /* \"src/funding/src/contracts/Funding.sol\":1571:1669  function getBalance() public view returns (uint256){\r... */\n            tag_26:\n                /* \"src/funding/src/contracts/Funding.sol\":1614:1621  uint256 */\n              0x0\n                /* \"src/funding/src/contracts/Funding.sol\":1648:1652  this */\n              address\n                /* \"src/funding/src/contracts/Funding.sol\":1640:1661  address(this).balance */\n              0xffffffffffffffffffffffffffffffffffffffff\n              and\n              balance\n                /* \"src/funding/src/contracts/Funding.sol\":1633:1661  return address(this).balance */\n              swap1\n              pop\n                /* \"src/funding/src/contracts/Funding.sol\":1571:1669  function getBalance() public view returns (uint256){\r... */\n              swap1\n              jump\t// out\n                /* \"src/funding/src/contracts/Funding.sol\":216:238  uint256 public endTime */\n            tag_29:\n              sload(0x4)\n              dup2\n              jump\t// out\n                /* \"src/funding/src/contracts/Funding.sol\":4183:4281  function getRequestsCount() public view returns (uint256){\r... */\n            tag_32:\n                /* \"src/funding/src/contracts/Funding.sol\":4232:4239  uint256 */\n              0x0\n                /* \"src/funding/src/contracts/Funding.sol\":4258:4266  requests */\n              0x7\n                /* \"src/funding/src/contracts/Funding.sol\":4258:4273  requests.length */\n              dup1\n              sload\n              swap1\n              pop\n                /* \"src/funding/src/contracts/Funding.sol\":4251:4273  return requests.length */\n              swap1\n              pop\n                /* \"src/funding/src/contracts/Funding.sol\":4183:4281  function getRequestsCount() public view returns (uint256){\r... */\n              swap1\n              jump\t// out\n                /* \"src/funding/src/contracts/Funding.sol\":271:298  address[] public supporters */\n            tag_35:\n              0x5\n              dup2\n              dup2\n              sload\n              dup2\n              lt\n              iszero\n              iszero\n              tag_97\n              jumpi\n              invalid\n            tag_97:\n              swap1\n              0x0\n              mstore\n              keccak256(0x0, 0x20)\n              add\n              0x0\n              swap2\n              pop\n              sload\n              swap1\n              0x100\n              exp\n              swap1\n              div\n              0xffffffffffffffffffffffffffffffffffffffff\n              and\n              dup2\n              jump\t// out\n                /* \"src/funding/src/contracts/Funding.sol\":1677:1769  function getSupporters() public view returns (address[]){\r... */\n            tag_38:\n                /* \"src/funding/src/contracts/Funding.sol\":1723:1732  address[] */\n              0x60\n                /* \"src/funding/src/contracts/Funding.sol\":1751:1761  supporters */\n              0x5\n                /* \"src/funding/src/contracts/Funding.sol\":1744:1761  return supporters */\n              dup1\n              sload\n              dup1\n              0x20\n              mul\n              0x20\n              add\n              mload(0x40)\n              swap1\n              dup2\n              add\n              0x40\n              mstore\n              dup1\n              swap3\n              swap2\n              swap1\n              dup2\n              dup2\n              mstore\n              0x20\n              add\n              dup3\n              dup1\n              sload\n              dup1\n              iszero\n              tag_100\n              jumpi\n              0x20\n              mul\n              dup3\n              add\n              swap2\n              swap1\n              0x0\n              mstore\n              keccak256(0x0, 0x20)\n              swap1\n            tag_101:\n              dup2\n              0x0\n              swap1\n              sload\n              swap1\n              0x100\n              exp\n              swap1\n              div\n              0xffffffffffffffffffffffffffffffffffffffff\n              and\n              0xffffffffffffffffffffffffffffffffffffffff\n              and\n              dup2\n              mstore\n              0x20\n              add\n              swap1\n              0x1\n              add\n              swap1\n              dup1\n              dup4\n              gt\n              tag_101\n              jumpi\n            tag_100:\n              pop\n              pop\n              pop\n              pop\n              pop\n              swap1\n              pop\n                /* \"src/funding/src/contracts/Funding.sol\":1677:1769  function getSupporters() public view returns (address[]){\r... */\n              swap1\n              jump\t// out\n                /* \"src/funding/src/contracts/Funding.sol\":88:110  address public manager */\n            tag_44:\n              0x0\n              dup1\n              swap1\n              sload\n              swap1\n              0x100\n              exp\n              swap1\n              div\n              0xffffffffffffffffffffffffffffffffffffffff\n              and\n              dup2\n              jump\t// out\n                /* \"src/funding/src/contracts/Funding.sol\":1370:1563  function refund() public isManager{\r... */\n            tag_47:\n                /* \"src/funding/src/contracts/Funding.sol\":1420:1429  uint256 i */\n              0x0\n                /* \"src/funding/src/contracts/Funding.sol\":1003:1010  manager */\n              dup1\n              0x0\n              swap1\n              sload\n              swap1\n              0x100\n              exp\n              swap1\n              div\n              0xffffffffffffffffffffffffffffffffffffffff\n              and\n                /* \"src/funding/src/contracts/Funding.sol\":989:1010  msg.sender == manager */\n              0xffffffffffffffffffffffffffffffffffffffff\n              and\n                /* \"src/funding/src/contracts/Funding.sol\":989:999  msg.sender */\n              caller\n                /* \"src/funding/src/contracts/Funding.sol\":989:1010  msg.sender == manager */\n              0xffffffffffffffffffffffffffffffffffffffff\n              and\n              eq\n                /* \"src/funding/src/contracts/Funding.sol\":981:1033  require(msg.sender == manager, \"非项目管理人\") */\n              iszero\n              iszero\n              tag_103\n              jumpi\n              mload(0x40)\n              0x8c379a000000000000000000000000000000000000000000000000000000000\n              dup2\n              mstore\n              0x4\n              add\n              dup1\n              dup1\n              0x20\n              add\n              dup3\n              dup2\n              sub\n              dup3\n              mstore\n              0x12\n              dup2\n              mstore\n              0x20\n              add\n              dup1\n              0xe99d9ee9a1b9e79baee7aea1e79086e4baba0000000000000000000000000000\n              dup2\n              mstore\n              pop\n              0x20\n              add\n              swap2\n              pop\n              pop\n              mload(0x40)\n              dup1\n              swap2\n              sub\n              swap1\n              revert\n            tag_103:\n                /* \"src/funding/src/contracts/Funding.sol\":1432:1433  0 */\n              0x0\n                /* \"src/funding/src/contracts/Funding.sol\":1420:1433  uint256 i = 0 */\n              swap1\n              pop\n                /* \"src/funding/src/contracts/Funding.sol\":1415:1526  for (uint256 i = 0; i < supporters.length; i++) {\r... */\n            tag_105:\n                /* \"src/funding/src/contracts/Funding.sol\":1439:1449  supporters */\n              0x5\n                /* \"src/funding/src/contracts/Funding.sol\":1439:1456  supporters.length */\n              dup1\n              sload\n              swap1\n              pop\n                /* \"src/funding/src/contracts/Funding.sol\":1435:1436  i */\n              dup2\n                /* \"src/funding/src/contracts/Funding.sol\":1435:1456  i < supporters.length */\n              lt\n                /* \"src/funding/src/contracts/Funding.sol\":1415:1526  for (uint256 i = 0; i < supporters.length; i++) {\r... */\n              iszero\n              tag_106\n              jumpi\n                /* \"src/funding/src/contracts/Funding.sol\":1478:1488  supporters */\n              0x5\n                /* \"src/funding/src/contracts/Funding.sol\":1489:1490  i */\n              dup2\n                /* \"src/funding/src/contracts/Funding.sol\":1478:1491  supporters[i] */\n              dup2\n              sload\n              dup2\n              lt\n              iszero\n              iszero\n              tag_108\n              jumpi\n              invalid\n            tag_108:\n              swap1\n              0x0\n              mstore\n              keccak256(0x0, 0x20)\n              add\n              0x0\n              swap1\n              sload\n              swap1\n              0x100\n              exp\n              swap1\n              div\n              0xffffffffffffffffffffffffffffffffffffffff\n              and\n                /* \"src/funding/src/contracts/Funding.sol\":1478:1500  supporters[i].transfer */\n              0xffffffffffffffffffffffffffffffffffffffff\n              and\n                /* \"src/funding/src/contracts/Funding.sol\":1478:1514  supporters[i].transfer(supportMoney) */\n              0x8fc\n                /* \"src/funding/src/contracts/Funding.sol\":1501:1513  supportMoney */\n              sload(0x3)\n                /* \"src/funding/src/contracts/Funding.sol\":1478:1514  supporters[i].transfer(supportMoney) */\n              swap1\n              dup2\n              iszero\n              mul\n              swap1\n              mload(0x40)\n              0x0\n              mload(0x40)\n              dup1\n              dup4\n              sub\n              dup2\n              dup6\n              dup9\n              dup9\n              call\n              swap4\n              pop\n              pop\n              pop\n              pop\n              iszero\n                /* \"--CODEGEN--\":8:17   */\n              dup1\n                /* \"--CODEGEN--\":5:7   */\n              iszero\n              tag_110\n              jumpi\n                /* \"--CODEGEN--\":45:61   */\n              returndatasize\n                /* \"--CODEGEN--\":42:43   */\n              0x0\n                /* \"--CODEGEN--\":39:40   */\n              dup1\n                /* \"--CODEGEN--\":24:62   */\n              returndatacopy\n                /* \"--CODEGEN--\":77:93   */\n              returndatasize\n                /* \"--CODEGEN--\":74:75   */\n              0x0\n                /* \"--CODEGEN--\":67:94   */\n              revert\n                /* \"--CODEGEN--\":5:7   */\n            tag_110:\n                /* \"src/funding/src/contracts/Funding.sol\":1478:1514  supporters[i].transfer(supportMoney) */\n              pop\n                /* \"src/funding/src/contracts/Funding.sol\":1458:1461  i++ */\n              dup1\n              dup1\n              0x1\n              add\n              swap2\n              pop\n              pop\n                /* \"src/funding/src/contracts/Funding.sol\":1415:1526  for (uint256 i = 0; i < supporters.length; i++) {\r... */\n              jump(tag_105)\n            tag_106:\n                /* \"src/funding/src/contracts/Funding.sol\":1544:1554  supporters */\n              0x5\n              0x0\n                /* \"src/funding/src/contracts/Funding.sol\":1536:1555  delete (supporters) */\n              tag_111\n              swap2\n              swap1\n              jump\t// in(tag_112)\n            tag_111:\n                /* \"src/funding/src/contracts/Funding.sol\":1370:1563  function refund() public isManager{\r... */\n              pop\n              jump\t// out\n                /* \"src/funding/src/contracts/Funding.sol\":3955:4057  function getSupportersCount() public view returns (uint256){\r... */\n            tag_50:\n                /* \"src/funding/src/contracts/Funding.sol\":4006:4013  uint256 */\n              0x0\n                /* \"src/funding/src/contracts/Funding.sol\":4032:4042  supporters */\n              0x5\n                /* \"src/funding/src/contracts/Funding.sol\":4032:4049  supporters.length */\n              dup1\n              sload\n              swap1\n              pop\n                /* \"src/funding/src/contracts/Funding.sol\":4025:4049  return supporters.length */\n              swap1\n              pop\n                /* \"src/funding/src/contracts/Funding.sol\":3955:4057  function getSupportersCount() public view returns (uint256){\r... */\n              swap1\n              jump\t// out\n                /* \"src/funding/src/contracts/Funding.sol\":4291:4724  function getRequestDetailByIndex(uint256 _requestId) public view returns (string, uint256, address, uint256, bool, uint256){\r... */\n            tag_53:\n                /* \"src/funding/src/contracts/Funding.sol\":4365:4371  string */\n              0x60\n                /* \"src/funding/src/contracts/Funding.sol\":4373:4380  uint256 */\n              0x0\n                /* \"src/funding/src/contracts/Funding.sol\":4382:4389  address */\n              dup1\n                /* \"src/funding/src/contracts/Funding.sol\":4391:4398  uint256 */\n              0x0\n                /* \"src/funding/src/contracts/Funding.sol\":4400:4404  bool */\n              dup1\n                /* \"src/funding/src/contracts/Funding.sol\":4406:4413  uint256 */\n              0x0\n                /* \"src/funding/src/contracts/Funding.sol\":4491:4514  Request storage request */\n              dup1\n                /* \"src/funding/src/contracts/Funding.sol\":4548:4560  bool isVoted */\n              0x0\n                /* \"src/funding/src/contracts/Funding.sol\":4446:4454  requests */\n              0x7\n                /* \"src/funding/src/contracts/Funding.sol\":4446:4461  requests.length */\n              dup1\n              sload\n              swap1\n              pop\n                /* \"src/funding/src/contracts/Funding.sol\":4433:4443  _requestId */\n              dup10\n                /* \"src/funding/src/contracts/Funding.sol\":4433:4461  _requestId < requests.length */\n              lt\n                /* \"src/funding/src/contracts/Funding.sol\":4425:4480  require(_requestId < requests.length, \"未知请求id\") */\n              iszero\n              iszero\n              tag_115\n              jumpi\n              mload(0x40)\n              0x8c379a000000000000000000000000000000000000000000000000000000000\n              dup2\n              mstore\n              0x4\n              add\n              dup1\n              dup1\n              0x20\n              add\n              dup3\n              dup2\n              sub\n              dup3\n              mstore\n              0xe\n              dup2\n              mstore\n              0x20\n              add\n              dup1\n              0xe69caae79fa5e8afb7e6b1826964000000000000000000000000000000000000\n              dup2\n              mstore\n              pop\n              0x20\n              add\n              swap2\n              pop\n              pop\n              mload(0x40)\n              dup1\n              swap2\n              sub\n              swap1\n              revert\n            tag_115:\n                /* \"src/funding/src/contracts/Funding.sol\":4517:4525  requests */\n              0x7\n                /* \"src/funding/src/contracts/Funding.sol\":4526:4536  _requestId */\n              dup10\n                /* \"src/funding/src/contracts/Funding.sol\":4517:4537  requests[_requestId] */\n              dup2\n              sload\n              dup2\n              lt\n              iszero\n              iszero\n              tag_116\n              jumpi\n              invalid\n            tag_116:\n              swap1\n              0x0\n              mstore\n              keccak256(0x0, 0x20)\n              swap1\n              0x6\n              mul\n              add\n                /* \"src/funding/src/contracts/Funding.sol\":4491:4537  Request storage request = requests[_requestId] */\n              swap2\n              pop\n                /* \"src/funding/src/contracts/Funding.sol\":4563:4570  request */\n              dup2\n                /* \"src/funding/src/contracts/Funding.sol\":4563:4579  request.votedMap */\n              0x4\n              add\n                /* \"src/funding/src/contracts/Funding.sol\":4563:4591  request.votedMap[msg.sender] */\n              0x0\n                /* \"src/funding/src/contracts/Funding.sol\":4580:4590  msg.sender */\n              caller\n                /* \"src/funding/src/contracts/Funding.sol\":4563:4591  request.votedMap[msg.sender] */\n              0xffffffffffffffffffffffffffffffffffffffff\n              and\n              0xffffffffffffffffffffffffffffffffffffffff\n              and\n              dup2\n              mstore\n              0x20\n              add\n              swap1\n              dup2\n              mstore\n              0x20\n              add\n              0x0\n              keccak256\n              0x0\n              swap1\n              sload\n              swap1\n              0x100\n              exp\n              swap1\n              div\n              0xff\n              and\n                /* \"src/funding/src/contracts/Funding.sol\":4548:4591  bool isVoted = request.votedMap[msg.sender] */\n              swap1\n              pop\n                /* \"src/funding/src/contracts/Funding.sol\":4610:4617  request */\n              dup2\n                /* \"src/funding/src/contracts/Funding.sol\":4610:4625  request.purpose */\n              0x0\n              add\n                /* \"src/funding/src/contracts/Funding.sol\":4627:4634  request */\n              dup3\n                /* \"src/funding/src/contracts/Funding.sol\":4627:4639  request.cost */\n              0x1\n              add\n              sload\n                /* \"src/funding/src/contracts/Funding.sol\":4641:4648  request */\n              dup4\n                /* \"src/funding/src/contracts/Funding.sol\":4641:4660  request.shopAddress */\n              0x2\n              add\n              0x0\n              swap1\n              sload\n              swap1\n              0x100\n              exp\n              swap1\n              div\n              0xffffffffffffffffffffffffffffffffffffffff\n              and\n                /* \"src/funding/src/contracts/Funding.sol\":4662:4669  request */\n              dup5\n                /* \"src/funding/src/contracts/Funding.sol\":4662:4679  request.voteCount */\n              0x3\n              add\n              sload\n                /* \"src/funding/src/contracts/Funding.sol\":4681:4688  isVoted */\n              dup5\n                /* \"src/funding/src/contracts/Funding.sol\":4698:4705  request */\n              dup7\n                /* \"src/funding/src/contracts/Funding.sol\":4698:4712  request.status */\n              0x5\n              add\n              0x0\n              swap1\n              sload\n              swap1\n              0x100\n              exp\n              swap1\n              div\n              0xff\n              and\n                /* \"src/funding/src/contracts/Funding.sol\":4690:4713  uint256(request.status) */\n              0x3\n              dup2\n              gt\n              iszero\n              tag_118\n              jumpi\n              invalid\n            tag_118:\n                /* \"src/funding/src/contracts/Funding.sol\":4602:4714  return (request.purpose, request.cost, request.shopAddress, request.voteCount, isVoted, uint256(request.status)) */\n              dup6\n              dup1\n              sload\n              0x1\n              dup2\n              0x1\n              and\n              iszero\n              0x100\n              mul\n              sub\n              and\n              0x2\n              swap1\n              div\n              dup1\n              0x1f\n              add\n              0x20\n              dup1\n              swap2\n              div\n              mul\n              0x20\n              add\n              mload(0x40)\n              swap1\n              dup2\n              add\n              0x40\n              mstore\n              dup1\n              swap3\n              swap2\n              swap1\n              dup2\n              dup2\n              mstore\n              0x20\n              add\n              dup3\n              dup1\n              sload\n              0x1\n              dup2\n              0x1\n              and\n              iszero\n              0x100\n              mul\n              sub\n              and\n              0x2\n              swap1\n              div\n              dup1\n              iszero\n              tag_119\n              jumpi\n              dup1\n              0x1f\n              lt\n              tag_120\n              jumpi\n              0x100\n              dup1\n              dup4\n              sload\n              div\n              mul\n              dup4\n              mstore\n              swap2\n              0x20\n              add\n              swap2\n              jump(tag_119)\n            tag_120:\n              dup3\n              add\n              swap2\n              swap1\n              0x0\n              mstore\n              keccak256(0x0, 0x20)\n              swap1\n            tag_121:\n              dup2\n              sload\n              dup2\n              mstore\n              swap1\n              0x1\n              add\n              swap1\n              0x20\n              add\n              dup1\n              dup4\n              gt\n              tag_121\n              jumpi\n              dup3\n              swap1\n              sub\n              0x1f\n              and\n              dup3\n              add\n              swap2\n            tag_119:\n              pop\n              pop\n              pop\n              pop\n              pop\n              swap6\n              pop\n              swap8\n              pop\n              swap8\n              pop\n              swap8\n              pop\n              swap8\n              pop\n              swap8\n              pop\n              swap8\n              pop\n                /* \"src/funding/src/contracts/Funding.sol\":4291:4724  function getRequestDetailByIndex(uint256 _requestId) public view returns (string, uint256, address, uint256, bool, uint256){\r... */\n              pop\n              pop\n              swap2\n              swap4\n              swap6\n              pop\n              swap2\n              swap4\n              swap6\n              jump\t// out\n                /* \"src/funding/src/contracts/Funding.sol\":2263:2608  function createRequest(string _purpose, uint256 _cost, address _shopAddress) public isManager{\r... */\n            tag_60:\n                /* \"src/funding/src/contracts/Funding.sol\":2367:2389  Request memory request */\n              tag_122\n              jump\t// in(tag_123)\n            tag_122:\n                /* \"src/funding/src/contracts/Funding.sol\":1003:1010  manager */\n              0x0\n              dup1\n              swap1\n              sload\n              swap1\n              0x100\n              exp\n              swap1\n              div\n              0xffffffffffffffffffffffffffffffffffffffff\n              and\n                /* \"src/funding/src/contracts/Funding.sol\":989:1010  msg.sender == manager */\n              0xffffffffffffffffffffffffffffffffffffffff\n              and\n                /* \"src/funding/src/contracts/Funding.sol\":989:999  msg.sender */\n              caller\n                /* \"src/funding/src/contracts/Funding.sol\":989:1010  msg.sender == manager */\n              0xffffffffffffffffffffffffffffffffffffffff\n              and\n              eq\n                /* \"src/funding/src/contracts/Funding.sol\":981:1033  require(msg.sender == manager, \"非项目管理人\") */\n              iszero\n              iszero\n              tag_125\n              jumpi\n              mload(0x40)\n              0x8c379a000000000000000000000000000000000000000000000000000000000\n              dup2\n              mstore\n              0x4\n              add\n              dup1\n              dup1\n              0x20\n              add\n              dup3\n              dup2\n              sub\n              dup3\n              mstore\n              0x12\n              dup2\n              mstore\n              0x20\n              add\n              dup1\n              0xe99d9ee9a1b9e79baee7aea1e79086e4baba0000000000000000000000000000\n              dup2\n              mstore\n              pop\n              0x20\n              add\n              swap2\n              pop\n              pop\n              mload(0x40)\n              dup1\n              swap2\n              sub\n              swap1\n              revert\n            tag_125:\n                /* \"src/funding/src/contracts/Funding.sol\":2392:2565  Request({\r... */\n              0xa0\n              mload(0x40)\n              swap1\n              dup2\n              add\n              0x40\n              mstore\n              dup1\n                /* \"src/funding/src/contracts/Funding.sol\":2421:2429  _purpose */\n              dup6\n                /* \"src/funding/src/contracts/Funding.sol\":2392:2565  Request({\r... */\n              dup2\n              mstore\n              0x20\n              add\n                /* \"src/funding/src/contracts/Funding.sol\":2447:2452  _cost */\n              dup5\n                /* \"src/funding/src/contracts/Funding.sol\":2392:2565  Request({\r... */\n              dup2\n              mstore\n              0x20\n              add\n                /* \"src/funding/src/contracts/Funding.sol\":2477:2489  _shopAddress */\n              dup4\n                /* \"src/funding/src/contracts/Funding.sol\":2392:2565  Request({\r... */\n              0xffffffffffffffffffffffffffffffffffffffff\n              and\n              dup2\n              mstore\n              0x20\n              add\n                /* \"src/funding/src/contracts/Funding.sol\":2512:2513  0 */\n              0x0\n                /* \"src/funding/src/contracts/Funding.sol\":2392:2565  Request({\r... */\n              dup2\n              mstore\n              0x20\n              add\n                /* \"src/funding/src/contracts/Funding.sol\":2533:2553  RequestStatus.Voting */\n              0x0\n                /* \"src/funding/src/contracts/Funding.sol\":2392:2565  Request({\r... */\n              0x3\n              dup2\n              gt\n              iszero\n              tag_127\n              jumpi\n              invalid\n            tag_127:\n              dup2\n              mstore\n              pop\n                /* \"src/funding/src/contracts/Funding.sol\":2367:2565  Request memory request = Request({\r... */\n              swap1\n              pop\n                /* \"src/funding/src/contracts/Funding.sol\":2578:2586  requests */\n              0x7\n                /* \"src/funding/src/contracts/Funding.sol\":2592:2599  request */\n              dup2\n                /* \"src/funding/src/contracts/Funding.sol\":2578:2600  requests.push(request) */\n              swap1\n              dup1\n                /* \"--CODEGEN--\":39:40   */\n              0x1\n                /* \"--CODEGEN--\":33:36   */\n              dup2\n                /* \"--CODEGEN--\":27:37   */\n              sload\n                /* \"--CODEGEN--\":23:41   */\n              add\n                /* \"--CODEGEN--\":57:67   */\n              dup1\n                /* \"--CODEGEN--\":52:55   */\n              dup3\n                /* \"--CODEGEN--\":45:68   */\n              sstore\n                /* \"--CODEGEN--\":79:89   */\n              dup1\n                /* \"--CODEGEN--\":72:89   */\n              swap2\n              pop\n                /* \"--CODEGEN--\":0:93   */\n              pop\n                /* \"src/funding/src/contracts/Funding.sol\":2578:2600  requests.push(request) */\n              swap1\n              0x1\n              dup3\n              sub\n              swap1\n              0x0\n              mstore\n              keccak256(0x0, 0x20)\n              swap1\n              0x6\n              mul\n              add\n              0x0\n              swap1\n              swap2\n              swap3\n              swap1\n              swap2\n              swap1\n              swap2\n              pop\n              0x0\n              dup3\n              add\n              mload\n              dup2\n              0x0\n              add\n              swap1\n              dup1\n              mload\n              swap1\n              0x20\n              add\n              swap1\n              tag_129\n              swap3\n              swap2\n              swap1\n              jump\t// in(tag_130)\n            tag_129:\n              pop\n              0x20\n              dup3\n              add\n              mload\n              dup2\n              0x1\n              add\n              sstore\n              0x40\n              dup3\n              add\n              mload\n              dup2\n              0x2\n              add\n              exp(0x100, 0x0)\n              dup2\n              sload\n              dup2\n              0xffffffffffffffffffffffffffffffffffffffff\n              mul\n              not\n              and\n              swap1\n              dup4\n              0xffffffffffffffffffffffffffffffffffffffff\n              and\n              mul\n              or\n              swap1\n              sstore\n              pop\n              0x60\n              dup3\n              add\n              mload\n              dup2\n              0x3\n              add\n              sstore\n              0x80\n              dup3\n              add\n              mload\n              dup2\n              0x5\n              add\n              exp(0x100, 0x0)\n              dup2\n              sload\n              dup2\n              0xff\n              mul\n              not\n              and\n              swap1\n              dup4\n              0x3\n              dup2\n              gt\n              iszero\n              tag_131\n              jumpi\n              invalid\n            tag_131:\n              mul\n              or\n              swap1\n              sstore\n              pop\n              pop\n              pop\n              pop\n                /* \"src/funding/src/contracts/Funding.sol\":2263:2608  function createRequest(string _purpose, uint256 _cost, address _shopAddress) public isManager{\r... */\n              pop\n              pop\n              pop\n              pop\n              jump\t// out\n                /* \"src/funding/src/contracts/Funding.sol\":149:175  uint256 public targetMoney */\n            tag_63:\n              sload(0x2)\n              dup2\n              jump\t// out\n                /* \"src/funding/src/contracts/Funding.sol\":117:142  string public projectName */\n            tag_66:\n              0x1\n              dup1\n              sload\n              0x1\n              dup2\n              0x1\n              and\n              iszero\n              0x100\n              mul\n              sub\n              and\n              0x2\n              swap1\n              div\n              dup1\n              0x1f\n              add\n              0x20\n              dup1\n              swap2\n              div\n              mul\n              0x20\n              add\n              mload(0x40)\n              swap1\n              dup2\n              add\n              0x40\n              mstore\n              dup1\n              swap3\n              swap2\n              swap1\n              dup2\n              dup2\n              mstore\n              0x20\n              add\n              dup3\n              dup1\n              sload\n              0x1\n              dup2\n              0x1\n              and\n              iszero\n              0x100\n              mul\n              sub\n              and\n              0x2\n              swap1\n              div\n              dup1\n              iszero\n              tag_132\n              jumpi\n              dup1\n              0x1f\n              lt\n              tag_133\n              jumpi\n              0x100\n              dup1\n              dup4\n              sload\n              div\n              mul\n              dup4\n              mstore\n              swap2\n              0x20\n              add\n              swap2\n              jump(tag_132)\n            tag_133:\n              dup3\n              add\n              swap2\n              swap1\n              0x0\n              mstore\n              keccak256(0x0, 0x20)\n              swap1\n            tag_134:\n              dup2\n              sload\n              dup2\n              mstore\n              swap1\n              0x1\n              add\n              swap1\n              0x20\n              add\n              dup1\n              dup4\n              gt\n              tag_134\n              jumpi\n              dup3\n              swap1\n              sub\n              0x1f\n              and\n              dup3\n              add\n              swap2\n            tag_132:\n              pop\n              pop\n              pop\n              pop\n              pop\n              dup2\n              jump\t// out\n                /* \"src/funding/src/contracts/Funding.sol\":182:209  uint256 public supportMoney */\n            tag_73:\n              sload(0x3)\n              dup2\n              jump\t// out\n                /* \"src/funding/src/contracts/Funding.sol\":2637:3336  function approveRequest(uint256 _requestId) public {\r... */\n            tag_76:\n                /* \"src/funding/src/contracts/Funding.sol\":2739:2762  Request storage request */\n              0x0\n                /* \"src/funding/src/contracts/Funding.sol\":2765:2773  requests */\n              0x7\n                /* \"src/funding/src/contracts/Funding.sol\":2774:2784  _requestId */\n              dup3\n                /* \"src/funding/src/contracts/Funding.sol\":2765:2785  requests[_requestId] */\n              dup2\n              sload\n              dup2\n              lt\n              iszero\n              iszero\n              tag_136\n              jumpi\n              invalid\n            tag_136:\n              swap1\n              0x0\n              mstore\n              keccak256(0x0, 0x20)\n              swap1\n              0x6\n              mul\n              add\n                /* \"src/funding/src/contracts/Funding.sol\":2739:2785  Request storage request = requests[_requestId] */\n              swap1\n              pop\n                /* \"src/funding/src/contracts/Funding.sol\":2841:2854  supportersMap */\n              0x6\n                /* \"src/funding/src/contracts/Funding.sol\":2841:2866  supportersMap[msg.sender] */\n              0x0\n                /* \"src/funding/src/contracts/Funding.sol\":2855:2865  msg.sender */\n              caller\n                /* \"src/funding/src/contracts/Funding.sol\":2841:2866  supportersMap[msg.sender] */\n              0xffffffffffffffffffffffffffffffffffffffff\n              and\n              0xffffffffffffffffffffffffffffffffffffffff\n              and\n              dup2\n              mstore\n              0x20\n              add\n              swap1\n              dup2\n              mstore\n              0x20\n              add\n              0x0\n              keccak256\n              0x0\n              swap1\n              sload\n              swap1\n              0x100\n              exp\n              swap1\n              div\n              0xff\n              and\n                /* \"src/funding/src/contracts/Funding.sol\":2833:2898  require(supportersMap[msg.sender], \"只有投资人有投票权\") */\n              iszero\n              iszero\n              tag_138\n              jumpi\n              mload(0x40)\n              0x8c379a000000000000000000000000000000000000000000000000000000000\n              dup2\n              mstore\n              0x4\n              add\n              dup1\n              dup1\n              0x20\n              add\n              dup3\n              dup2\n              sub\n              dup3\n              mstore\n              0x1b\n              dup2\n              mstore\n              0x20\n              add\n              dup1\n              0xe58faae69c89e68a95e8b584e4babae69c89e68a95e7a5a8e69d830000000000\n              dup2\n              mstore\n              pop\n              0x20\n              add\n              swap2\n              pop\n              pop\n              mload(0x40)\n              dup1\n              swap2\n              sub\n              swap1\n              revert\n            tag_138:\n                /* \"src/funding/src/contracts/Funding.sol\":2992:2997  false */\n              0x0\n                /* \"src/funding/src/contracts/Funding.sol\":2960:2997  request.votedMap[msg.sender] == false */\n              iszero\n              iszero\n                /* \"src/funding/src/contracts/Funding.sol\":2960:2967  request */\n              dup2\n                /* \"src/funding/src/contracts/Funding.sol\":2960:2976  request.votedMap */\n              0x4\n              add\n                /* \"src/funding/src/contracts/Funding.sol\":2960:2988  request.votedMap[msg.sender] */\n              0x0\n                /* \"src/funding/src/contracts/Funding.sol\":2977:2987  msg.sender */\n              caller\n                /* \"src/funding/src/contracts/Funding.sol\":2960:2988  request.votedMap[msg.sender] */\n              0xffffffffffffffffffffffffffffffffffffffff\n              and\n              0xffffffffffffffffffffffffffffffffffffffff\n              and\n              dup2\n              mstore\n              0x20\n              add\n              swap1\n              dup2\n              mstore\n              0x20\n              add\n              0x0\n              keccak256\n              0x0\n              swap1\n              sload\n              swap1\n              0x100\n              exp\n              swap1\n              div\n              0xff\n              and\n                /* \"src/funding/src/contracts/Funding.sol\":2960:2997  request.votedMap[msg.sender] == false */\n              iszero\n              iszero\n              eq\n                /* \"src/funding/src/contracts/Funding.sol\":2952:3020  require(request.votedMap[msg.sender] == false, \"已经投过票了\") */\n              iszero\n              iszero\n              tag_139\n              jumpi\n              mload(0x40)\n              0x8c379a000000000000000000000000000000000000000000000000000000000\n              dup2\n              mstore\n              0x4\n              add\n              dup1\n              dup1\n              0x20\n              add\n              dup3\n              dup2\n              sub\n              dup3\n              mstore\n              0x12\n              dup2\n              mstore\n              0x20\n              add\n              dup1\n              0xe5b7b2e7bb8fe68a95e8bf87e7a5a8e4ba860000000000000000000000000000\n              dup2\n              mstore\n              pop\n              0x20\n              add\n              swap2\n              pop\n              pop\n              mload(0x40)\n              dup1\n              swap2\n              sub\n              swap1\n              revert\n            tag_139:\n                /* \"src/funding/src/contracts/Funding.sol\":3104:3108  true */\n              0x1\n                /* \"src/funding/src/contracts/Funding.sol\":3073:3080  request */\n              dup2\n                /* \"src/funding/src/contracts/Funding.sol\":3073:3089  request.votedMap */\n              0x4\n              add\n                /* \"src/funding/src/contracts/Funding.sol\":3073:3101  request.votedMap[msg.sender] */\n              0x0\n                /* \"src/funding/src/contracts/Funding.sol\":3090:3100  msg.sender */\n              caller\n                /* \"src/funding/src/contracts/Funding.sol\":3073:3101  request.votedMap[msg.sender] */\n              0xffffffffffffffffffffffffffffffffffffffff\n              and\n              0xffffffffffffffffffffffffffffffffffffffff\n              and\n              dup2\n              mstore\n              0x20\n              add\n              swap1\n              dup2\n              mstore\n              0x20\n              add\n              0x0\n              keccak256\n              0x0\n                /* \"src/funding/src/contracts/Funding.sol\":3073:3108  request.votedMap[msg.sender] = true */\n              0x100\n              exp\n              dup2\n              sload\n              dup2\n              0xff\n              mul\n              not\n              and\n              swap1\n              dup4\n              iszero\n              iszero\n              mul\n              or\n              swap1\n              sstore\n              pop\n                /* \"src/funding/src/contracts/Funding.sol\":3119:3126  request */\n              dup1\n                /* \"src/funding/src/contracts/Funding.sol\":3119:3136  request.voteCount */\n              0x3\n              add\n              0x0\n                /* \"src/funding/src/contracts/Funding.sol\":3119:3138  request.voteCount++ */\n              dup2\n              sload\n              dup1\n              swap3\n              swap2\n              swap1\n              0x1\n              add\n              swap2\n              swap1\n              pop\n              sstore\n              pop\n                /* \"src/funding/src/contracts/Funding.sol\":3256:3257  2 */\n              0x2\n                /* \"src/funding/src/contracts/Funding.sol\":3236:3246  supporters */\n              0x5\n                /* \"src/funding/src/contracts/Funding.sol\":3236:3253  supporters.length */\n              dup1\n              sload\n              swap1\n              pop\n                /* \"src/funding/src/contracts/Funding.sol\":3236:3257  supporters.length / 2 */\n              dup2\n              iszero\n              iszero\n              tag_140\n              jumpi\n              invalid\n            tag_140:\n              div\n                /* \"src/funding/src/contracts/Funding.sol\":3216:3223  request */\n              dup2\n                /* \"src/funding/src/contracts/Funding.sol\":3216:3233  request.voteCount */\n              0x3\n              add\n              sload\n                /* \"src/funding/src/contracts/Funding.sol\":3216:3257  request.voteCount > supporters.length / 2 */\n              gt\n                /* \"src/funding/src/contracts/Funding.sol\":3212:3325  if (request.voteCount > supporters.length / 2) {\r... */\n              iszero\n              tag_141\n              jumpi\n                /* \"src/funding/src/contracts/Funding.sol\":3291:3313  RequestStatus.Approved */\n              0x1\n                /* \"src/funding/src/contracts/Funding.sol\":3274:3281  request */\n              dup2\n                /* \"src/funding/src/contracts/Funding.sol\":3274:3288  request.status */\n              0x5\n              add\n              0x0\n                /* \"src/funding/src/contracts/Funding.sol\":3274:3313  request.status = RequestStatus.Approved */\n              0x100\n              exp\n              dup2\n              sload\n              dup2\n              0xff\n              mul\n              not\n              and\n              swap1\n              dup4\n              0x3\n              dup2\n              gt\n              iszero\n              tag_142\n              jumpi\n              invalid\n            tag_142:\n              mul\n              or\n              swap1\n              sstore\n              pop\n                /* \"src/funding/src/contracts/Funding.sol\":3212:3325  if (request.voteCount > supporters.length / 2) {\r... */\n            tag_141:\n                /* \"src/funding/src/contracts/Funding.sol\":2637:3336  function approveRequest(uint256 _requestId) public {\r... */\n              pop\n              pop\n              jump\t// out\n                /* \"src/funding/src/contracts/Funding.sol\":4065:4175  function getRemainTime() public view returns (uint256){\r... */\n            tag_79:\n                /* \"src/funding/src/contracts/Funding.sol\":4111:4118  uint256 */\n              0x0\n                /* \"src/funding/src/contracts/Funding.sol\":4165:4167  24 */\n              0x18\n                /* \"src/funding/src/contracts/Funding.sol\":4160:4162  60 */\n              0x3c\n                /* \"src/funding/src/contracts/Funding.sol\":4155:4157  60 */\n              dup1\n                /* \"src/funding/src/contracts/Funding.sol\":4148:4151  now */\n              timestamp\n                /* \"src/funding/src/contracts/Funding.sol\":4138:4145  endTime */\n              sload(0x4)\n                /* \"src/funding/src/contracts/Funding.sol\":4138:4151  endTime - now */\n              sub\n                /* \"src/funding/src/contracts/Funding.sol\":4137:4157  (endTime - now) / 60 */\n              dup2\n              iszero\n              iszero\n              tag_144\n              jumpi\n              invalid\n            tag_144:\n              div\n                /* \"src/funding/src/contracts/Funding.sol\":4137:4162  (endTime - now) / 60 / 60 */\n              dup2\n              iszero\n              iszero\n              tag_145\n              jumpi\n              invalid\n            tag_145:\n              div\n                /* \"src/funding/src/contracts/Funding.sol\":4137:4167  (endTime - now) / 60 / 60 / 24 */\n              dup2\n              iszero\n              iszero\n              tag_146\n              jumpi\n              invalid\n            tag_146:\n              div\n                /* \"src/funding/src/contracts/Funding.sol\":4130:4167  return (endTime - now) / 60 / 60 / 24 */\n              swap1\n              pop\n                /* \"src/funding/src/contracts/Funding.sol\":4065:4175  function getRemainTime() public view returns (uint256){\r... */\n              swap1\n              jump\t// out\n                /* \"src/funding/src/contracts/Funding.sol\":62:4731  contract Funding {\r... */\n            tag_112:\n              pop\n              dup1\n              sload\n              0x0\n              dup3\n              sstore\n              swap1\n              0x0\n              mstore\n              keccak256(0x0, 0x20)\n              swap1\n              dup2\n              add\n              swap1\n              tag_148\n              swap2\n              swap1\n              jump\t// in(tag_149)\n            tag_148:\n              pop\n              jump\t// out\n            tag_123:\n              0xa0\n              mload(0x40)\n              swap1\n              dup2\n              add\n              0x40\n              mstore\n              dup1\n              0x60\n              dup2\n              mstore\n              0x20\n              add\n              0x0\n              dup2\n              mstore\n              0x20\n              add\n              and(0xffffffffffffffffffffffffffffffffffffffff, 0x0)\n              dup2\n              mstore\n              0x20\n              add\n              0x0\n              dup2\n              mstore\n              0x20\n              add\n              0x0\n              0x3\n              dup2\n              gt\n              iszero\n              tag_150\n              jumpi\n              invalid\n            tag_150:\n              dup2\n              mstore\n              pop\n              swap1\n              jump\t// out\n            tag_130:\n              dup3\n              dup1\n              sload\n              0x1\n              dup2\n              0x1\n              and\n              iszero\n              0x100\n              mul\n              sub\n              and\n              0x2\n              swap1\n              div\n              swap1\n              0x0\n              mstore\n              keccak256(0x0, 0x20)\n              swap1\n              0x1f\n              add\n              0x20\n              swap1\n              div\n              dup2\n              add\n              swap3\n              dup3\n              0x1f\n              lt\n              tag_152\n              jumpi\n              dup1\n              mload\n              not(0xff)\n              and\n              dup4\n              dup1\n              add\n              or\n              dup6\n              sstore\n              jump(tag_151)\n            tag_152:\n              dup3\n              dup1\n              add\n              0x1\n              add\n              dup6\n              sstore\n              dup3\n              iszero\n              tag_151\n              jumpi\n              swap2\n              dup3\n              add\n            tag_153:\n              dup3\n              dup2\n              gt\n              iszero\n              tag_154\n              jumpi\n              dup3\n              mload\n              dup3\n              sstore\n              swap2\n              0x20\n              add\n              swap2\n              swap1\n              0x1\n              add\n              swap1\n              jump(tag_153)\n            tag_154:\n            tag_151:\n              pop\n              swap1\n              pop\n              tag_155\n              swap2\n              swap1\n              jump\t// in(tag_149)\n            tag_155:\n              pop\n              swap1\n              jump\t// out\n            tag_149:\n              tag_156\n              swap2\n              swap1\n            tag_157:\n              dup1\n              dup3\n              gt\n              iszero\n              tag_158\n              jumpi\n              0x0\n              dup2\n              0x0\n              swap1\n              sstore\n              pop\n              0x1\n              add\n              jump(tag_157)\n            tag_158:\n              pop\n              swap1\n              jump\n            tag_156:\n              swap1\n              jump\t// out\n\n            auxdata: 0xa165627a7a72305820060f58f6229e1421f05dc4381b581629dd25b98efcbcea5649744b82bb38a2720029\n        }\n    }\n\n    auxdata: 0xa165627a7a723058200ec9eefabf9875172cdad336e76dc894e0307c788e9c67ced2a8e8b86df903160029\n}\n\nsub_1: assembly {\n        /* \"src/funding/src/contracts/FundingFactory.sol\":1364:1752  contract SupportFundingContract {\r... */\n      mstore(0x40, 0x80)\n      callvalue\n        /* \"--CODEGEN--\":8:17   */\n      dup1\n        /* \"--CODEGEN--\":5:7   */\n      iszero\n      tag_1\n      jumpi\n        /* \"--CODEGEN--\":30:31   */\n      0x0\n        /* \"--CODEGEN--\":27:28   */\n      dup1\n        /* \"--CODEGEN--\":20:32   */\n      revert\n        /* \"--CODEGEN--\":5:7   */\n    tag_1:\n        /* \"src/funding/src/contracts/FundingFactory.sol\":1364:1752  contract SupportFundingContract {\r... */\n      pop\n      dataSize(sub_0)\n      dup1\n      dataOffset(sub_0)\n      0x0\n      codecopy\n      0x0\n      return\n    stop\n\n    sub_0: assembly {\n            /* \"src/funding/src/contracts/FundingFactory.sol\":1364:1752  contract SupportFundingContract {\r... */\n          mstore(0x40, 0x80)\n          jumpi(tag_1, lt(calldatasize, 0x4))\n          calldataload(0x0)\n          0x100000000000000000000000000000000000000000000000000000000\n          swap1\n          div\n          0xffffffff\n          and\n          dup1\n          0x4ca765a7\n          eq\n          tag_2\n          jumpi\n          dup1\n          0x84b9ee43\n          eq\n          tag_3\n          jumpi\n        tag_1:\n          0x0\n          dup1\n          revert\n            /* \"src/funding/src/contracts/FundingFactory.sol\":1627:1745  function getFundings(address _support) public returns (address[]){\r... */\n        tag_2:\n          callvalue\n            /* \"--CODEGEN--\":8:17   */\n          dup1\n            /* \"--CODEGEN--\":5:7   */\n          iszero\n          tag_4\n          jumpi\n            /* \"--CODEGEN--\":30:31   */\n          0x0\n            /* \"--CODEGEN--\":27:28   */\n          dup1\n            /* \"--CODEGEN--\":20:32   */\n          revert\n            /* \"--CODEGEN--\":5:7   */\n        tag_4:\n            /* \"src/funding/src/contracts/FundingFactory.sol\":1627:1745  function getFundings(address _support) public returns (address[]){\r... */\n          pop\n          tag_5\n          0x4\n          dup1\n          calldatasize\n          sub\n          dup2\n          add\n          swap1\n          dup1\n          dup1\n          calldataload\n          0xffffffffffffffffffffffffffffffffffffffff\n          and\n          swap1\n          0x20\n          add\n          swap1\n          swap3\n          swap2\n          swap1\n          pop\n          pop\n          pop\n          jump(tag_6)\n        tag_5:\n          mload(0x40)\n          dup1\n          dup1\n          0x20\n          add\n          dup3\n          dup2\n          sub\n          dup3\n          mstore\n          dup4\n          dup2\n          dup2\n          mload\n          dup2\n          mstore\n          0x20\n          add\n          swap2\n          pop\n          dup1\n          mload\n          swap1\n          0x20\n          add\n          swap1\n          0x20\n          mul\n          dup1\n          dup4\n          dup4\n            /* \"--CODEGEN--\":23:24   */\n          0x0\n            /* \"--CODEGEN--\":8:108   */\n        tag_7:\n            /* \"--CODEGEN--\":33:36   */\n          dup4\n            /* \"--CODEGEN--\":30:31   */\n          dup2\n            /* \"--CODEGEN--\":27:37   */\n          lt\n            /* \"--CODEGEN--\":8:108   */\n          iszero\n          tag_8\n          jumpi\n            /* \"--CODEGEN--\":99:100   */\n          dup1\n            /* \"--CODEGEN--\":94:97   */\n          dup3\n            /* \"--CODEGEN--\":90:101   */\n          add\n            /* \"--CODEGEN--\":84:102   */\n          mload\n            /* \"--CODEGEN--\":80:81   */\n          dup2\n            /* \"--CODEGEN--\":75:78   */\n          dup5\n            /* \"--CODEGEN--\":71:82   */\n          add\n            /* \"--CODEGEN--\":64:103   */\n          mstore\n            /* \"--CODEGEN--\":52:54   */\n          0x20\n            /* \"--CODEGEN--\":49:50   */\n          dup2\n            /* \"--CODEGEN--\":45:55   */\n          add\n            /* \"--CODEGEN--\":40:55   */\n          swap1\n          pop\n            /* \"--CODEGEN--\":8:108   */\n          jump(tag_7)\n        tag_8:\n            /* \"--CODEGEN--\":12:26   */\n          pop\n            /* \"src/funding/src/contracts/FundingFactory.sol\":1627:1745  function getFundings(address _support) public returns (address[]){\r... */\n          pop\n          pop\n          pop\n          swap1\n          pop\n          add\n          swap3\n          pop\n          pop\n          pop\n          mload(0x40)\n          dup1\n          swap2\n          sub\n          swap1\n          return\n            /* \"src/funding/src/contracts/FundingFactory.sol\":1495:1619  function addFunding(address _support, address _funding) public {\r... */\n        tag_3:\n          callvalue\n            /* \"--CODEGEN--\":8:17   */\n          dup1\n            /* \"--CODEGEN--\":5:7   */\n          iszero\n          tag_10\n          jumpi\n            /* \"--CODEGEN--\":30:31   */\n          0x0\n            /* \"--CODEGEN--\":27:28   */\n          dup1\n            /* \"--CODEGEN--\":20:32   */\n          revert\n            /* \"--CODEGEN--\":5:7   */\n        tag_10:\n            /* \"src/funding/src/contracts/FundingFactory.sol\":1495:1619  function addFunding(address _support, address _funding) public {\r... */\n          pop\n          tag_11\n          0x4\n          dup1\n          calldatasize\n          sub\n          dup2\n          add\n          swap1\n          dup1\n          dup1\n          calldataload\n          0xffffffffffffffffffffffffffffffffffffffff\n          and\n          swap1\n          0x20\n          add\n          swap1\n          swap3\n          swap2\n          swap1\n          dup1\n          calldataload\n          0xffffffffffffffffffffffffffffffffffffffff\n          and\n          swap1\n          0x20\n          add\n          swap1\n          swap3\n          swap2\n          swap1\n          pop\n          pop\n          pop\n          jump(tag_12)\n        tag_11:\n          stop\n            /* \"src/funding/src/contracts/FundingFactory.sol\":1627:1745  function getFundings(address _support) public returns (address[]){\r... */\n        tag_6:\n            /* \"src/funding/src/contracts/FundingFactory.sol\":1682:1691  address[] */\n          0x60\n            /* \"src/funding/src/contracts/FundingFactory.sol\":1710:1727  supporterFundings */\n          0x0\n            /* \"src/funding/src/contracts/FundingFactory.sol\":1710:1737  supporterFundings[_support] */\n          dup1\n            /* \"src/funding/src/contracts/FundingFactory.sol\":1728:1736  _support */\n          dup4\n            /* \"src/funding/src/contracts/FundingFactory.sol\":1710:1737  supporterFundings[_support] */\n          0xffffffffffffffffffffffffffffffffffffffff\n          and\n          0xffffffffffffffffffffffffffffffffffffffff\n          and\n          dup2\n          mstore\n          0x20\n          add\n          swap1\n          dup2\n          mstore\n          0x20\n          add\n          0x0\n          keccak256\n            /* \"src/funding/src/contracts/FundingFactory.sol\":1703:1737  return supporterFundings[_support] */\n          dup1\n          sload\n          dup1\n          0x20\n          mul\n          0x20\n          add\n          mload(0x40)\n          swap1\n          dup2\n          add\n          0x40\n          mstore\n          dup1\n          swap3\n          swap2\n          swap1\n          dup2\n          dup2\n          mstore\n          0x20\n          add\n          dup3\n          dup1\n          sload\n          dup1\n          iszero\n          tag_14\n          jumpi\n          0x20\n          mul\n          dup3\n          add\n          swap2\n          swap1\n          0x0\n          mstore\n          keccak256(0x0, 0x20)\n          swap1\n        tag_15:\n          dup2\n          0x0\n          swap1\n          sload\n          swap1\n          0x100\n          exp\n          swap1\n          div\n          0xffffffffffffffffffffffffffffffffffffffff\n          and\n          0xffffffffffffffffffffffffffffffffffffffff\n          and\n          dup2\n          mstore\n          0x20\n          add\n          swap1\n          0x1\n          add\n          swap1\n          dup1\n          dup4\n          gt\n          tag_15\n          jumpi\n        tag_14:\n          pop\n          pop\n          pop\n          pop\n          pop\n          swap1\n          pop\n            /* \"src/funding/src/contracts/FundingFactory.sol\":1627:1745  function getFundings(address _support) public returns (address[]){\r... */\n          swap2\n          swap1\n          pop\n          jump\t// out\n            /* \"src/funding/src/contracts/FundingFactory.sol\":1495:1619  function addFunding(address _support, address _funding) public {\r... */\n        tag_12:\n            /* \"src/funding/src/contracts/FundingFactory.sol\":1569:1586  supporterFundings */\n          0x0\n            /* \"src/funding/src/contracts/FundingFactory.sol\":1569:1596  supporterFundings[_support] */\n          dup1\n            /* \"src/funding/src/contracts/FundingFactory.sol\":1587:1595  _support */\n          dup4\n            /* \"src/funding/src/contracts/FundingFactory.sol\":1569:1596  supporterFundings[_support] */\n          0xffffffffffffffffffffffffffffffffffffffff\n          and\n          0xffffffffffffffffffffffffffffffffffffffff\n          and\n          dup2\n          mstore\n          0x20\n          add\n          swap1\n          dup2\n          mstore\n          0x20\n          add\n          0x0\n          keccak256\n            /* \"src/funding/src/contracts/FundingFactory.sol\":1602:1610  _funding */\n          dup2\n            /* \"src/funding/src/contracts/FundingFactory.sol\":1569:1611  supporterFundings[_support].push(_funding) */\n          swap1\n          dup1\n            /* \"--CODEGEN--\":39:40   */\n          0x1\n            /* \"--CODEGEN--\":33:36   */\n          dup2\n            /* \"--CODEGEN--\":27:37   */\n          sload\n            /* \"--CODEGEN--\":23:41   */\n          add\n            /* \"--CODEGEN--\":57:67   */\n          dup1\n            /* \"--CODEGEN--\":52:55   */\n          dup3\n            /* \"--CODEGEN--\":45:68   */\n          sstore\n            /* \"--CODEGEN--\":79:89   */\n          dup1\n            /* \"--CODEGEN--\":72:89   */\n          swap2\n          pop\n            /* \"--CODEGEN--\":0:93   */\n          pop\n            /* \"src/funding/src/contracts/FundingFactory.sol\":1569:1611  supporterFundings[_support].push(_funding) */\n          swap1\n          0x1\n          dup3\n          sub\n          swap1\n          0x0\n          mstore\n          keccak256(0x0, 0x20)\n          add\n          0x0\n          swap1\n          swap2\n          swap3\n          swap1\n          swap2\n          swap1\n          swap2\n          0x100\n          exp\n          dup2\n          sload\n          dup2\n          0xffffffffffffffffffffffffffffffffffffffff\n          mul\n          not\n          and\n          swap1\n          dup4\n          0xffffffffffffffffffffffffffffffffffffffff\n          and\n          mul\n          or\n          swap1\n          sstore\n          pop\n          pop\n            /* \"src/funding/src/contracts/FundingFactory.sol\":1495:1619  function addFunding(address _support, address _funding) public {\r... */\n          pop\n          pop\n          jump\t// out\n\n        auxdata: 0xa165627a7a72305820b59fbc15c9868abbb7177b28eb7b4b73daa5d2b0776eb086288020d1a5f03b9d0029\n    }\n}\n",
				"bytecode": {
					"linkReferences": {},
					"object": "608060405234801561001057600080fd5b50336000806101000a81548173ffffffffffffffffffffffffffffffffffffffff021916908373ffffffffffffffffffffffffffffffffffffffff1602179055506100596100bb565b604051809103906000f080158015610075573d6000803e3d6000fd5b50600360006101000a81548173ffffffffffffffffffffffffffffffffffffffff021916908373ffffffffffffffffffffffffffffffffffffffff1602179055506100cb565b60405161030a8061200583390190565b611f2b806100da6000396000f300608060405260043610610062576000357c0100000000000000000000000000000000000000000000000000000000900463ffffffff16806362786e171461006757806372a3143c146100ee578063b74ae5cd1461015a578063fc93110a146101c6575b600080fd5b34801561007357600080fd5b506100ec600480360381019080803590602001908201803590602001908080601f0160208091040260200160405190810160405280939291908181526020018383808284378201915050505050509192919290803590602001909291908035906020019092919080359060200190929190505050610232565b005b3480156100fa57600080fd5b5061010361047d565b6040518080602001828103825283818151815260200191508051906020019060200280838360005b8381101561014657808201518184015260208101905061012b565b505050509050019250505060405180910390f35b34801561016657600080fd5b5061016f61050b565b6040518080602001828103825283818151815260200191508051906020019060200280838360005b838110156101b2578082015181840152602081019050610197565b505050509050019250505060405180910390f35b3480156101d257600080fd5b506101db610660565b6040518080602001828103825283818151815260200191508051906020019060200280838360005b8381101561021e578082015181840152602081019050610203565b505050509050019250505060405180910390f35b60003385858585600360009054906101000a900473ffffffffffffffffffffffffffffffffffffffff1661026461072b565b808773ffffffffffffffffffffffffffffffffffffffff1673ffffffffffffffffffffffffffffffffffffffff168152602001806020018681526020018581526020018481526020018373ffffffffffffffffffffffffffffffffffffffff1673ffffffffffffffffffffffffffffffffffffffff168152602001828103825287818151815260200191508051906020019080838360005b838110156103175780820151818401526020810190506102fc565b50505050905090810190601f1680156103445780820380516001836020036101000a031916815260200191505b50975050505050505050604051809103906000f08015801561036a573d6000803e3d6000fd5b50905060018190806001815401808255809150509060018203906000526020600020016000909192909190916101000a81548173ffffffffffffffffffffffffffffffffffffffff021916908373ffffffffffffffffffffffffffffffffffffffff16021790555050600260003373ffffffffffffffffffffffffffffffffffffffff1673ffffffffffffffffffffffffffffffffffffffff1681526020019081526020016000208190806001815401808255809150509060018203906000526020600020016000909192909190916101000a81548173ffffffffffffffffffffffffffffffffffffffff021916908373ffffffffffffffffffffffffffffffffffffffff160217905550505050505050565b6060600180548060200260200160405190810160405280929190818152602001828054801561050157602002820191906000526020600020905b8160009054906101000a900473ffffffffffffffffffffffffffffffffffffffff1673ffffffffffffffffffffffffffffffffffffffff16815260200190600101908083116104b7575b5050505050905090565b6060600360009054906101000a900473ffffffffffffffffffffffffffffffffffffffff1673ffffffffffffffffffffffffffffffffffffffff16634ca765a7336040518263ffffffff167c0100000000000000000000000000000000000000000000000000000000028152600401808273ffffffffffffffffffffffffffffffffffffffff1673ffffffffffffffffffffffffffffffffffffffff168152602001915050600060405180830381600087803b1580156105ca57600080fd5b505af11580156105de573d6000803e3d6000fd5b505050506040513d6000823e3d601f19601f82011682018060405250602081101561060857600080fd5b81019080805164010000000081111561062057600080fd5b8281019050602081018481111561063657600080fd5b815185602082028301116401000000008211171561065357600080fd5b5050929190505050905090565b6060600260003373ffffffffffffffffffffffffffffffffffffffff1673ffffffffffffffffffffffffffffffffffffffff16815260200190815260200160002080548060200260200160405190810160405280929190818152602001828054801561072157602002820191906000526020600020905b8160009054906101000a900473ffffffffffffffffffffffffffffffffffffffff1673ffffffffffffffffffffffffffffffffffffffff16815260200190600101908083116106d7575b5050505050905090565b6040516117c48061073c83390190560060806040523480156200001157600080fd5b50604051620017c4380380620017c4833981018060405281019080805190602001909291908051820192919060200180519060200190929190805190602001909291908051906020019092919080519060200190929190505050856000806101000a81548173ffffffffffffffffffffffffffffffffffffffff021916908373ffffffffffffffffffffffffffffffffffffffff1602179055508460019080519060200190620000c392919062000128565b50836002819055508260038190555081420160048190555080600860006101000a81548173ffffffffffffffffffffffffffffffffffffffff021916908373ffffffffffffffffffffffffffffffffffffffff160217905550505050505050620001d7565b828054600181600116156101000203166002900490600052602060002090601f016020900481019282601f106200016b57805160ff19168380011785556200019c565b828001600101855582156200019c579182015b828111156200019b5782518255916020019190600101906200017e565b5b509050620001ab9190620001af565b5090565b620001d491905b80821115620001d0576000816000905550600101620001b6565b5090565b90565b6115dd80620001e76000396000f3006080604052600436106100f1576000357c0100000000000000000000000000000000000000000000000000000000900463ffffffff16806303441006146100f6578063119f87471461012357806312065fe01461012d5780633197cbb6146101585780633410452a146101835780633c24b7d7146101ae57806343020b1a1461021b578063481c6a7514610287578063590e1ae3146102de57806363b393d8146102f557806369efb694146103205780638a9cfd55146104195780638d7cdb91146104ac5780639a33e300146104d7578063a5d5c5dc14610567578063d7d1bbdb14610592578063fc2615d5146105bf575b600080fd5b34801561010257600080fd5b50610121600480360381019080803590602001909291905050506105ea565b005b61012b610887565b005b34801561013957600080fd5b50610142610ac9565b6040518082815260200191505060405180910390f35b34801561016457600080fd5b5061016d610ae8565b6040518082815260200191505060405180910390f35b34801561018f57600080fd5b50610198610aee565b6040518082815260200191505060405180910390f35b3480156101ba57600080fd5b506101d960048036038101908080359060200190929190505050610afb565b604051808273ffffffffffffffffffffffffffffffffffffffff1673ffffffffffffffffffffffffffffffffffffffff16815260200191505060405180910390f35b34801561022757600080fd5b50610230610b39565b6040518080602001828103825283818151815260200191508051906020019060200280838360005b83811015610273578082015181840152602081019050610258565b505050509050019250505060405180910390f35b34801561029357600080fd5b5061029c610bc7565b604051808273ffffffffffffffffffffffffffffffffffffffff1673ffffffffffffffffffffffffffffffffffffffff16815260200191505060405180910390f35b3480156102ea57600080fd5b506102f3610bec565b005b34801561030157600080fd5b5061030a610d64565b6040518082815260200191505060405180910390f35b34801561032c57600080fd5b5061034b60048036038101908080359060200190929190505050610d71565b60405180806020018781526020018673ffffffffffffffffffffffffffffffffffffffff1673ffffffffffffffffffffffffffffffffffffffff16815260200185815260200184151515158152602001838152602001828103825288818151815260200191508051906020019080838360005b838110156103d95780820151818401526020810190506103be565b50505050905090810190601f1680156104065780820380516001836020036101000a031916815260200191505b5097505050505050505060405180910390f35b34801561042557600080fd5b506104aa600480360381019080803590602001908201803590602001908080601f016020809104026020016040519081016040528093929190818152602001838380828437820191505050505050919291929080359060200190929190803573ffffffffffffffffffffffffffffffffffffffff169060200190929190505050610f6e565b005b3480156104b857600080fd5b506104c161115f565b6040518082815260200191505060405180910390f35b3480156104e357600080fd5b506104ec611165565b6040518080602001828103825283818151815260200191508051906020019080838360005b8381101561052c578082015181840152602081019050610511565b50505050905090810190601f1680156105595780820380516001836020036101000a031916815260200191505b509250505060405180910390f35b34801561057357600080fd5b5061057c611203565b6040518082815260200191505060405180910390f35b34801561059e57600080fd5b506105bd60048036038101908080359060200190929190505050611209565b005b3480156105cb57600080fd5b506105d461146b565b6040518082815260200191505060405180910390f35b60008060009054906101000a900473ffffffffffffffffffffffffffffffffffffffff1673ffffffffffffffffffffffffffffffffffffffff163373ffffffffffffffffffffffffffffffffffffffff161415156106b0576040517f08c379a00000000000000000000000000000000000000000000000000000000081526004018080602001828103825260128152602001807fe99d9ee9a1b9e79baee7aea1e79086e4baba000000000000000000000000000081525060200191505060405180910390fd5b6007828154811015156106bf57fe5b9060005260206000209060060201905080600101543073ffffffffffffffffffffffffffffffffffffffff163110151515610762576040517f08c379a00000000000000000000000000000000000000000000000000000000081526004018080602001828103825260158152602001807fe59088e7baa6e4b8ade98791e9a29de4b88de8b6b3000000000000000000000081525060200191505060405180910390fd5b600260058054905081151561077357fe5b0481600301541115156107ee576040517f08c379a00000000000000000000000000000000000000000000000000000000081526004018080602001828103825260158152602001807fe8b59ee68890e4babae695b0e69caae8bf87e58d8a000000000000000000000081525060200191505060405180910390fd5b8060020160009054906101000a900473ffffffffffffffffffffffffffffffffffffffff1673ffffffffffffffffffffffffffffffffffffffff166108fc82600101549081150290604051600060405180830381858888f1935050505015801561085c573d6000803e3d6000fd5b5060028160050160006101000a81548160ff0219169083600381111561087e57fe5b02179055505050565b60035434141515610900576040517f08c379a00000000000000000000000000000000000000000000000000000000081526004018080602001828103825260128152602001807fe68a95e8b584e98791e9a29de99499e8afaf000000000000000000000000000081525060200191505060405180910390fd5b60053390806001815401808255809150509060018203906000526020600020016000909192909190916101000a81548173ffffffffffffffffffffffffffffffffffffffff021916908373ffffffffffffffffffffffffffffffffffffffff160217905550506001600660003373ffffffffffffffffffffffffffffffffffffffff1673ffffffffffffffffffffffffffffffffffffffff16815260200190815260200160002060006101000a81548160ff021916908315150217905550600860009054906101000a900473ffffffffffffffffffffffffffffffffffffffff1673ffffffffffffffffffffffffffffffffffffffff166384b9ee4333306040518363ffffffff167c0100000000000000000000000000000000000000000000000000000000028152600401808373ffffffffffffffffffffffffffffffffffffffff1673ffffffffffffffffffffffffffffffffffffffff1681526020018273ffffffffffffffffffffffffffffffffffffffff1673ffffffffffffffffffffffffffffffffffffffff16815260200192505050600060405180830381600087803b158015610aaf57600080fd5b505af1158015610ac3573d6000803e3d6000fd5b50505050565b60003073ffffffffffffffffffffffffffffffffffffffff1631905090565b60045481565b6000600780549050905090565b600581815481101515610b0a57fe5b906000526020600020016000915054906101000a900473ffffffffffffffffffffffffffffffffffffffff1681565b60606005805480602002602001604051908101604052809291908181526020018280548015610bbd57602002820191906000526020600020905b8160009054906101000a900473ffffffffffffffffffffffffffffffffffffffff1673ffffffffffffffffffffffffffffffffffffffff1681526020019060010190808311610b73575b5050505050905090565b6000809054906101000a900473ffffffffffffffffffffffffffffffffffffffff1681565b60008060009054906101000a900473ffffffffffffffffffffffffffffffffffffffff1673ffffffffffffffffffffffffffffffffffffffff163373ffffffffffffffffffffffffffffffffffffffff16141515610cb2576040517f08c379a00000000000000000000000000000000000000000000000000000000081526004018080602001828103825260128152602001807fe99d9ee9a1b9e79baee7aea1e79086e4baba000000000000000000000000000081525060200191505060405180910390fd5b600090505b600580549050811015610d5357600581815481101515610cd357fe5b9060005260206000200160009054906101000a900473ffffffffffffffffffffffffffffffffffffffff1673ffffffffffffffffffffffffffffffffffffffff166108fc6003549081150290604051600060405180830381858888f19350505050158015610d45573d6000803e3d6000fd5b508080600101915050610cb7565b60056000610d61919061149a565b50565b6000600580549050905090565b6060600080600080600080600060078054905089101515610dfa576040517f08c379a000000000000000000000000000000000000000000000000000000000815260040180806020018281038252600e8152602001807fe69caae79fa5e8afb7e6b182696400000000000000000000000000000000000081525060200191505060405180910390fd5b600789815481101515610e0957fe5b906000526020600020906006020191508160040160003373ffffffffffffffffffffffffffffffffffffffff1673ffffffffffffffffffffffffffffffffffffffff16815260200190815260200160002060009054906101000a900460ff1690508160000182600101548360020160009054906101000a900473ffffffffffffffffffffffffffffffffffffffff168460030154848660050160009054906101000a900460ff166003811115610ebb57fe5b858054600181600116156101000203166002900480601f016020809104026020016040519081016040528092919081815260200182805460018160011615610100020316600290048015610f505780601f10610f2557610100808354040283529160200191610f50565b820191906000526020600020905b815481529060010190602001808311610f3357829003601f168201915b50505050509550975097509750975097509750505091939550919395565b610f766114bb565b6000809054906101000a900473ffffffffffffffffffffffffffffffffffffffff1673ffffffffffffffffffffffffffffffffffffffff163373ffffffffffffffffffffffffffffffffffffffff1614151561103a576040517f08c379a00000000000000000000000000000000000000000000000000000000081526004018080602001828103825260128152602001807fe99d9ee9a1b9e79baee7aea1e79086e4baba000000000000000000000000000081525060200191505060405180910390fd5b60a0604051908101604052808581526020018481526020018373ffffffffffffffffffffffffffffffffffffffff168152602001600081526020016000600381111561108257fe5b81525090506007819080600181540180825580915050906001820390600052602060002090600602016000909192909190915060008201518160000190805190602001906110d192919061150c565b506020820151816001015560408201518160020160006101000a81548173ffffffffffffffffffffffffffffffffffffffff021916908373ffffffffffffffffffffffffffffffffffffffff1602179055506060820151816003015560808201518160050160006101000a81548160ff0219169083600381111561115157fe5b021790555050505050505050565b60025481565b60018054600181600116156101000203166002900480601f0160208091040260200160405190810160405280929190818152602001828054600181600116156101000203166002900480156111fb5780601f106111d0576101008083540402835291602001916111fb565b820191906000526020600020905b8154815290600101906020018083116111de57829003601f168201915b505050505081565b60035481565b600060078281548110151561121a57fe5b90600052602060002090600602019050600660003373ffffffffffffffffffffffffffffffffffffffff1673ffffffffffffffffffffffffffffffffffffffff16815260200190815260200160002060009054906101000a900460ff1615156112eb576040517f08c379a000000000000000000000000000000000000000000000000000000000815260040180806020018281038252601b8152602001807fe58faae69c89e68a95e8b584e4babae69c89e68a95e7a5a8e69d83000000000081525060200191505060405180910390fd5b600015158160040160003373ffffffffffffffffffffffffffffffffffffffff1673ffffffffffffffffffffffffffffffffffffffff16815260200190815260200160002060009054906101000a900460ff1615151415156113b5576040517f08c379a00000000000000000000000000000000000000000000000000000000081526004018080602001828103825260128152602001807fe5b7b2e7bb8fe68a95e8bf87e7a5a8e4ba86000000000000000000000000000081525060200191505060405180910390fd5b60018160040160003373ffffffffffffffffffffffffffffffffffffffff1673ffffffffffffffffffffffffffffffffffffffff16815260200190815260200160002060006101000a81548160ff0219169083151502179055508060030160008154809291906001019190505550600260058054905081151561143457fe5b04816003015411156114675760018160050160006101000a81548160ff0219169083600381111561146157fe5b02179055505b5050565b60006018603c80426004540381151561148057fe5b0481151561148a57fe5b0481151561149457fe5b04905090565b50805460008255906000526020600020908101906114b8919061158c565b50565b60a0604051908101604052806060815260200160008152602001600073ffffffffffffffffffffffffffffffffffffffff168152602001600081526020016000600381111561150657fe5b81525090565b828054600181600116156101000203166002900490600052602060002090601f016020900481019282601f1061154d57805160ff191683800117855561157b565b8280016001018555821561157b579182015b8281111561157a57825182559160200191906001019061155f565b5b509050611588919061158c565b5090565b6115ae91905b808211156115aa576000816000905550600101611592565b5090565b905600a165627a7a72305820060f58f6229e1421f05dc4381b581629dd25b98efcbcea5649744b82bb38a2720029a165627a7a723058200ec9eefabf9875172cdad336e76dc894e0307c788e9c67ced2a8e8b86df903160029608060405234801561001057600080fd5b506102ea806100206000396000f30060806040526004361061004c576000357c0100000000000000000000000000000000000000000000000000000000900463ffffffff1680634ca765a71461005157806384b9ee43146100e9575b600080fd5b34801561005d57600080fd5b50610092600480360381019080803573ffffffffffffffffffffffffffffffffffffffff16906020019092919050505061014c565b6040518080602001828103825283818151815260200191508051906020019060200280838360005b838110156100d55780820151818401526020810190506100ba565b505050509050019250505060405180910390f35b3480156100f557600080fd5b5061014a600480360381019080803573ffffffffffffffffffffffffffffffffffffffff169060200190929190803573ffffffffffffffffffffffffffffffffffffffff169060200190929190505050610218565b005b60606000808373ffffffffffffffffffffffffffffffffffffffff1673ffffffffffffffffffffffffffffffffffffffff16815260200190815260200160002080548060200260200160405190810160405280929190818152602001828054801561020c57602002820191906000526020600020905b8160009054906101000a900473ffffffffffffffffffffffffffffffffffffffff1673ffffffffffffffffffffffffffffffffffffffff16815260200190600101908083116101c2575b50505050509050919050565b6000808373ffffffffffffffffffffffffffffffffffffffff1673ffffffffffffffffffffffffffffffffffffffff1681526020019081526020016000208190806001815401808255809150509060018203906000526020600020016000909192909190916101000a81548173ffffffffffffffffffffffffffffffffffffffff021916908373ffffffffffffffffffffffffffffffffffffffff1602179055505050505600a165627a7a72305820b59fbc15c9868abbb7177b28eb7b4b73daa5d2b0776eb086288020d1a5f03b9d0029",
					"opcodes": "PUSH1 0x80 PUSH1 0x40 MSTORE CALLVALUE DUP1 ISZERO PUSH2 0x10 JUMPI PUSH1 0x0 DUP1 REVERT JUMPDEST POP CALLER PUSH1 0x0 DUP1 PUSH2 0x100 EXP DUP2 SLOAD DUP2 PUSH20 0xFFFFFFFFFFFFFFFFFFFFFFFFFFFFFFFFFFFFFFFF MUL NOT AND SWAP1 DUP4 PUSH20 0xFFFFFFFFFFFFFFFFFFFFFFFFFFFFFFFFFFFFFFFF AND MUL OR SWAP1 SSTORE POP PUSH2 0x59 PUSH2 0xBB JUMP JUMPDEST PUSH1 0x40 MLOAD DUP1 SWAP2 SUB SWAP1 PUSH1 0x0 CREATE DUP1 ISZERO DUP1 ISZERO PUSH2 0x75 JUMPI RETURNDATASIZE PUSH1 0x0 DUP1 RETURNDATACOPY RETURNDATASIZE PUSH1 0x0 REVERT JUMPDEST POP PUSH1 0x3 PUSH1 0x0 PUSH2 0x100 EXP DUP2 SLOAD DUP2 PUSH20 0xFFFFFFFFFFFFFFFFFFFFFFFFFFFFFFFFFFFFFFFF MUL NOT AND SWAP1 DUP4 PUSH20 0xFFFFFFFFFFFFFFFFFFFFFFFFFFFFFFFFFFFFFFFF AND MUL OR SWAP1 SSTORE POP PUSH2 0xCB JUMP JUMPDEST PUSH1 0x40 MLOAD PUSH2 0x30A DUP1 PUSH2 0x2005 DUP4 CODECOPY ADD SWAP1 JUMP JUMPDEST PUSH2 0x1F2B DUP1 PUSH2 0xDA PUSH1 0x0 CODECOPY PUSH1 0x0 RETURN STOP PUSH1 0x80 PUSH1 0x40 MSTORE PUSH1 0x4 CALLDATASIZE LT PUSH2 0x62 JUMPI PUSH1 0x0 CALLDATALOAD PUSH29 0x100000000000000000000000000000000000000000000000000000000 SWAP1 DIV PUSH4 0xFFFFFFFF AND DUP1 PUSH4 0x62786E17 EQ PUSH2 0x67 JUMPI DUP1 PUSH4 0x72A3143C EQ PUSH2 0xEE JUMPI DUP1 PUSH4 0xB74AE5CD EQ PUSH2 0x15A JUMPI DUP1 PUSH4 0xFC93110A EQ PUSH2 0x1C6 JUMPI JUMPDEST PUSH1 0x0 DUP1 REVERT JUMPDEST CALLVALUE DUP1 ISZERO PUSH2 0x73 JUMPI PUSH1 0x0 DUP1 REVERT JUMPDEST POP PUSH2 0xEC PUSH1 0x4 DUP1 CALLDATASIZE SUB DUP2 ADD SWAP1 DUP1 DUP1 CALLDATALOAD SWAP1 PUSH1 0x20 ADD SWAP1 DUP3 ADD DUP1 CALLDATALOAD SWAP1 PUSH1 0x20 ADD SWAP1 DUP1 DUP1 PUSH1 0x1F ADD PUSH1 0x20 DUP1 SWAP2 DIV MUL PUSH1 0x20 ADD PUSH1 0x40 MLOAD SWAP1 DUP2 ADD PUSH1 0x40 MSTORE DUP1 SWAP4 SWAP3 SWAP2 SWAP1 DUP2 DUP2 MSTORE PUSH1 0x20 ADD DUP4 DUP4 DUP1 DUP3 DUP5 CALLDATACOPY DUP3 ADD SWAP2 POP POP POP POP POP POP SWAP2 SWAP3 SWAP2 SWAP3 SWAP1 DUP1 CALLDATALOAD SWAP1 PUSH1 0x20 ADD SWAP1 SWAP3 SWAP2 SWAP1 DUP1 CALLDATALOAD SWAP1 PUSH1 0x20 ADD SWAP1 SWAP3 SWAP2 SWAP1 DUP1 CALLDATALOAD SWAP1 PUSH1 0x20 ADD SWAP1 SWAP3 SWAP2 SWAP1 POP POP POP PUSH2 0x232 JUMP JUMPDEST STOP JUMPDEST CALLVALUE DUP1 ISZERO PUSH2 0xFA JUMPI PUSH1 0x0 DUP1 REVERT JUMPDEST POP PUSH2 0x103 PUSH2 0x47D JUMP JUMPDEST PUSH1 0x40 MLOAD DUP1 DUP1 PUSH1 0x20 ADD DUP3 DUP2 SUB DUP3 MSTORE DUP4 DUP2 DUP2 MLOAD DUP2 MSTORE PUSH1 0x20 ADD SWAP2 POP DUP1 MLOAD SWAP1 PUSH1 0x20 ADD SWAP1 PUSH1 0x20 MUL DUP1 DUP4 DUP4 PUSH1 0x0 JUMPDEST DUP4 DUP2 LT ISZERO PUSH2 0x146 JUMPI DUP1 DUP3 ADD MLOAD DUP2 DUP5 ADD MSTORE PUSH1 0x20 DUP2 ADD SWAP1 POP PUSH2 0x12B JUMP JUMPDEST POP POP POP POP SWAP1 POP ADD SWAP3 POP POP POP PUSH1 0x40 MLOAD DUP1 SWAP2 SUB SWAP1 RETURN JUMPDEST CALLVALUE DUP1 ISZERO PUSH2 0x166 JUMPI PUSH1 0x0 DUP1 REVERT JUMPDEST POP PUSH2 0x16F PUSH2 0x50B JUMP JUMPDEST PUSH1 0x40 MLOAD DUP1 DUP1 PUSH1 0x20 ADD DUP3 DUP2 SUB DUP3 MSTORE DUP4 DUP2 DUP2 MLOAD DUP2 MSTORE PUSH1 0x20 ADD SWAP2 POP DUP1 MLOAD SWAP1 PUSH1 0x20 ADD SWAP1 PUSH1 0x20 MUL DUP1 DUP4 DUP4 PUSH1 0x0 JUMPDEST DUP4 DUP2 LT ISZERO PUSH2 0x1B2 JUMPI DUP1 DUP3 ADD MLOAD DUP2 DUP5 ADD MSTORE PUSH1 0x20 DUP2 ADD SWAP1 POP PUSH2 0x197 JUMP JUMPDEST POP POP POP POP SWAP1 POP ADD SWAP3 POP POP POP PUSH1 0x40 MLOAD DUP1 SWAP2 SUB SWAP1 RETURN JUMPDEST CALLVALUE DUP1 ISZERO PUSH2 0x1D2 JUMPI PUSH1 0x0 DUP1 REVERT JUMPDEST POP PUSH2 0x1DB PUSH2 0x660 JUMP JUMPDEST PUSH1 0x40 MLOAD DUP1 DUP1 PUSH1 0x20 ADD DUP3 DUP2 SUB DUP3 MSTORE DUP4 DUP2 DUP2 MLOAD DUP2 MSTORE PUSH1 0x20 ADD SWAP2 POP DUP1 MLOAD SWAP1 PUSH1 0x20 ADD SWAP1 PUSH1 0x20 MUL DUP1 DUP4 DUP4 PUSH1 0x0 JUMPDEST DUP4 DUP2 LT ISZERO PUSH2 0x21E JUMPI DUP1 DUP3 ADD MLOAD DUP2 DUP5 ADD MSTORE PUSH1 0x20 DUP2 ADD SWAP1 POP PUSH2 0x203 JUMP JUMPDEST POP POP POP POP SWAP1 POP ADD SWAP3 POP POP POP PUSH1 0x40 MLOAD DUP1 SWAP2 SUB SWAP1 RETURN JUMPDEST PUSH1 0x0 CALLER DUP6 DUP6 DUP6 DUP6 PUSH1 0x3 PUSH1 0x0 SWAP1 SLOAD SWAP1 PUSH2 0x100 EXP SWAP1 DIV PUSH20 0xFFFFFFFFFFFFFFFFFFFFFFFFFFFFFFFFFFFFFFFF AND PUSH2 0x264 PUSH2 0x72B JUMP JUMPDEST DUP1 DUP8 PUSH20 0xFFFFFFFFFFFFFFFFFFFFFFFFFFFFFFFFFFFFFFFF AND PUSH20 0xFFFFFFFFFFFFFFFFFFFFFFFFFFFFFFFFFFFFFFFF AND DUP2 MSTORE PUSH1 0x20 ADD DUP1 PUSH1 0x20 ADD DUP7 DUP2 MSTORE PUSH1 0x20 ADD DUP6 DUP2 MSTORE PUSH1 0x20 ADD DUP5 DUP2 MSTORE PUSH1 0x20 ADD DUP4 PUSH20 0xFFFFFFFFFFFFFFFFFFFFFFFFFFFFFFFFFFFFFFFF AND PUSH20 0xFFFFFFFFFFFFFFFFFFFFFFFFFFFFFFFFFFFFFFFF AND DUP2 MSTORE PUSH1 0x20 ADD DUP3 DUP2 SUB DUP3 MSTORE DUP8 DUP2 DUP2 MLOAD DUP2 MSTORE PUSH1 0x20 ADD SWAP2 POP DUP1 MLOAD SWAP1 PUSH1 0x20 ADD SWAP1 DUP1 DUP4 DUP4 PUSH1 0x0 JUMPDEST DUP4 DUP2 LT ISZERO PUSH2 0x317 JUMPI DUP1 DUP3 ADD MLOAD DUP2 DUP5 ADD MSTORE PUSH1 0x20 DUP2 ADD SWAP1 POP PUSH2 0x2FC JUMP JUMPDEST POP POP POP POP SWAP1 POP SWAP1 DUP2 ADD SWAP1 PUSH1 0x1F AND DUP1 ISZERO PUSH2 0x344 JUMPI DUP1 DUP3 SUB DUP1 MLOAD PUSH1 0x1 DUP4 PUSH1 0x20 SUB PUSH2 0x100 EXP SUB NOT AND DUP2 MSTORE PUSH1 0x20 ADD SWAP2 POP JUMPDEST POP SWAP8 POP POP POP POP POP POP POP POP PUSH1 0x40 MLOAD DUP1 SWAP2 SUB SWAP1 PUSH1 0x0 CREATE DUP1 ISZERO DUP1 ISZERO PUSH2 0x36A JUMPI RETURNDATASIZE PUSH1 0x0 DUP1 RETURNDATACOPY RETURNDATASIZE PUSH1 0x0 REVERT JUMPDEST POP SWAP1 POP PUSH1 0x1 DUP2 SWAP1 DUP1 PUSH1 0x1 DUP2 SLOAD ADD DUP1 DUP3 SSTORE DUP1 SWAP2 POP POP SWAP1 PUSH1 0x1 DUP3 SUB SWAP1 PUSH1 0x0 MSTORE PUSH1 0x20 PUSH1 0x0 KECCAK256 ADD PUSH1 0x0 SWAP1 SWAP2 SWAP3 SWAP1 SWAP2 SWAP1 SWAP2 PUSH2 0x100 EXP DUP2 SLOAD DUP2 PUSH20 0xFFFFFFFFFFFFFFFFFFFFFFFFFFFFFFFFFFFFFFFF MUL NOT AND SWAP1 DUP4 PUSH20 0xFFFFFFFFFFFFFFFFFFFFFFFFFFFFFFFFFFFFFFFF AND MUL OR SWAP1 SSTORE POP POP PUSH1 0x2 PUSH1 0x0 CALLER PUSH20 0xFFFFFFFFFFFFFFFFFFFFFFFFFFFFFFFFFFFFFFFF AND PUSH20 0xFFFFFFFFFFFFFFFFFFFFFFFFFFFFFFFFFFFFFFFF AND DUP2 MSTORE PUSH1 0x20 ADD SWAP1 DUP2 MSTORE PUSH1 0x20 ADD PUSH1 0x0 KECCAK256 DUP2 SWAP1 DUP1 PUSH1 0x1 DUP2 SLOAD ADD DUP1 DUP3 SSTORE DUP1 SWAP2 POP POP SWAP1 PUSH1 0x1 DUP3 SUB SWAP1 PUSH1 0x0 MSTORE PUSH1 0x20 PUSH1 0x0 KECCAK256 ADD PUSH1 0x0 SWAP1 SWAP2 SWAP3 SWAP1 SWAP2 SWAP1 SWAP2 PUSH2 0x100 EXP DUP2 SLOAD DUP2 PUSH20 0xFFFFFFFFFFFFFFFFFFFFFFFFFFFFFFFFFFFFFFFF MUL NOT AND SWAP1 DUP4 PUSH20 0xFFFFFFFFFFFFFFFFFFFFFFFFFFFFFFFFFFFFFFFF AND MUL OR SWAP1 SSTORE POP POP POP POP POP POP POP JUMP JUMPDEST PUSH1 0x60 PUSH1 0x1 DUP1 SLOAD DUP1 PUSH1 0x20 MUL PUSH1 0x20 ADD PUSH1 0x40 MLOAD SWAP1 DUP2 ADD PUSH1 0x40 MSTORE DUP1 SWAP3 SWAP2 SWAP1 DUP2 DUP2 MSTORE PUSH1 0x20 ADD DUP3 DUP1 SLOAD DUP1 ISZERO PUSH2 0x501 JUMPI PUSH1 0x20 MUL DUP3 ADD SWAP2 SWAP1 PUSH1 0x0 MSTORE PUSH1 0x20 PUSH1 0x0 KECCAK256 SWAP1 JUMPDEST DUP2 PUSH1 0x0 SWAP1 SLOAD SWAP1 PUSH2 0x100 EXP SWAP1 DIV PUSH20 0xFFFFFFFFFFFFFFFFFFFFFFFFFFFFFFFFFFFFFFFF AND PUSH20 0xFFFFFFFFFFFFFFFFFFFFFFFFFFFFFFFFFFFFFFFF AND DUP2 MSTORE PUSH1 0x20 ADD SWAP1 PUSH1 0x1 ADD SWAP1 DUP1 DUP4 GT PUSH2 0x4B7 JUMPI JUMPDEST POP POP POP POP POP SWAP1 POP SWAP1 JUMP JUMPDEST PUSH1 0x60 PUSH1 0x3 PUSH1 0x0 SWAP1 SLOAD SWAP1 PUSH2 0x100 EXP SWAP1 DIV PUSH20 0xFFFFFFFFFFFFFFFFFFFFFFFFFFFFFFFFFFFFFFFF AND PUSH20 0xFFFFFFFFFFFFFFFFFFFFFFFFFFFFFFFFFFFFFFFF AND PUSH4 0x4CA765A7 CALLER PUSH1 0x40 MLOAD DUP3 PUSH4 0xFFFFFFFF AND PUSH29 0x100000000000000000000000000000000000000000000000000000000 MUL DUP2 MSTORE PUSH1 0x4 ADD DUP1 DUP3 PUSH20 0xFFFFFFFFFFFFFFFFFFFFFFFFFFFFFFFFFFFFFFFF AND PUSH20 0xFFFFFFFFFFFFFFFFFFFFFFFFFFFFFFFFFFFFFFFF AND DUP2 MSTORE PUSH1 0x20 ADD SWAP2 POP POP PUSH1 0x0 PUSH1 0x40 MLOAD DUP1 DUP4 SUB DUP2 PUSH1 0x0 DUP8 DUP1 EXTCODESIZE ISZERO DUP1 ISZERO PUSH2 0x5CA JUMPI PUSH1 0x0 DUP1 REVERT JUMPDEST POP GAS CALL ISZERO DUP1 ISZERO PUSH2 0x5DE JUMPI RETURNDATASIZE PUSH1 0x0 DUP1 RETURNDATACOPY RETURNDATASIZE PUSH1 0x0 REVERT JUMPDEST POP POP POP POP PUSH1 0x40 MLOAD RETURNDATASIZE PUSH1 0x0 DUP3 RETURNDATACOPY RETURNDATASIZE PUSH1 0x1F NOT PUSH1 0x1F DUP3 ADD AND DUP3 ADD DUP1 PUSH1 0x40 MSTORE POP PUSH1 0x20 DUP2 LT ISZERO PUSH2 0x608 JUMPI PUSH1 0x0 DUP1 REVERT JUMPDEST DUP2 ADD SWAP1 DUP1 DUP1 MLOAD PUSH5 0x100000000 DUP2 GT ISZERO PUSH2 0x620 JUMPI PUSH1 0x0 DUP1 REVERT JUMPDEST DUP3 DUP2 ADD SWAP1 POP PUSH1 0x20 DUP2 ADD DUP5 DUP2 GT ISZERO PUSH2 0x636 JUMPI PUSH1 0x0 DUP1 REVERT JUMPDEST DUP2 MLOAD DUP6 PUSH1 0x20 DUP3 MUL DUP4 ADD GT PUSH5 0x100000000 DUP3 GT OR ISZERO PUSH2 0x653 JUMPI PUSH1 0x0 DUP1 REVERT JUMPDEST POP POP SWAP3 SWAP2 SWAP1 POP POP POP SWAP1 POP SWAP1 JUMP JUMPDEST PUSH1 0x60 PUSH1 0x2 PUSH1 0x0 CALLER PUSH20 0xFFFFFFFFFFFFFFFFFFFFFFFFFFFFFFFFFFFFFFFF AND PUSH20 0xFFFFFFFFFFFFFFFFFFFFFFFFFFFFFFFFFFFFFFFF AND DUP2 MSTORE PUSH1 0x20 ADD SWAP1 DUP2 MSTORE PUSH1 0x20 ADD PUSH1 0x0 KECCAK256 DUP1 SLOAD DUP1 PUSH1 0x20 MUL PUSH1 0x20 ADD PUSH1 0x40 MLOAD SWAP1 DUP2 ADD PUSH1 0x40 MSTORE DUP1 SWAP3 SWAP2 SWAP1 DUP2 DUP2 MSTORE PUSH1 0x20 ADD DUP3 DUP1 SLOAD DUP1 ISZERO PUSH2 0x721 JUMPI PUSH1 0x20 MUL DUP3 ADD SWAP2 SWAP1 PUSH1 0x0 MSTORE PUSH1 0x20 PUSH1 0x0 KECCAK256 SWAP1 JUMPDEST DUP2 PUSH1 0x0 SWAP1 SLOAD SWAP1 PUSH2 0x100 EXP SWAP1 DIV PUSH20 0xFFFFFFFFFFFFFFFFFFFFFFFFFFFFFFFFFFFFFFFF AND PUSH20 0xFFFFFFFFFFFFFFFFFFFFFFFFFFFFFFFFFFFFFFFF AND DUP2 MSTORE PUSH1 0x20 ADD SWAP1 PUSH1 0x1 ADD SWAP1 DUP1 DUP4 GT PUSH2 0x6D7 JUMPI JUMPDEST POP POP POP POP POP SWAP1 POP SWAP1 JUMP JUMPDEST PUSH1 0x40 MLOAD PUSH2 0x17C4 DUP1 PUSH2 0x73C DUP4 CODECOPY ADD SWAP1 JUMP STOP PUSH1 0x80 PUSH1 0x40 MSTORE CALLVALUE DUP1 ISZERO PUSH3 0x11 JUMPI PUSH1 0x0 DUP1 REVERT JUMPDEST POP PUSH1 0x40 MLOAD PUSH3 0x17C4 CODESIZE SUB DUP1 PUSH3 0x17C4 DUP4 CODECOPY DUP2 ADD DUP1 PUSH1 0x40 MSTORE DUP2 ADD SWAP1 DUP1 DUP1 MLOAD SWAP1 PUSH1 0x20 ADD SWAP1 SWAP3 SWAP2 SWAP1 DUP1 MLOAD DUP3 ADD SWAP3 SWAP2 SWAP1 PUSH1 0x20 ADD DUP1 MLOAD SWAP1 PUSH1 0x20 ADD SWAP1 SWAP3 SWAP2 SWAP1 DUP1 MLOAD SWAP1 PUSH1 0x20 ADD SWAP1 SWAP3 SWAP2 SWAP1 DUP1 MLOAD SWAP1 PUSH1 0x20 ADD SWAP1 SWAP3 SWAP2 SWAP1 DUP1 MLOAD SWAP1 PUSH1 0x20 ADD SWAP1 SWAP3 SWAP2 SWAP1 POP POP POP DUP6 PUSH1 0x0 DUP1 PUSH2 0x100 EXP DUP2 SLOAD DUP2 PUSH20 0xFFFFFFFFFFFFFFFFFFFFFFFFFFFFFFFFFFFFFFFF MUL NOT AND SWAP1 DUP4 PUSH20 0xFFFFFFFFFFFFFFFFFFFFFFFFFFFFFFFFFFFFFFFF AND MUL OR SWAP1 SSTORE POP DUP5 PUSH1 0x1 SWAP1 DUP1 MLOAD SWAP1 PUSH1 0x20 ADD SWAP1 PUSH3 0xC3 SWAP3 SWAP2 SWAP1 PUSH3 0x128 JUMP JUMPDEST POP DUP4 PUSH1 0x2 DUP2 SWAP1 SSTORE POP DUP3 PUSH1 0x3 DUP2 SWAP1 SSTORE POP DUP2 TIMESTAMP ADD PUSH1 0x4 DUP2 SWAP1 SSTORE POP DUP1 PUSH1 0x8 PUSH1 0x0 PUSH2 0x100 EXP DUP2 SLOAD DUP2 PUSH20 0xFFFFFFFFFFFFFFFFFFFFFFFFFFFFFFFFFFFFFFFF MUL NOT AND SWAP1 DUP4 PUSH20 0xFFFFFFFFFFFFFFFFFFFFFFFFFFFFFFFFFFFFFFFF AND MUL OR SWAP1 SSTORE POP POP POP POP POP POP POP PUSH3 0x1D7 JUMP JUMPDEST DUP3 DUP1 SLOAD PUSH1 0x1 DUP2 PUSH1 0x1 AND ISZERO PUSH2 0x100 MUL SUB AND PUSH1 0x2 SWAP1 DIV SWAP1 PUSH1 0x0 MSTORE PUSH1 0x20 PUSH1 0x0 KECCAK256 SWAP1 PUSH1 0x1F ADD PUSH1 0x20 SWAP1 DIV DUP2 ADD SWAP3 DUP3 PUSH1 0x1F LT PUSH3 0x16B JUMPI DUP1 MLOAD PUSH1 0xFF NOT AND DUP4 DUP1 ADD OR DUP6 SSTORE PUSH3 0x19C JUMP JUMPDEST DUP3 DUP1 ADD PUSH1 0x1 ADD DUP6 SSTORE DUP3 ISZERO PUSH3 0x19C JUMPI SWAP2 DUP3 ADD JUMPDEST DUP3 DUP2 GT ISZERO PUSH3 0x19B JUMPI DUP3 MLOAD DUP3 SSTORE SWAP2 PUSH1 0x20 ADD SWAP2 SWAP1 PUSH1 0x1 ADD SWAP1 PUSH3 0x17E JUMP JUMPDEST JUMPDEST POP SWAP1 POP PUSH3 0x1AB SWAP2 SWAP1 PUSH3 0x1AF JUMP JUMPDEST POP SWAP1 JUMP JUMPDEST PUSH3 0x1D4 SWAP2 SWAP1 JUMPDEST DUP1 DUP3 GT ISZERO PUSH3 0x1D0 JUMPI PUSH1 0x0 DUP2 PUSH1 0x0 SWAP1 SSTORE POP PUSH1 0x1 ADD PUSH3 0x1B6 JUMP JUMPDEST POP SWAP1 JUMP JUMPDEST SWAP1 JUMP JUMPDEST PUSH2 0x15DD DUP1 PUSH3 0x1E7 PUSH1 0x0 CODECOPY PUSH1 0x0 RETURN STOP PUSH1 0x80 PUSH1 0x40 MSTORE PUSH1 0x4 CALLDATASIZE LT PUSH2 0xF1 JUMPI PUSH1 0x0 CALLDATALOAD PUSH29 0x100000000000000000000000000000000000000000000000000000000 SWAP1 DIV PUSH4 0xFFFFFFFF AND DUP1 PUSH4 0x3441006 EQ PUSH2 0xF6 JUMPI DUP1 PUSH4 0x119F8747 EQ PUSH2 0x123 JUMPI DUP1 PUSH4 0x12065FE0 EQ PUSH2 0x12D JUMPI DUP1 PUSH4 0x3197CBB6 EQ PUSH2 0x158 JUMPI DUP1 PUSH4 0x3410452A EQ PUSH2 0x183 JUMPI DUP1 PUSH4 0x3C24B7D7 EQ PUSH2 0x1AE JUMPI DUP1 PUSH4 0x43020B1A EQ PUSH2 0x21B JUMPI DUP1 PUSH4 0x481C6A75 EQ PUSH2 0x287 JUMPI DUP1 PUSH4 0x590E1AE3 EQ PUSH2 0x2DE JUMPI DUP1 PUSH4 0x63B393D8 EQ PUSH2 0x2F5 JUMPI DUP1 PUSH4 0x69EFB694 EQ PUSH2 0x320 JUMPI DUP1 PUSH4 0x8A9CFD55 EQ PUSH2 0x419 JUMPI DUP1 PUSH4 0x8D7CDB91 EQ PUSH2 0x4AC JUMPI DUP1 PUSH4 0x9A33E300 EQ PUSH2 0x4D7 JUMPI DUP1 PUSH4 0xA5D5C5DC EQ PUSH2 0x567 JUMPI DUP1 PUSH4 0xD7D1BBDB EQ PUSH2 0x592 JUMPI DUP1 PUSH4 0xFC2615D5 EQ PUSH2 0x5BF JUMPI JUMPDEST PUSH1 0x0 DUP1 REVERT JUMPDEST CALLVALUE DUP1 ISZERO PUSH2 0x102 JUMPI PUSH1 0x0 DUP1 REVERT JUMPDEST POP PUSH2 0x121 PUSH1 0x4 DUP1 CALLDATASIZE SUB DUP2 ADD SWAP1 DUP1 DUP1 CALLDATALOAD SWAP1 PUSH1 0x20 ADD SWAP1 SWAP3 SWAP2 SWAP1 POP POP POP PUSH2 0x5EA JUMP JUMPDEST STOP JUMPDEST PUSH2 0x12B PUSH2 0x887 JUMP JUMPDEST STOP JUMPDEST CALLVALUE DUP1 ISZERO PUSH2 0x139 JUMPI PUSH1 0x0 DUP1 REVERT JUMPDEST POP PUSH2 0x142 PUSH2 0xAC9 JUMP JUMPDEST PUSH1 0x40 MLOAD DUP1 DUP3 DUP2 MSTORE PUSH1 0x20 ADD SWAP2 POP POP PUSH1 0x40 MLOAD DUP1 SWAP2 SUB SWAP1 RETURN JUMPDEST CALLVALUE DUP1 ISZERO PUSH2 0x164 JUMPI PUSH1 0x0 DUP1 REVERT JUMPDEST POP PUSH2 0x16D PUSH2 0xAE8 JUMP JUMPDEST PUSH1 0x40 MLOAD DUP1 DUP3 DUP2 MSTORE PUSH1 0x20 ADD SWAP2 POP POP PUSH1 0x40 MLOAD DUP1 SWAP2 SUB SWAP1 RETURN JUMPDEST CALLVALUE DUP1 ISZERO PUSH2 0x18F JUMPI PUSH1 0x0 DUP1 REVERT JUMPDEST POP PUSH2 0x198 PUSH2 0xAEE JUMP JUMPDEST PUSH1 0x40 MLOAD DUP1 DUP3 DUP2 MSTORE PUSH1 0x20 ADD SWAP2 POP POP PUSH1 0x40 MLOAD DUP1 SWAP2 SUB SWAP1 RETURN JUMPDEST CALLVALUE DUP1 ISZERO PUSH2 0x1BA JUMPI PUSH1 0x0 DUP1 REVERT JUMPDEST POP PUSH2 0x1D9 PUSH1 0x4 DUP1 CALLDATASIZE SUB DUP2 ADD SWAP1 DUP1 DUP1 CALLDATALOAD SWAP1 PUSH1 0x20 ADD SWAP1 SWAP3 SWAP2 SWAP1 POP POP POP PUSH2 0xAFB JUMP JUMPDEST PUSH1 0x40 MLOAD DUP1 DUP3 PUSH20 0xFFFFFFFFFFFFFFFFFFFFFFFFFFFFFFFFFFFFFFFF AND PUSH20 0xFFFFFFFFFFFFFFFFFFFFFFFFFFFFFFFFFFFFFFFF AND DUP2 MSTORE PUSH1 0x20 ADD SWAP2 POP POP PUSH1 0x40 MLOAD DUP1 SWAP2 SUB SWAP1 RETURN JUMPDEST CALLVALUE DUP1 ISZERO PUSH2 0x227 JUMPI PUSH1 0x0 DUP1 REVERT JUMPDEST POP PUSH2 0x230 PUSH2 0xB39 JUMP JUMPDEST PUSH1 0x40 MLOAD DUP1 DUP1 PUSH1 0x20 ADD DUP3 DUP2 SUB DUP3 MSTORE DUP4 DUP2 DUP2 MLOAD DUP2 MSTORE PUSH1 0x20 ADD SWAP2 POP DUP1 MLOAD SWAP1 PUSH1 0x20 ADD SWAP1 PUSH1 0x20 MUL DUP1 DUP4 DUP4 PUSH1 0x0 JUMPDEST DUP4 DUP2 LT ISZERO PUSH2 0x273 JUMPI DUP1 DUP3 ADD MLOAD DUP2 DUP5 ADD MSTORE PUSH1 0x20 DUP2 ADD SWAP1 POP PUSH2 0x258 JUMP JUMPDEST POP POP POP POP SWAP1 POP ADD SWAP3 POP POP POP PUSH1 0x40 MLOAD DUP1 SWAP2 SUB SWAP1 RETURN JUMPDEST CALLVALUE DUP1 ISZERO PUSH2 0x293 JUMPI PUSH1 0x0 DUP1 REVERT JUMPDEST POP PUSH2 0x29C PUSH2 0xBC7 JUMP JUMPDEST PUSH1 0x40 MLOAD DUP1 DUP3 PUSH20 0xFFFFFFFFFFFFFFFFFFFFFFFFFFFFFFFFFFFFFFFF AND PUSH20 0xFFFFFFFFFFFFFFFFFFFFFFFFFFFFFFFFFFFFFFFF AND DUP2 MSTORE PUSH1 0x20 ADD SWAP2 POP POP PUSH1 0x40 MLOAD DUP1 SWAP2 SUB SWAP1 RETURN JUMPDEST CALLVALUE DUP1 ISZERO PUSH2 0x2EA JUMPI PUSH1 0x0 DUP1 REVERT JUMPDEST POP PUSH2 0x2F3 PUSH2 0xBEC JUMP JUMPDEST STOP JUMPDEST CALLVALUE DUP1 ISZERO PUSH2 0x301 JUMPI PUSH1 0x0 DUP1 REVERT JUMPDEST POP PUSH2 0x30A PUSH2 0xD64 JUMP JUMPDEST PUSH1 0x40 MLOAD DUP1 DUP3 DUP2 MSTORE PUSH1 0x20 ADD SWAP2 POP POP PUSH1 0x40 MLOAD DUP1 SWAP2 SUB SWAP1 RETURN JUMPDEST CALLVALUE DUP1 ISZERO PUSH2 0x32C JUMPI PUSH1 0x0 DUP1 REVERT JUMPDEST POP PUSH2 0x34B PUSH1 0x4 DUP1 CALLDATASIZE SUB DUP2 ADD SWAP1 DUP1 DUP1 CALLDATALOAD SWAP1 PUSH1 0x20 ADD SWAP1 SWAP3 SWAP2 SWAP1 POP POP POP PUSH2 0xD71 JUMP JUMPDEST PUSH1 0x40 MLOAD DUP1 DUP1 PUSH1 0x20 ADD DUP8 DUP2 MSTORE PUSH1 0x20 ADD DUP7 PUSH20 0xFFFFFFFFFFFFFFFFFFFFFFFFFFFFFFFFFFFFFFFF AND PUSH20 0xFFFFFFFFFFFFFFFFFFFFFFFFFFFFFFFFFFFFFFFF AND DUP2 MSTORE PUSH1 0x20 ADD DUP6 DUP2 MSTORE PUSH1 0x20 ADD DUP5 ISZERO ISZERO ISZERO ISZERO DUP2 MSTORE PUSH1 0x20 ADD DUP4 DUP2 MSTORE PUSH1 0x20 ADD DUP3 DUP2 SUB DUP3 MSTORE DUP9 DUP2 DUP2 MLOAD DUP2 MSTORE PUSH1 0x20 ADD SWAP2 POP DUP1 MLOAD SWAP1 PUSH1 0x20 ADD SWAP1 DUP1 DUP4 DUP4 PUSH1 0x0 JUMPDEST DUP4 DUP2 LT ISZERO PUSH2 0x3D9 JUMPI DUP1 DUP3 ADD MLOAD DUP2 DUP5 ADD MSTORE PUSH1 0x20 DUP2 ADD SWAP1 POP PUSH2 0x3BE JUMP JUMPDEST POP POP POP POP SWAP1 POP SWAP1 DUP2 ADD SWAP1 PUSH1 0x1F AND DUP1 ISZERO PUSH2 0x406 JUMPI DUP1 DUP3 SUB DUP1 MLOAD PUSH1 0x1 DUP4 PUSH1 0x20 SUB PUSH2 0x100 EXP SUB NOT AND DUP2 MSTORE PUSH1 0x20 ADD SWAP2 POP JUMPDEST POP SWAP8 POP POP POP POP POP POP POP POP PUSH1 0x40 MLOAD DUP1 SWAP2 SUB SWAP1 RETURN JUMPDEST CALLVALUE DUP1 ISZERO PUSH2 0x425 JUMPI PUSH1 0x0 DUP1 REVERT JUMPDEST POP PUSH2 0x4AA PUSH1 0x4 DUP1 CALLDATASIZE SUB DUP2 ADD SWAP1 DUP1 DUP1 CALLDATALOAD SWAP1 PUSH1 0x20 ADD SWAP1 DUP3 ADD DUP1 CALLDATALOAD SWAP1 PUSH1 0x20 ADD SWAP1 DUP1 DUP1 PUSH1 0x1F ADD PUSH1 0x20 DUP1 SWAP2 DIV MUL PUSH1 0x20 ADD PUSH1 0x40 MLOAD SWAP1 DUP2 ADD PUSH1 0x40 MSTORE DUP1 SWAP4 SWAP3 SWAP2 SWAP1 DUP2 DUP2 MSTORE PUSH1 0x20 ADD DUP4 DUP4 DUP1 DUP3 DUP5 CALLDATACOPY DUP3 ADD SWAP2 POP POP POP POP POP POP SWAP2 SWAP3 SWAP2 SWAP3 SWAP1 DUP1 CALLDATALOAD SWAP1 PUSH1 0x20 ADD SWAP1 SWAP3 SWAP2 SWAP1 DUP1 CALLDATALOAD PUSH20 0xFFFFFFFFFFFFFFFFFFFFFFFFFFFFFFFFFFFFFFFF AND SWAP1 PUSH1 0x20 ADD SWAP1 SWAP3 SWAP2 SWAP1 POP POP POP PUSH2 0xF6E JUMP JUMPDEST STOP JUMPDEST CALLVALUE DUP1 ISZERO PUSH2 0x4B8 JUMPI PUSH1 0x0 DUP1 REVERT JUMPDEST POP PUSH2 0x4C1 PUSH2 0x115F JUMP JUMPDEST PUSH1 0x40 MLOAD DUP1 DUP3 DUP2 MSTORE PUSH1 0x20 ADD SWAP2 POP POP PUSH1 0x40 MLOAD DUP1 SWAP2 SUB SWAP1 RETURN JUMPDEST CALLVALUE DUP1 ISZERO PUSH2 0x4E3 JUMPI PUSH1 0x0 DUP1 REVERT JUMPDEST POP PUSH2 0x4EC PUSH2 0x1165 JUMP JUMPDEST PUSH1 0x40 MLOAD DUP1 DUP1 PUSH1 0x20 ADD DUP3 DUP2 SUB DUP3 MSTORE DUP4 DUP2 DUP2 MLOAD DUP2 MSTORE PUSH1 0x20 ADD SWAP2 POP DUP1 MLOAD SWAP1 PUSH1 0x20 ADD SWAP1 DUP1 DUP4 DUP4 PUSH1 0x0 JUMPDEST DUP4 DUP2 LT ISZERO PUSH2 0x52C JUMPI DUP1 DUP3 ADD MLOAD DUP2 DUP5 ADD MSTORE PUSH1 0x20 DUP2 ADD SWAP1 POP PUSH2 0x511 JUMP JUMPDEST POP POP POP POP SWAP1 POP SWAP1 DUP2 ADD SWAP1 PUSH1 0x1F AND DUP1 ISZERO PUSH2 0x559 JUMPI DUP1 DUP3 SUB DUP1 MLOAD PUSH1 0x1 DUP4 PUSH1 0x20 SUB PUSH2 0x100 EXP SUB NOT AND DUP2 MSTORE PUSH1 0x20 ADD SWAP2 POP JUMPDEST POP SWAP3 POP POP POP PUSH1 0x40 MLOAD DUP1 SWAP2 SUB SWAP1 RETURN JUMPDEST CALLVALUE DUP1 ISZERO PUSH2 0x573 JUMPI PUSH1 0x0 DUP1 REVERT JUMPDEST POP PUSH2 0x57C PUSH2 0x1203 JUMP JUMPDEST PUSH1 0x40 MLOAD DUP1 DUP3 DUP2 MSTORE PUSH1 0x20 ADD SWAP2 POP POP PUSH1 0x40 MLOAD DUP1 SWAP2 SUB SWAP1 RETURN JUMPDEST CALLVALUE DUP1 ISZERO PUSH2 0x59E JUMPI PUSH1 0x0 DUP1 REVERT JUMPDEST POP PUSH2 0x5BD PUSH1 0x4 DUP1 CALLDATASIZE SUB DUP2 ADD SWAP1 DUP1 DUP1 CALLDATALOAD SWAP1 PUSH1 0x20 ADD SWAP1 SWAP3 SWAP2 SWAP1 POP POP POP PUSH2 0x1209 JUMP JUMPDEST STOP JUMPDEST CALLVALUE DUP1 ISZERO PUSH2 0x5CB JUMPI PUSH1 0x0 DUP1 REVERT JUMPDEST POP PUSH2 0x5D4 PUSH2 0x146B JUMP JUMPDEST PUSH1 0x40 MLOAD DUP1 DUP3 DUP2 MSTORE PUSH1 0x20 ADD SWAP2 POP POP PUSH1 0x40 MLOAD DUP1 SWAP2 SUB SWAP1 RETURN JUMPDEST PUSH1 0x0 DUP1 PUSH1 0x0 SWAP1 SLOAD SWAP1 PUSH2 0x100 EXP SWAP1 DIV PUSH20 0xFFFFFFFFFFFFFFFFFFFFFFFFFFFFFFFFFFFFFFFF AND PUSH20 0xFFFFFFFFFFFFFFFFFFFFFFFFFFFFFFFFFFFFFFFF AND CALLER PUSH20 0xFFFFFFFFFFFFFFFFFFFFFFFFFFFFFFFFFFFFFFFF AND EQ ISZERO ISZERO PUSH2 0x6B0 JUMPI PUSH1 0x40 MLOAD PUSH32 0x8C379A000000000000000000000000000000000000000000000000000000000 DUP2 MSTORE PUSH1 0x4 ADD DUP1 DUP1 PUSH1 0x20 ADD DUP3 DUP2 SUB DUP3 MSTORE PUSH1 0x12 DUP2 MSTORE PUSH1 0x20 ADD DUP1 PUSH32 0xE99D9EE9A1B9E79BAEE7AEA1E79086E4BABA0000000000000000000000000000 DUP2 MSTORE POP PUSH1 0x20 ADD SWAP2 POP POP PUSH1 0x40 MLOAD DUP1 SWAP2 SUB SWAP1 REVERT JUMPDEST PUSH1 0x7 DUP3 DUP2 SLOAD DUP2 LT ISZERO ISZERO PUSH2 0x6BF JUMPI INVALID JUMPDEST SWAP1 PUSH1 0x0 MSTORE PUSH1 0x20 PUSH1 0x0 KECCAK256 SWAP1 PUSH1 0x6 MUL ADD SWAP1 POP DUP1 PUSH1 0x1 ADD SLOAD ADDRESS PUSH20 0xFFFFFFFFFFFFFFFFFFFFFFFFFFFFFFFFFFFFFFFF AND BALANCE LT ISZERO ISZERO ISZERO PUSH2 0x762 JUMPI PUSH1 0x40 MLOAD PUSH32 0x8C379A000000000000000000000000000000000000000000000000000000000 DUP2 MSTORE PUSH1 0x4 ADD DUP1 DUP1 PUSH1 0x20 ADD DUP3 DUP2 SUB DUP3 MSTORE PUSH1 0x15 DUP2 MSTORE PUSH1 0x20 ADD DUP1 PUSH32 0xE59088E7BAA6E4B8ADE98791E9A29DE4B88DE8B6B30000000000000000000000 DUP2 MSTORE POP PUSH1 0x20 ADD SWAP2 POP POP PUSH1 0x40 MLOAD DUP1 SWAP2 SUB SWAP1 REVERT JUMPDEST PUSH1 0x2 PUSH1 0x5 DUP1 SLOAD SWAP1 POP DUP2 ISZERO ISZERO PUSH2 0x773 JUMPI INVALID JUMPDEST DIV DUP2 PUSH1 0x3 ADD SLOAD GT ISZERO ISZERO PUSH2 0x7EE JUMPI PUSH1 0x40 MLOAD PUSH32 0x8C379A000000000000000000000000000000000000000000000000000000000 DUP2 MSTORE PUSH1 0x4 ADD DUP1 DUP1 PUSH1 0x20 ADD DUP3 DUP2 SUB DUP3 MSTORE PUSH1 0x15 DUP2 MSTORE PUSH1 0x20 ADD DUP1 PUSH32 0xE8B59EE68890E4BABAE695B0E69CAAE8BF87E58D8A0000000000000000000000 DUP2 MSTORE POP PUSH1 0x20 ADD SWAP2 POP POP PUSH1 0x40 MLOAD DUP1 SWAP2 SUB SWAP1 REVERT JUMPDEST DUP1 PUSH1 0x2 ADD PUSH1 0x0 SWAP1 SLOAD SWAP1 PUSH2 0x100 EXP SWAP1 DIV PUSH20 0xFFFFFFFFFFFFFFFFFFFFFFFFFFFFFFFFFFFFFFFF AND PUSH20 0xFFFFFFFFFFFFFFFFFFFFFFFFFFFFFFFFFFFFFFFF AND PUSH2 0x8FC DUP3 PUSH1 0x1 ADD SLOAD SWAP1 DUP2 ISZERO MUL SWAP1 PUSH1 0x40 MLOAD PUSH1 0x0 PUSH1 0x40 MLOAD DUP1 DUP4 SUB DUP2 DUP6 DUP9 DUP9 CALL SWAP4 POP POP POP POP ISZERO DUP1 ISZERO PUSH2 0x85C JUMPI RETURNDATASIZE PUSH1 0x0 DUP1 RETURNDATACOPY RETURNDATASIZE PUSH1 0x0 REVERT JUMPDEST POP PUSH1 0x2 DUP2 PUSH1 0x5 ADD PUSH1 0x0 PUSH2 0x100 EXP DUP2 SLOAD DUP2 PUSH1 0xFF MUL NOT AND SWAP1 DUP4 PUSH1 0x3 DUP2 GT ISZERO PUSH2 0x87E JUMPI INVALID JUMPDEST MUL OR SWAP1 SSTORE POP POP POP JUMP JUMPDEST PUSH1 0x3 SLOAD CALLVALUE EQ ISZERO ISZERO PUSH2 0x900 JUMPI PUSH1 0x40 MLOAD PUSH32 0x8C379A000000000000000000000000000000000000000000000000000000000 DUP2 MSTORE PUSH1 0x4 ADD DUP1 DUP1 PUSH1 0x20 ADD DUP3 DUP2 SUB DUP3 MSTORE PUSH1 0x12 DUP2 MSTORE PUSH1 0x20 ADD DUP1 PUSH32 0xE68A95E8B584E98791E9A29DE99499E8AFAF0000000000000000000000000000 DUP2 MSTORE POP PUSH1 0x20 ADD SWAP2 POP POP PUSH1 0x40 MLOAD DUP1 SWAP2 SUB SWAP1 REVERT JUMPDEST PUSH1 0x5 CALLER SWAP1 DUP1 PUSH1 0x1 DUP2 SLOAD ADD DUP1 DUP3 SSTORE DUP1 SWAP2 POP POP SWAP1 PUSH1 0x1 DUP3 SUB SWAP1 PUSH1 0x0 MSTORE PUSH1 0x20 PUSH1 0x0 KECCAK256 ADD PUSH1 0x0 SWAP1 SWAP2 SWAP3 SWAP1 SWAP2 SWAP1 SWAP2 PUSH2 0x100 EXP DUP2 SLOAD DUP2 PUSH20 0xFFFFFFFFFFFFFFFFFFFFFFFFFFFFFFFFFFFFFFFF MUL NOT AND SWAP1 DUP4 PUSH20 0xFFFFFFFFFFFFFFFFFFFFFFFFFFFFFFFFFFFFFFFF AND MUL OR SWAP1 SSTORE POP POP PUSH1 0x1 PUSH1 0x6 PUSH1 0x0 CALLER PUSH20 0xFFFFFFFFFFFFFFFFFFFFFFFFFFFFFFFFFFFFFFFF AND PUSH20 0xFFFFFFFFFFFFFFFFFFFFFFFFFFFFFFFFFFFFFFFF AND DUP2 MSTORE PUSH1 0x20 ADD SWAP1 DUP2 MSTORE PUSH1 0x20 ADD PUSH1 0x0 KECCAK256 PUSH1 0x0 PUSH2 0x100 EXP DUP2 SLOAD DUP2 PUSH1 0xFF MUL NOT AND SWAP1 DUP4 ISZERO ISZERO MUL OR SWAP1 SSTORE POP PUSH1 0x8 PUSH1 0x0 SWAP1 SLOAD SWAP1 PUSH2 0x100 EXP SWAP1 DIV PUSH20 0xFFFFFFFFFFFFFFFFFFFFFFFFFFFFFFFFFFFFFFFF AND PUSH20 0xFFFFFFFFFFFFFFFFFFFFFFFFFFFFFFFFFFFFFFFF AND PUSH4 0x84B9EE43 CALLER ADDRESS PUSH1 0x40 MLOAD DUP4 PUSH4 0xFFFFFFFF AND PUSH29 0x100000000000000000000000000000000000000000000000000000000 MUL DUP2 MSTORE PUSH1 0x4 ADD DUP1 DUP4 PUSH20 0xFFFFFFFFFFFFFFFFFFFFFFFFFFFFFFFFFFFFFFFF AND PUSH20 0xFFFFFFFFFFFFFFFFFFFFFFFFFFFFFFFFFFFFFFFF AND DUP2 MSTORE PUSH1 0x20 ADD DUP3 PUSH20 0xFFFFFFFFFFFFFFFFFFFFFFFFFFFFFFFFFFFFFFFF AND PUSH20 0xFFFFFFFFFFFFFFFFFFFFFFFFFFFFFFFFFFFFFFFF AND DUP2 MSTORE PUSH1 0x20 ADD SWAP3 POP POP POP PUSH1 0x0 PUSH1 0x40 MLOAD DUP1 DUP4 SUB DUP2 PUSH1 0x0 DUP8 DUP1 EXTCODESIZE ISZERO DUP1 ISZERO PUSH2 0xAAF JUMPI PUSH1 0x0 DUP1 REVERT JUMPDEST POP GAS CALL ISZERO DUP1 ISZERO PUSH2 0xAC3 JUMPI RETURNDATASIZE PUSH1 0x0 DUP1 RETURNDATACOPY RETURNDATASIZE PUSH1 0x0 REVERT JUMPDEST POP POP POP POP JUMP JUMPDEST PUSH1 0x0 ADDRESS PUSH20 0xFFFFFFFFFFFFFFFFFFFFFFFFFFFFFFFFFFFFFFFF AND BALANCE SWAP1 POP SWAP1 JUMP JUMPDEST PUSH1 0x4 SLOAD DUP2 JUMP JUMPDEST PUSH1 0x0 PUSH1 0x7 DUP1 SLOAD SWAP1 POP SWAP1 POP SWAP1 JUMP JUMPDEST PUSH1 0x5 DUP2 DUP2 SLOAD DUP2 LT ISZERO ISZERO PUSH2 0xB0A JUMPI INVALID JUMPDEST SWAP1 PUSH1 0x0 MSTORE PUSH1 0x20 PUSH1 0x0 KECCAK256 ADD PUSH1 0x0 SWAP2 POP SLOAD SWAP1 PUSH2 0x100 EXP SWAP1 DIV PUSH20 0xFFFFFFFFFFFFFFFFFFFFFFFFFFFFFFFFFFFFFFFF AND DUP2 JUMP JUMPDEST PUSH1 0x60 PUSH1 0x5 DUP1 SLOAD DUP1 PUSH1 0x20 MUL PUSH1 0x20 ADD PUSH1 0x40 MLOAD SWAP1 DUP2 ADD PUSH1 0x40 MSTORE DUP1 SWAP3 SWAP2 SWAP1 DUP2 DUP2 MSTORE PUSH1 0x20 ADD DUP3 DUP1 SLOAD DUP1 ISZERO PUSH2 0xBBD JUMPI PUSH1 0x20 MUL DUP3 ADD SWAP2 SWAP1 PUSH1 0x0 MSTORE PUSH1 0x20 PUSH1 0x0 KECCAK256 SWAP1 JUMPDEST DUP2 PUSH1 0x0 SWAP1 SLOAD SWAP1 PUSH2 0x100 EXP SWAP1 DIV PUSH20 0xFFFFFFFFFFFFFFFFFFFFFFFFFFFFFFFFFFFFFFFF AND PUSH20 0xFFFFFFFFFFFFFFFFFFFFFFFFFFFFFFFFFFFFFFFF AND DUP2 MSTORE PUSH1 0x20 ADD SWAP1 PUSH1 0x1 ADD SWAP1 DUP1 DUP4 GT PUSH2 0xB73 JUMPI JUMPDEST POP POP POP POP POP SWAP1 POP SWAP1 JUMP JUMPDEST PUSH1 0x0 DUP1 SWAP1 SLOAD SWAP1 PUSH2 0x100 EXP SWAP1 DIV PUSH20 0xFFFFFFFFFFFFFFFFFFFFFFFFFFFFFFFFFFFFFFFF AND DUP2 JUMP JUMPDEST PUSH1 0x0 DUP1 PUSH1 0x0 SWAP1 SLOAD SWAP1 PUSH2 0x100 EXP SWAP1 DIV PUSH20 0xFFFFFFFFFFFFFFFFFFFFFFFFFFFFFFFFFFFFFFFF AND PUSH20 0xFFFFFFFFFFFFFFFFFFFFFFFFFFFFFFFFFFFFFFFF AND CALLER PUSH20 0xFFFFFFFFFFFFFFFFFFFFFFFFFFFFFFFFFFFFFFFF AND EQ ISZERO ISZERO PUSH2 0xCB2 JUMPI PUSH1 0x40 MLOAD PUSH32 0x8C379A000000000000000000000000000000000000000000000000000000000 DUP2 MSTORE PUSH1 0x4 ADD DUP1 DUP1 PUSH1 0x20 ADD DUP3 DUP2 SUB DUP3 MSTORE PUSH1 0x12 DUP2 MSTORE PUSH1 0x20 ADD DUP1 PUSH32 0xE99D9EE9A1B9E79BAEE7AEA1E79086E4BABA0000000000000000000000000000 DUP2 MSTORE POP PUSH1 0x20 ADD SWAP2 POP POP PUSH1 0x40 MLOAD DUP1 SWAP2 SUB SWAP1 REVERT JUMPDEST PUSH1 0x0 SWAP1 POP JUMPDEST PUSH1 0x5 DUP1 SLOAD SWAP1 POP DUP2 LT ISZERO PUSH2 0xD53 JUMPI PUSH1 0x5 DUP2 DUP2 SLOAD DUP2 LT ISZERO ISZERO PUSH2 0xCD3 JUMPI INVALID JUMPDEST SWAP1 PUSH1 0x0 MSTORE PUSH1 0x20 PUSH1 0x0 KECCAK256 ADD PUSH1 0x0 SWAP1 SLOAD SWAP1 PUSH2 0x100 EXP SWAP1 DIV PUSH20 0xFFFFFFFFFFFFFFFFFFFFFFFFFFFFFFFFFFFFFFFF AND PUSH20 0xFFFFFFFFFFFFFFFFFFFFFFFFFFFFFFFFFFFFFFFF AND PUSH2 0x8FC PUSH1 0x3 SLOAD SWAP1 DUP2 ISZERO MUL SWAP1 PUSH1 0x40 MLOAD PUSH1 0x0 PUSH1 0x40 MLOAD DUP1 DUP4 SUB DUP2 DUP6 DUP9 DUP9 CALL SWAP4 POP POP POP POP ISZERO DUP1 ISZERO PUSH2 0xD45 JUMPI RETURNDATASIZE PUSH1 0x0 DUP1 RETURNDATACOPY RETURNDATASIZE PUSH1 0x0 REVERT JUMPDEST POP DUP1 DUP1 PUSH1 0x1 ADD SWAP2 POP POP PUSH2 0xCB7 JUMP JUMPDEST PUSH1 0x5 PUSH1 0x0 PUSH2 0xD61 SWAP2 SWAP1 PUSH2 0x149A JUMP JUMPDEST POP JUMP JUMPDEST PUSH1 0x0 PUSH1 0x5 DUP1 SLOAD SWAP1 POP SWAP1 POP SWAP1 JUMP JUMPDEST PUSH1 0x60 PUSH1 0x0 DUP1 PUSH1 0x0 DUP1 PUSH1 0x0 DUP1 PUSH1 0x0 PUSH1 0x7 DUP1 SLOAD SWAP1 POP DUP10 LT ISZERO ISZERO PUSH2 0xDFA JUMPI PUSH1 0x40 MLOAD PUSH32 0x8C379A000000000000000000000000000000000000000000000000000000000 DUP2 MSTORE PUSH1 0x4 ADD DUP1 DUP1 PUSH1 0x20 ADD DUP3 DUP2 SUB DUP3 MSTORE PUSH1 0xE DUP2 MSTORE PUSH1 0x20 ADD DUP1 PUSH32 0xE69CAAE79FA5E8AFB7E6B1826964000000000000000000000000000000000000 DUP2 MSTORE POP PUSH1 0x20 ADD SWAP2 POP POP PUSH1 0x40 MLOAD DUP1 SWAP2 SUB SWAP1 REVERT JUMPDEST PUSH1 0x7 DUP10 DUP2 SLOAD DUP2 LT ISZERO ISZERO PUSH2 0xE09 JUMPI INVALID JUMPDEST SWAP1 PUSH1 0x0 MSTORE PUSH1 0x20 PUSH1 0x0 KECCAK256 SWAP1 PUSH1 0x6 MUL ADD SWAP2 POP DUP2 PUSH1 0x4 ADD PUSH1 0x0 CALLER PUSH20 0xFFFFFFFFFFFFFFFFFFFFFFFFFFFFFFFFFFFFFFFF AND PUSH20 0xFFFFFFFFFFFFFFFFFFFFFFFFFFFFFFFFFFFFFFFF AND DUP2 MSTORE PUSH1 0x20 ADD SWAP1 DUP2 MSTORE PUSH1 0x20 ADD PUSH1 0x0 KECCAK256 PUSH1 0x0 SWAP1 SLOAD SWAP1 PUSH2 0x100 EXP SWAP1 DIV PUSH1 0xFF AND SWAP1 POP DUP2 PUSH1 0x0 ADD DUP3 PUSH1 0x1 ADD SLOAD DUP4 PUSH1 0x2 ADD PUSH1 0x0 SWAP1 SLOAD SWAP1 PUSH2 0x100 EXP SWAP1 DIV PUSH20 0xFFFFFFFFFFFFFFFFFFFFFFFFFFFFFFFFFFFFFFFF AND DUP5 PUSH1 0x3 ADD SLOAD DUP5 DUP7 PUSH1 0x5 ADD PUSH1 0x0 SWAP1 SLOAD SWAP1 PUSH2 0x100 EXP SWAP1 DIV PUSH1 0xFF AND PUSH1 0x3 DUP2 GT ISZERO PUSH2 0xEBB JUMPI INVALID JUMPDEST DUP6 DUP1 SLOAD PUSH1 0x1 DUP2 PUSH1 0x1 AND ISZERO PUSH2 0x100 MUL SUB AND PUSH1 0x2 SWAP1 DIV DUP1 PUSH1 0x1F ADD PUSH1 0x20 DUP1 SWAP2 DIV MUL PUSH1 0x20 ADD PUSH1 0x40 MLOAD SWAP1 DUP2 ADD PUSH1 0x40 MSTORE DUP1 SWAP3 SWAP2 SWAP1 DUP2 DUP2 MSTORE PUSH1 0x20 ADD DUP3 DUP1 SLOAD PUSH1 0x1 DUP2 PUSH1 0x1 AND ISZERO PUSH2 0x100 MUL SUB AND PUSH1 0x2 SWAP1 DIV DUP1 ISZERO PUSH2 0xF50 JUMPI DUP1 PUSH1 0x1F LT PUSH2 0xF25 JUMPI PUSH2 0x100 DUP1 DUP4 SLOAD DIV MUL DUP4 MSTORE SWAP2 PUSH1 0x20 ADD SWAP2 PUSH2 0xF50 JUMP JUMPDEST DUP3 ADD SWAP2 SWAP1 PUSH1 0x0 MSTORE PUSH1 0x20 PUSH1 0x0 KECCAK256 SWAP1 JUMPDEST DUP2 SLOAD DUP2 MSTORE SWAP1 PUSH1 0x1 ADD SWAP1 PUSH1 0x20 ADD DUP1 DUP4 GT PUSH2 0xF33 JUMPI DUP3 SWAP1 SUB PUSH1 0x1F AND DUP3 ADD SWAP2 JUMPDEST POP POP POP POP POP SWAP6 POP SWAP8 POP SWAP8 POP SWAP8 POP SWAP8 POP SWAP8 POP SWAP8 POP POP POP SWAP2 SWAP4 SWAP6 POP SWAP2 SWAP4 SWAP6 JUMP JUMPDEST PUSH2 0xF76 PUSH2 0x14BB JUMP JUMPDEST PUSH1 0x0 DUP1 SWAP1 SLOAD SWAP1 PUSH2 0x100 EXP SWAP1 DIV PUSH20 0xFFFFFFFFFFFFFFFFFFFFFFFFFFFFFFFFFFFFFFFF AND PUSH20 0xFFFFFFFFFFFFFFFFFFFFFFFFFFFFFFFFFFFFFFFF AND CALLER PUSH20 0xFFFFFFFFFFFFFFFFFFFFFFFFFFFFFFFFFFFFFFFF AND EQ ISZERO ISZERO PUSH2 0x103A JUMPI PUSH1 0x40 MLOAD PUSH32 0x8C379A000000000000000000000000000000000000000000000000000000000 DUP2 MSTORE PUSH1 0x4 ADD DUP1 DUP1 PUSH1 0x20 ADD DUP3 DUP2 SUB DUP3 MSTORE PUSH1 0x12 DUP2 MSTORE PUSH1 0x20 ADD DUP1 PUSH32 0xE99D9EE9A1B9E79BAEE7AEA1E79086E4BABA0000000000000000000000000000 DUP2 MSTORE POP PUSH1 0x20 ADD SWAP2 POP POP PUSH1 0x40 MLOAD DUP1 SWAP2 SUB SWAP1 REVERT JUMPDEST PUSH1 0xA0 PUSH1 0x40 MLOAD SWAP1 DUP2 ADD PUSH1 0x40 MSTORE DUP1 DUP6 DUP2 MSTORE PUSH1 0x20 ADD DUP5 DUP2 MSTORE PUSH1 0x20 ADD DUP4 PUSH20 0xFFFFFFFFFFFFFFFFFFFFFFFFFFFFFFFFFFFFFFFF AND DUP2 MSTORE PUSH1 0x20 ADD PUSH1 0x0 DUP2 MSTORE PUSH1 0x20 ADD PUSH1 0x0 PUSH1 0x3 DUP2 GT ISZERO PUSH2 0x1082 JUMPI INVALID JUMPDEST DUP2 MSTORE POP SWAP1 POP PUSH1 0x7 DUP2 SWAP1 DUP1 PUSH1 0x1 DUP2 SLOAD ADD DUP1 DUP3 SSTORE DUP1 SWAP2 POP POP SWAP1 PUSH1 0x1 DUP3 SUB SWAP1 PUSH1 0x0 MSTORE PUSH1 0x20 PUSH1 0x0 KECCAK256 SWAP1 PUSH1 0x6 MUL ADD PUSH1 0x0 SWAP1 SWAP2 SWAP3 SWAP1 SWAP2 SWAP1 SWAP2 POP PUSH1 0x0 DUP3 ADD MLOAD DUP2 PUSH1 0x0 ADD SWAP1 DUP1 MLOAD SWAP1 PUSH1 0x20 ADD SWAP1 PUSH2 0x10D1 SWAP3 SWAP2 SWAP1 PUSH2 0x150C JUMP JUMPDEST POP PUSH1 0x20 DUP3 ADD MLOAD DUP2 PUSH1 0x1 ADD SSTORE PUSH1 0x40 DUP3 ADD MLOAD DUP2 PUSH1 0x2 ADD PUSH1 0x0 PUSH2 0x100 EXP DUP2 SLOAD DUP2 PUSH20 0xFFFFFFFFFFFFFFFFFFFFFFFFFFFFFFFFFFFFFFFF MUL NOT AND SWAP1 DUP4 PUSH20 0xFFFFFFFFFFFFFFFFFFFFFFFFFFFFFFFFFFFFFFFF AND MUL OR SWAP1 SSTORE POP PUSH1 0x60 DUP3 ADD MLOAD DUP2 PUSH1 0x3 ADD SSTORE PUSH1 0x80 DUP3 ADD MLOAD DUP2 PUSH1 0x5 ADD PUSH1 0x0 PUSH2 0x100 EXP DUP2 SLOAD DUP2 PUSH1 0xFF MUL NOT AND SWAP1 DUP4 PUSH1 0x3 DUP2 GT ISZERO PUSH2 0x1151 JUMPI INVALID JUMPDEST MUL OR SWAP1 SSTORE POP POP POP POP POP POP POP POP JUMP JUMPDEST PUSH1 0x2 SLOAD DUP2 JUMP JUMPDEST PUSH1 0x1 DUP1 SLOAD PUSH1 0x1 DUP2 PUSH1 0x1 AND ISZERO PUSH2 0x100 MUL SUB AND PUSH1 0x2 SWAP1 DIV DUP1 PUSH1 0x1F ADD PUSH1 0x20 DUP1 SWAP2 DIV MUL PUSH1 0x20 ADD PUSH1 0x40 MLOAD SWAP1 DUP2 ADD PUSH1 0x40 MSTORE DUP1 SWAP3 SWAP2 SWAP1 DUP2 DUP2 MSTORE PUSH1 0x20 ADD DUP3 DUP1 SLOAD PUSH1 0x1 DUP2 PUSH1 0x1 AND ISZERO PUSH2 0x100 MUL SUB AND PUSH1 0x2 SWAP1 DIV DUP1 ISZERO PUSH2 0x11FB JUMPI DUP1 PUSH1 0x1F LT PUSH2 0x11D0 JUMPI PUSH2 0x100 DUP1 DUP4 SLOAD DIV MUL DUP4 MSTORE SWAP2 PUSH1 0x20 ADD SWAP2 PUSH2 0x11FB JUMP JUMPDEST DUP3 ADD SWAP2 SWAP1 PUSH1 0x0 MSTORE PUSH1 0x20 PUSH1 0x0 KECCAK256 SWAP1 JUMPDEST DUP2 SLOAD DUP2 MSTORE SWAP1 PUSH1 0x1 ADD SWAP1 PUSH1 0x20 ADD DUP1 DUP4 GT PUSH2 0x11DE JUMPI DUP3 SWAP1 SUB PUSH1 0x1F AND DUP3 ADD SWAP2 JUMPDEST POP POP POP POP POP DUP2 JUMP JUMPDEST PUSH1 0x3 SLOAD DUP2 JUMP JUMPDEST PUSH1 0x0 PUSH1 0x7 DUP3 DUP2 SLOAD DUP2 LT ISZERO ISZERO PUSH2 0x121A JUMPI INVALID JUMPDEST SWAP1 PUSH1 0x0 MSTORE PUSH1 0x20 PUSH1 0x0 KECCAK256 SWAP1 PUSH1 0x6 MUL ADD SWAP1 POP PUSH1 0x6 PUSH1 0x0 CALLER PUSH20 0xFFFFFFFFFFFFFFFFFFFFFFFFFFFFFFFFFFFFFFFF AND PUSH20 0xFFFFFFFFFFFFFFFFFFFFFFFFFFFFFFFFFFFFFFFF AND DUP2 MSTORE PUSH1 0x20 ADD SWAP1 DUP2 MSTORE PUSH1 0x20 ADD PUSH1 0x0 KECCAK256 PUSH1 0x0 SWAP1 SLOAD SWAP1 PUSH2 0x100 EXP SWAP1 DIV PUSH1 0xFF AND ISZERO ISZERO PUSH2 0x12EB JUMPI PUSH1 0x40 MLOAD PUSH32 0x8C379A000000000000000000000000000000000000000000000000000000000 DUP2 MSTORE PUSH1 0x4 ADD DUP1 DUP1 PUSH1 0x20 ADD DUP3 DUP2 SUB DUP3 MSTORE PUSH1 0x1B DUP2 MSTORE PUSH1 0x20 ADD DUP1 PUSH32 0xE58FAAE69C89E68A95E8B584E4BABAE69C89E68A95E7A5A8E69D830000000000 DUP2 MSTORE POP PUSH1 0x20 ADD SWAP2 POP POP PUSH1 0x40 MLOAD DUP1 SWAP2 SUB SWAP1 REVERT JUMPDEST PUSH1 0x0 ISZERO ISZERO DUP2 PUSH1 0x4 ADD PUSH1 0x0 CALLER PUSH20 0xFFFFFFFFFFFFFFFFFFFFFFFFFFFFFFFFFFFFFFFF AND PUSH20 0xFFFFFFFFFFFFFFFFFFFFFFFFFFFFFFFFFFFFFFFF AND DUP2 MSTORE PUSH1 0x20 ADD SWAP1 DUP2 MSTORE PUSH1 0x20 ADD PUSH1 0x0 KECCAK256 PUSH1 0x0 SWAP1 SLOAD SWAP1 PUSH2 0x100 EXP SWAP1 DIV PUSH1 0xFF AND ISZERO ISZERO EQ ISZERO ISZERO PUSH2 0x13B5 JUMPI PUSH1 0x40 MLOAD PUSH32 0x8C379A000000000000000000000000000000000000000000000000000000000 DUP2 MSTORE PUSH1 0x4 ADD DUP1 DUP1 PUSH1 0x20 ADD DUP3 DUP2 SUB DUP3 MSTORE PUSH1 0x12 DUP2 MSTORE PUSH1 0x20 ADD DUP1 PUSH32 0xE5B7B2E7BB8FE68A95E8BF87E7A5A8E4BA860000000000000000000000000000 DUP2 MSTORE POP PUSH1 0x20 ADD SWAP2 POP POP PUSH1 0x40 MLOAD DUP1 SWAP2 SUB SWAP1 REVERT JUMPDEST PUSH1 0x1 DUP2 PUSH1 0x4 ADD PUSH1 0x0 CALLER PUSH20 0xFFFFFFFFFFFFFFFFFFFFFFFFFFFFFFFFFFFFFFFF AND PUSH20 0xFFFFFFFFFFFFFFFFFFFFFFFFFFFFFFFFFFFFFFFF AND DUP2 MSTORE PUSH1 0x20 ADD SWAP1 DUP2 MSTORE PUSH1 0x20 ADD PUSH1 0x0 KECCAK256 PUSH1 0x0 PUSH2 0x100 EXP DUP2 SLOAD DUP2 PUSH1 0xFF MUL NOT AND SWAP1 DUP4 ISZERO ISZERO MUL OR SWAP1 SSTORE POP DUP1 PUSH1 0x3 ADD PUSH1 0x0 DUP2 SLOAD DUP1 SWAP3 SWAP2 SWAP1 PUSH1 0x1 ADD SWAP2 SWAP1 POP SSTORE POP PUSH1 0x2 PUSH1 0x5 DUP1 SLOAD SWAP1 POP DUP2 ISZERO ISZERO PUSH2 0x1434 JUMPI INVALID JUMPDEST DIV DUP2 PUSH1 0x3 ADD SLOAD GT ISZERO PUSH2 0x1467 JUMPI PUSH1 0x1 DUP2 PUSH1 0x5 ADD PUSH1 0x0 PUSH2 0x100 EXP DUP2 SLOAD DUP2 PUSH1 0xFF MUL NOT AND SWAP1 DUP4 PUSH1 0x3 DUP2 GT ISZERO PUSH2 0x1461 JUMPI INVALID JUMPDEST MUL OR SWAP1 SSTORE POP JUMPDEST POP POP JUMP JUMPDEST PUSH1 0x0 PUSH1 0x18 PUSH1 0x3C DUP1 TIMESTAMP PUSH1 0x4 SLOAD SUB DUP2 ISZERO ISZERO PUSH2 0x1480 JUMPI INVALID JUMPDEST DIV DUP2 ISZERO ISZERO PUSH2 0x148A JUMPI INVALID JUMPDEST DIV DUP2 ISZERO ISZERO PUSH2 0x1494 JUMPI INVALID JUMPDEST DIV SWAP1 POP SWAP1 JUMP JUMPDEST POP DUP1 SLOAD PUSH1 0x0 DUP3 SSTORE SWAP1 PUSH1 0x0 MSTORE PUSH1 0x20 PUSH1 0x0 KECCAK256 SWAP1 DUP2 ADD SWAP1 PUSH2 0x14B8 SWAP2 SWAP1 PUSH2 0x158C JUMP JUMPDEST POP JUMP JUMPDEST PUSH1 0xA0 PUSH1 0x40 MLOAD SWAP1 DUP2 ADD PUSH1 0x40 MSTORE DUP1 PUSH1 0x60 DUP2 MSTORE PUSH1 0x20 ADD PUSH1 0x0 DUP2 MSTORE PUSH1 0x20 ADD PUSH1 0x0 PUSH20 0xFFFFFFFFFFFFFFFFFFFFFFFFFFFFFFFFFFFFFFFF AND DUP2 MSTORE PUSH1 0x20 ADD PUSH1 0x0 DUP2 MSTORE PUSH1 0x20 ADD PUSH1 0x0 PUSH1 0x3 DUP2 GT ISZERO PUSH2 0x1506 JUMPI INVALID JUMPDEST DUP2 MSTORE POP SWAP1 JUMP JUMPDEST DUP3 DUP1 SLOAD PUSH1 0x1 DUP2 PUSH1 0x1 AND ISZERO PUSH2 0x100 MUL SUB AND PUSH1 0x2 SWAP1 DIV SWAP1 PUSH1 0x0 MSTORE PUSH1 0x20 PUSH1 0x0 KECCAK256 SWAP1 PUSH1 0x1F ADD PUSH1 0x20 SWAP1 DIV DUP2 ADD SWAP3 DUP3 PUSH1 0x1F LT PUSH2 0x154D JUMPI DUP1 MLOAD PUSH1 0xFF NOT AND DUP4 DUP1 ADD OR DUP6 SSTORE PUSH2 0x157B JUMP JUMPDEST DUP3 DUP1 ADD PUSH1 0x1 ADD DUP6 SSTORE DUP3 ISZERO PUSH2 0x157B JUMPI SWAP2 DUP3 ADD JUMPDEST DUP3 DUP2 GT ISZERO PUSH2 0x157A JUMPI DUP3 MLOAD DUP3 SSTORE SWAP2 PUSH1 0x20 ADD SWAP2 SWAP1 PUSH1 0x1 ADD SWAP1 PUSH2 0x155F JUMP JUMPDEST JUMPDEST POP SWAP1 POP PUSH2 0x1588 SWAP2 SWAP1 PUSH2 0x158C JUMP JUMPDEST POP SWAP1 JUMP JUMPDEST PUSH2 0x15AE SWAP2 SWAP1 JUMPDEST DUP1 DUP3 GT ISZERO PUSH2 0x15AA JUMPI PUSH1 0x0 DUP2 PUSH1 0x0 SWAP1 SSTORE POP PUSH1 0x1 ADD PUSH2 0x1592 JUMP JUMPDEST POP SWAP1 JUMP JUMPDEST SWAP1 JUMP STOP LOG1 PUSH6 0x627A7A723058 KECCAK256 MOD 0xf PC 0xf6 0x22 SWAP15 EQ 0x21 CREATE 0x5d 0xc4 CODESIZE SHL PC AND 0x29 0xdd 0x25 0xb9 DUP15 0xfc 0xbc 0xea JUMP 0x49 PUSH21 0x4B82BB38A2720029A165627A7A723058200EC9EEFA 0xbf SWAP9 PUSH22 0x172CDAD336E76DC894E0307C788E9C67CED2A8E8B86D 0xf9 SUB AND STOP 0x29 PUSH1 0x80 PUSH1 0x40 MSTORE CALLVALUE DUP1 ISZERO PUSH2 0x10 JUMPI PUSH1 0x0 DUP1 REVERT JUMPDEST POP PUSH2 0x2EA DUP1 PUSH2 0x20 PUSH1 0x0 CODECOPY PUSH1 0x0 RETURN STOP PUSH1 0x80 PUSH1 0x40 MSTORE PUSH1 0x4 CALLDATASIZE LT PUSH2 0x4C JUMPI PUSH1 0x0 CALLDATALOAD PUSH29 0x100000000000000000000000000000000000000000000000000000000 SWAP1 DIV PUSH4 0xFFFFFFFF AND DUP1 PUSH4 0x4CA765A7 EQ PUSH2 0x51 JUMPI DUP1 PUSH4 0x84B9EE43 EQ PUSH2 0xE9 JUMPI JUMPDEST PUSH1 0x0 DUP1 REVERT JUMPDEST CALLVALUE DUP1 ISZERO PUSH2 0x5D JUMPI PUSH1 0x0 DUP1 REVERT JUMPDEST POP PUSH2 0x92 PUSH1 0x4 DUP1 CALLDATASIZE SUB DUP2 ADD SWAP1 DUP1 DUP1 CALLDATALOAD PUSH20 0xFFFFFFFFFFFFFFFFFFFFFFFFFFFFFFFFFFFFFFFF AND SWAP1 PUSH1 0x20 ADD SWAP1 SWAP3 SWAP2 SWAP1 POP POP POP PUSH2 0x14C JUMP JUMPDEST PUSH1 0x40 MLOAD DUP1 DUP1 PUSH1 0x20 ADD DUP3 DUP2 SUB DUP3 MSTORE DUP4 DUP2 DUP2 MLOAD DUP2 MSTORE PUSH1 0x20 ADD SWAP2 POP DUP1 MLOAD SWAP1 PUSH1 0x20 ADD SWAP1 PUSH1 0x20 MUL DUP1 DUP4 DUP4 PUSH1 0x0 JUMPDEST DUP4 DUP2 LT ISZERO PUSH2 0xD5 JUMPI DUP1 DUP3 ADD MLOAD DUP2 DUP5 ADD MSTORE PUSH1 0x20 DUP2 ADD SWAP1 POP PUSH2 0xBA JUMP JUMPDEST POP POP POP POP SWAP1 POP ADD SWAP3 POP POP POP PUSH1 0x40 MLOAD DUP1 SWAP2 SUB SWAP1 RETURN JUMPDEST CALLVALUE DUP1 ISZERO PUSH2 0xF5 JUMPI PUSH1 0x0 DUP1 REVERT JUMPDEST POP PUSH2 0x14A PUSH1 0x4 DUP1 CALLDATASIZE SUB DUP2 ADD SWAP1 DUP1 DUP1 CALLDATALOAD PUSH20 0xFFFFFFFFFFFFFFFFFFFFFFFFFFFFFFFFFFFFFFFF AND SWAP1 PUSH1 0x20 ADD SWAP1 SWAP3 SWAP2 SWAP1 DUP1 CALLDATALOAD PUSH20 0xFFFFFFFFFFFFFFFFFFFFFFFFFFFFFFFFFFFFFFFF AND SWAP1 PUSH1 0x20 ADD SWAP1 SWAP3 SWAP2 SWAP1 POP POP POP PUSH2 0x218 JUMP JUMPDEST STOP JUMPDEST PUSH1 0x60 PUSH1 0x0 DUP1 DUP4 PUSH20 0xFFFFFFFFFFFFFFFFFFFFFFFFFFFFFFFFFFFFFFFF AND PUSH20 0xFFFFFFFFFFFFFFFFFFFFFFFFFFFFFFFFFFFFFFFF AND DUP2 MSTORE PUSH1 0x20 ADD SWAP1 DUP2 MSTORE PUSH1 0x20 ADD PUSH1 0x0 KECCAK256 DUP1 SLOAD DUP1 PUSH1 0x20 MUL PUSH1 0x20 ADD PUSH1 0x40 MLOAD SWAP1 DUP2 ADD PUSH1 0x40 MSTORE DUP1 SWAP3 SWAP2 SWAP1 DUP2 DUP2 MSTORE PUSH1 0x20 ADD DUP3 DUP1 SLOAD DUP1 ISZERO PUSH2 0x20C JUMPI PUSH1 0x20 MUL DUP3 ADD SWAP2 SWAP1 PUSH1 0x0 MSTORE PUSH1 0x20 PUSH1 0x0 KECCAK256 SWAP1 JUMPDEST DUP2 PUSH1 0x0 SWAP1 SLOAD SWAP1 PUSH2 0x100 EXP SWAP1 DIV PUSH20 0xFFFFFFFFFFFFFFFFFFFFFFFFFFFFFFFFFFFFFFFF AND PUSH20 0xFFFFFFFFFFFFFFFFFFFFFFFFFFFFFFFFFFFFFFFF AND DUP2 MSTORE PUSH1 0x20 ADD SWAP1 PUSH1 0x1 ADD SWAP1 DUP1 DUP4 GT PUSH2 0x1C2 JUMPI JUMPDEST POP POP POP POP POP SWAP1 POP SWAP2 SWAP1 POP JUMP JUMPDEST PUSH1 0x0 DUP1 DUP4 PUSH20 0xFFFFFFFFFFFFFFFFFFFFFFFFFFFFFFFFFFFFFFFF AND PUSH20 0xFFFFFFFFFFFFFFFFFFFFFFFFFFFFFFFFFFFFFFFF AND DUP2 MSTORE PUSH1 0x20 ADD SWAP1 DUP2 MSTORE PUSH1 0x20 ADD PUSH1 0x0 KECCAK256 DUP2 SWAP1 DUP1 PUSH1 0x1 DUP2 SLOAD ADD DUP1 DUP3 SSTORE DUP1 SWAP2 POP POP SWAP1 PUSH1 0x1 DUP3 SUB SWAP1 PUSH1 0x0 MSTORE PUSH1 0x20 PUSH1 0x0 KECCAK256 ADD PUSH1 0x0 SWAP1 SWAP2 SWAP3 SWAP1 SWAP2 SWAP1 SWAP2 PUSH2 0x100 EXP DUP2 SLOAD DUP2 PUSH20 0xFFFFFFFFFFFFFFFFFFFFFFFFFFFFFFFFFFFFFFFF MUL NOT AND SWAP1 DUP4 PUSH20 0xFFFFFFFFFFFFFFFFFFFFFFFFFFFFFFFFFFFFFFFF AND MUL OR SWAP1 SSTORE POP POP POP POP JUMP STOP LOG1 PUSH6 0x627A7A723058 KECCAK256 0xb5 SWAP16 0xbc ISZERO 0xc9 DUP7 DUP11 0xbb 0xb7 OR PUSH28 0x28EB7B4B73DAA5D2B0776EB086288020D1A5F03B9D00290000000000 "
				},
				"gasEstimates": {
					"creation": {
						"codeDepositCost": "1595800",
						"executionCost": "infinite",
						"totalCost": "infinite"
					},
					"external": {
						"createFunding(string,uint256,uint256,uint256)": "infinite",
						"getAllFundings()": "infinite",
						"getCreatorFundings()": "infinite",
						"getSupporterFundings()": "infinite"
					}
				},
				"methodIdentifiers": {
					"createFunding(string,uint256,uint256,uint256)": "62786e17",
					"getAllFundings()": "72a3143c",
					"getCreatorFundings()": "fc93110a",
					"getSupporterFundings()": "b74ae5cd"
				}
			},
			"userdoc": {
				"methods": {}
			}
		}
	}
}