{
	"src/funding/src/contracts/Funding.sol": {
		"Funding": {
			"abi": [
				{
					"constant": false,
					"inputs": [
						{
							"name": "_requestId",
							"type": "uint256"
						}
					],
					"name": "finalizeRequest",
					"outputs": [],
					"payable": false,
					"stateMutability": "nonpayable",
					"type": "function"
				},
				{
					"constant": false,
					"inputs": [],
					"name": "support",
					"outputs": [],
					"payable": true,
					"stateMutability": "payable",
					"type": "function"
				},
				{
					"constant": true,
					"inputs": [],
					"name": "getBalance",
					"outputs": [
						{
							"name": "",
							"type": "uint256"
						}
					],
					"payable": false,
					"stateMutability": "view",
					"type": "function"
				},
				{
					"constant": true,
					"inputs": [],
					"name": "endTime",
					"outputs": [
						{
							"name": "",
							"type": "uint256"
						}
					],
					"payable": false,
					"stateMutability": "view",
					"type": "function"
				},
				{
					"constant": true,
					"inputs": [],
					"name": "getRequestsCount",
					"outputs": [
						{
							"name": "",
							"type": "uint256"
						}
					],
					"payable": false,
					"stateMutability": "view",
					"type": "function"
				},
				{
					"constant": true,
					"inputs": [
						{
							"name": "",
							"type": "uint256"
						}
					],
					"name": "supporters",
					"outputs": [
						{
							"name": "",
							"type": "address"
						}
					],
					"payable": false,
					"stateMutability": "view",
					"type": "function"
				},
				{
					"constant": true,
					"inputs": [],
					"name": "getSupporters",
					"outputs": [
						{
							"name": "",
							"type": "address[]"
						}
					],
					"payable": false,
					"stateMutability": "view",
					"type": "function"
				},
				{
					"constant": true,
					"inputs": [],
					"name": "manager",
					"outputs": [
						{
							"name": "",
							"type": "address"
						}
					],
					"payable": false,
					"stateMutability": "view",
					"type": "function"
				},
				{
					"constant": false,
					"inputs": [],
					"name": "refund",
					"outputs": [],
					"payable": false,
					"stateMutability": "nonpayable",
					"type": "function"
				},
				{
					"constant": true,
					"inputs": [],
					"name": "getSupportersCount",
					"outputs": [
						{
							"name": "",
							"type": "uint256"
						}
					],
					"payable": false,
					"stateMutability": "view",
					"type": "function"
				},
				{
					"constant": true,
					"inputs": [
						{
							"name": "_requestId",
							"type": "uint256"
						}
					],
					"name": "getRequestDetailByIndex",
					"outputs": [
						{
							"name": "",
							"type": "string"
						},
						{
							"name": "",
							"type": "uint256"
						},
						{
							"name": "",
							"type": "address"
						},
						{
							"name": "",
							"type": "uint256"
						},
						{
							"name": "",
							"type": "bool"
						},
						{
							"name": "",
							"type": "uint256"
						}
					],
					"payable": false,
					"stateMutability": "view",
					"type": "function"
				},
				{
					"constant": false,
					"inputs": [
						{
							"name": "_purpose",
							"type": "string"
						},
						{
							"name": "_cost",
							"type": "uint256"
						},
						{
							"name": "_shopAddress",
							"type": "address"
						}
					],
					"name": "createRequest",
					"outputs": [],
					"payable": false,
					"stateMutability": "nonpayable",
					"type": "function"
				},
				{
					"constant": true,
					"inputs": [],
					"name": "targetMoney",
					"outputs": [
						{
							"name": "",
							"type": "uint256"
						}
					],
					"payable": false,
					"stateMutability": "view",
					"type": "function"
				},
				{
					"constant": true,
					"inputs": [],
					"name": "projectName",
					"outputs": [
						{
							"name": "",
							"type": "string"
						}
					],
					"payable": false,
					"stateMutability": "view",
					"type": "function"
				},
				{
					"constant": true,
					"inputs": [],
					"name": "supportMoney",
					"outputs": [
						{
							"name": "",
							"type": "uint256"
						}
					],
					"payable": false,
					"stateMutability": "view",
					"type": "function"
				},
				{
					"constant": false,
					"inputs": [
						{
							"name": "_requestId",
							"type": "uint256"
						}
					],
					"name": "approveRequest",
					"outputs": [],
					"payable": false,
					"stateMutability": "nonpayable",
					"type": "function"
				},
				{
					"constant": true,
					"inputs": [],
					"name": "getRemainTime",
					"outputs": [
						{
							"name": "",
							"type": "uint256"
						}
					],
					"payable": false,
					"stateMutability": "view",
					"type": "function"
				},
				{
					"inputs": [
						{
							"name": "_projectName",
							"type": "string"
						},
						{
							"name": "_targetMoney",
							"type": "uint256"
						},
						{
							"name": "_supportMoney",
							"type": "uint256"
						},
						{
							"name": "_duration",
							"type": "uint256"
						}
					],
					"payable": false,
					"stateMutability": "nonpayable",
					"type": "constructor"
				}
			],
			"devdoc": {
				"methods": {}
			},
			"evm": {
				"assembly": "    /* \"src/funding/src/contracts/Funding.sol\":28:4352  contract Funding {\r... */\n  mstore(0x40, 0x80)\n    /* \"src/funding/src/contracts/Funding.sol\":414:719  constructor (string _projectName, uint256 _targetMoney, uint256 _supportMoney, uint256 _duration) public {\r... */\n  callvalue\n    /* \"--CODEGEN--\":8:17   */\n  dup1\n    /* \"--CODEGEN--\":5:7   */\n  iszero\n  tag_1\n  jumpi\n    /* \"--CODEGEN--\":30:31   */\n  0x0\n    /* \"--CODEGEN--\":27:28   */\n  dup1\n    /* \"--CODEGEN--\":20:32   */\n  revert\n    /* \"--CODEGEN--\":5:7   */\ntag_1:\n    /* \"src/funding/src/contracts/Funding.sol\":414:719  constructor (string _projectName, uint256 _targetMoney, uint256 _supportMoney, uint256 _duration) public {\r... */\n  pop\n  mload(0x40)\n  sub(codesize, bytecodeSize)\n  dup1\n  bytecodeSize\n  dup4\n  codecopy\n  dup2\n  add\n  dup1\n  0x40\n  mstore\n  dup2\n  add\n  swap1\n  dup1\n  dup1\n  mload\n  dup3\n  add\n  swap3\n  swap2\n  swap1\n  0x20\n  add\n  dup1\n  mload\n  swap1\n  0x20\n  add\n  swap1\n  swap3\n  swap2\n  swap1\n  dup1\n  mload\n  swap1\n  0x20\n  add\n  swap1\n  swap3\n  swap2\n  swap1\n  dup1\n  mload\n  swap1\n  0x20\n  add\n  swap1\n  swap3\n  swap2\n  swap1\n  pop\n  pop\n  pop\n    /* \"src/funding/src/contracts/Funding.sol\":540:550  msg.sender */\n  caller\n    /* \"src/funding/src/contracts/Funding.sol\":530:537  manager */\n  0x0\n  dup1\n    /* \"src/funding/src/contracts/Funding.sol\":530:550  manager = msg.sender */\n  0x100\n  exp\n  dup2\n  sload\n  dup2\n  0xffffffffffffffffffffffffffffffffffffffff\n  mul\n  not\n  and\n  swap1\n  dup4\n  0xffffffffffffffffffffffffffffffffffffffff\n  and\n  mul\n  or\n  swap1\n  sstore\n  pop\n    /* \"src/funding/src/contracts/Funding.sol\":575:587  _projectName */\n  dup4\n    /* \"src/funding/src/contracts/Funding.sol\":561:572  projectName */\n  0x1\n    /* \"src/funding/src/contracts/Funding.sol\":561:587  projectName = _projectName */\n  swap1\n  dup1\n  mload\n  swap1\n  0x20\n  add\n  swap1\n  tag_4\n  swap3\n  swap2\n  swap1\n  jump\t// in(tag_5)\ntag_4:\n  pop\n    /* \"src/funding/src/contracts/Funding.sol\":612:624  _targetMoney */\n  dup3\n    /* \"src/funding/src/contracts/Funding.sol\":598:609  targetMoney */\n  0x2\n    /* \"src/funding/src/contracts/Funding.sol\":598:624  targetMoney = _targetMoney */\n  dup2\n  swap1\n  sstore\n  pop\n    /* \"src/funding/src/contracts/Funding.sol\":650:663  _supportMoney */\n  dup2\n    /* \"src/funding/src/contracts/Funding.sol\":635:647  supportMoney */\n  0x3\n    /* \"src/funding/src/contracts/Funding.sol\":635:663  supportMoney = _supportMoney */\n  dup2\n  swap1\n  sstore\n  pop\n    /* \"src/funding/src/contracts/Funding.sol\":702:711  _duration */\n  dup1\n    /* \"src/funding/src/contracts/Funding.sol\":684:699  block.timestamp */\n  timestamp\n    /* \"src/funding/src/contracts/Funding.sol\":684:711  block.timestamp + _duration */\n  add\n    /* \"src/funding/src/contracts/Funding.sol\":674:681  endTime */\n  0x4\n    /* \"src/funding/src/contracts/Funding.sol\":674:711  endTime = block.timestamp + _duration */\n  dup2\n  swap1\n  sstore\n  pop\n    /* \"src/funding/src/contracts/Funding.sol\":414:719  constructor (string _projectName, uint256 _targetMoney, uint256 _supportMoney, uint256 _duration) public {\r... */\n  pop\n  pop\n  pop\n  pop\n    /* \"src/funding/src/contracts/Funding.sol\":28:4352  contract Funding {\r... */\n  jump(tag_6)\ntag_5:\n  dup3\n  dup1\n  sload\n  0x1\n  dup2\n  0x1\n  and\n  iszero\n  0x100\n  mul\n  sub\n  and\n  0x2\n  swap1\n  div\n  swap1\n  0x0\n  mstore\n  keccak256(0x0, 0x20)\n  swap1\n  0x1f\n  add\n  0x20\n  swap1\n  div\n  dup2\n  add\n  swap3\n  dup3\n  0x1f\n  lt\n  tag_8\n  jumpi\n  dup1\n  mload\n  not(0xff)\n  and\n  dup4\n  dup1\n  add\n  or\n  dup6\n  sstore\n  jump(tag_7)\ntag_8:\n  dup3\n  dup1\n  add\n  0x1\n  add\n  dup6\n  sstore\n  dup3\n  iszero\n  tag_7\n  jumpi\n  swap2\n  dup3\n  add\ntag_9:\n  dup3\n  dup2\n  gt\n  iszero\n  tag_10\n  jumpi\n  dup3\n  mload\n  dup3\n  sstore\n  swap2\n  0x20\n  add\n  swap2\n  swap1\n  0x1\n  add\n  swap1\n  jump(tag_9)\ntag_10:\ntag_7:\n  pop\n  swap1\n  pop\n  tag_11\n  swap2\n  swap1\n  jump\t// in(tag_12)\ntag_11:\n  pop\n  swap1\n  jump\t// out\ntag_12:\n  tag_13\n  swap2\n  swap1\ntag_14:\n  dup1\n  dup3\n  gt\n  iszero\n  tag_15\n  jumpi\n  0x0\n  dup2\n  0x0\n  swap1\n  sstore\n  pop\n  0x1\n  add\n  jump(tag_14)\ntag_15:\n  pop\n  swap1\n  jump\ntag_13:\n  swap1\n  jump\t// out\ntag_6:\n  dataSize(sub_0)\n  dup1\n  dataOffset(sub_0)\n  0x0\n  codecopy\n  0x0\n  return\nstop\n\nsub_0: assembly {\n        /* \"src/funding/src/contracts/Funding.sol\":28:4352  contract Funding {\r... */\n      mstore(0x40, 0x80)\n      jumpi(tag_1, lt(calldatasize, 0x4))\n      calldataload(0x0)\n      0x100000000000000000000000000000000000000000000000000000000\n      swap1\n      div\n      0xffffffff\n      and\n      dup1\n      0x3441006\n      eq\n      tag_2\n      jumpi\n      dup1\n      0x119f8747\n      eq\n      tag_3\n      jumpi\n      dup1\n      0x12065fe0\n      eq\n      tag_4\n      jumpi\n      dup1\n      0x3197cbb6\n      eq\n      tag_5\n      jumpi\n      dup1\n      0x3410452a\n      eq\n      tag_6\n      jumpi\n      dup1\n      0x3c24b7d7\n      eq\n      tag_7\n      jumpi\n      dup1\n      0x43020b1a\n      eq\n      tag_8\n      jumpi\n      dup1\n      0x481c6a75\n      eq\n      tag_9\n      jumpi\n      dup1\n      0x590e1ae3\n      eq\n      tag_10\n      jumpi\n      dup1\n      0x63b393d8\n      eq\n      tag_11\n      jumpi\n      dup1\n      0x69efb694\n      eq\n      tag_12\n      jumpi\n      dup1\n      0x8a9cfd55\n      eq\n      tag_13\n      jumpi\n      dup1\n      0x8d7cdb91\n      eq\n      tag_14\n      jumpi\n      dup1\n      0x9a33e300\n      eq\n      tag_15\n      jumpi\n      dup1\n      0xa5d5c5dc\n      eq\n      tag_16\n      jumpi\n      dup1\n      0xd7d1bbdb\n      eq\n      tag_17\n      jumpi\n      dup1\n      0xfc2615d5\n      eq\n      tag_18\n      jumpi\n    tag_1:\n      0x0\n      dup1\n      revert\n        /* \"src/funding/src/contracts/Funding.sol\":3037:3561  function finalizeRequest(uint256 _requestId) public  {\r... */\n    tag_2:\n      callvalue\n        /* \"--CODEGEN--\":8:17   */\n      dup1\n        /* \"--CODEGEN--\":5:7   */\n      iszero\n      tag_19\n      jumpi\n        /* \"--CODEGEN--\":30:31   */\n      0x0\n        /* \"--CODEGEN--\":27:28   */\n      dup1\n        /* \"--CODEGEN--\":20:32   */\n      revert\n        /* \"--CODEGEN--\":5:7   */\n    tag_19:\n        /* \"src/funding/src/contracts/Funding.sol\":3037:3561  function finalizeRequest(uint256 _requestId) public  {\r... */\n      pop\n      tag_20\n      0x4\n      dup1\n      calldatasize\n      sub\n      dup2\n      add\n      swap1\n      dup1\n      dup1\n      calldataload\n      swap1\n      0x20\n      add\n      swap1\n      swap3\n      swap2\n      swap1\n      pop\n      pop\n      pop\n      jump(tag_21)\n    tag_20:\n      stop\n        /* \"src/funding/src/contracts/Funding.sol\":754:944  function support() payable public {\r... */\n    tag_3:\n      tag_22\n      jump(tag_23)\n    tag_22:\n      stop\n        /* \"src/funding/src/contracts/Funding.sol\":1162:1260  function getBalance() public view returns (uint256){\r... */\n    tag_4:\n      callvalue\n        /* \"--CODEGEN--\":8:17   */\n      dup1\n        /* \"--CODEGEN--\":5:7   */\n      iszero\n      tag_24\n      jumpi\n        /* \"--CODEGEN--\":30:31   */\n      0x0\n        /* \"--CODEGEN--\":27:28   */\n      dup1\n        /* \"--CODEGEN--\":20:32   */\n      revert\n        /* \"--CODEGEN--\":5:7   */\n    tag_24:\n        /* \"src/funding/src/contracts/Funding.sol\":1162:1260  function getBalance() public view returns (uint256){\r... */\n      pop\n      tag_25\n      jump(tag_26)\n    tag_25:\n      mload(0x40)\n      dup1\n      dup3\n      dup2\n      mstore\n      0x20\n      add\n      swap2\n      pop\n      pop\n      mload(0x40)\n      dup1\n      swap2\n      sub\n      swap1\n      return\n        /* \"src/funding/src/contracts/Funding.sol\":182:204  uint256 public endTime */\n    tag_5:\n      callvalue\n        /* \"--CODEGEN--\":8:17   */\n      dup1\n        /* \"--CODEGEN--\":5:7   */\n      iszero\n      tag_27\n      jumpi\n        /* \"--CODEGEN--\":30:31   */\n      0x0\n        /* \"--CODEGEN--\":27:28   */\n      dup1\n        /* \"--CODEGEN--\":20:32   */\n      revert\n        /* \"--CODEGEN--\":5:7   */\n    tag_27:\n        /* \"src/funding/src/contracts/Funding.sol\":182:204  uint256 public endTime */\n      pop\n      tag_28\n      jump(tag_29)\n    tag_28:\n      mload(0x40)\n      dup1\n      dup3\n      dup2\n      mstore\n      0x20\n      add\n      swap2\n      pop\n      pop\n      mload(0x40)\n      dup1\n      swap2\n      sub\n      swap1\n      return\n        /* \"src/funding/src/contracts/Funding.sol\":3797:3895  function getRequestsCount() public view returns (uint256){\r... */\n    tag_6:\n      callvalue\n        /* \"--CODEGEN--\":8:17   */\n      dup1\n        /* \"--CODEGEN--\":5:7   */\n      iszero\n      tag_30\n      jumpi\n        /* \"--CODEGEN--\":30:31   */\n      0x0\n        /* \"--CODEGEN--\":27:28   */\n      dup1\n        /* \"--CODEGEN--\":20:32   */\n      revert\n        /* \"--CODEGEN--\":5:7   */\n    tag_30:\n        /* \"src/funding/src/contracts/Funding.sol\":3797:3895  function getRequestsCount() public view returns (uint256){\r... */\n      pop\n      tag_31\n      jump(tag_32)\n    tag_31:\n      mload(0x40)\n      dup1\n      dup3\n      dup2\n      mstore\n      0x20\n      add\n      swap2\n      pop\n      pop\n      mload(0x40)\n      dup1\n      swap2\n      sub\n      swap1\n      return\n        /* \"src/funding/src/contracts/Funding.sol\":237:264  address[] public supporters */\n    tag_7:\n      callvalue\n        /* \"--CODEGEN--\":8:17   */\n      dup1\n        /* \"--CODEGEN--\":5:7   */\n      iszero\n      tag_33\n      jumpi\n        /* \"--CODEGEN--\":30:31   */\n      0x0\n        /* \"--CODEGEN--\":27:28   */\n      dup1\n        /* \"--CODEGEN--\":20:32   */\n      revert\n        /* \"--CODEGEN--\":5:7   */\n    tag_33:\n        /* \"src/funding/src/contracts/Funding.sol\":237:264  address[] public supporters */\n      pop\n      tag_34\n      0x4\n      dup1\n      calldatasize\n      sub\n      dup2\n      add\n      swap1\n      dup1\n      dup1\n      calldataload\n      swap1\n      0x20\n      add\n      swap1\n      swap3\n      swap2\n      swap1\n      pop\n      pop\n      pop\n      jump(tag_35)\n    tag_34:\n      mload(0x40)\n      dup1\n      dup3\n      0xffffffffffffffffffffffffffffffffffffffff\n      and\n      0xffffffffffffffffffffffffffffffffffffffff\n      and\n      dup2\n      mstore\n      0x20\n      add\n      swap2\n      pop\n      pop\n      mload(0x40)\n      dup1\n      swap2\n      sub\n      swap1\n      return\n        /* \"src/funding/src/contracts/Funding.sol\":1268:1360  function getSupporters() public view returns (address[]){\r... */\n    tag_8:\n      callvalue\n        /* \"--CODEGEN--\":8:17   */\n      dup1\n        /* \"--CODEGEN--\":5:7   */\n      iszero\n      tag_36\n      jumpi\n        /* \"--CODEGEN--\":30:31   */\n      0x0\n        /* \"--CODEGEN--\":27:28   */\n      dup1\n        /* \"--CODEGEN--\":20:32   */\n      revert\n        /* \"--CODEGEN--\":5:7   */\n    tag_36:\n        /* \"src/funding/src/contracts/Funding.sol\":1268:1360  function getSupporters() public view returns (address[]){\r... */\n      pop\n      tag_37\n      jump(tag_38)\n    tag_37:\n      mload(0x40)\n      dup1\n      dup1\n      0x20\n      add\n      dup3\n      dup2\n      sub\n      dup3\n      mstore\n      dup4\n      dup2\n      dup2\n      mload\n      dup2\n      mstore\n      0x20\n      add\n      swap2\n      pop\n      dup1\n      mload\n      swap1\n      0x20\n      add\n      swap1\n      0x20\n      mul\n      dup1\n      dup4\n      dup4\n        /* \"--CODEGEN--\":23:24   */\n      0x0\n        /* \"--CODEGEN--\":8:108   */\n    tag_39:\n        /* \"--CODEGEN--\":33:36   */\n      dup4\n        /* \"--CODEGEN--\":30:31   */\n      dup2\n        /* \"--CODEGEN--\":27:37   */\n      lt\n        /* \"--CODEGEN--\":8:108   */\n      iszero\n      tag_40\n      jumpi\n        /* \"--CODEGEN--\":99:100   */\n      dup1\n        /* \"--CODEGEN--\":94:97   */\n      dup3\n        /* \"--CODEGEN--\":90:101   */\n      add\n        /* \"--CODEGEN--\":84:102   */\n      mload\n        /* \"--CODEGEN--\":80:81   */\n      dup2\n        /* \"--CODEGEN--\":75:78   */\n      dup5\n        /* \"--CODEGEN--\":71:82   */\n      add\n        /* \"--CODEGEN--\":64:103   */\n      mstore\n        /* \"--CODEGEN--\":52:54   */\n      0x20\n        /* \"--CODEGEN--\":49:50   */\n      dup2\n        /* \"--CODEGEN--\":45:55   */\n      add\n        /* \"--CODEGEN--\":40:55   */\n      swap1\n      pop\n        /* \"--CODEGEN--\":8:108   */\n      jump(tag_39)\n    tag_40:\n        /* \"--CODEGEN--\":12:26   */\n      pop\n        /* \"src/funding/src/contracts/Funding.sol\":1268:1360  function getSupporters() public view returns (address[]){\r... */\n      pop\n      pop\n      pop\n      swap1\n      pop\n      add\n      swap3\n      pop\n      pop\n      pop\n      mload(0x40)\n      dup1\n      swap2\n      sub\n      swap1\n      return\n        /* \"src/funding/src/contracts/Funding.sol\":54:76  address public manager */\n    tag_9:\n      callvalue\n        /* \"--CODEGEN--\":8:17   */\n      dup1\n        /* \"--CODEGEN--\":5:7   */\n      iszero\n      tag_42\n      jumpi\n        /* \"--CODEGEN--\":30:31   */\n      0x0\n        /* \"--CODEGEN--\":27:28   */\n      dup1\n        /* \"--CODEGEN--\":20:32   */\n      revert\n        /* \"--CODEGEN--\":5:7   */\n    tag_42:\n        /* \"src/funding/src/contracts/Funding.sol\":54:76  address public manager */\n      pop\n      tag_43\n      jump(tag_44)\n    tag_43:\n      mload(0x40)\n      dup1\n      dup3\n      0xffffffffffffffffffffffffffffffffffffffff\n      and\n      0xffffffffffffffffffffffffffffffffffffffff\n      and\n      dup2\n      mstore\n      0x20\n      add\n      swap2\n      pop\n      pop\n      mload(0x40)\n      dup1\n      swap2\n      sub\n      swap1\n      return\n        /* \"src/funding/src/contracts/Funding.sol\":970:1154  function refund() public {\r... */\n    tag_10:\n      callvalue\n        /* \"--CODEGEN--\":8:17   */\n      dup1\n        /* \"--CODEGEN--\":5:7   */\n      iszero\n      tag_45\n      jumpi\n        /* \"--CODEGEN--\":30:31   */\n      0x0\n        /* \"--CODEGEN--\":27:28   */\n      dup1\n        /* \"--CODEGEN--\":20:32   */\n      revert\n        /* \"--CODEGEN--\":5:7   */\n    tag_45:\n        /* \"src/funding/src/contracts/Funding.sol\":970:1154  function refund() public {\r... */\n      pop\n      tag_46\n      jump(tag_47)\n    tag_46:\n      stop\n        /* \"src/funding/src/contracts/Funding.sol\":3569:3671  function getSupportersCount() public view returns (uint256){\r... */\n    tag_11:\n      callvalue\n        /* \"--CODEGEN--\":8:17   */\n      dup1\n        /* \"--CODEGEN--\":5:7   */\n      iszero\n      tag_48\n      jumpi\n        /* \"--CODEGEN--\":30:31   */\n      0x0\n        /* \"--CODEGEN--\":27:28   */\n      dup1\n        /* \"--CODEGEN--\":20:32   */\n      revert\n        /* \"--CODEGEN--\":5:7   */\n    tag_48:\n        /* \"src/funding/src/contracts/Funding.sol\":3569:3671  function getSupportersCount() public view returns (uint256){\r... */\n      pop\n      tag_49\n      jump(tag_50)\n    tag_49:\n      mload(0x40)\n      dup1\n      dup3\n      dup2\n      mstore\n      0x20\n      add\n      swap2\n      pop\n      pop\n      mload(0x40)\n      dup1\n      swap2\n      sub\n      swap1\n      return\n        /* \"src/funding/src/contracts/Funding.sol\":3909:4345  function getRequestDetailByIndex(uint256 _requestId)    public view returns (string, uint256, address, uint256, bool, uint256){\r... */\n    tag_12:\n      callvalue\n        /* \"--CODEGEN--\":8:17   */\n      dup1\n        /* \"--CODEGEN--\":5:7   */\n      iszero\n      tag_51\n      jumpi\n        /* \"--CODEGEN--\":30:31   */\n      0x0\n        /* \"--CODEGEN--\":27:28   */\n      dup1\n        /* \"--CODEGEN--\":20:32   */\n      revert\n        /* \"--CODEGEN--\":5:7   */\n    tag_51:\n        /* \"src/funding/src/contracts/Funding.sol\":3909:4345  function getRequestDetailByIndex(uint256 _requestId)    public view returns (string, uint256, address, uint256, bool, uint256){\r... */\n      pop\n      tag_52\n      0x4\n      dup1\n      calldatasize\n      sub\n      dup2\n      add\n      swap1\n      dup1\n      dup1\n      calldataload\n      swap1\n      0x20\n      add\n      swap1\n      swap3\n      swap2\n      swap1\n      pop\n      pop\n      pop\n      jump(tag_53)\n    tag_52:\n      mload(0x40)\n      dup1\n      dup1\n      0x20\n      add\n      dup8\n      dup2\n      mstore\n      0x20\n      add\n      dup7\n      0xffffffffffffffffffffffffffffffffffffffff\n      and\n      0xffffffffffffffffffffffffffffffffffffffff\n      and\n      dup2\n      mstore\n      0x20\n      add\n      dup6\n      dup2\n      mstore\n      0x20\n      add\n      dup5\n      iszero\n      iszero\n      iszero\n      iszero\n      dup2\n      mstore\n      0x20\n      add\n      dup4\n      dup2\n      mstore\n      0x20\n      add\n      dup3\n      dup2\n      sub\n      dup3\n      mstore\n      dup9\n      dup2\n      dup2\n      mload\n      dup2\n      mstore\n      0x20\n      add\n      swap2\n      pop\n      dup1\n      mload\n      swap1\n      0x20\n      add\n      swap1\n      dup1\n      dup4\n      dup4\n        /* \"--CODEGEN--\":23:24   */\n      0x0\n        /* \"--CODEGEN--\":8:108   */\n    tag_54:\n        /* \"--CODEGEN--\":33:36   */\n      dup4\n        /* \"--CODEGEN--\":30:31   */\n      dup2\n        /* \"--CODEGEN--\":27:37   */\n      lt\n        /* \"--CODEGEN--\":8:108   */\n      iszero\n      tag_55\n      jumpi\n        /* \"--CODEGEN--\":99:100   */\n      dup1\n        /* \"--CODEGEN--\":94:97   */\n      dup3\n        /* \"--CODEGEN--\":90:101   */\n      add\n        /* \"--CODEGEN--\":84:102   */\n      mload\n        /* \"--CODEGEN--\":80:81   */\n      dup2\n        /* \"--CODEGEN--\":75:78   */\n      dup5\n        /* \"--CODEGEN--\":71:82   */\n      add\n        /* \"--CODEGEN--\":64:103   */\n      mstore\n        /* \"--CODEGEN--\":52:54   */\n      0x20\n        /* \"--CODEGEN--\":49:50   */\n      dup2\n        /* \"--CODEGEN--\":45:55   */\n      add\n        /* \"--CODEGEN--\":40:55   */\n      swap1\n      pop\n        /* \"--CODEGEN--\":8:108   */\n      jump(tag_54)\n    tag_55:\n        /* \"--CODEGEN--\":12:26   */\n      pop\n        /* \"src/funding/src/contracts/Funding.sol\":3909:4345  function getRequestDetailByIndex(uint256 _requestId)    public view returns (string, uint256, address, uint256, bool, uint256){\r... */\n      pop\n      pop\n      pop\n      swap1\n      pop\n      swap1\n      dup2\n      add\n      swap1\n      0x1f\n      and\n      dup1\n      iszero\n      tag_57\n      jumpi\n      dup1\n      dup3\n      sub\n      dup1\n      mload\n      0x1\n      dup4\n      0x20\n      sub\n      0x100\n      exp\n      sub\n      not\n      and\n      dup2\n      mstore\n      0x20\n      add\n      swap2\n      pop\n    tag_57:\n      pop\n      swap8\n      pop\n      pop\n      pop\n      pop\n      pop\n      pop\n      pop\n      pop\n      mload(0x40)\n      dup1\n      swap2\n      sub\n      swap1\n      return\n        /* \"src/funding/src/contracts/Funding.sol\":1854:2280  function createRequest(string _purpose, uint256 _cost, address _shopAddress) public {\r... */\n    tag_13:\n      callvalue\n        /* \"--CODEGEN--\":8:17   */\n      dup1\n        /* \"--CODEGEN--\":5:7   */\n      iszero\n      tag_58\n      jumpi\n        /* \"--CODEGEN--\":30:31   */\n      0x0\n        /* \"--CODEGEN--\":27:28   */\n      dup1\n        /* \"--CODEGEN--\":20:32   */\n      revert\n        /* \"--CODEGEN--\":5:7   */\n    tag_58:\n        /* \"src/funding/src/contracts/Funding.sol\":1854:2280  function createRequest(string _purpose, uint256 _cost, address _shopAddress) public {\r... */\n      pop\n      tag_59\n      0x4\n      dup1\n      calldatasize\n      sub\n      dup2\n      add\n      swap1\n      dup1\n      dup1\n      calldataload\n      swap1\n      0x20\n      add\n      swap1\n      dup3\n      add\n      dup1\n      calldataload\n      swap1\n      0x20\n      add\n      swap1\n      dup1\n      dup1\n      0x1f\n      add\n      0x20\n      dup1\n      swap2\n      div\n      mul\n      0x20\n      add\n      mload(0x40)\n      swap1\n      dup2\n      add\n      0x40\n      mstore\n      dup1\n      swap4\n      swap3\n      swap2\n      swap1\n      dup2\n      dup2\n      mstore\n      0x20\n      add\n      dup4\n      dup4\n      dup1\n      dup3\n      dup5\n      calldatacopy\n      dup3\n      add\n      swap2\n      pop\n      pop\n      pop\n      pop\n      pop\n      pop\n      swap2\n      swap3\n      swap2\n      swap3\n      swap1\n      dup1\n      calldataload\n      swap1\n      0x20\n      add\n      swap1\n      swap3\n      swap2\n      swap1\n      dup1\n      calldataload\n      0xffffffffffffffffffffffffffffffffffffffff\n      and\n      swap1\n      0x20\n      add\n      swap1\n      swap3\n      swap2\n      swap1\n      pop\n      pop\n      pop\n      jump(tag_60)\n    tag_59:\n      stop\n        /* \"src/funding/src/contracts/Funding.sol\":115:141  uint256 public targetMoney */\n    tag_14:\n      callvalue\n        /* \"--CODEGEN--\":8:17   */\n      dup1\n        /* \"--CODEGEN--\":5:7   */\n      iszero\n      tag_61\n      jumpi\n        /* \"--CODEGEN--\":30:31   */\n      0x0\n        /* \"--CODEGEN--\":27:28   */\n      dup1\n        /* \"--CODEGEN--\":20:32   */\n      revert\n        /* \"--CODEGEN--\":5:7   */\n    tag_61:\n        /* \"src/funding/src/contracts/Funding.sol\":115:141  uint256 public targetMoney */\n      pop\n      tag_62\n      jump(tag_63)\n    tag_62:\n      mload(0x40)\n      dup1\n      dup3\n      dup2\n      mstore\n      0x20\n      add\n      swap2\n      pop\n      pop\n      mload(0x40)\n      dup1\n      swap2\n      sub\n      swap1\n      return\n        /* \"src/funding/src/contracts/Funding.sol\":83:108  string public projectName */\n    tag_15:\n      callvalue\n        /* \"--CODEGEN--\":8:17   */\n      dup1\n        /* \"--CODEGEN--\":5:7   */\n      iszero\n      tag_64\n      jumpi\n        /* \"--CODEGEN--\":30:31   */\n      0x0\n        /* \"--CODEGEN--\":27:28   */\n      dup1\n        /* \"--CODEGEN--\":20:32   */\n      revert\n        /* \"--CODEGEN--\":5:7   */\n    tag_64:\n        /* \"src/funding/src/contracts/Funding.sol\":83:108  string public projectName */\n      pop\n      tag_65\n      jump(tag_66)\n    tag_65:\n      mload(0x40)\n      dup1\n      dup1\n      0x20\n      add\n      dup3\n      dup2\n      sub\n      dup3\n      mstore\n      dup4\n      dup2\n      dup2\n      mload\n      dup2\n      mstore\n      0x20\n      add\n      swap2\n      pop\n      dup1\n      mload\n      swap1\n      0x20\n      add\n      swap1\n      dup1\n      dup4\n      dup4\n        /* \"--CODEGEN--\":23:24   */\n      0x0\n        /* \"--CODEGEN--\":8:108   */\n    tag_67:\n        /* \"--CODEGEN--\":33:36   */\n      dup4\n        /* \"--CODEGEN--\":30:31   */\n      dup2\n        /* \"--CODEGEN--\":27:37   */\n      lt\n        /* \"--CODEGEN--\":8:108   */\n      iszero\n      tag_68\n      jumpi\n        /* \"--CODEGEN--\":99:100   */\n      dup1\n        /* \"--CODEGEN--\":94:97   */\n      dup3\n        /* \"--CODEGEN--\":90:101   */\n      add\n        /* \"--CODEGEN--\":84:102   */\n      mload\n        /* \"--CODEGEN--\":80:81   */\n      dup2\n        /* \"--CODEGEN--\":75:78   */\n      dup5\n        /* \"--CODEGEN--\":71:82   */\n      add\n        /* \"--CODEGEN--\":64:103   */\n      mstore\n        /* \"--CODEGEN--\":52:54   */\n      0x20\n        /* \"--CODEGEN--\":49:50   */\n      dup2\n        /* \"--CODEGEN--\":45:55   */\n      add\n        /* \"--CODEGEN--\":40:55   */\n      swap1\n      pop\n        /* \"--CODEGEN--\":8:108   */\n      jump(tag_67)\n    tag_68:\n        /* \"--CODEGEN--\":12:26   */\n      pop\n        /* \"src/funding/src/contracts/Funding.sol\":83:108  string public projectName */\n      pop\n      pop\n      pop\n      swap1\n      pop\n      swap1\n      dup2\n      add\n      swap1\n      0x1f\n      and\n      dup1\n      iszero\n      tag_70\n      jumpi\n      dup1\n      dup3\n      sub\n      dup1\n      mload\n      0x1\n      dup4\n      0x20\n      sub\n      0x100\n      exp\n      sub\n      not\n      and\n      dup2\n      mstore\n      0x20\n      add\n      swap2\n      pop\n    tag_70:\n      pop\n      swap3\n      pop\n      pop\n      pop\n      mload(0x40)\n      dup1\n      swap2\n      sub\n      swap1\n      return\n        /* \"src/funding/src/contracts/Funding.sol\":148:175  uint256 public supportMoney */\n    tag_16:\n      callvalue\n        /* \"--CODEGEN--\":8:17   */\n      dup1\n        /* \"--CODEGEN--\":5:7   */\n      iszero\n      tag_71\n      jumpi\n        /* \"--CODEGEN--\":30:31   */\n      0x0\n        /* \"--CODEGEN--\":27:28   */\n      dup1\n        /* \"--CODEGEN--\":20:32   */\n      revert\n        /* \"--CODEGEN--\":5:7   */\n    tag_71:\n        /* \"src/funding/src/contracts/Funding.sol\":148:175  uint256 public supportMoney */\n      pop\n      tag_72\n      jump(tag_73)\n    tag_72:\n      mload(0x40)\n      dup1\n      dup3\n      dup2\n      mstore\n      0x20\n      add\n      swap2\n      pop\n      pop\n      mload(0x40)\n      dup1\n      swap2\n      sub\n      swap1\n      return\n        /* \"src/funding/src/contracts/Funding.sol\":2309:3008  function approveRequest(uint256 _requestId) public {\r... */\n    tag_17:\n      callvalue\n        /* \"--CODEGEN--\":8:17   */\n      dup1\n        /* \"--CODEGEN--\":5:7   */\n      iszero\n      tag_74\n      jumpi\n        /* \"--CODEGEN--\":30:31   */\n      0x0\n        /* \"--CODEGEN--\":27:28   */\n      dup1\n        /* \"--CODEGEN--\":20:32   */\n      revert\n        /* \"--CODEGEN--\":5:7   */\n    tag_74:\n        /* \"src/funding/src/contracts/Funding.sol\":2309:3008  function approveRequest(uint256 _requestId) public {\r... */\n      pop\n      tag_75\n      0x4\n      dup1\n      calldatasize\n      sub\n      dup2\n      add\n      swap1\n      dup1\n      dup1\n      calldataload\n      swap1\n      0x20\n      add\n      swap1\n      swap3\n      swap2\n      swap1\n      pop\n      pop\n      pop\n      jump(tag_76)\n    tag_75:\n      stop\n        /* \"src/funding/src/contracts/Funding.sol\":3679:3789  function getRemainTime() public view returns (uint256){\r... */\n    tag_18:\n      callvalue\n        /* \"--CODEGEN--\":8:17   */\n      dup1\n        /* \"--CODEGEN--\":5:7   */\n      iszero\n      tag_77\n      jumpi\n        /* \"--CODEGEN--\":30:31   */\n      0x0\n        /* \"--CODEGEN--\":27:28   */\n      dup1\n        /* \"--CODEGEN--\":20:32   */\n      revert\n        /* \"--CODEGEN--\":5:7   */\n    tag_77:\n        /* \"src/funding/src/contracts/Funding.sol\":3679:3789  function getRemainTime() public view returns (uint256){\r... */\n      pop\n      tag_78\n      jump(tag_79)\n    tag_78:\n      mload(0x40)\n      dup1\n      dup3\n      dup2\n      mstore\n      0x20\n      add\n      swap2\n      pop\n      pop\n      mload(0x40)\n      dup1\n      swap2\n      sub\n      swap1\n      return\n        /* \"src/funding/src/contracts/Funding.sol\":3037:3561  function finalizeRequest(uint256 _requestId) public  {\r... */\n    tag_21:\n        /* \"src/funding/src/contracts/Funding.sol\":3141:3164  Request storage request */\n      0x0\n        /* \"src/funding/src/contracts/Funding.sol\":3167:3175  requests */\n      0x7\n        /* \"src/funding/src/contracts/Funding.sol\":3176:3186  _requestId */\n      dup3\n        /* \"src/funding/src/contracts/Funding.sol\":3167:3187  requests[_requestId] */\n      dup2\n      sload\n      dup2\n      lt\n      iszero\n      iszero\n      tag_81\n      jumpi\n      invalid\n    tag_81:\n      swap1\n      0x0\n      mstore\n      keccak256(0x0, 0x20)\n      swap1\n      0x6\n      mul\n      add\n        /* \"src/funding/src/contracts/Funding.sol\":3141:3187  Request storage request = requests[_requestId] */\n      swap1\n      pop\n        /* \"src/funding/src/contracts/Funding.sol\":3277:3284  request */\n      dup1\n        /* \"src/funding/src/contracts/Funding.sol\":3277:3289  request.cost */\n      0x1\n      add\n      sload\n        /* \"src/funding/src/contracts/Funding.sol\":3260:3264  this */\n      address\n        /* \"src/funding/src/contracts/Funding.sol\":3252:3273  address(this).balance */\n      0xffffffffffffffffffffffffffffffffffffffff\n      and\n      balance\n        /* \"src/funding/src/contracts/Funding.sol\":3252:3289  address(this).balance >= request.cost */\n      lt\n      iszero\n        /* \"src/funding/src/contracts/Funding.sol\":3244:3290  require(address(this).balance >= request.cost) */\n      iszero\n      iszero\n      tag_83\n      jumpi\n      0x0\n      dup1\n      revert\n    tag_83:\n        /* \"src/funding/src/contracts/Funding.sol\":3386:3387  2 */\n      0x2\n        /* \"src/funding/src/contracts/Funding.sol\":3366:3376  supporters */\n      0x5\n        /* \"src/funding/src/contracts/Funding.sol\":3366:3383  supporters.length */\n      dup1\n      sload\n      swap1\n      pop\n        /* \"src/funding/src/contracts/Funding.sol\":3366:3387  supporters.length / 2 */\n      dup2\n      iszero\n      iszero\n      tag_84\n      jumpi\n      invalid\n    tag_84:\n      div\n        /* \"src/funding/src/contracts/Funding.sol\":3346:3353  request */\n      dup2\n        /* \"src/funding/src/contracts/Funding.sol\":3346:3363  request.voteCount */\n      0x3\n      add\n      sload\n        /* \"src/funding/src/contracts/Funding.sol\":3346:3387  request.voteCount > supporters.length / 2 */\n      gt\n        /* \"src/funding/src/contracts/Funding.sol\":3338:3388  require(request.voteCount > supporters.length / 2) */\n      iszero\n      iszero\n      tag_85\n      jumpi\n      0x0\n      dup1\n      revert\n    tag_85:\n        /* \"src/funding/src/contracts/Funding.sol\":3433:3440  request */\n      dup1\n        /* \"src/funding/src/contracts/Funding.sol\":3433:3452  request.shopAddress */\n      0x2\n      add\n      0x0\n      swap1\n      sload\n      swap1\n      0x100\n      exp\n      swap1\n      div\n      0xffffffffffffffffffffffffffffffffffffffff\n      and\n        /* \"src/funding/src/contracts/Funding.sol\":3433:3461  request.shopAddress.transfer */\n      0xffffffffffffffffffffffffffffffffffffffff\n      and\n        /* \"src/funding/src/contracts/Funding.sol\":3433:3475  request.shopAddress.transfer(request.cost) */\n      0x8fc\n        /* \"src/funding/src/contracts/Funding.sol\":3462:3469  request */\n      dup3\n        /* \"src/funding/src/contracts/Funding.sol\":3462:3474  request.cost */\n      0x1\n      add\n      sload\n        /* \"src/funding/src/contracts/Funding.sol\":3433:3475  request.shopAddress.transfer(request.cost) */\n      swap1\n      dup2\n      iszero\n      mul\n      swap1\n      mload(0x40)\n      0x0\n      mload(0x40)\n      dup1\n      dup4\n      sub\n      dup2\n      dup6\n      dup9\n      dup9\n      call\n      swap4\n      pop\n      pop\n      pop\n      pop\n      iszero\n        /* \"--CODEGEN--\":8:17   */\n      dup1\n        /* \"--CODEGEN--\":5:7   */\n      iszero\n      tag_86\n      jumpi\n        /* \"--CODEGEN--\":45:61   */\n      returndatasize\n        /* \"--CODEGEN--\":42:43   */\n      0x0\n        /* \"--CODEGEN--\":39:40   */\n      dup1\n        /* \"--CODEGEN--\":24:62   */\n      returndatacopy\n        /* \"--CODEGEN--\":77:93   */\n      returndatasize\n        /* \"--CODEGEN--\":74:75   */\n      0x0\n        /* \"--CODEGEN--\":67:94   */\n      revert\n        /* \"--CODEGEN--\":5:7   */\n    tag_86:\n        /* \"src/funding/src/contracts/Funding.sol\":3433:3475  request.shopAddress.transfer(request.cost) */\n      pop\n        /* \"src/funding/src/contracts/Funding.sol\":3528:3551  RequestStatus.Completed */\n      0x2\n        /* \"src/funding/src/contracts/Funding.sol\":3511:3518  request */\n      dup2\n        /* \"src/funding/src/contracts/Funding.sol\":3511:3525  request.status */\n      0x5\n      add\n      0x0\n        /* \"src/funding/src/contracts/Funding.sol\":3511:3551  request.status = RequestStatus.Completed */\n      0x100\n      exp\n      dup2\n      sload\n      dup2\n      0xff\n      mul\n      not\n      and\n      swap1\n      dup4\n      0x3\n      dup2\n      gt\n      iszero\n      tag_87\n      jumpi\n      invalid\n    tag_87:\n      mul\n      or\n      swap1\n      sstore\n      pop\n        /* \"src/funding/src/contracts/Funding.sol\":3037:3561  function finalizeRequest(uint256 _requestId) public  {\r... */\n      pop\n      pop\n      jump\t// out\n        /* \"src/funding/src/contracts/Funding.sol\":754:944  function support() payable public {\r... */\n    tag_23:\n        /* \"src/funding/src/contracts/Funding.sol\":820:832  supportMoney */\n      sload(0x3)\n        /* \"src/funding/src/contracts/Funding.sol\":807:816  msg.value */\n      callvalue\n        /* \"src/funding/src/contracts/Funding.sol\":807:832  msg.value == supportMoney */\n      eq\n        /* \"src/funding/src/contracts/Funding.sol\":799:855  require(msg.value == supportMoney, \"投资金额错误\") */\n      iszero\n      iszero\n      tag_89\n      jumpi\n      mload(0x40)\n      0x8c379a000000000000000000000000000000000000000000000000000000000\n      dup2\n      mstore\n      0x4\n      add\n      dup1\n      dup1\n      0x20\n      add\n      dup3\n      dup2\n      sub\n      dup3\n      mstore\n      0x12\n      dup2\n      mstore\n      0x20\n      add\n      dup1\n      0xe68a95e8b584e98791e9a29de99499e8afaf0000000000000000000000000000\n      dup2\n      mstore\n      pop\n      0x20\n      add\n      swap2\n      pop\n      pop\n      mload(0x40)\n      dup1\n      swap2\n      sub\n      swap1\n      revert\n    tag_89:\n        /* \"src/funding/src/contracts/Funding.sol\":866:876  supporters */\n      0x5\n        /* \"src/funding/src/contracts/Funding.sol\":882:892  msg.sender */\n      caller\n        /* \"src/funding/src/contracts/Funding.sol\":866:893  supporters.push(msg.sender) */\n      swap1\n      dup1\n        /* \"--CODEGEN--\":39:40   */\n      0x1\n        /* \"--CODEGEN--\":33:36   */\n      dup2\n        /* \"--CODEGEN--\":27:37   */\n      sload\n        /* \"--CODEGEN--\":23:41   */\n      add\n        /* \"--CODEGEN--\":57:67   */\n      dup1\n        /* \"--CODEGEN--\":52:55   */\n      dup3\n        /* \"--CODEGEN--\":45:68   */\n      sstore\n        /* \"--CODEGEN--\":79:89   */\n      dup1\n        /* \"--CODEGEN--\":72:89   */\n      swap2\n      pop\n        /* \"--CODEGEN--\":0:93   */\n      pop\n        /* \"src/funding/src/contracts/Funding.sol\":866:893  supporters.push(msg.sender) */\n      swap1\n      0x1\n      dup3\n      sub\n      swap1\n      0x0\n      mstore\n      keccak256(0x0, 0x20)\n      add\n      0x0\n      swap1\n      swap2\n      swap3\n      swap1\n      swap2\n      swap1\n      swap2\n      0x100\n      exp\n      dup2\n      sload\n      dup2\n      0xffffffffffffffffffffffffffffffffffffffff\n      mul\n      not\n      and\n      swap1\n      dup4\n      0xffffffffffffffffffffffffffffffffffffffff\n      and\n      mul\n      or\n      swap1\n      sstore\n      pop\n      pop\n        /* \"src/funding/src/contracts/Funding.sol\":932:936  true */\n      0x1\n        /* \"src/funding/src/contracts/Funding.sol\":904:917  supportersMap */\n      0x6\n        /* \"src/funding/src/contracts/Funding.sol\":904:929  supportersMap[msg.sender] */\n      0x0\n        /* \"src/funding/src/contracts/Funding.sol\":918:928  msg.sender */\n      caller\n        /* \"src/funding/src/contracts/Funding.sol\":904:929  supportersMap[msg.sender] */\n      0xffffffffffffffffffffffffffffffffffffffff\n      and\n      0xffffffffffffffffffffffffffffffffffffffff\n      and\n      dup2\n      mstore\n      0x20\n      add\n      swap1\n      dup2\n      mstore\n      0x20\n      add\n      0x0\n      keccak256\n      0x0\n        /* \"src/funding/src/contracts/Funding.sol\":904:936  supportersMap[msg.sender] = true */\n      0x100\n      exp\n      dup2\n      sload\n      dup2\n      0xff\n      mul\n      not\n      and\n      swap1\n      dup4\n      iszero\n      iszero\n      mul\n      or\n      swap1\n      sstore\n      pop\n        /* \"src/funding/src/contracts/Funding.sol\":754:944  function support() payable public {\r... */\n      jump\t// out\n        /* \"src/funding/src/contracts/Funding.sol\":1162:1260  function getBalance() public view returns (uint256){\r... */\n    tag_26:\n        /* \"src/funding/src/contracts/Funding.sol\":1205:1212  uint256 */\n      0x0\n        /* \"src/funding/src/contracts/Funding.sol\":1239:1243  this */\n      address\n        /* \"src/funding/src/contracts/Funding.sol\":1231:1252  address(this).balance */\n      0xffffffffffffffffffffffffffffffffffffffff\n      and\n      balance\n        /* \"src/funding/src/contracts/Funding.sol\":1224:1252  return address(this).balance */\n      swap1\n      pop\n        /* \"src/funding/src/contracts/Funding.sol\":1162:1260  function getBalance() public view returns (uint256){\r... */\n      swap1\n      jump\t// out\n        /* \"src/funding/src/contracts/Funding.sol\":182:204  uint256 public endTime */\n    tag_29:\n      sload(0x4)\n      dup2\n      jump\t// out\n        /* \"src/funding/src/contracts/Funding.sol\":3797:3895  function getRequestsCount() public view returns (uint256){\r... */\n    tag_32:\n        /* \"src/funding/src/contracts/Funding.sol\":3846:3853  uint256 */\n      0x0\n        /* \"src/funding/src/contracts/Funding.sol\":3872:3880  requests */\n      0x7\n        /* \"src/funding/src/contracts/Funding.sol\":3872:3887  requests.length */\n      dup1\n      sload\n      swap1\n      pop\n        /* \"src/funding/src/contracts/Funding.sol\":3865:3887  return requests.length */\n      swap1\n      pop\n        /* \"src/funding/src/contracts/Funding.sol\":3797:3895  function getRequestsCount() public view returns (uint256){\r... */\n      swap1\n      jump\t// out\n        /* \"src/funding/src/contracts/Funding.sol\":237:264  address[] public supporters */\n    tag_35:\n      0x5\n      dup2\n      dup2\n      sload\n      dup2\n      lt\n      iszero\n      iszero\n      tag_93\n      jumpi\n      invalid\n    tag_93:\n      swap1\n      0x0\n      mstore\n      keccak256(0x0, 0x20)\n      add\n      0x0\n      swap2\n      pop\n      sload\n      swap1\n      0x100\n      exp\n      swap1\n      div\n      0xffffffffffffffffffffffffffffffffffffffff\n      and\n      dup2\n      jump\t// out\n        /* \"src/funding/src/contracts/Funding.sol\":1268:1360  function getSupporters() public view returns (address[]){\r... */\n    tag_38:\n        /* \"src/funding/src/contracts/Funding.sol\":1314:1323  address[] */\n      0x60\n        /* \"src/funding/src/contracts/Funding.sol\":1342:1352  supporters */\n      0x5\n        /* \"src/funding/src/contracts/Funding.sol\":1335:1352  return supporters */\n      dup1\n      sload\n      dup1\n      0x20\n      mul\n      0x20\n      add\n      mload(0x40)\n      swap1\n      dup2\n      add\n      0x40\n      mstore\n      dup1\n      swap3\n      swap2\n      swap1\n      dup2\n      dup2\n      mstore\n      0x20\n      add\n      dup3\n      dup1\n      sload\n      dup1\n      iszero\n      tag_96\n      jumpi\n      0x20\n      mul\n      dup3\n      add\n      swap2\n      swap1\n      0x0\n      mstore\n      keccak256(0x0, 0x20)\n      swap1\n    tag_97:\n      dup2\n      0x0\n      swap1\n      sload\n      swap1\n      0x100\n      exp\n      swap1\n      div\n      0xffffffffffffffffffffffffffffffffffffffff\n      and\n      0xffffffffffffffffffffffffffffffffffffffff\n      and\n      dup2\n      mstore\n      0x20\n      add\n      swap1\n      0x1\n      add\n      swap1\n      dup1\n      dup4\n      gt\n      tag_97\n      jumpi\n    tag_96:\n      pop\n      pop\n      pop\n      pop\n      pop\n      swap1\n      pop\n        /* \"src/funding/src/contracts/Funding.sol\":1268:1360  function getSupporters() public view returns (address[]){\r... */\n      swap1\n      jump\t// out\n        /* \"src/funding/src/contracts/Funding.sol\":54:76  address public manager */\n    tag_44:\n      0x0\n      dup1\n      swap1\n      sload\n      swap1\n      0x100\n      exp\n      swap1\n      div\n      0xffffffffffffffffffffffffffffffffffffffff\n      and\n      dup2\n      jump\t// out\n        /* \"src/funding/src/contracts/Funding.sol\":970:1154  function refund() public {\r... */\n    tag_47:\n        /* \"src/funding/src/contracts/Funding.sol\":1011:1020  uint256 i */\n      0x0\n        /* \"src/funding/src/contracts/Funding.sol\":1023:1024  0 */\n      dup1\n        /* \"src/funding/src/contracts/Funding.sol\":1011:1024  uint256 i = 0 */\n      swap1\n      pop\n        /* \"src/funding/src/contracts/Funding.sol\":1006:1117  for (uint256 i = 0; i < supporters.length; i++) {\r... */\n    tag_99:\n        /* \"src/funding/src/contracts/Funding.sol\":1030:1040  supporters */\n      0x5\n        /* \"src/funding/src/contracts/Funding.sol\":1030:1047  supporters.length */\n      dup1\n      sload\n      swap1\n      pop\n        /* \"src/funding/src/contracts/Funding.sol\":1026:1027  i */\n      dup2\n        /* \"src/funding/src/contracts/Funding.sol\":1026:1047  i < supporters.length */\n      lt\n        /* \"src/funding/src/contracts/Funding.sol\":1006:1117  for (uint256 i = 0; i < supporters.length; i++) {\r... */\n      iszero\n      tag_100\n      jumpi\n        /* \"src/funding/src/contracts/Funding.sol\":1069:1079  supporters */\n      0x5\n        /* \"src/funding/src/contracts/Funding.sol\":1080:1081  i */\n      dup2\n        /* \"src/funding/src/contracts/Funding.sol\":1069:1082  supporters[i] */\n      dup2\n      sload\n      dup2\n      lt\n      iszero\n      iszero\n      tag_102\n      jumpi\n      invalid\n    tag_102:\n      swap1\n      0x0\n      mstore\n      keccak256(0x0, 0x20)\n      add\n      0x0\n      swap1\n      sload\n      swap1\n      0x100\n      exp\n      swap1\n      div\n      0xffffffffffffffffffffffffffffffffffffffff\n      and\n        /* \"src/funding/src/contracts/Funding.sol\":1069:1091  supporters[i].transfer */\n      0xffffffffffffffffffffffffffffffffffffffff\n      and\n        /* \"src/funding/src/contracts/Funding.sol\":1069:1105  supporters[i].transfer(supportMoney) */\n      0x8fc\n        /* \"src/funding/src/contracts/Funding.sol\":1092:1104  supportMoney */\n      sload(0x3)\n        /* \"src/funding/src/contracts/Funding.sol\":1069:1105  supporters[i].transfer(supportMoney) */\n      swap1\n      dup2\n      iszero\n      mul\n      swap1\n      mload(0x40)\n      0x0\n      mload(0x40)\n      dup1\n      dup4\n      sub\n      dup2\n      dup6\n      dup9\n      dup9\n      call\n      swap4\n      pop\n      pop\n      pop\n      pop\n      iszero\n        /* \"--CODEGEN--\":8:17   */\n      dup1\n        /* \"--CODEGEN--\":5:7   */\n      iszero\n      tag_104\n      jumpi\n        /* \"--CODEGEN--\":45:61   */\n      returndatasize\n        /* \"--CODEGEN--\":42:43   */\n      0x0\n        /* \"--CODEGEN--\":39:40   */\n      dup1\n        /* \"--CODEGEN--\":24:62   */\n      returndatacopy\n        /* \"--CODEGEN--\":77:93   */\n      returndatasize\n        /* \"--CODEGEN--\":74:75   */\n      0x0\n        /* \"--CODEGEN--\":67:94   */\n      revert\n        /* \"--CODEGEN--\":5:7   */\n    tag_104:\n        /* \"src/funding/src/contracts/Funding.sol\":1069:1105  supporters[i].transfer(supportMoney) */\n      pop\n        /* \"src/funding/src/contracts/Funding.sol\":1049:1052  i++ */\n      dup1\n      dup1\n      0x1\n      add\n      swap2\n      pop\n      pop\n        /* \"src/funding/src/contracts/Funding.sol\":1006:1117  for (uint256 i = 0; i < supporters.length; i++) {\r... */\n      jump(tag_99)\n    tag_100:\n        /* \"src/funding/src/contracts/Funding.sol\":1135:1145  supporters */\n      0x5\n      0x0\n        /* \"src/funding/src/contracts/Funding.sol\":1127:1146  delete (supporters) */\n      tag_105\n      swap2\n      swap1\n      jump\t// in(tag_106)\n    tag_105:\n        /* \"src/funding/src/contracts/Funding.sol\":970:1154  function refund() public {\r... */\n      pop\n      jump\t// out\n        /* \"src/funding/src/contracts/Funding.sol\":3569:3671  function getSupportersCount() public view returns (uint256){\r... */\n    tag_50:\n        /* \"src/funding/src/contracts/Funding.sol\":3620:3627  uint256 */\n      0x0\n        /* \"src/funding/src/contracts/Funding.sol\":3646:3656  supporters */\n      0x5\n        /* \"src/funding/src/contracts/Funding.sol\":3646:3663  supporters.length */\n      dup1\n      sload\n      swap1\n      pop\n        /* \"src/funding/src/contracts/Funding.sol\":3639:3663  return supporters.length */\n      swap1\n      pop\n        /* \"src/funding/src/contracts/Funding.sol\":3569:3671  function getSupportersCount() public view returns (uint256){\r... */\n      swap1\n      jump\t// out\n        /* \"src/funding/src/contracts/Funding.sol\":3909:4345  function getRequestDetailByIndex(uint256 _requestId)    public view returns (string, uint256, address, uint256, bool, uint256){\r... */\n    tag_53:\n        /* \"src/funding/src/contracts/Funding.sol\":3986:3992  string */\n      0x60\n        /* \"src/funding/src/contracts/Funding.sol\":3994:4001  uint256 */\n      0x0\n        /* \"src/funding/src/contracts/Funding.sol\":4003:4010  address */\n      dup1\n        /* \"src/funding/src/contracts/Funding.sol\":4012:4019  uint256 */\n      0x0\n        /* \"src/funding/src/contracts/Funding.sol\":4021:4025  bool */\n      dup1\n        /* \"src/funding/src/contracts/Funding.sol\":4027:4034  uint256 */\n      0x0\n        /* \"src/funding/src/contracts/Funding.sol\":4112:4135  Request storage request */\n      dup1\n        /* \"src/funding/src/contracts/Funding.sol\":4169:4181  bool isVoted */\n      0x0\n        /* \"src/funding/src/contracts/Funding.sol\":4067:4075  requests */\n      0x7\n        /* \"src/funding/src/contracts/Funding.sol\":4067:4082  requests.length */\n      dup1\n      sload\n      swap1\n      pop\n        /* \"src/funding/src/contracts/Funding.sol\":4054:4064  _requestId */\n      dup10\n        /* \"src/funding/src/contracts/Funding.sol\":4054:4082  _requestId < requests.length */\n      lt\n        /* \"src/funding/src/contracts/Funding.sol\":4046:4101  require(_requestId < requests.length, \"未知请求id\") */\n      iszero\n      iszero\n      tag_109\n      jumpi\n      mload(0x40)\n      0x8c379a000000000000000000000000000000000000000000000000000000000\n      dup2\n      mstore\n      0x4\n      add\n      dup1\n      dup1\n      0x20\n      add\n      dup3\n      dup2\n      sub\n      dup3\n      mstore\n      0xe\n      dup2\n      mstore\n      0x20\n      add\n      dup1\n      0xe69caae79fa5e8afb7e6b1826964000000000000000000000000000000000000\n      dup2\n      mstore\n      pop\n      0x20\n      add\n      swap2\n      pop\n      pop\n      mload(0x40)\n      dup1\n      swap2\n      sub\n      swap1\n      revert\n    tag_109:\n        /* \"src/funding/src/contracts/Funding.sol\":4138:4146  requests */\n      0x7\n        /* \"src/funding/src/contracts/Funding.sol\":4147:4157  _requestId */\n      dup10\n        /* \"src/funding/src/contracts/Funding.sol\":4138:4158  requests[_requestId] */\n      dup2\n      sload\n      dup2\n      lt\n      iszero\n      iszero\n      tag_110\n      jumpi\n      invalid\n    tag_110:\n      swap1\n      0x0\n      mstore\n      keccak256(0x0, 0x20)\n      swap1\n      0x6\n      mul\n      add\n        /* \"src/funding/src/contracts/Funding.sol\":4112:4158  Request storage request = requests[_requestId] */\n      swap2\n      pop\n        /* \"src/funding/src/contracts/Funding.sol\":4184:4191  request */\n      dup2\n        /* \"src/funding/src/contracts/Funding.sol\":4184:4200  request.votedMap */\n      0x4\n      add\n        /* \"src/funding/src/contracts/Funding.sol\":4184:4212  request.votedMap[msg.sender] */\n      0x0\n        /* \"src/funding/src/contracts/Funding.sol\":4201:4211  msg.sender */\n      caller\n        /* \"src/funding/src/contracts/Funding.sol\":4184:4212  request.votedMap[msg.sender] */\n      0xffffffffffffffffffffffffffffffffffffffff\n      and\n      0xffffffffffffffffffffffffffffffffffffffff\n      and\n      dup2\n      mstore\n      0x20\n      add\n      swap1\n      dup2\n      mstore\n      0x20\n      add\n      0x0\n      keccak256\n      0x0\n      swap1\n      sload\n      swap1\n      0x100\n      exp\n      swap1\n      div\n      0xff\n      and\n        /* \"src/funding/src/contracts/Funding.sol\":4169:4212  bool isVoted = request.votedMap[msg.sender] */\n      swap1\n      pop\n        /* \"src/funding/src/contracts/Funding.sol\":4231:4238  request */\n      dup2\n        /* \"src/funding/src/contracts/Funding.sol\":4231:4246  request.purpose */\n      0x0\n      add\n        /* \"src/funding/src/contracts/Funding.sol\":4248:4255  request */\n      dup3\n        /* \"src/funding/src/contracts/Funding.sol\":4248:4260  request.cost */\n      0x1\n      add\n      sload\n        /* \"src/funding/src/contracts/Funding.sol\":4262:4269  request */\n      dup4\n        /* \"src/funding/src/contracts/Funding.sol\":4262:4281  request.shopAddress */\n      0x2\n      add\n      0x0\n      swap1\n      sload\n      swap1\n      0x100\n      exp\n      swap1\n      div\n      0xffffffffffffffffffffffffffffffffffffffff\n      and\n        /* \"src/funding/src/contracts/Funding.sol\":4283:4290  request */\n      dup5\n        /* \"src/funding/src/contracts/Funding.sol\":4283:4300  request.voteCount */\n      0x3\n      add\n      sload\n        /* \"src/funding/src/contracts/Funding.sol\":4302:4309  isVoted */\n      dup5\n        /* \"src/funding/src/contracts/Funding.sol\":4319:4326  request */\n      dup7\n        /* \"src/funding/src/contracts/Funding.sol\":4319:4333  request.status */\n      0x5\n      add\n      0x0\n      swap1\n      sload\n      swap1\n      0x100\n      exp\n      swap1\n      div\n      0xff\n      and\n        /* \"src/funding/src/contracts/Funding.sol\":4311:4334  uint256(request.status) */\n      0x3\n      dup2\n      gt\n      iszero\n      tag_112\n      jumpi\n      invalid\n    tag_112:\n        /* \"src/funding/src/contracts/Funding.sol\":4223:4335  return (request.purpose, request.cost, request.shopAddress, request.voteCount, isVoted, uint256(request.status)) */\n      dup6\n      dup1\n      sload\n      0x1\n      dup2\n      0x1\n      and\n      iszero\n      0x100\n      mul\n      sub\n      and\n      0x2\n      swap1\n      div\n      dup1\n      0x1f\n      add\n      0x20\n      dup1\n      swap2\n      div\n      mul\n      0x20\n      add\n      mload(0x40)\n      swap1\n      dup2\n      add\n      0x40\n      mstore\n      dup1\n      swap3\n      swap2\n      swap1\n      dup2\n      dup2\n      mstore\n      0x20\n      add\n      dup3\n      dup1\n      sload\n      0x1\n      dup2\n      0x1\n      and\n      iszero\n      0x100\n      mul\n      sub\n      and\n      0x2\n      swap1\n      div\n      dup1\n      iszero\n      tag_113\n      jumpi\n      dup1\n      0x1f\n      lt\n      tag_114\n      jumpi\n      0x100\n      dup1\n      dup4\n      sload\n      div\n      mul\n      dup4\n      mstore\n      swap2\n      0x20\n      add\n      swap2\n      jump(tag_113)\n    tag_114:\n      dup3\n      add\n      swap2\n      swap1\n      0x0\n      mstore\n      keccak256(0x0, 0x20)\n      swap1\n    tag_115:\n      dup2\n      sload\n      dup2\n      mstore\n      swap1\n      0x1\n      add\n      swap1\n      0x20\n      add\n      dup1\n      dup4\n      gt\n      tag_115\n      jumpi\n      dup3\n      swap1\n      sub\n      0x1f\n      and\n      dup3\n      add\n      swap2\n    tag_113:\n      pop\n      pop\n      pop\n      pop\n      pop\n      swap6\n      pop\n      swap8\n      pop\n      swap8\n      pop\n      swap8\n      pop\n      swap8\n      pop\n      swap8\n      pop\n      swap8\n      pop\n        /* \"src/funding/src/contracts/Funding.sol\":3909:4345  function getRequestDetailByIndex(uint256 _requestId)    public view returns (string, uint256, address, uint256, bool, uint256){\r... */\n      pop\n      pop\n      swap2\n      swap4\n      swap6\n      pop\n      swap2\n      swap4\n      swap6\n      jump\t// out\n        /* \"src/funding/src/contracts/Funding.sol\":1854:2280  function createRequest(string _purpose, uint256 _cost, address _shopAddress) public {\r... */\n    tag_60:\n        /* \"src/funding/src/contracts/Funding.sol\":2039:2061  Request memory request */\n      tag_116\n      jump\t// in(tag_117)\n    tag_116:\n        /* \"src/funding/src/contracts/Funding.sol\":1971:1978  manager */\n      0x0\n      dup1\n      swap1\n      sload\n      swap1\n      0x100\n      exp\n      swap1\n      div\n      0xffffffffffffffffffffffffffffffffffffffff\n      and\n        /* \"src/funding/src/contracts/Funding.sol\":1957:1978  msg.sender == manager */\n      0xffffffffffffffffffffffffffffffffffffffff\n      and\n        /* \"src/funding/src/contracts/Funding.sol\":1957:1967  msg.sender */\n      caller\n        /* \"src/funding/src/contracts/Funding.sol\":1957:1978  msg.sender == manager */\n      0xffffffffffffffffffffffffffffffffffffffff\n      and\n      eq\n        /* \"src/funding/src/contracts/Funding.sol\":1949:2028  require(msg.sender == manager, \"只有项目发起人可以发起支付请求\") */\n      iszero\n      iszero\n      tag_119\n      jumpi\n      mload(0x40)\n      0x8c379a000000000000000000000000000000000000000000000000000000000\n      dup2\n      mstore\n      0x4\n      add\n      dup1\n      dup1\n      0x20\n      add\n      dup3\n      dup2\n      sub\n      dup3\n      mstore\n      0x2d\n      dup2\n      mstore\n      0x20\n      add\n      dup1\n      0xe58faae69c89e9a1b9e79baee58f91e8b5b7e4babae58fafe4bba5e58f91e8b5\n      dup2\n      mstore\n      0x20\n      add\n      0xb7e694afe4bb98e8afb7e6b18200000000000000000000000000000000000000\n      dup2\n      mstore\n      pop\n      0x40\n      add\n      swap2\n      pop\n      pop\n      mload(0x40)\n      dup1\n      swap2\n      sub\n      swap1\n      revert\n    tag_119:\n        /* \"src/funding/src/contracts/Funding.sol\":2064:2237  Request({\r... */\n      0xa0\n      mload(0x40)\n      swap1\n      dup2\n      add\n      0x40\n      mstore\n      dup1\n        /* \"src/funding/src/contracts/Funding.sol\":2093:2101  _purpose */\n      dup6\n        /* \"src/funding/src/contracts/Funding.sol\":2064:2237  Request({\r... */\n      dup2\n      mstore\n      0x20\n      add\n        /* \"src/funding/src/contracts/Funding.sol\":2119:2124  _cost */\n      dup5\n        /* \"src/funding/src/contracts/Funding.sol\":2064:2237  Request({\r... */\n      dup2\n      mstore\n      0x20\n      add\n        /* \"src/funding/src/contracts/Funding.sol\":2149:2161  _shopAddress */\n      dup4\n        /* \"src/funding/src/contracts/Funding.sol\":2064:2237  Request({\r... */\n      0xffffffffffffffffffffffffffffffffffffffff\n      and\n      dup2\n      mstore\n      0x20\n      add\n        /* \"src/funding/src/contracts/Funding.sol\":2184:2185  0 */\n      0x0\n        /* \"src/funding/src/contracts/Funding.sol\":2064:2237  Request({\r... */\n      dup2\n      mstore\n      0x20\n      add\n        /* \"src/funding/src/contracts/Funding.sol\":2205:2225  RequestStatus.Voting */\n      0x0\n        /* \"src/funding/src/contracts/Funding.sol\":2064:2237  Request({\r... */\n      0x3\n      dup2\n      gt\n      iszero\n      tag_120\n      jumpi\n      invalid\n    tag_120:\n      dup2\n      mstore\n      pop\n        /* \"src/funding/src/contracts/Funding.sol\":2039:2237  Request memory request = Request({\r... */\n      swap1\n      pop\n        /* \"src/funding/src/contracts/Funding.sol\":2250:2258  requests */\n      0x7\n        /* \"src/funding/src/contracts/Funding.sol\":2264:2271  request */\n      dup2\n        /* \"src/funding/src/contracts/Funding.sol\":2250:2272  requests.push(request) */\n      swap1\n      dup1\n        /* \"--CODEGEN--\":39:40   */\n      0x1\n        /* \"--CODEGEN--\":33:36   */\n      dup2\n        /* \"--CODEGEN--\":27:37   */\n      sload\n        /* \"--CODEGEN--\":23:41   */\n      add\n        /* \"--CODEGEN--\":57:67   */\n      dup1\n        /* \"--CODEGEN--\":52:55   */\n      dup3\n        /* \"--CODEGEN--\":45:68   */\n      sstore\n        /* \"--CODEGEN--\":79:89   */\n      dup1\n        /* \"--CODEGEN--\":72:89   */\n      swap2\n      pop\n        /* \"--CODEGEN--\":0:93   */\n      pop\n        /* \"src/funding/src/contracts/Funding.sol\":2250:2272  requests.push(request) */\n      swap1\n      0x1\n      dup3\n      sub\n      swap1\n      0x0\n      mstore\n      keccak256(0x0, 0x20)\n      swap1\n      0x6\n      mul\n      add\n      0x0\n      swap1\n      swap2\n      swap3\n      swap1\n      swap2\n      swap1\n      swap2\n      pop\n      0x0\n      dup3\n      add\n      mload\n      dup2\n      0x0\n      add\n      swap1\n      dup1\n      mload\n      swap1\n      0x20\n      add\n      swap1\n      tag_122\n      swap3\n      swap2\n      swap1\n      jump\t// in(tag_123)\n    tag_122:\n      pop\n      0x20\n      dup3\n      add\n      mload\n      dup2\n      0x1\n      add\n      sstore\n      0x40\n      dup3\n      add\n      mload\n      dup2\n      0x2\n      add\n      exp(0x100, 0x0)\n      dup2\n      sload\n      dup2\n      0xffffffffffffffffffffffffffffffffffffffff\n      mul\n      not\n      and\n      swap1\n      dup4\n      0xffffffffffffffffffffffffffffffffffffffff\n      and\n      mul\n      or\n      swap1\n      sstore\n      pop\n      0x60\n      dup3\n      add\n      mload\n      dup2\n      0x3\n      add\n      sstore\n      0x80\n      dup3\n      add\n      mload\n      dup2\n      0x5\n      add\n      exp(0x100, 0x0)\n      dup2\n      sload\n      dup2\n      0xff\n      mul\n      not\n      and\n      swap1\n      dup4\n      0x3\n      dup2\n      gt\n      iszero\n      tag_124\n      jumpi\n      invalid\n    tag_124:\n      mul\n      or\n      swap1\n      sstore\n      pop\n      pop\n      pop\n      pop\n        /* \"src/funding/src/contracts/Funding.sol\":1854:2280  function createRequest(string _purpose, uint256 _cost, address _shopAddress) public {\r... */\n      pop\n      pop\n      pop\n      pop\n      jump\t// out\n        /* \"src/funding/src/contracts/Funding.sol\":115:141  uint256 public targetMoney */\n    tag_63:\n      sload(0x2)\n      dup2\n      jump\t// out\n        /* \"src/funding/src/contracts/Funding.sol\":83:108  string public projectName */\n    tag_66:\n      0x1\n      dup1\n      sload\n      0x1\n      dup2\n      0x1\n      and\n      iszero\n      0x100\n      mul\n      sub\n      and\n      0x2\n      swap1\n      div\n      dup1\n      0x1f\n      add\n      0x20\n      dup1\n      swap2\n      div\n      mul\n      0x20\n      add\n      mload(0x40)\n      swap1\n      dup2\n      add\n      0x40\n      mstore\n      dup1\n      swap3\n      swap2\n      swap1\n      dup2\n      dup2\n      mstore\n      0x20\n      add\n      dup3\n      dup1\n      sload\n      0x1\n      dup2\n      0x1\n      and\n      iszero\n      0x100\n      mul\n      sub\n      and\n      0x2\n      swap1\n      div\n      dup1\n      iszero\n      tag_125\n      jumpi\n      dup1\n      0x1f\n      lt\n      tag_126\n      jumpi\n      0x100\n      dup1\n      dup4\n      sload\n      div\n      mul\n      dup4\n      mstore\n      swap2\n      0x20\n      add\n      swap2\n      jump(tag_125)\n    tag_126:\n      dup3\n      add\n      swap2\n      swap1\n      0x0\n      mstore\n      keccak256(0x0, 0x20)\n      swap1\n    tag_127:\n      dup2\n      sload\n      dup2\n      mstore\n      swap1\n      0x1\n      add\n      swap1\n      0x20\n      add\n      dup1\n      dup4\n      gt\n      tag_127\n      jumpi\n      dup3\n      swap1\n      sub\n      0x1f\n      and\n      dup3\n      add\n      swap2\n    tag_125:\n      pop\n      pop\n      pop\n      pop\n      pop\n      dup2\n      jump\t// out\n        /* \"src/funding/src/contracts/Funding.sol\":148:175  uint256 public supportMoney */\n    tag_73:\n      sload(0x3)\n      dup2\n      jump\t// out\n        /* \"src/funding/src/contracts/Funding.sol\":2309:3008  function approveRequest(uint256 _requestId) public {\r... */\n    tag_76:\n        /* \"src/funding/src/contracts/Funding.sol\":2411:2434  Request storage request */\n      0x0\n        /* \"src/funding/src/contracts/Funding.sol\":2437:2445  requests */\n      0x7\n        /* \"src/funding/src/contracts/Funding.sol\":2446:2456  _requestId */\n      dup3\n        /* \"src/funding/src/contracts/Funding.sol\":2437:2457  requests[_requestId] */\n      dup2\n      sload\n      dup2\n      lt\n      iszero\n      iszero\n      tag_129\n      jumpi\n      invalid\n    tag_129:\n      swap1\n      0x0\n      mstore\n      keccak256(0x0, 0x20)\n      swap1\n      0x6\n      mul\n      add\n        /* \"src/funding/src/contracts/Funding.sol\":2411:2457  Request storage request = requests[_requestId] */\n      swap1\n      pop\n        /* \"src/funding/src/contracts/Funding.sol\":2513:2526  supportersMap */\n      0x6\n        /* \"src/funding/src/contracts/Funding.sol\":2513:2538  supportersMap[msg.sender] */\n      0x0\n        /* \"src/funding/src/contracts/Funding.sol\":2527:2537  msg.sender */\n      caller\n        /* \"src/funding/src/contracts/Funding.sol\":2513:2538  supportersMap[msg.sender] */\n      0xffffffffffffffffffffffffffffffffffffffff\n      and\n      0xffffffffffffffffffffffffffffffffffffffff\n      and\n      dup2\n      mstore\n      0x20\n      add\n      swap1\n      dup2\n      mstore\n      0x20\n      add\n      0x0\n      keccak256\n      0x0\n      swap1\n      sload\n      swap1\n      0x100\n      exp\n      swap1\n      div\n      0xff\n      and\n        /* \"src/funding/src/contracts/Funding.sol\":2505:2570  require(supportersMap[msg.sender], \"只有投资人有投票权\") */\n      iszero\n      iszero\n      tag_131\n      jumpi\n      mload(0x40)\n      0x8c379a000000000000000000000000000000000000000000000000000000000\n      dup2\n      mstore\n      0x4\n      add\n      dup1\n      dup1\n      0x20\n      add\n      dup3\n      dup2\n      sub\n      dup3\n      mstore\n      0x1b\n      dup2\n      mstore\n      0x20\n      add\n      dup1\n      0xe58faae69c89e68a95e8b584e4babae69c89e68a95e7a5a8e69d830000000000\n      dup2\n      mstore\n      pop\n      0x20\n      add\n      swap2\n      pop\n      pop\n      mload(0x40)\n      dup1\n      swap2\n      sub\n      swap1\n      revert\n    tag_131:\n        /* \"src/funding/src/contracts/Funding.sol\":2664:2669  false */\n      0x0\n        /* \"src/funding/src/contracts/Funding.sol\":2632:2669  request.votedMap[msg.sender] == false */\n      iszero\n      iszero\n        /* \"src/funding/src/contracts/Funding.sol\":2632:2639  request */\n      dup2\n        /* \"src/funding/src/contracts/Funding.sol\":2632:2648  request.votedMap */\n      0x4\n      add\n        /* \"src/funding/src/contracts/Funding.sol\":2632:2660  request.votedMap[msg.sender] */\n      0x0\n        /* \"src/funding/src/contracts/Funding.sol\":2649:2659  msg.sender */\n      caller\n        /* \"src/funding/src/contracts/Funding.sol\":2632:2660  request.votedMap[msg.sender] */\n      0xffffffffffffffffffffffffffffffffffffffff\n      and\n      0xffffffffffffffffffffffffffffffffffffffff\n      and\n      dup2\n      mstore\n      0x20\n      add\n      swap1\n      dup2\n      mstore\n      0x20\n      add\n      0x0\n      keccak256\n      0x0\n      swap1\n      sload\n      swap1\n      0x100\n      exp\n      swap1\n      div\n      0xff\n      and\n        /* \"src/funding/src/contracts/Funding.sol\":2632:2669  request.votedMap[msg.sender] == false */\n      iszero\n      iszero\n      eq\n        /* \"src/funding/src/contracts/Funding.sol\":2624:2692  require(request.votedMap[msg.sender] == false, \"已经投过票了\") */\n      iszero\n      iszero\n      tag_132\n      jumpi\n      mload(0x40)\n      0x8c379a000000000000000000000000000000000000000000000000000000000\n      dup2\n      mstore\n      0x4\n      add\n      dup1\n      dup1\n      0x20\n      add\n      dup3\n      dup2\n      sub\n      dup3\n      mstore\n      0x12\n      dup2\n      mstore\n      0x20\n      add\n      dup1\n      0xe5b7b2e7bb8fe68a95e8bf87e7a5a8e4ba860000000000000000000000000000\n      dup2\n      mstore\n      pop\n      0x20\n      add\n      swap2\n      pop\n      pop\n      mload(0x40)\n      dup1\n      swap2\n      sub\n      swap1\n      revert\n    tag_132:\n        /* \"src/funding/src/contracts/Funding.sol\":2776:2780  true */\n      0x1\n        /* \"src/funding/src/contracts/Funding.sol\":2745:2752  request */\n      dup2\n        /* \"src/funding/src/contracts/Funding.sol\":2745:2761  request.votedMap */\n      0x4\n      add\n        /* \"src/funding/src/contracts/Funding.sol\":2745:2773  request.votedMap[msg.sender] */\n      0x0\n        /* \"src/funding/src/contracts/Funding.sol\":2762:2772  msg.sender */\n      caller\n        /* \"src/funding/src/contracts/Funding.sol\":2745:2773  request.votedMap[msg.sender] */\n      0xffffffffffffffffffffffffffffffffffffffff\n      and\n      0xffffffffffffffffffffffffffffffffffffffff\n      and\n      dup2\n      mstore\n      0x20\n      add\n      swap1\n      dup2\n      mstore\n      0x20\n      add\n      0x0\n      keccak256\n      0x0\n        /* \"src/funding/src/contracts/Funding.sol\":2745:2780  request.votedMap[msg.sender] = true */\n      0x100\n      exp\n      dup2\n      sload\n      dup2\n      0xff\n      mul\n      not\n      and\n      swap1\n      dup4\n      iszero\n      iszero\n      mul\n      or\n      swap1\n      sstore\n      pop\n        /* \"src/funding/src/contracts/Funding.sol\":2791:2798  request */\n      dup1\n        /* \"src/funding/src/contracts/Funding.sol\":2791:2808  request.voteCount */\n      0x3\n      add\n      0x0\n        /* \"src/funding/src/contracts/Funding.sol\":2791:2810  request.voteCount++ */\n      dup2\n      sload\n      dup1\n      swap3\n      swap2\n      swap1\n      0x1\n      add\n      swap2\n      swap1\n      pop\n      sstore\n      pop\n        /* \"src/funding/src/contracts/Funding.sol\":2928:2929  2 */\n      0x2\n        /* \"src/funding/src/contracts/Funding.sol\":2908:2918  supporters */\n      0x5\n        /* \"src/funding/src/contracts/Funding.sol\":2908:2925  supporters.length */\n      dup1\n      sload\n      swap1\n      pop\n        /* \"src/funding/src/contracts/Funding.sol\":2908:2929  supporters.length / 2 */\n      dup2\n      iszero\n      iszero\n      tag_133\n      jumpi\n      invalid\n    tag_133:\n      div\n        /* \"src/funding/src/contracts/Funding.sol\":2888:2895  request */\n      dup2\n        /* \"src/funding/src/contracts/Funding.sol\":2888:2905  request.voteCount */\n      0x3\n      add\n      sload\n        /* \"src/funding/src/contracts/Funding.sol\":2888:2929  request.voteCount > supporters.length / 2 */\n      gt\n        /* \"src/funding/src/contracts/Funding.sol\":2884:2997  if (request.voteCount > supporters.length / 2) {\r... */\n      iszero\n      tag_134\n      jumpi\n        /* \"src/funding/src/contracts/Funding.sol\":2963:2985  RequestStatus.Approved */\n      0x1\n        /* \"src/funding/src/contracts/Funding.sol\":2946:2953  request */\n      dup2\n        /* \"src/funding/src/contracts/Funding.sol\":2946:2960  request.status */\n      0x5\n      add\n      0x0\n        /* \"src/funding/src/contracts/Funding.sol\":2946:2985  request.status = RequestStatus.Approved */\n      0x100\n      exp\n      dup2\n      sload\n      dup2\n      0xff\n      mul\n      not\n      and\n      swap1\n      dup4\n      0x3\n      dup2\n      gt\n      iszero\n      tag_135\n      jumpi\n      invalid\n    tag_135:\n      mul\n      or\n      swap1\n      sstore\n      pop\n        /* \"src/funding/src/contracts/Funding.sol\":2884:2997  if (request.voteCount > supporters.length / 2) {\r... */\n    tag_134:\n        /* \"src/funding/src/contracts/Funding.sol\":2309:3008  function approveRequest(uint256 _requestId) public {\r... */\n      pop\n      pop\n      jump\t// out\n        /* \"src/funding/src/contracts/Funding.sol\":3679:3789  function getRemainTime() public view returns (uint256){\r... */\n    tag_79:\n        /* \"src/funding/src/contracts/Funding.sol\":3725:3732  uint256 */\n      0x0\n        /* \"src/funding/src/contracts/Funding.sol\":3779:3781  24 */\n      0x18\n        /* \"src/funding/src/contracts/Funding.sol\":3774:3776  60 */\n      0x3c\n        /* \"src/funding/src/contracts/Funding.sol\":3769:3771  60 */\n      dup1\n        /* \"src/funding/src/contracts/Funding.sol\":3762:3765  now */\n      timestamp\n        /* \"src/funding/src/contracts/Funding.sol\":3752:3759  endTime */\n      sload(0x4)\n        /* \"src/funding/src/contracts/Funding.sol\":3752:3765  endTime - now */\n      sub\n        /* \"src/funding/src/contracts/Funding.sol\":3751:3771  (endTime - now) / 60 */\n      dup2\n      iszero\n      iszero\n      tag_137\n      jumpi\n      invalid\n    tag_137:\n      div\n        /* \"src/funding/src/contracts/Funding.sol\":3751:3776  (endTime - now) / 60 / 60 */\n      dup2\n      iszero\n      iszero\n      tag_138\n      jumpi\n      invalid\n    tag_138:\n      div\n        /* \"src/funding/src/contracts/Funding.sol\":3751:3781  (endTime - now) / 60 / 60 / 24 */\n      dup2\n      iszero\n      iszero\n      tag_139\n      jumpi\n      invalid\n    tag_139:\n      div\n        /* \"src/funding/src/contracts/Funding.sol\":3744:3781  return (endTime - now) / 60 / 60 / 24 */\n      swap1\n      pop\n        /* \"src/funding/src/contracts/Funding.sol\":3679:3789  function getRemainTime() public view returns (uint256){\r... */\n      swap1\n      jump\t// out\n        /* \"src/funding/src/contracts/Funding.sol\":28:4352  contract Funding {\r... */\n    tag_106:\n      pop\n      dup1\n      sload\n      0x0\n      dup3\n      sstore\n      swap1\n      0x0\n      mstore\n      keccak256(0x0, 0x20)\n      swap1\n      dup2\n      add\n      swap1\n      tag_141\n      swap2\n      swap1\n      jump\t// in(tag_142)\n    tag_141:\n      pop\n      jump\t// out\n    tag_117:\n      0xa0\n      mload(0x40)\n      swap1\n      dup2\n      add\n      0x40\n      mstore\n      dup1\n      0x60\n      dup2\n      mstore\n      0x20\n      add\n      0x0\n      dup2\n      mstore\n      0x20\n      add\n      and(0xffffffffffffffffffffffffffffffffffffffff, 0x0)\n      dup2\n      mstore\n      0x20\n      add\n      0x0\n      dup2\n      mstore\n      0x20\n      add\n      0x0\n      0x3\n      dup2\n      gt\n      iszero\n      tag_143\n      jumpi\n      invalid\n    tag_143:\n      dup2\n      mstore\n      pop\n      swap1\n      jump\t// out\n    tag_123:\n      dup3\n      dup1\n      sload\n      0x1\n      dup2\n      0x1\n      and\n      iszero\n      0x100\n      mul\n      sub\n      and\n      0x2\n      swap1\n      div\n      swap1\n      0x0\n      mstore\n      keccak256(0x0, 0x20)\n      swap1\n      0x1f\n      add\n      0x20\n      swap1\n      div\n      dup2\n      add\n      swap3\n      dup3\n      0x1f\n      lt\n      tag_145\n      jumpi\n      dup1\n      mload\n      not(0xff)\n      and\n      dup4\n      dup1\n      add\n      or\n      dup6\n      sstore\n      jump(tag_144)\n    tag_145:\n      dup3\n      dup1\n      add\n      0x1\n      add\n      dup6\n      sstore\n      dup3\n      iszero\n      tag_144\n      jumpi\n      swap2\n      dup3\n      add\n    tag_146:\n      dup3\n      dup2\n      gt\n      iszero\n      tag_147\n      jumpi\n      dup3\n      mload\n      dup3\n      sstore\n      swap2\n      0x20\n      add\n      swap2\n      swap1\n      0x1\n      add\n      swap1\n      jump(tag_146)\n    tag_147:\n    tag_144:\n      pop\n      swap1\n      pop\n      tag_148\n      swap2\n      swap1\n      jump\t// in(tag_142)\n    tag_148:\n      pop\n      swap1\n      jump\t// out\n    tag_142:\n      tag_149\n      swap2\n      swap1\n    tag_150:\n      dup1\n      dup3\n      gt\n      iszero\n      tag_151\n      jumpi\n      0x0\n      dup2\n      0x0\n      swap1\n      sstore\n      pop\n      0x1\n      add\n      jump(tag_150)\n    tag_151:\n      pop\n      swap1\n      jump\n    tag_149:\n      swap1\n      jump\t// out\n\n    auxdata: 0xa165627a7a723058207174512dd0f3093ff36eb64557ea51380a79d4136adfc1219afa8b57723e93d60029\n}\n",
				"bytecode": {
					"linkReferences": {},
					"object": "60806040523480156200001157600080fd5b506040516200142f3803806200142f83398101806040528101908080518201929190602001805190602001909291908051906020019092919080519060200190929190505050336000806101000a81548173ffffffffffffffffffffffffffffffffffffffff021916908373ffffffffffffffffffffffffffffffffffffffff1602179055508360019080519060200190620000af929190620000d1565b5082600281905550816003819055508042016004819055505050505062000180565b828054600181600116156101000203166002900490600052602060002090601f016020900481019282601f106200011457805160ff191683800117855562000145565b8280016001018555821562000145579182015b828111156200014457825182559160200191906001019062000127565b5b50905062000154919062000158565b5090565b6200017d91905b80821115620001795760008160009055506001016200015f565b5090565b90565b61129f80620001906000396000f3006080604052600436106100f1576000357c0100000000000000000000000000000000000000000000000000000000900463ffffffff16806303441006146100f6578063119f87471461012357806312065fe01461012d5780633197cbb6146101585780633410452a146101835780633c24b7d7146101ae57806343020b1a1461021b578063481c6a7514610287578063590e1ae3146102de57806363b393d8146102f557806369efb694146103205780638a9cfd55146104195780638d7cdb91146104ac5780639a33e300146104d7578063a5d5c5dc14610567578063d7d1bbdb14610592578063fc2615d5146105bf575b600080fd5b34801561010257600080fd5b50610121600480360381019080803590602001909291905050506105ea565b005b61012b6106f1565b005b34801561013957600080fd5b5061014261082a565b6040518082815260200191505060405180910390f35b34801561016457600080fd5b5061016d610849565b6040518082815260200191505060405180910390f35b34801561018f57600080fd5b5061019861084f565b6040518082815260200191505060405180910390f35b3480156101ba57600080fd5b506101d96004803603810190808035906020019092919050505061085c565b604051808273ffffffffffffffffffffffffffffffffffffffff1673ffffffffffffffffffffffffffffffffffffffff16815260200191505060405180910390f35b34801561022757600080fd5b5061023061089a565b6040518080602001828103825283818151815260200191508051906020019060200280838360005b83811015610273578082015181840152602081019050610258565b505050509050019250505060405180910390f35b34801561029357600080fd5b5061029c610928565b604051808273ffffffffffffffffffffffffffffffffffffffff1673ffffffffffffffffffffffffffffffffffffffff16815260200191505060405180910390f35b3480156102ea57600080fd5b506102f361094d565b005b34801561030157600080fd5b5061030a610a00565b6040518082815260200191505060405180910390f35b34801561032c57600080fd5b5061034b60048036038101908080359060200190929190505050610a0d565b60405180806020018781526020018673ffffffffffffffffffffffffffffffffffffffff1673ffffffffffffffffffffffffffffffffffffffff16815260200185815260200184151515158152602001838152602001828103825288818151815260200191508051906020019080838360005b838110156103d95780820151818401526020810190506103be565b50505050905090810190601f1680156104065780820380516001836020036101000a031916815260200191505b5097505050505050505060405180910390f35b34801561042557600080fd5b506104aa600480360381019080803590602001908201803590602001908080601f016020809104026020016040519081016040528093929190818152602001838380828437820191505050505050919291929080359060200190929190803573ffffffffffffffffffffffffffffffffffffffff169060200190929190505050610c0a565b005b3480156104b857600080fd5b506104c1610e21565b6040518082815260200191505060405180910390f35b3480156104e357600080fd5b506104ec610e27565b6040518080602001828103825283818151815260200191508051906020019080838360005b8381101561052c578082015181840152602081019050610511565b50505050905090810190601f1680156105595780820380516001836020036101000a031916815260200191505b509250505060405180910390f35b34801561057357600080fd5b5061057c610ec5565b6040518082815260200191505060405180910390f35b34801561059e57600080fd5b506105bd60048036038101908080359060200190929190505050610ecb565b005b3480156105cb57600080fd5b506105d461112d565b6040518082815260200191505060405180910390f35b60006007828154811015156105fb57fe5b9060005260206000209060060201905080600101543073ffffffffffffffffffffffffffffffffffffffff16311015151561063557600080fd5b600260058054905081151561064657fe5b04816003015411151561065857600080fd5b8060020160009054906101000a900473ffffffffffffffffffffffffffffffffffffffff1673ffffffffffffffffffffffffffffffffffffffff166108fc82600101549081150290604051600060405180830381858888f193505050501580156106c6573d6000803e3d6000fd5b5060028160050160006101000a81548160ff021916908360038111156106e857fe5b02179055505050565b6003543414151561076a576040517f08c379a00000000000000000000000000000000000000000000000000000000081526004018080602001828103825260128152602001807fe68a95e8b584e98791e9a29de99499e8afaf000000000000000000000000000081525060200191505060405180910390fd5b60053390806001815401808255809150509060018203906000526020600020016000909192909190916101000a81548173ffffffffffffffffffffffffffffffffffffffff021916908373ffffffffffffffffffffffffffffffffffffffff160217905550506001600660003373ffffffffffffffffffffffffffffffffffffffff1673ffffffffffffffffffffffffffffffffffffffff16815260200190815260200160002060006101000a81548160ff021916908315150217905550565b60003073ffffffffffffffffffffffffffffffffffffffff1631905090565b60045481565b6000600780549050905090565b60058181548110151561086b57fe5b906000526020600020016000915054906101000a900473ffffffffffffffffffffffffffffffffffffffff1681565b6060600580548060200260200160405190810160405280929190818152602001828054801561091e57602002820191906000526020600020905b8160009054906101000a900473ffffffffffffffffffffffffffffffffffffffff1673ffffffffffffffffffffffffffffffffffffffff16815260200190600101908083116108d4575b5050505050905090565b6000809054906101000a900473ffffffffffffffffffffffffffffffffffffffff1681565b60008090505b6005805490508110156109ef5760058181548110151561096f57fe5b9060005260206000200160009054906101000a900473ffffffffffffffffffffffffffffffffffffffff1673ffffffffffffffffffffffffffffffffffffffff166108fc6003549081150290604051600060405180830381858888f193505050501580156109e1573d6000803e3d6000fd5b508080600101915050610953565b600560006109fd919061115c565b50565b6000600580549050905090565b6060600080600080600080600060078054905089101515610a96576040517f08c379a000000000000000000000000000000000000000000000000000000000815260040180806020018281038252600e8152602001807fe69caae79fa5e8afb7e6b182696400000000000000000000000000000000000081525060200191505060405180910390fd5b600789815481101515610aa557fe5b906000526020600020906006020191508160040160003373ffffffffffffffffffffffffffffffffffffffff1673ffffffffffffffffffffffffffffffffffffffff16815260200190815260200160002060009054906101000a900460ff1690508160000182600101548360020160009054906101000a900473ffffffffffffffffffffffffffffffffffffffff168460030154848660050160009054906101000a900460ff166003811115610b5757fe5b858054600181600116156101000203166002900480601f016020809104026020016040519081016040528092919081815260200182805460018160011615610100020316600290048015610bec5780601f10610bc157610100808354040283529160200191610bec565b820191906000526020600020905b815481529060010190602001808311610bcf57829003601f168201915b50505050509550975097509750975097509750505091939550919395565b610c1261117d565b6000809054906101000a900473ffffffffffffffffffffffffffffffffffffffff1673ffffffffffffffffffffffffffffffffffffffff163373ffffffffffffffffffffffffffffffffffffffff16141515610cfc576040517f08c379a000000000000000000000000000000000000000000000000000000000815260040180806020018281038252602d8152602001807fe58faae69c89e9a1b9e79baee58f91e8b5b7e4babae58fafe4bba5e58f91e8b581526020017fb7e694afe4bb98e8afb7e6b1820000000000000000000000000000000000000081525060400191505060405180910390fd5b60a0604051908101604052808581526020018481526020018373ffffffffffffffffffffffffffffffffffffffff1681526020016000815260200160006003811115610d4457fe5b8152509050600781908060018154018082558091505090600182039060005260206000209060060201600090919290919091506000820151816000019080519060200190610d939291906111ce565b506020820151816001015560408201518160020160006101000a81548173ffffffffffffffffffffffffffffffffffffffff021916908373ffffffffffffffffffffffffffffffffffffffff1602179055506060820151816003015560808201518160050160006101000a81548160ff02191690836003811115610e1357fe5b021790555050505050505050565b60025481565b60018054600181600116156101000203166002900480601f016020809104026020016040519081016040528092919081815260200182805460018160011615610100020316600290048015610ebd5780601f10610e9257610100808354040283529160200191610ebd565b820191906000526020600020905b815481529060010190602001808311610ea057829003601f168201915b505050505081565b60035481565b6000600782815481101515610edc57fe5b90600052602060002090600602019050600660003373ffffffffffffffffffffffffffffffffffffffff1673ffffffffffffffffffffffffffffffffffffffff16815260200190815260200160002060009054906101000a900460ff161515610fad576040517f08c379a000000000000000000000000000000000000000000000000000000000815260040180806020018281038252601b8152602001807fe58faae69c89e68a95e8b584e4babae69c89e68a95e7a5a8e69d83000000000081525060200191505060405180910390fd5b600015158160040160003373ffffffffffffffffffffffffffffffffffffffff1673ffffffffffffffffffffffffffffffffffffffff16815260200190815260200160002060009054906101000a900460ff161515141515611077576040517f08c379a00000000000000000000000000000000000000000000000000000000081526004018080602001828103825260128152602001807fe5b7b2e7bb8fe68a95e8bf87e7a5a8e4ba86000000000000000000000000000081525060200191505060405180910390fd5b60018160040160003373ffffffffffffffffffffffffffffffffffffffff1673ffffffffffffffffffffffffffffffffffffffff16815260200190815260200160002060006101000a81548160ff021916908315150217905550806003016000815480929190600101919050555060026005805490508115156110f657fe5b04816003015411156111295760018160050160006101000a81548160ff0219169083600381111561112357fe5b02179055505b5050565b60006018603c80426004540381151561114257fe5b0481151561114c57fe5b0481151561115657fe5b04905090565b508054600082559060005260206000209081019061117a919061124e565b50565b60a0604051908101604052806060815260200160008152602001600073ffffffffffffffffffffffffffffffffffffffff16815260200160008152602001600060038111156111c857fe5b81525090565b828054600181600116156101000203166002900490600052602060002090601f016020900481019282601f1061120f57805160ff191683800117855561123d565b8280016001018555821561123d579182015b8281111561123c578251825591602001919060010190611221565b5b50905061124a919061124e565b5090565b61127091905b8082111561126c576000816000905550600101611254565b5090565b905600a165627a7a723058207174512dd0f3093ff36eb64557ea51380a79d4136adfc1219afa8b57723e93d60029",
					"opcodes": "PUSH1 0x80 PUSH1 0x40 MSTORE CALLVALUE DUP1 ISZERO PUSH3 0x11 JUMPI PUSH1 0x0 DUP1 REVERT JUMPDEST POP PUSH1 0x40 MLOAD PUSH3 0x142F CODESIZE SUB DUP1 PUSH3 0x142F DUP4 CODECOPY DUP2 ADD DUP1 PUSH1 0x40 MSTORE DUP2 ADD SWAP1 DUP1 DUP1 MLOAD DUP3 ADD SWAP3 SWAP2 SWAP1 PUSH1 0x20 ADD DUP1 MLOAD SWAP1 PUSH1 0x20 ADD SWAP1 SWAP3 SWAP2 SWAP1 DUP1 MLOAD SWAP1 PUSH1 0x20 ADD SWAP1 SWAP3 SWAP2 SWAP1 DUP1 MLOAD SWAP1 PUSH1 0x20 ADD SWAP1 SWAP3 SWAP2 SWAP1 POP POP POP CALLER PUSH1 0x0 DUP1 PUSH2 0x100 EXP DUP2 SLOAD DUP2 PUSH20 0xFFFFFFFFFFFFFFFFFFFFFFFFFFFFFFFFFFFFFFFF MUL NOT AND SWAP1 DUP4 PUSH20 0xFFFFFFFFFFFFFFFFFFFFFFFFFFFFFFFFFFFFFFFF AND MUL OR SWAP1 SSTORE POP DUP4 PUSH1 0x1 SWAP1 DUP1 MLOAD SWAP1 PUSH1 0x20 ADD SWAP1 PUSH3 0xAF SWAP3 SWAP2 SWAP1 PUSH3 0xD1 JUMP JUMPDEST POP DUP3 PUSH1 0x2 DUP2 SWAP1 SSTORE POP DUP2 PUSH1 0x3 DUP2 SWAP1 SSTORE POP DUP1 TIMESTAMP ADD PUSH1 0x4 DUP2 SWAP1 SSTORE POP POP POP POP POP PUSH3 0x180 JUMP JUMPDEST DUP3 DUP1 SLOAD PUSH1 0x1 DUP2 PUSH1 0x1 AND ISZERO PUSH2 0x100 MUL SUB AND PUSH1 0x2 SWAP1 DIV SWAP1 PUSH1 0x0 MSTORE PUSH1 0x20 PUSH1 0x0 KECCAK256 SWAP1 PUSH1 0x1F ADD PUSH1 0x20 SWAP1 DIV DUP2 ADD SWAP3 DUP3 PUSH1 0x1F LT PUSH3 0x114 JUMPI DUP1 MLOAD PUSH1 0xFF NOT AND DUP4 DUP1 ADD OR DUP6 SSTORE PUSH3 0x145 JUMP JUMPDEST DUP3 DUP1 ADD PUSH1 0x1 ADD DUP6 SSTORE DUP3 ISZERO PUSH3 0x145 JUMPI SWAP2 DUP3 ADD JUMPDEST DUP3 DUP2 GT ISZERO PUSH3 0x144 JUMPI DUP3 MLOAD DUP3 SSTORE SWAP2 PUSH1 0x20 ADD SWAP2 SWAP1 PUSH1 0x1 ADD SWAP1 PUSH3 0x127 JUMP JUMPDEST JUMPDEST POP SWAP1 POP PUSH3 0x154 SWAP2 SWAP1 PUSH3 0x158 JUMP JUMPDEST POP SWAP1 JUMP JUMPDEST PUSH3 0x17D SWAP2 SWAP1 JUMPDEST DUP1 DUP3 GT ISZERO PUSH3 0x179 JUMPI PUSH1 0x0 DUP2 PUSH1 0x0 SWAP1 SSTORE POP PUSH1 0x1 ADD PUSH3 0x15F JUMP JUMPDEST POP SWAP1 JUMP JUMPDEST SWAP1 JUMP JUMPDEST PUSH2 0x129F DUP1 PUSH3 0x190 PUSH1 0x0 CODECOPY PUSH1 0x0 RETURN STOP PUSH1 0x80 PUSH1 0x40 MSTORE PUSH1 0x4 CALLDATASIZE LT PUSH2 0xF1 JUMPI PUSH1 0x0 CALLDATALOAD PUSH29 0x100000000000000000000000000000000000000000000000000000000 SWAP1 DIV PUSH4 0xFFFFFFFF AND DUP1 PUSH4 0x3441006 EQ PUSH2 0xF6 JUMPI DUP1 PUSH4 0x119F8747 EQ PUSH2 0x123 JUMPI DUP1 PUSH4 0x12065FE0 EQ PUSH2 0x12D JUMPI DUP1 PUSH4 0x3197CBB6 EQ PUSH2 0x158 JUMPI DUP1 PUSH4 0x3410452A EQ PUSH2 0x183 JUMPI DUP1 PUSH4 0x3C24B7D7 EQ PUSH2 0x1AE JUMPI DUP1 PUSH4 0x43020B1A EQ PUSH2 0x21B JUMPI DUP1 PUSH4 0x481C6A75 EQ PUSH2 0x287 JUMPI DUP1 PUSH4 0x590E1AE3 EQ PUSH2 0x2DE JUMPI DUP1 PUSH4 0x63B393D8 EQ PUSH2 0x2F5 JUMPI DUP1 PUSH4 0x69EFB694 EQ PUSH2 0x320 JUMPI DUP1 PUSH4 0x8A9CFD55 EQ PUSH2 0x419 JUMPI DUP1 PUSH4 0x8D7CDB91 EQ PUSH2 0x4AC JUMPI DUP1 PUSH4 0x9A33E300 EQ PUSH2 0x4D7 JUMPI DUP1 PUSH4 0xA5D5C5DC EQ PUSH2 0x567 JUMPI DUP1 PUSH4 0xD7D1BBDB EQ PUSH2 0x592 JUMPI DUP1 PUSH4 0xFC2615D5 EQ PUSH2 0x5BF JUMPI JUMPDEST PUSH1 0x0 DUP1 REVERT JUMPDEST CALLVALUE DUP1 ISZERO PUSH2 0x102 JUMPI PUSH1 0x0 DUP1 REVERT JUMPDEST POP PUSH2 0x121 PUSH1 0x4 DUP1 CALLDATASIZE SUB DUP2 ADD SWAP1 DUP1 DUP1 CALLDATALOAD SWAP1 PUSH1 0x20 ADD SWAP1 SWAP3 SWAP2 SWAP1 POP POP POP PUSH2 0x5EA JUMP JUMPDEST STOP JUMPDEST PUSH2 0x12B PUSH2 0x6F1 JUMP JUMPDEST STOP JUMPDEST CALLVALUE DUP1 ISZERO PUSH2 0x139 JUMPI PUSH1 0x0 DUP1 REVERT JUMPDEST POP PUSH2 0x142 PUSH2 0x82A JUMP JUMPDEST PUSH1 0x40 MLOAD DUP1 DUP3 DUP2 MSTORE PUSH1 0x20 ADD SWAP2 POP POP PUSH1 0x40 MLOAD DUP1 SWAP2 SUB SWAP1 RETURN JUMPDEST CALLVALUE DUP1 ISZERO PUSH2 0x164 JUMPI PUSH1 0x0 DUP1 REVERT JUMPDEST POP PUSH2 0x16D PUSH2 0x849 JUMP JUMPDEST PUSH1 0x40 MLOAD DUP1 DUP3 DUP2 MSTORE PUSH1 0x20 ADD SWAP2 POP POP PUSH1 0x40 MLOAD DUP1 SWAP2 SUB SWAP1 RETURN JUMPDEST CALLVALUE DUP1 ISZERO PUSH2 0x18F JUMPI PUSH1 0x0 DUP1 REVERT JUMPDEST POP PUSH2 0x198 PUSH2 0x84F JUMP JUMPDEST PUSH1 0x40 MLOAD DUP1 DUP3 DUP2 MSTORE PUSH1 0x20 ADD SWAP2 POP POP PUSH1 0x40 MLOAD DUP1 SWAP2 SUB SWAP1 RETURN JUMPDEST CALLVALUE DUP1 ISZERO PUSH2 0x1BA JUMPI PUSH1 0x0 DUP1 REVERT JUMPDEST POP PUSH2 0x1D9 PUSH1 0x4 DUP1 CALLDATASIZE SUB DUP2 ADD SWAP1 DUP1 DUP1 CALLDATALOAD SWAP1 PUSH1 0x20 ADD SWAP1 SWAP3 SWAP2 SWAP1 POP POP POP PUSH2 0x85C JUMP JUMPDEST PUSH1 0x40 MLOAD DUP1 DUP3 PUSH20 0xFFFFFFFFFFFFFFFFFFFFFFFFFFFFFFFFFFFFFFFF AND PUSH20 0xFFFFFFFFFFFFFFFFFFFFFFFFFFFFFFFFFFFFFFFF AND DUP2 MSTORE PUSH1 0x20 ADD SWAP2 POP POP PUSH1 0x40 MLOAD DUP1 SWAP2 SUB SWAP1 RETURN JUMPDEST CALLVALUE DUP1 ISZERO PUSH2 0x227 JUMPI PUSH1 0x0 DUP1 REVERT JUMPDEST POP PUSH2 0x230 PUSH2 0x89A JUMP JUMPDEST PUSH1 0x40 MLOAD DUP1 DUP1 PUSH1 0x20 ADD DUP3 DUP2 SUB DUP3 MSTORE DUP4 DUP2 DUP2 MLOAD DUP2 MSTORE PUSH1 0x20 ADD SWAP2 POP DUP1 MLOAD SWAP1 PUSH1 0x20 ADD SWAP1 PUSH1 0x20 MUL DUP1 DUP4 DUP4 PUSH1 0x0 JUMPDEST DUP4 DUP2 LT ISZERO PUSH2 0x273 JUMPI DUP1 DUP3 ADD MLOAD DUP2 DUP5 ADD MSTORE PUSH1 0x20 DUP2 ADD SWAP1 POP PUSH2 0x258 JUMP JUMPDEST POP POP POP POP SWAP1 POP ADD SWAP3 POP POP POP PUSH1 0x40 MLOAD DUP1 SWAP2 SUB SWAP1 RETURN JUMPDEST CALLVALUE DUP1 ISZERO PUSH2 0x293 JUMPI PUSH1 0x0 DUP1 REVERT JUMPDEST POP PUSH2 0x29C PUSH2 0x928 JUMP JUMPDEST PUSH1 0x40 MLOAD DUP1 DUP3 PUSH20 0xFFFFFFFFFFFFFFFFFFFFFFFFFFFFFFFFFFFFFFFF AND PUSH20 0xFFFFFFFFFFFFFFFFFFFFFFFFFFFFFFFFFFFFFFFF AND DUP2 MSTORE PUSH1 0x20 ADD SWAP2 POP POP PUSH1 0x40 MLOAD DUP1 SWAP2 SUB SWAP1 RETURN JUMPDEST CALLVALUE DUP1 ISZERO PUSH2 0x2EA JUMPI PUSH1 0x0 DUP1 REVERT JUMPDEST POP PUSH2 0x2F3 PUSH2 0x94D JUMP JUMPDEST STOP JUMPDEST CALLVALUE DUP1 ISZERO PUSH2 0x301 JUMPI PUSH1 0x0 DUP1 REVERT JUMPDEST POP PUSH2 0x30A PUSH2 0xA00 JUMP JUMPDEST PUSH1 0x40 MLOAD DUP1 DUP3 DUP2 MSTORE PUSH1 0x20 ADD SWAP2 POP POP PUSH1 0x40 MLOAD DUP1 SWAP2 SUB SWAP1 RETURN JUMPDEST CALLVALUE DUP1 ISZERO PUSH2 0x32C JUMPI PUSH1 0x0 DUP1 REVERT JUMPDEST POP PUSH2 0x34B PUSH1 0x4 DUP1 CALLDATASIZE SUB DUP2 ADD SWAP1 DUP1 DUP1 CALLDATALOAD SWAP1 PUSH1 0x20 ADD SWAP1 SWAP3 SWAP2 SWAP1 POP POP POP PUSH2 0xA0D JUMP JUMPDEST PUSH1 0x40 MLOAD DUP1 DUP1 PUSH1 0x20 ADD DUP8 DUP2 MSTORE PUSH1 0x20 ADD DUP7 PUSH20 0xFFFFFFFFFFFFFFFFFFFFFFFFFFFFFFFFFFFFFFFF AND PUSH20 0xFFFFFFFFFFFFFFFFFFFFFFFFFFFFFFFFFFFFFFFF AND DUP2 MSTORE PUSH1 0x20 ADD DUP6 DUP2 MSTORE PUSH1 0x20 ADD DUP5 ISZERO ISZERO ISZERO ISZERO DUP2 MSTORE PUSH1 0x20 ADD DUP4 DUP2 MSTORE PUSH1 0x20 ADD DUP3 DUP2 SUB DUP3 MSTORE DUP9 DUP2 DUP2 MLOAD DUP2 MSTORE PUSH1 0x20 ADD SWAP2 POP DUP1 MLOAD SWAP1 PUSH1 0x20 ADD SWAP1 DUP1 DUP4 DUP4 PUSH1 0x0 JUMPDEST DUP4 DUP2 LT ISZERO PUSH2 0x3D9 JUMPI DUP1 DUP3 ADD MLOAD DUP2 DUP5 ADD MSTORE PUSH1 0x20 DUP2 ADD SWAP1 POP PUSH2 0x3BE JUMP JUMPDEST POP POP POP POP SWAP1 POP SWAP1 DUP2 ADD SWAP1 PUSH1 0x1F AND DUP1 ISZERO PUSH2 0x406 JUMPI DUP1 DUP3 SUB DUP1 MLOAD PUSH1 0x1 DUP4 PUSH1 0x20 SUB PUSH2 0x100 EXP SUB NOT AND DUP2 MSTORE PUSH1 0x20 ADD SWAP2 POP JUMPDEST POP SWAP8 POP POP POP POP POP POP POP POP PUSH1 0x40 MLOAD DUP1 SWAP2 SUB SWAP1 RETURN JUMPDEST CALLVALUE DUP1 ISZERO PUSH2 0x425 JUMPI PUSH1 0x0 DUP1 REVERT JUMPDEST POP PUSH2 0x4AA PUSH1 0x4 DUP1 CALLDATASIZE SUB DUP2 ADD SWAP1 DUP1 DUP1 CALLDATALOAD SWAP1 PUSH1 0x20 ADD SWAP1 DUP3 ADD DUP1 CALLDATALOAD SWAP1 PUSH1 0x20 ADD SWAP1 DUP1 DUP1 PUSH1 0x1F ADD PUSH1 0x20 DUP1 SWAP2 DIV MUL PUSH1 0x20 ADD PUSH1 0x40 MLOAD SWAP1 DUP2 ADD PUSH1 0x40 MSTORE DUP1 SWAP4 SWAP3 SWAP2 SWAP1 DUP2 DUP2 MSTORE PUSH1 0x20 ADD DUP4 DUP4 DUP1 DUP3 DUP5 CALLDATACOPY DUP3 ADD SWAP2 POP POP POP POP POP POP SWAP2 SWAP3 SWAP2 SWAP3 SWAP1 DUP1 CALLDATALOAD SWAP1 PUSH1 0x20 ADD SWAP1 SWAP3 SWAP2 SWAP1 DUP1 CALLDATALOAD PUSH20 0xFFFFFFFFFFFFFFFFFFFFFFFFFFFFFFFFFFFFFFFF AND SWAP1 PUSH1 0x20 ADD SWAP1 SWAP3 SWAP2 SWAP1 POP POP POP PUSH2 0xC0A JUMP JUMPDEST STOP JUMPDEST CALLVALUE DUP1 ISZERO PUSH2 0x4B8 JUMPI PUSH1 0x0 DUP1 REVERT JUMPDEST POP PUSH2 0x4C1 PUSH2 0xE21 JUMP JUMPDEST PUSH1 0x40 MLOAD DUP1 DUP3 DUP2 MSTORE PUSH1 0x20 ADD SWAP2 POP POP PUSH1 0x40 MLOAD DUP1 SWAP2 SUB SWAP1 RETURN JUMPDEST CALLVALUE DUP1 ISZERO PUSH2 0x4E3 JUMPI PUSH1 0x0 DUP1 REVERT JUMPDEST POP PUSH2 0x4EC PUSH2 0xE27 JUMP JUMPDEST PUSH1 0x40 MLOAD DUP1 DUP1 PUSH1 0x20 ADD DUP3 DUP2 SUB DUP3 MSTORE DUP4 DUP2 DUP2 MLOAD DUP2 MSTORE PUSH1 0x20 ADD SWAP2 POP DUP1 MLOAD SWAP1 PUSH1 0x20 ADD SWAP1 DUP1 DUP4 DUP4 PUSH1 0x0 JUMPDEST DUP4 DUP2 LT ISZERO PUSH2 0x52C JUMPI DUP1 DUP3 ADD MLOAD DUP2 DUP5 ADD MSTORE PUSH1 0x20 DUP2 ADD SWAP1 POP PUSH2 0x511 JUMP JUMPDEST POP POP POP POP SWAP1 POP SWAP1 DUP2 ADD SWAP1 PUSH1 0x1F AND DUP1 ISZERO PUSH2 0x559 JUMPI DUP1 DUP3 SUB DUP1 MLOAD PUSH1 0x1 DUP4 PUSH1 0x20 SUB PUSH2 0x100 EXP SUB NOT AND DUP2 MSTORE PUSH1 0x20 ADD SWAP2 POP JUMPDEST POP SWAP3 POP POP POP PUSH1 0x40 MLOAD DUP1 SWAP2 SUB SWAP1 RETURN JUMPDEST CALLVALUE DUP1 ISZERO PUSH2 0x573 JUMPI PUSH1 0x0 DUP1 REVERT JUMPDEST POP PUSH2 0x57C PUSH2 0xEC5 JUMP JUMPDEST PUSH1 0x40 MLOAD DUP1 DUP3 DUP2 MSTORE PUSH1 0x20 ADD SWAP2 POP POP PUSH1 0x40 MLOAD DUP1 SWAP2 SUB SWAP1 RETURN JUMPDEST CALLVALUE DUP1 ISZERO PUSH2 0x59E JUMPI PUSH1 0x0 DUP1 REVERT JUMPDEST POP PUSH2 0x5BD PUSH1 0x4 DUP1 CALLDATASIZE SUB DUP2 ADD SWAP1 DUP1 DUP1 CALLDATALOAD SWAP1 PUSH1 0x20 ADD SWAP1 SWAP3 SWAP2 SWAP1 POP POP POP PUSH2 0xECB JUMP JUMPDEST STOP JUMPDEST CALLVALUE DUP1 ISZERO PUSH2 0x5CB JUMPI PUSH1 0x0 DUP1 REVERT JUMPDEST POP PUSH2 0x5D4 PUSH2 0x112D JUMP JUMPDEST PUSH1 0x40 MLOAD DUP1 DUP3 DUP2 MSTORE PUSH1 0x20 ADD SWAP2 POP POP PUSH1 0x40 MLOAD DUP1 SWAP2 SUB SWAP1 RETURN JUMPDEST PUSH1 0x0 PUSH1 0x7 DUP3 DUP2 SLOAD DUP2 LT ISZERO ISZERO PUSH2 0x5FB JUMPI INVALID JUMPDEST SWAP1 PUSH1 0x0 MSTORE PUSH1 0x20 PUSH1 0x0 KECCAK256 SWAP1 PUSH1 0x6 MUL ADD SWAP1 POP DUP1 PUSH1 0x1 ADD SLOAD ADDRESS PUSH20 0xFFFFFFFFFFFFFFFFFFFFFFFFFFFFFFFFFFFFFFFF AND BALANCE LT ISZERO ISZERO ISZERO PUSH2 0x635 JUMPI PUSH1 0x0 DUP1 REVERT JUMPDEST PUSH1 0x2 PUSH1 0x5 DUP1 SLOAD SWAP1 POP DUP2 ISZERO ISZERO PUSH2 0x646 JUMPI INVALID JUMPDEST DIV DUP2 PUSH1 0x3 ADD SLOAD GT ISZERO ISZERO PUSH2 0x658 JUMPI PUSH1 0x0 DUP1 REVERT JUMPDEST DUP1 PUSH1 0x2 ADD PUSH1 0x0 SWAP1 SLOAD SWAP1 PUSH2 0x100 EXP SWAP1 DIV PUSH20 0xFFFFFFFFFFFFFFFFFFFFFFFFFFFFFFFFFFFFFFFF AND PUSH20 0xFFFFFFFFFFFFFFFFFFFFFFFFFFFFFFFFFFFFFFFF AND PUSH2 0x8FC DUP3 PUSH1 0x1 ADD SLOAD SWAP1 DUP2 ISZERO MUL SWAP1 PUSH1 0x40 MLOAD PUSH1 0x0 PUSH1 0x40 MLOAD DUP1 DUP4 SUB DUP2 DUP6 DUP9 DUP9 CALL SWAP4 POP POP POP POP ISZERO DUP1 ISZERO PUSH2 0x6C6 JUMPI RETURNDATASIZE PUSH1 0x0 DUP1 RETURNDATACOPY RETURNDATASIZE PUSH1 0x0 REVERT JUMPDEST POP PUSH1 0x2 DUP2 PUSH1 0x5 ADD PUSH1 0x0 PUSH2 0x100 EXP DUP2 SLOAD DUP2 PUSH1 0xFF MUL NOT AND SWAP1 DUP4 PUSH1 0x3 DUP2 GT ISZERO PUSH2 0x6E8 JUMPI INVALID JUMPDEST MUL OR SWAP1 SSTORE POP POP POP JUMP JUMPDEST PUSH1 0x3 SLOAD CALLVALUE EQ ISZERO ISZERO PUSH2 0x76A JUMPI PUSH1 0x40 MLOAD PUSH32 0x8C379A000000000000000000000000000000000000000000000000000000000 DUP2 MSTORE PUSH1 0x4 ADD DUP1 DUP1 PUSH1 0x20 ADD DUP3 DUP2 SUB DUP3 MSTORE PUSH1 0x12 DUP2 MSTORE PUSH1 0x20 ADD DUP1 PUSH32 0xE68A95E8B584E98791E9A29DE99499E8AFAF0000000000000000000000000000 DUP2 MSTORE POP PUSH1 0x20 ADD SWAP2 POP POP PUSH1 0x40 MLOAD DUP1 SWAP2 SUB SWAP1 REVERT JUMPDEST PUSH1 0x5 CALLER SWAP1 DUP1 PUSH1 0x1 DUP2 SLOAD ADD DUP1 DUP3 SSTORE DUP1 SWAP2 POP POP SWAP1 PUSH1 0x1 DUP3 SUB SWAP1 PUSH1 0x0 MSTORE PUSH1 0x20 PUSH1 0x0 KECCAK256 ADD PUSH1 0x0 SWAP1 SWAP2 SWAP3 SWAP1 SWAP2 SWAP1 SWAP2 PUSH2 0x100 EXP DUP2 SLOAD DUP2 PUSH20 0xFFFFFFFFFFFFFFFFFFFFFFFFFFFFFFFFFFFFFFFF MUL NOT AND SWAP1 DUP4 PUSH20 0xFFFFFFFFFFFFFFFFFFFFFFFFFFFFFFFFFFFFFFFF AND MUL OR SWAP1 SSTORE POP POP PUSH1 0x1 PUSH1 0x6 PUSH1 0x0 CALLER PUSH20 0xFFFFFFFFFFFFFFFFFFFFFFFFFFFFFFFFFFFFFFFF AND PUSH20 0xFFFFFFFFFFFFFFFFFFFFFFFFFFFFFFFFFFFFFFFF AND DUP2 MSTORE PUSH1 0x20 ADD SWAP1 DUP2 MSTORE PUSH1 0x20 ADD PUSH1 0x0 KECCAK256 PUSH1 0x0 PUSH2 0x100 EXP DUP2 SLOAD DUP2 PUSH1 0xFF MUL NOT AND SWAP1 DUP4 ISZERO ISZERO MUL OR SWAP1 SSTORE POP JUMP JUMPDEST PUSH1 0x0 ADDRESS PUSH20 0xFFFFFFFFFFFFFFFFFFFFFFFFFFFFFFFFFFFFFFFF AND BALANCE SWAP1 POP SWAP1 JUMP JUMPDEST PUSH1 0x4 SLOAD DUP2 JUMP JUMPDEST PUSH1 0x0 PUSH1 0x7 DUP1 SLOAD SWAP1 POP SWAP1 POP SWAP1 JUMP JUMPDEST PUSH1 0x5 DUP2 DUP2 SLOAD DUP2 LT ISZERO ISZERO PUSH2 0x86B JUMPI INVALID JUMPDEST SWAP1 PUSH1 0x0 MSTORE PUSH1 0x20 PUSH1 0x0 KECCAK256 ADD PUSH1 0x0 SWAP2 POP SLOAD SWAP1 PUSH2 0x100 EXP SWAP1 DIV PUSH20 0xFFFFFFFFFFFFFFFFFFFFFFFFFFFFFFFFFFFFFFFF AND DUP2 JUMP JUMPDEST PUSH1 0x60 PUSH1 0x5 DUP1 SLOAD DUP1 PUSH1 0x20 MUL PUSH1 0x20 ADD PUSH1 0x40 MLOAD SWAP1 DUP2 ADD PUSH1 0x40 MSTORE DUP1 SWAP3 SWAP2 SWAP1 DUP2 DUP2 MSTORE PUSH1 0x20 ADD DUP3 DUP1 SLOAD DUP1 ISZERO PUSH2 0x91E JUMPI PUSH1 0x20 MUL DUP3 ADD SWAP2 SWAP1 PUSH1 0x0 MSTORE PUSH1 0x20 PUSH1 0x0 KECCAK256 SWAP1 JUMPDEST DUP2 PUSH1 0x0 SWAP1 SLOAD SWAP1 PUSH2 0x100 EXP SWAP1 DIV PUSH20 0xFFFFFFFFFFFFFFFFFFFFFFFFFFFFFFFFFFFFFFFF AND PUSH20 0xFFFFFFFFFFFFFFFFFFFFFFFFFFFFFFFFFFFFFFFF AND DUP2 MSTORE PUSH1 0x20 ADD SWAP1 PUSH1 0x1 ADD SWAP1 DUP1 DUP4 GT PUSH2 0x8D4 JUMPI JUMPDEST POP POP POP POP POP SWAP1 POP SWAP1 JUMP JUMPDEST PUSH1 0x0 DUP1 SWAP1 SLOAD SWAP1 PUSH2 0x100 EXP SWAP1 DIV PUSH20 0xFFFFFFFFFFFFFFFFFFFFFFFFFFFFFFFFFFFFFFFF AND DUP2 JUMP JUMPDEST PUSH1 0x0 DUP1 SWAP1 POP JUMPDEST PUSH1 0x5 DUP1 SLOAD SWAP1 POP DUP2 LT ISZERO PUSH2 0x9EF JUMPI PUSH1 0x5 DUP2 DUP2 SLOAD DUP2 LT ISZERO ISZERO PUSH2 0x96F JUMPI INVALID JUMPDEST SWAP1 PUSH1 0x0 MSTORE PUSH1 0x20 PUSH1 0x0 KECCAK256 ADD PUSH1 0x0 SWAP1 SLOAD SWAP1 PUSH2 0x100 EXP SWAP1 DIV PUSH20 0xFFFFFFFFFFFFFFFFFFFFFFFFFFFFFFFFFFFFFFFF AND PUSH20 0xFFFFFFFFFFFFFFFFFFFFFFFFFFFFFFFFFFFFFFFF AND PUSH2 0x8FC PUSH1 0x3 SLOAD SWAP1 DUP2 ISZERO MUL SWAP1 PUSH1 0x40 MLOAD PUSH1 0x0 PUSH1 0x40 MLOAD DUP1 DUP4 SUB DUP2 DUP6 DUP9 DUP9 CALL SWAP4 POP POP POP POP ISZERO DUP1 ISZERO PUSH2 0x9E1 JUMPI RETURNDATASIZE PUSH1 0x0 DUP1 RETURNDATACOPY RETURNDATASIZE PUSH1 0x0 REVERT JUMPDEST POP DUP1 DUP1 PUSH1 0x1 ADD SWAP2 POP POP PUSH2 0x953 JUMP JUMPDEST PUSH1 0x5 PUSH1 0x0 PUSH2 0x9FD SWAP2 SWAP1 PUSH2 0x115C JUMP JUMPDEST POP JUMP JUMPDEST PUSH1 0x0 PUSH1 0x5 DUP1 SLOAD SWAP1 POP SWAP1 POP SWAP1 JUMP JUMPDEST PUSH1 0x60 PUSH1 0x0 DUP1 PUSH1 0x0 DUP1 PUSH1 0x0 DUP1 PUSH1 0x0 PUSH1 0x7 DUP1 SLOAD SWAP1 POP DUP10 LT ISZERO ISZERO PUSH2 0xA96 JUMPI PUSH1 0x40 MLOAD PUSH32 0x8C379A000000000000000000000000000000000000000000000000000000000 DUP2 MSTORE PUSH1 0x4 ADD DUP1 DUP1 PUSH1 0x20 ADD DUP3 DUP2 SUB DUP3 MSTORE PUSH1 0xE DUP2 MSTORE PUSH1 0x20 ADD DUP1 PUSH32 0xE69CAAE79FA5E8AFB7E6B1826964000000000000000000000000000000000000 DUP2 MSTORE POP PUSH1 0x20 ADD SWAP2 POP POP PUSH1 0x40 MLOAD DUP1 SWAP2 SUB SWAP1 REVERT JUMPDEST PUSH1 0x7 DUP10 DUP2 SLOAD DUP2 LT ISZERO ISZERO PUSH2 0xAA5 JUMPI INVALID JUMPDEST SWAP1 PUSH1 0x0 MSTORE PUSH1 0x20 PUSH1 0x0 KECCAK256 SWAP1 PUSH1 0x6 MUL ADD SWAP2 POP DUP2 PUSH1 0x4 ADD PUSH1 0x0 CALLER PUSH20 0xFFFFFFFFFFFFFFFFFFFFFFFFFFFFFFFFFFFFFFFF AND PUSH20 0xFFFFFFFFFFFFFFFFFFFFFFFFFFFFFFFFFFFFFFFF AND DUP2 MSTORE PUSH1 0x20 ADD SWAP1 DUP2 MSTORE PUSH1 0x20 ADD PUSH1 0x0 KECCAK256 PUSH1 0x0 SWAP1 SLOAD SWAP1 PUSH2 0x100 EXP SWAP1 DIV PUSH1 0xFF AND SWAP1 POP DUP2 PUSH1 0x0 ADD DUP3 PUSH1 0x1 ADD SLOAD DUP4 PUSH1 0x2 ADD PUSH1 0x0 SWAP1 SLOAD SWAP1 PUSH2 0x100 EXP SWAP1 DIV PUSH20 0xFFFFFFFFFFFFFFFFFFFFFFFFFFFFFFFFFFFFFFFF AND DUP5 PUSH1 0x3 ADD SLOAD DUP5 DUP7 PUSH1 0x5 ADD PUSH1 0x0 SWAP1 SLOAD SWAP1 PUSH2 0x100 EXP SWAP1 DIV PUSH1 0xFF AND PUSH1 0x3 DUP2 GT ISZERO PUSH2 0xB57 JUMPI INVALID JUMPDEST DUP6 DUP1 SLOAD PUSH1 0x1 DUP2 PUSH1 0x1 AND ISZERO PUSH2 0x100 MUL SUB AND PUSH1 0x2 SWAP1 DIV DUP1 PUSH1 0x1F ADD PUSH1 0x20 DUP1 SWAP2 DIV MUL PUSH1 0x20 ADD PUSH1 0x40 MLOAD SWAP1 DUP2 ADD PUSH1 0x40 MSTORE DUP1 SWAP3 SWAP2 SWAP1 DUP2 DUP2 MSTORE PUSH1 0x20 ADD DUP3 DUP1 SLOAD PUSH1 0x1 DUP2 PUSH1 0x1 AND ISZERO PUSH2 0x100 MUL SUB AND PUSH1 0x2 SWAP1 DIV DUP1 ISZERO PUSH2 0xBEC JUMPI DUP1 PUSH1 0x1F LT PUSH2 0xBC1 JUMPI PUSH2 0x100 DUP1 DUP4 SLOAD DIV MUL DUP4 MSTORE SWAP2 PUSH1 0x20 ADD SWAP2 PUSH2 0xBEC JUMP JUMPDEST DUP3 ADD SWAP2 SWAP1 PUSH1 0x0 MSTORE PUSH1 0x20 PUSH1 0x0 KECCAK256 SWAP1 JUMPDEST DUP2 SLOAD DUP2 MSTORE SWAP1 PUSH1 0x1 ADD SWAP1 PUSH1 0x20 ADD DUP1 DUP4 GT PUSH2 0xBCF JUMPI DUP3 SWAP1 SUB PUSH1 0x1F AND DUP3 ADD SWAP2 JUMPDEST POP POP POP POP POP SWAP6 POP SWAP8 POP SWAP8 POP SWAP8 POP SWAP8 POP SWAP8 POP SWAP8 POP POP POP SWAP2 SWAP4 SWAP6 POP SWAP2 SWAP4 SWAP6 JUMP JUMPDEST PUSH2 0xC12 PUSH2 0x117D JUMP JUMPDEST PUSH1 0x0 DUP1 SWAP1 SLOAD SWAP1 PUSH2 0x100 EXP SWAP1 DIV PUSH20 0xFFFFFFFFFFFFFFFFFFFFFFFFFFFFFFFFFFFFFFFF AND PUSH20 0xFFFFFFFFFFFFFFFFFFFFFFFFFFFFFFFFFFFFFFFF AND CALLER PUSH20 0xFFFFFFFFFFFFFFFFFFFFFFFFFFFFFFFFFFFFFFFF AND EQ ISZERO ISZERO PUSH2 0xCFC JUMPI PUSH1 0x40 MLOAD PUSH32 0x8C379A000000000000000000000000000000000000000000000000000000000 DUP2 MSTORE PUSH1 0x4 ADD DUP1 DUP1 PUSH1 0x20 ADD DUP3 DUP2 SUB DUP3 MSTORE PUSH1 0x2D DUP2 MSTORE PUSH1 0x20 ADD DUP1 PUSH32 0xE58FAAE69C89E9A1B9E79BAEE58F91E8B5B7E4BABAE58FAFE4BBA5E58F91E8B5 DUP2 MSTORE PUSH1 0x20 ADD PUSH32 0xB7E694AFE4BB98E8AFB7E6B18200000000000000000000000000000000000000 DUP2 MSTORE POP PUSH1 0x40 ADD SWAP2 POP POP PUSH1 0x40 MLOAD DUP1 SWAP2 SUB SWAP1 REVERT JUMPDEST PUSH1 0xA0 PUSH1 0x40 MLOAD SWAP1 DUP2 ADD PUSH1 0x40 MSTORE DUP1 DUP6 DUP2 MSTORE PUSH1 0x20 ADD DUP5 DUP2 MSTORE PUSH1 0x20 ADD DUP4 PUSH20 0xFFFFFFFFFFFFFFFFFFFFFFFFFFFFFFFFFFFFFFFF AND DUP2 MSTORE PUSH1 0x20 ADD PUSH1 0x0 DUP2 MSTORE PUSH1 0x20 ADD PUSH1 0x0 PUSH1 0x3 DUP2 GT ISZERO PUSH2 0xD44 JUMPI INVALID JUMPDEST DUP2 MSTORE POP SWAP1 POP PUSH1 0x7 DUP2 SWAP1 DUP1 PUSH1 0x1 DUP2 SLOAD ADD DUP1 DUP3 SSTORE DUP1 SWAP2 POP POP SWAP1 PUSH1 0x1 DUP3 SUB SWAP1 PUSH1 0x0 MSTORE PUSH1 0x20 PUSH1 0x0 KECCAK256 SWAP1 PUSH1 0x6 MUL ADD PUSH1 0x0 SWAP1 SWAP2 SWAP3 SWAP1 SWAP2 SWAP1 SWAP2 POP PUSH1 0x0 DUP3 ADD MLOAD DUP2 PUSH1 0x0 ADD SWAP1 DUP1 MLOAD SWAP1 PUSH1 0x20 ADD SWAP1 PUSH2 0xD93 SWAP3 SWAP2 SWAP1 PUSH2 0x11CE JUMP JUMPDEST POP PUSH1 0x20 DUP3 ADD MLOAD DUP2 PUSH1 0x1 ADD SSTORE PUSH1 0x40 DUP3 ADD MLOAD DUP2 PUSH1 0x2 ADD PUSH1 0x0 PUSH2 0x100 EXP DUP2 SLOAD DUP2 PUSH20 0xFFFFFFFFFFFFFFFFFFFFFFFFFFFFFFFFFFFFFFFF MUL NOT AND SWAP1 DUP4 PUSH20 0xFFFFFFFFFFFFFFFFFFFFFFFFFFFFFFFFFFFFFFFF AND MUL OR SWAP1 SSTORE POP PUSH1 0x60 DUP3 ADD MLOAD DUP2 PUSH1 0x3 ADD SSTORE PUSH1 0x80 DUP3 ADD MLOAD DUP2 PUSH1 0x5 ADD PUSH1 0x0 PUSH2 0x100 EXP DUP2 SLOAD DUP2 PUSH1 0xFF MUL NOT AND SWAP1 DUP4 PUSH1 0x3 DUP2 GT ISZERO PUSH2 0xE13 JUMPI INVALID JUMPDEST MUL OR SWAP1 SSTORE POP POP POP POP POP POP POP POP JUMP JUMPDEST PUSH1 0x2 SLOAD DUP2 JUMP JUMPDEST PUSH1 0x1 DUP1 SLOAD PUSH1 0x1 DUP2 PUSH1 0x1 AND ISZERO PUSH2 0x100 MUL SUB AND PUSH1 0x2 SWAP1 DIV DUP1 PUSH1 0x1F ADD PUSH1 0x20 DUP1 SWAP2 DIV MUL PUSH1 0x20 ADD PUSH1 0x40 MLOAD SWAP1 DUP2 ADD PUSH1 0x40 MSTORE DUP1 SWAP3 SWAP2 SWAP1 DUP2 DUP2 MSTORE PUSH1 0x20 ADD DUP3 DUP1 SLOAD PUSH1 0x1 DUP2 PUSH1 0x1 AND ISZERO PUSH2 0x100 MUL SUB AND PUSH1 0x2 SWAP1 DIV DUP1 ISZERO PUSH2 0xEBD JUMPI DUP1 PUSH1 0x1F LT PUSH2 0xE92 JUMPI PUSH2 0x100 DUP1 DUP4 SLOAD DIV MUL DUP4 MSTORE SWAP2 PUSH1 0x20 ADD SWAP2 PUSH2 0xEBD JUMP JUMPDEST DUP3 ADD SWAP2 SWAP1 PUSH1 0x0 MSTORE PUSH1 0x20 PUSH1 0x0 KECCAK256 SWAP1 JUMPDEST DUP2 SLOAD DUP2 MSTORE SWAP1 PUSH1 0x1 ADD SWAP1 PUSH1 0x20 ADD DUP1 DUP4 GT PUSH2 0xEA0 JUMPI DUP3 SWAP1 SUB PUSH1 0x1F AND DUP3 ADD SWAP2 JUMPDEST POP POP POP POP POP DUP2 JUMP JUMPDEST PUSH1 0x3 SLOAD DUP2 JUMP JUMPDEST PUSH1 0x0 PUSH1 0x7 DUP3 DUP2 SLOAD DUP2 LT ISZERO ISZERO PUSH2 0xEDC JUMPI INVALID JUMPDEST SWAP1 PUSH1 0x0 MSTORE PUSH1 0x20 PUSH1 0x0 KECCAK256 SWAP1 PUSH1 0x6 MUL ADD SWAP1 POP PUSH1 0x6 PUSH1 0x0 CALLER PUSH20 0xFFFFFFFFFFFFFFFFFFFFFFFFFFFFFFFFFFFFFFFF AND PUSH20 0xFFFFFFFFFFFFFFFFFFFFFFFFFFFFFFFFFFFFFFFF AND DUP2 MSTORE PUSH1 0x20 ADD SWAP1 DUP2 MSTORE PUSH1 0x20 ADD PUSH1 0x0 KECCAK256 PUSH1 0x0 SWAP1 SLOAD SWAP1 PUSH2 0x100 EXP SWAP1 DIV PUSH1 0xFF AND ISZERO ISZERO PUSH2 0xFAD JUMPI PUSH1 0x40 MLOAD PUSH32 0x8C379A000000000000000000000000000000000000000000000000000000000 DUP2 MSTORE PUSH1 0x4 ADD DUP1 DUP1 PUSH1 0x20 ADD DUP3 DUP2 SUB DUP3 MSTORE PUSH1 0x1B DUP2 MSTORE PUSH1 0x20 ADD DUP1 PUSH32 0xE58FAAE69C89E68A95E8B584E4BABAE69C89E68A95E7A5A8E69D830000000000 DUP2 MSTORE POP PUSH1 0x20 ADD SWAP2 POP POP PUSH1 0x40 MLOAD DUP1 SWAP2 SUB SWAP1 REVERT JUMPDEST PUSH1 0x0 ISZERO ISZERO DUP2 PUSH1 0x4 ADD PUSH1 0x0 CALLER PUSH20 0xFFFFFFFFFFFFFFFFFFFFFFFFFFFFFFFFFFFFFFFF AND PUSH20 0xFFFFFFFFFFFFFFFFFFFFFFFFFFFFFFFFFFFFFFFF AND DUP2 MSTORE PUSH1 0x20 ADD SWAP1 DUP2 MSTORE PUSH1 0x20 ADD PUSH1 0x0 KECCAK256 PUSH1 0x0 SWAP1 SLOAD SWAP1 PUSH2 0x100 EXP SWAP1 DIV PUSH1 0xFF AND ISZERO ISZERO EQ ISZERO ISZERO PUSH2 0x1077 JUMPI PUSH1 0x40 MLOAD PUSH32 0x8C379A000000000000000000000000000000000000000000000000000000000 DUP2 MSTORE PUSH1 0x4 ADD DUP1 DUP1 PUSH1 0x20 ADD DUP3 DUP2 SUB DUP3 MSTORE PUSH1 0x12 DUP2 MSTORE PUSH1 0x20 ADD DUP1 PUSH32 0xE5B7B2E7BB8FE68A95E8BF87E7A5A8E4BA860000000000000000000000000000 DUP2 MSTORE POP PUSH1 0x20 ADD SWAP2 POP POP PUSH1 0x40 MLOAD DUP1 SWAP2 SUB SWAP1 REVERT JUMPDEST PUSH1 0x1 DUP2 PUSH1 0x4 ADD PUSH1 0x0 CALLER PUSH20 0xFFFFFFFFFFFFFFFFFFFFFFFFFFFFFFFFFFFFFFFF AND PUSH20 0xFFFFFFFFFFFFFFFFFFFFFFFFFFFFFFFFFFFFFFFF AND DUP2 MSTORE PUSH1 0x20 ADD SWAP1 DUP2 MSTORE PUSH1 0x20 ADD PUSH1 0x0 KECCAK256 PUSH1 0x0 PUSH2 0x100 EXP DUP2 SLOAD DUP2 PUSH1 0xFF MUL NOT AND SWAP1 DUP4 ISZERO ISZERO MUL OR SWAP1 SSTORE POP DUP1 PUSH1 0x3 ADD PUSH1 0x0 DUP2 SLOAD DUP1 SWAP3 SWAP2 SWAP1 PUSH1 0x1 ADD SWAP2 SWAP1 POP SSTORE POP PUSH1 0x2 PUSH1 0x5 DUP1 SLOAD SWAP1 POP DUP2 ISZERO ISZERO PUSH2 0x10F6 JUMPI INVALID JUMPDEST DIV DUP2 PUSH1 0x3 ADD SLOAD GT ISZERO PUSH2 0x1129 JUMPI PUSH1 0x1 DUP2 PUSH1 0x5 ADD PUSH1 0x0 PUSH2 0x100 EXP DUP2 SLOAD DUP2 PUSH1 0xFF MUL NOT AND SWAP1 DUP4 PUSH1 0x3 DUP2 GT ISZERO PUSH2 0x1123 JUMPI INVALID JUMPDEST MUL OR SWAP1 SSTORE POP JUMPDEST POP POP JUMP JUMPDEST PUSH1 0x0 PUSH1 0x18 PUSH1 0x3C DUP1 TIMESTAMP PUSH1 0x4 SLOAD SUB DUP2 ISZERO ISZERO PUSH2 0x1142 JUMPI INVALID JUMPDEST DIV DUP2 ISZERO ISZERO PUSH2 0x114C JUMPI INVALID JUMPDEST DIV DUP2 ISZERO ISZERO PUSH2 0x1156 JUMPI INVALID JUMPDEST DIV SWAP1 POP SWAP1 JUMP JUMPDEST POP DUP1 SLOAD PUSH1 0x0 DUP3 SSTORE SWAP1 PUSH1 0x0 MSTORE PUSH1 0x20 PUSH1 0x0 KECCAK256 SWAP1 DUP2 ADD SWAP1 PUSH2 0x117A SWAP2 SWAP1 PUSH2 0x124E JUMP JUMPDEST POP JUMP JUMPDEST PUSH1 0xA0 PUSH1 0x40 MLOAD SWAP1 DUP2 ADD PUSH1 0x40 MSTORE DUP1 PUSH1 0x60 DUP2 MSTORE PUSH1 0x20 ADD PUSH1 0x0 DUP2 MSTORE PUSH1 0x20 ADD PUSH1 0x0 PUSH20 0xFFFFFFFFFFFFFFFFFFFFFFFFFFFFFFFFFFFFFFFF AND DUP2 MSTORE PUSH1 0x20 ADD PUSH1 0x0 DUP2 MSTORE PUSH1 0x20 ADD PUSH1 0x0 PUSH1 0x3 DUP2 GT ISZERO PUSH2 0x11C8 JUMPI INVALID JUMPDEST DUP2 MSTORE POP SWAP1 JUMP JUMPDEST DUP3 DUP1 SLOAD PUSH1 0x1 DUP2 PUSH1 0x1 AND ISZERO PUSH2 0x100 MUL SUB AND PUSH1 0x2 SWAP1 DIV SWAP1 PUSH1 0x0 MSTORE PUSH1 0x20 PUSH1 0x0 KECCAK256 SWAP1 PUSH1 0x1F ADD PUSH1 0x20 SWAP1 DIV DUP2 ADD SWAP3 DUP3 PUSH1 0x1F LT PUSH2 0x120F JUMPI DUP1 MLOAD PUSH1 0xFF NOT AND DUP4 DUP1 ADD OR DUP6 SSTORE PUSH2 0x123D JUMP JUMPDEST DUP3 DUP1 ADD PUSH1 0x1 ADD DUP6 SSTORE DUP3 ISZERO PUSH2 0x123D JUMPI SWAP2 DUP3 ADD JUMPDEST DUP3 DUP2 GT ISZERO PUSH2 0x123C JUMPI DUP3 MLOAD DUP3 SSTORE SWAP2 PUSH1 0x20 ADD SWAP2 SWAP1 PUSH1 0x1 ADD SWAP1 PUSH2 0x1221 JUMP JUMPDEST JUMPDEST POP SWAP1 POP PUSH2 0x124A SWAP2 SWAP1 PUSH2 0x124E JUMP JUMPDEST POP SWAP1 JUMP JUMPDEST PUSH2 0x1270 SWAP2 SWAP1 JUMPDEST DUP1 DUP3 GT ISZERO PUSH2 0x126C JUMPI PUSH1 0x0 DUP2 PUSH1 0x0 SWAP1 SSTORE POP PUSH1 0x1 ADD PUSH2 0x1254 JUMP JUMPDEST POP SWAP1 JUMP JUMPDEST SWAP1 JUMP STOP LOG1 PUSH6 0x627A7A723058 KECCAK256 PUSH18 0x74512DD0F3093FF36EB64557EA51380A79D4 SGT PUSH11 0xDFC1219AFA8B57723E93D6 STOP 0x29 "
				},
				"gasEstimates": {
					"creation": {
						"codeDepositCost": "953400",
						"executionCost": "infinite",
						"totalCost": "infinite"
					},
					"external": {
						"approveRequest(uint256)": "62920",
						"createRequest(string,uint256,address)": "infinite",
						"endTime()": "460",
						"finalizeRequest(uint256)": "infinite",
						"getBalance()": "651",
						"getRemainTime()": "852",
						"getRequestDetailByIndex(uint256)": "infinite",
						"getRequestsCount()": "498",
						"getSupporters()": "infinite",
						"getSupportersCount()": "608",
						"manager()": "596",
						"projectName()": "infinite",
						"refund()": "infinite",
						"support()": "61301",
						"supportMoney()": "702",
						"supporters(uint256)": "896",
						"targetMoney()": "658"
					}
				},
				"methodIdentifiers": {
					"approveRequest(uint256)": "d7d1bbdb",
					"createRequest(string,uint256,address)": "8a9cfd55",
					"endTime()": "3197cbb6",
					"finalizeRequest(uint256)": "03441006",
					"getBalance()": "12065fe0",
					"getRemainTime()": "fc2615d5",
					"getRequestDetailByIndex(uint256)": "69efb694",
					"getRequestsCount()": "3410452a",
					"getSupporters()": "43020b1a",
					"getSupportersCount()": "63b393d8",
					"manager()": "481c6a75",
					"projectName()": "9a33e300",
					"refund()": "590e1ae3",
					"support()": "119f8747",
					"supportMoney()": "a5d5c5dc",
					"supporters(uint256)": "3c24b7d7",
					"targetMoney()": "8d7cdb91"
				}
			},
			"userdoc": {
				"methods": {}
			}
		}
	}
}