{
	"src/funding/src/contracts/Funding.sol": {
		"Funding": {
			"abi": [
				{
					"constant": false,
					"inputs": [
						{
							"name": "_requestId",
							"type": "uint256"
						}
					],
					"name": "finalizeRequest",
					"outputs": [],
					"payable": true,
					"stateMutability": "payable",
					"type": "function"
				},
				{
					"constant": false,
					"inputs": [],
					"name": "support",
					"outputs": [],
					"payable": true,
					"stateMutability": "payable",
					"type": "function"
				},
				{
					"constant": true,
					"inputs": [],
					"name": "getBalance",
					"outputs": [
						{
							"name": "",
							"type": "uint256"
						}
					],
					"payable": false,
					"stateMutability": "view",
					"type": "function"
				},
				{
					"constant": true,
					"inputs": [],
					"name": "endTime",
					"outputs": [
						{
							"name": "",
							"type": "uint256"
						}
					],
					"payable": false,
					"stateMutability": "view",
					"type": "function"
				},
				{
					"constant": true,
					"inputs": [],
					"name": "getRequestsCount",
					"outputs": [
						{
							"name": "",
							"type": "uint256"
						}
					],
					"payable": false,
					"stateMutability": "view",
					"type": "function"
				},
				{
					"constant": true,
					"inputs": [
						{
							"name": "",
							"type": "uint256"
						}
					],
					"name": "supporters",
					"outputs": [
						{
							"name": "",
							"type": "address"
						}
					],
					"payable": false,
					"stateMutability": "view",
					"type": "function"
				},
				{
					"constant": true,
					"inputs": [],
					"name": "getSupporters",
					"outputs": [
						{
							"name": "",
							"type": "address[]"
						}
					],
					"payable": false,
					"stateMutability": "view",
					"type": "function"
				},
				{
					"constant": true,
					"inputs": [],
					"name": "manager",
					"outputs": [
						{
							"name": "",
							"type": "address"
						}
					],
					"payable": false,
					"stateMutability": "view",
					"type": "function"
				},
				{
					"constant": false,
					"inputs": [],
					"name": "refund",
					"outputs": [],
					"payable": false,
					"stateMutability": "nonpayable",
					"type": "function"
				},
				{
					"constant": true,
					"inputs": [],
					"name": "getSupportersCount",
					"outputs": [
						{
							"name": "",
							"type": "uint256"
						}
					],
					"payable": false,
					"stateMutability": "view",
					"type": "function"
				},
				{
					"constant": true,
					"inputs": [
						{
							"name": "_requestId",
							"type": "uint256"
						}
					],
					"name": "getRequestDetailByIndex",
					"outputs": [
						{
							"name": "",
							"type": "string"
						},
						{
							"name": "",
							"type": "uint256"
						},
						{
							"name": "",
							"type": "address"
						},
						{
							"name": "",
							"type": "uint256"
						},
						{
							"name": "",
							"type": "bool"
						},
						{
							"name": "",
							"type": "uint256"
						}
					],
					"payable": false,
					"stateMutability": "view",
					"type": "function"
				},
				{
					"constant": false,
					"inputs": [
						{
							"name": "_purpose",
							"type": "string"
						},
						{
							"name": "_cost",
							"type": "uint256"
						},
						{
							"name": "_shopAddress",
							"type": "address"
						}
					],
					"name": "createRequest",
					"outputs": [],
					"payable": false,
					"stateMutability": "nonpayable",
					"type": "function"
				},
				{
					"constant": true,
					"inputs": [],
					"name": "targetMoney",
					"outputs": [
						{
							"name": "",
							"type": "uint256"
						}
					],
					"payable": false,
					"stateMutability": "view",
					"type": "function"
				},
				{
					"constant": true,
					"inputs": [],
					"name": "projectName",
					"outputs": [
						{
							"name": "",
							"type": "string"
						}
					],
					"payable": false,
					"stateMutability": "view",
					"type": "function"
				},
				{
					"constant": true,
					"inputs": [],
					"name": "supportMoney",
					"outputs": [
						{
							"name": "",
							"type": "uint256"
						}
					],
					"payable": false,
					"stateMutability": "view",
					"type": "function"
				},
				{
					"constant": false,
					"inputs": [
						{
							"name": "_requestId",
							"type": "uint256"
						}
					],
					"name": "approveRequest",
					"outputs": [],
					"payable": false,
					"stateMutability": "nonpayable",
					"type": "function"
				},
				{
					"constant": true,
					"inputs": [],
					"name": "getRemainTime",
					"outputs": [
						{
							"name": "",
							"type": "uint256"
						}
					],
					"payable": false,
					"stateMutability": "view",
					"type": "function"
				},
				{
					"inputs": [
						{
							"name": "_projectName",
							"type": "string"
						},
						{
							"name": "_targetMoney",
							"type": "uint256"
						},
						{
							"name": "_supportMoney",
							"type": "uint256"
						},
						{
							"name": "_duration",
							"type": "uint256"
						}
					],
					"payable": false,
					"stateMutability": "nonpayable",
					"type": "constructor"
				}
			],
			"devdoc": {
				"methods": {}
			},
			"evm": {
				"assembly": "    /* \"src/funding/src/contracts/Funding.sol\":28:4359  contract Funding {\r... */\n  mstore(0x40, 0x80)\n    /* \"src/funding/src/contracts/Funding.sol\":414:719  constructor (string _projectName, uint256 _targetMoney, uint256 _supportMoney, uint256 _duration) public {\r... */\n  callvalue\n    /* \"--CODEGEN--\":8:17   */\n  dup1\n    /* \"--CODEGEN--\":5:7   */\n  iszero\n  tag_1\n  jumpi\n    /* \"--CODEGEN--\":30:31   */\n  0x0\n    /* \"--CODEGEN--\":27:28   */\n  dup1\n    /* \"--CODEGEN--\":20:32   */\n  revert\n    /* \"--CODEGEN--\":5:7   */\ntag_1:\n    /* \"src/funding/src/contracts/Funding.sol\":414:719  constructor (string _projectName, uint256 _targetMoney, uint256 _supportMoney, uint256 _duration) public {\r... */\n  pop\n  mload(0x40)\n  sub(codesize, bytecodeSize)\n  dup1\n  bytecodeSize\n  dup4\n  codecopy\n  dup2\n  add\n  dup1\n  0x40\n  mstore\n  dup2\n  add\n  swap1\n  dup1\n  dup1\n  mload\n  dup3\n  add\n  swap3\n  swap2\n  swap1\n  0x20\n  add\n  dup1\n  mload\n  swap1\n  0x20\n  add\n  swap1\n  swap3\n  swap2\n  swap1\n  dup1\n  mload\n  swap1\n  0x20\n  add\n  swap1\n  swap3\n  swap2\n  swap1\n  dup1\n  mload\n  swap1\n  0x20\n  add\n  swap1\n  swap3\n  swap2\n  swap1\n  pop\n  pop\n  pop\n    /* \"src/funding/src/contracts/Funding.sol\":540:550  msg.sender */\n  caller\n    /* \"src/funding/src/contracts/Funding.sol\":530:537  manager */\n  0x0\n  dup1\n    /* \"src/funding/src/contracts/Funding.sol\":530:550  manager = msg.sender */\n  0x100\n  exp\n  dup2\n  sload\n  dup2\n  0xffffffffffffffffffffffffffffffffffffffff\n  mul\n  not\n  and\n  swap1\n  dup4\n  0xffffffffffffffffffffffffffffffffffffffff\n  and\n  mul\n  or\n  swap1\n  sstore\n  pop\n    /* \"src/funding/src/contracts/Funding.sol\":575:587  _projectName */\n  dup4\n    /* \"src/funding/src/contracts/Funding.sol\":561:572  projectName */\n  0x1\n    /* \"src/funding/src/contracts/Funding.sol\":561:587  projectName = _projectName */\n  swap1\n  dup1\n  mload\n  swap1\n  0x20\n  add\n  swap1\n  tag_4\n  swap3\n  swap2\n  swap1\n  jump\t// in(tag_5)\ntag_4:\n  pop\n    /* \"src/funding/src/contracts/Funding.sol\":612:624  _targetMoney */\n  dup3\n    /* \"src/funding/src/contracts/Funding.sol\":598:609  targetMoney */\n  0x2\n    /* \"src/funding/src/contracts/Funding.sol\":598:624  targetMoney = _targetMoney */\n  dup2\n  swap1\n  sstore\n  pop\n    /* \"src/funding/src/contracts/Funding.sol\":650:663  _supportMoney */\n  dup2\n    /* \"src/funding/src/contracts/Funding.sol\":635:647  supportMoney */\n  0x3\n    /* \"src/funding/src/contracts/Funding.sol\":635:663  supportMoney = _supportMoney */\n  dup2\n  swap1\n  sstore\n  pop\n    /* \"src/funding/src/contracts/Funding.sol\":702:711  _duration */\n  dup1\n    /* \"src/funding/src/contracts/Funding.sol\":684:699  block.timestamp */\n  timestamp\n    /* \"src/funding/src/contracts/Funding.sol\":684:711  block.timestamp + _duration */\n  add\n    /* \"src/funding/src/contracts/Funding.sol\":674:681  endTime */\n  0x4\n    /* \"src/funding/src/contracts/Funding.sol\":674:711  endTime = block.timestamp + _duration */\n  dup2\n  swap1\n  sstore\n  pop\n    /* \"src/funding/src/contracts/Funding.sol\":414:719  constructor (string _projectName, uint256 _targetMoney, uint256 _supportMoney, uint256 _duration) public {\r... */\n  pop\n  pop\n  pop\n  pop\n    /* \"src/funding/src/contracts/Funding.sol\":28:4359  contract Funding {\r... */\n  jump(tag_6)\ntag_5:\n  dup3\n  dup1\n  sload\n  0x1\n  dup2\n  0x1\n  and\n  iszero\n  0x100\n  mul\n  sub\n  and\n  0x2\n  swap1\n  div\n  swap1\n  0x0\n  mstore\n  keccak256(0x0, 0x20)\n  swap1\n  0x1f\n  add\n  0x20\n  swap1\n  div\n  dup2\n  add\n  swap3\n  dup3\n  0x1f\n  lt\n  tag_8\n  jumpi\n  dup1\n  mload\n  not(0xff)\n  and\n  dup4\n  dup1\n  add\n  or\n  dup6\n  sstore\n  jump(tag_7)\ntag_8:\n  dup3\n  dup1\n  add\n  0x1\n  add\n  dup6\n  sstore\n  dup3\n  iszero\n  tag_7\n  jumpi\n  swap2\n  dup3\n  add\ntag_9:\n  dup3\n  dup2\n  gt\n  iszero\n  tag_10\n  jumpi\n  dup3\n  mload\n  dup3\n  sstore\n  swap2\n  0x20\n  add\n  swap2\n  swap1\n  0x1\n  add\n  swap1\n  jump(tag_9)\ntag_10:\ntag_7:\n  pop\n  swap1\n  pop\n  tag_11\n  swap2\n  swap1\n  jump\t// in(tag_12)\ntag_11:\n  pop\n  swap1\n  jump\t// out\ntag_12:\n  tag_13\n  swap2\n  swap1\ntag_14:\n  dup1\n  dup3\n  gt\n  iszero\n  tag_15\n  jumpi\n  0x0\n  dup2\n  0x0\n  swap1\n  sstore\n  pop\n  0x1\n  add\n  jump(tag_14)\ntag_15:\n  pop\n  swap1\n  jump\ntag_13:\n  swap1\n  jump\t// out\ntag_6:\n  dataSize(sub_0)\n  dup1\n  dataOffset(sub_0)\n  0x0\n  codecopy\n  0x0\n  return\nstop\n\nsub_0: assembly {\n        /* \"src/funding/src/contracts/Funding.sol\":28:4359  contract Funding {\r... */\n      mstore(0x40, 0x80)\n      jumpi(tag_1, lt(calldatasize, 0x4))\n      calldataload(0x0)\n      0x100000000000000000000000000000000000000000000000000000000\n      swap1\n      div\n      0xffffffff\n      and\n      dup1\n      0x3441006\n      eq\n      tag_2\n      jumpi\n      dup1\n      0x119f8747\n      eq\n      tag_3\n      jumpi\n      dup1\n      0x12065fe0\n      eq\n      tag_4\n      jumpi\n      dup1\n      0x3197cbb6\n      eq\n      tag_5\n      jumpi\n      dup1\n      0x3410452a\n      eq\n      tag_6\n      jumpi\n      dup1\n      0x3c24b7d7\n      eq\n      tag_7\n      jumpi\n      dup1\n      0x43020b1a\n      eq\n      tag_8\n      jumpi\n      dup1\n      0x481c6a75\n      eq\n      tag_9\n      jumpi\n      dup1\n      0x590e1ae3\n      eq\n      tag_10\n      jumpi\n      dup1\n      0x63b393d8\n      eq\n      tag_11\n      jumpi\n      dup1\n      0x69efb694\n      eq\n      tag_12\n      jumpi\n      dup1\n      0x8a9cfd55\n      eq\n      tag_13\n      jumpi\n      dup1\n      0x8d7cdb91\n      eq\n      tag_14\n      jumpi\n      dup1\n      0x9a33e300\n      eq\n      tag_15\n      jumpi\n      dup1\n      0xa5d5c5dc\n      eq\n      tag_16\n      jumpi\n      dup1\n      0xd7d1bbdb\n      eq\n      tag_17\n      jumpi\n      dup1\n      0xfc2615d5\n      eq\n      tag_18\n      jumpi\n    tag_1:\n      0x0\n      dup1\n      revert\n        /* \"src/funding/src/contracts/Funding.sol\":3037:3568  function finalizeRequest(uint256 _requestId) public payable {\r... */\n    tag_2:\n      tag_19\n      0x4\n      dup1\n      calldatasize\n      sub\n      dup2\n      add\n      swap1\n      dup1\n      dup1\n      calldataload\n      swap1\n      0x20\n      add\n      swap1\n      swap3\n      swap2\n      swap1\n      pop\n      pop\n      pop\n      jump(tag_20)\n    tag_19:\n      stop\n        /* \"src/funding/src/contracts/Funding.sol\":754:944  function support() payable public {\r... */\n    tag_3:\n      tag_21\n      jump(tag_22)\n    tag_21:\n      stop\n        /* \"src/funding/src/contracts/Funding.sol\":1162:1260  function getBalance() public view returns (uint256){\r... */\n    tag_4:\n      callvalue\n        /* \"--CODEGEN--\":8:17   */\n      dup1\n        /* \"--CODEGEN--\":5:7   */\n      iszero\n      tag_23\n      jumpi\n        /* \"--CODEGEN--\":30:31   */\n      0x0\n        /* \"--CODEGEN--\":27:28   */\n      dup1\n        /* \"--CODEGEN--\":20:32   */\n      revert\n        /* \"--CODEGEN--\":5:7   */\n    tag_23:\n        /* \"src/funding/src/contracts/Funding.sol\":1162:1260  function getBalance() public view returns (uint256){\r... */\n      pop\n      tag_24\n      jump(tag_25)\n    tag_24:\n      mload(0x40)\n      dup1\n      dup3\n      dup2\n      mstore\n      0x20\n      add\n      swap2\n      pop\n      pop\n      mload(0x40)\n      dup1\n      swap2\n      sub\n      swap1\n      return\n        /* \"src/funding/src/contracts/Funding.sol\":182:204  uint256 public endTime */\n    tag_5:\n      callvalue\n        /* \"--CODEGEN--\":8:17   */\n      dup1\n        /* \"--CODEGEN--\":5:7   */\n      iszero\n      tag_26\n      jumpi\n        /* \"--CODEGEN--\":30:31   */\n      0x0\n        /* \"--CODEGEN--\":27:28   */\n      dup1\n        /* \"--CODEGEN--\":20:32   */\n      revert\n        /* \"--CODEGEN--\":5:7   */\n    tag_26:\n        /* \"src/funding/src/contracts/Funding.sol\":182:204  uint256 public endTime */\n      pop\n      tag_27\n      jump(tag_28)\n    tag_27:\n      mload(0x40)\n      dup1\n      dup3\n      dup2\n      mstore\n      0x20\n      add\n      swap2\n      pop\n      pop\n      mload(0x40)\n      dup1\n      swap2\n      sub\n      swap1\n      return\n        /* \"src/funding/src/contracts/Funding.sol\":3804:3902  function getRequestsCount() public view returns (uint256){\r... */\n    tag_6:\n      callvalue\n        /* \"--CODEGEN--\":8:17   */\n      dup1\n        /* \"--CODEGEN--\":5:7   */\n      iszero\n      tag_29\n      jumpi\n        /* \"--CODEGEN--\":30:31   */\n      0x0\n        /* \"--CODEGEN--\":27:28   */\n      dup1\n        /* \"--CODEGEN--\":20:32   */\n      revert\n        /* \"--CODEGEN--\":5:7   */\n    tag_29:\n        /* \"src/funding/src/contracts/Funding.sol\":3804:3902  function getRequestsCount() public view returns (uint256){\r... */\n      pop\n      tag_30\n      jump(tag_31)\n    tag_30:\n      mload(0x40)\n      dup1\n      dup3\n      dup2\n      mstore\n      0x20\n      add\n      swap2\n      pop\n      pop\n      mload(0x40)\n      dup1\n      swap2\n      sub\n      swap1\n      return\n        /* \"src/funding/src/contracts/Funding.sol\":237:264  address[] public supporters */\n    tag_7:\n      callvalue\n        /* \"--CODEGEN--\":8:17   */\n      dup1\n        /* \"--CODEGEN--\":5:7   */\n      iszero\n      tag_32\n      jumpi\n        /* \"--CODEGEN--\":30:31   */\n      0x0\n        /* \"--CODEGEN--\":27:28   */\n      dup1\n        /* \"--CODEGEN--\":20:32   */\n      revert\n        /* \"--CODEGEN--\":5:7   */\n    tag_32:\n        /* \"src/funding/src/contracts/Funding.sol\":237:264  address[] public supporters */\n      pop\n      tag_33\n      0x4\n      dup1\n      calldatasize\n      sub\n      dup2\n      add\n      swap1\n      dup1\n      dup1\n      calldataload\n      swap1\n      0x20\n      add\n      swap1\n      swap3\n      swap2\n      swap1\n      pop\n      pop\n      pop\n      jump(tag_34)\n    tag_33:\n      mload(0x40)\n      dup1\n      dup3\n      0xffffffffffffffffffffffffffffffffffffffff\n      and\n      0xffffffffffffffffffffffffffffffffffffffff\n      and\n      dup2\n      mstore\n      0x20\n      add\n      swap2\n      pop\n      pop\n      mload(0x40)\n      dup1\n      swap2\n      sub\n      swap1\n      return\n        /* \"src/funding/src/contracts/Funding.sol\":1268:1360  function getSupporters() public view returns (address[]){\r... */\n    tag_8:\n      callvalue\n        /* \"--CODEGEN--\":8:17   */\n      dup1\n        /* \"--CODEGEN--\":5:7   */\n      iszero\n      tag_35\n      jumpi\n        /* \"--CODEGEN--\":30:31   */\n      0x0\n        /* \"--CODEGEN--\":27:28   */\n      dup1\n        /* \"--CODEGEN--\":20:32   */\n      revert\n        /* \"--CODEGEN--\":5:7   */\n    tag_35:\n        /* \"src/funding/src/contracts/Funding.sol\":1268:1360  function getSupporters() public view returns (address[]){\r... */\n      pop\n      tag_36\n      jump(tag_37)\n    tag_36:\n      mload(0x40)\n      dup1\n      dup1\n      0x20\n      add\n      dup3\n      dup2\n      sub\n      dup3\n      mstore\n      dup4\n      dup2\n      dup2\n      mload\n      dup2\n      mstore\n      0x20\n      add\n      swap2\n      pop\n      dup1\n      mload\n      swap1\n      0x20\n      add\n      swap1\n      0x20\n      mul\n      dup1\n      dup4\n      dup4\n        /* \"--CODEGEN--\":23:24   */\n      0x0\n        /* \"--CODEGEN--\":8:108   */\n    tag_38:\n        /* \"--CODEGEN--\":33:36   */\n      dup4\n        /* \"--CODEGEN--\":30:31   */\n      dup2\n        /* \"--CODEGEN--\":27:37   */\n      lt\n        /* \"--CODEGEN--\":8:108   */\n      iszero\n      tag_39\n      jumpi\n        /* \"--CODEGEN--\":99:100   */\n      dup1\n        /* \"--CODEGEN--\":94:97   */\n      dup3\n        /* \"--CODEGEN--\":90:101   */\n      add\n        /* \"--CODEGEN--\":84:102   */\n      mload\n        /* \"--CODEGEN--\":80:81   */\n      dup2\n        /* \"--CODEGEN--\":75:78   */\n      dup5\n        /* \"--CODEGEN--\":71:82   */\n      add\n        /* \"--CODEGEN--\":64:103   */\n      mstore\n        /* \"--CODEGEN--\":52:54   */\n      0x20\n        /* \"--CODEGEN--\":49:50   */\n      dup2\n        /* \"--CODEGEN--\":45:55   */\n      add\n        /* \"--CODEGEN--\":40:55   */\n      swap1\n      pop\n        /* \"--CODEGEN--\":8:108   */\n      jump(tag_38)\n    tag_39:\n        /* \"--CODEGEN--\":12:26   */\n      pop\n        /* \"src/funding/src/contracts/Funding.sol\":1268:1360  function getSupporters() public view returns (address[]){\r... */\n      pop\n      pop\n      pop\n      swap1\n      pop\n      add\n      swap3\n      pop\n      pop\n      pop\n      mload(0x40)\n      dup1\n      swap2\n      sub\n      swap1\n      return\n        /* \"src/funding/src/contracts/Funding.sol\":54:76  address public manager */\n    tag_9:\n      callvalue\n        /* \"--CODEGEN--\":8:17   */\n      dup1\n        /* \"--CODEGEN--\":5:7   */\n      iszero\n      tag_41\n      jumpi\n        /* \"--CODEGEN--\":30:31   */\n      0x0\n        /* \"--CODEGEN--\":27:28   */\n      dup1\n        /* \"--CODEGEN--\":20:32   */\n      revert\n        /* \"--CODEGEN--\":5:7   */\n    tag_41:\n        /* \"src/funding/src/contracts/Funding.sol\":54:76  address public manager */\n      pop\n      tag_42\n      jump(tag_43)\n    tag_42:\n      mload(0x40)\n      dup1\n      dup3\n      0xffffffffffffffffffffffffffffffffffffffff\n      and\n      0xffffffffffffffffffffffffffffffffffffffff\n      and\n      dup2\n      mstore\n      0x20\n      add\n      swap2\n      pop\n      pop\n      mload(0x40)\n      dup1\n      swap2\n      sub\n      swap1\n      return\n        /* \"src/funding/src/contracts/Funding.sol\":970:1154  function refund() public {\r... */\n    tag_10:\n      callvalue\n        /* \"--CODEGEN--\":8:17   */\n      dup1\n        /* \"--CODEGEN--\":5:7   */\n      iszero\n      tag_44\n      jumpi\n        /* \"--CODEGEN--\":30:31   */\n      0x0\n        /* \"--CODEGEN--\":27:28   */\n      dup1\n        /* \"--CODEGEN--\":20:32   */\n      revert\n        /* \"--CODEGEN--\":5:7   */\n    tag_44:\n        /* \"src/funding/src/contracts/Funding.sol\":970:1154  function refund() public {\r... */\n      pop\n      tag_45\n      jump(tag_46)\n    tag_45:\n      stop\n        /* \"src/funding/src/contracts/Funding.sol\":3576:3678  function getSupportersCount() public view returns (uint256){\r... */\n    tag_11:\n      callvalue\n        /* \"--CODEGEN--\":8:17   */\n      dup1\n        /* \"--CODEGEN--\":5:7   */\n      iszero\n      tag_47\n      jumpi\n        /* \"--CODEGEN--\":30:31   */\n      0x0\n        /* \"--CODEGEN--\":27:28   */\n      dup1\n        /* \"--CODEGEN--\":20:32   */\n      revert\n        /* \"--CODEGEN--\":5:7   */\n    tag_47:\n        /* \"src/funding/src/contracts/Funding.sol\":3576:3678  function getSupportersCount() public view returns (uint256){\r... */\n      pop\n      tag_48\n      jump(tag_49)\n    tag_48:\n      mload(0x40)\n      dup1\n      dup3\n      dup2\n      mstore\n      0x20\n      add\n      swap2\n      pop\n      pop\n      mload(0x40)\n      dup1\n      swap2\n      sub\n      swap1\n      return\n        /* \"src/funding/src/contracts/Funding.sol\":3916:4352  function getRequestDetailByIndex(uint256 _requestId)    public view returns (string, uint256, address, uint256, bool, uint256){\r... */\n    tag_12:\n      callvalue\n        /* \"--CODEGEN--\":8:17   */\n      dup1\n        /* \"--CODEGEN--\":5:7   */\n      iszero\n      tag_50\n      jumpi\n        /* \"--CODEGEN--\":30:31   */\n      0x0\n        /* \"--CODEGEN--\":27:28   */\n      dup1\n        /* \"--CODEGEN--\":20:32   */\n      revert\n        /* \"--CODEGEN--\":5:7   */\n    tag_50:\n        /* \"src/funding/src/contracts/Funding.sol\":3916:4352  function getRequestDetailByIndex(uint256 _requestId)    public view returns (string, uint256, address, uint256, bool, uint256){\r... */\n      pop\n      tag_51\n      0x4\n      dup1\n      calldatasize\n      sub\n      dup2\n      add\n      swap1\n      dup1\n      dup1\n      calldataload\n      swap1\n      0x20\n      add\n      swap1\n      swap3\n      swap2\n      swap1\n      pop\n      pop\n      pop\n      jump(tag_52)\n    tag_51:\n      mload(0x40)\n      dup1\n      dup1\n      0x20\n      add\n      dup8\n      dup2\n      mstore\n      0x20\n      add\n      dup7\n      0xffffffffffffffffffffffffffffffffffffffff\n      and\n      0xffffffffffffffffffffffffffffffffffffffff\n      and\n      dup2\n      mstore\n      0x20\n      add\n      dup6\n      dup2\n      mstore\n      0x20\n      add\n      dup5\n      iszero\n      iszero\n      iszero\n      iszero\n      dup2\n      mstore\n      0x20\n      add\n      dup4\n      dup2\n      mstore\n      0x20\n      add\n      dup3\n      dup2\n      sub\n      dup3\n      mstore\n      dup9\n      dup2\n      dup2\n      mload\n      dup2\n      mstore\n      0x20\n      add\n      swap2\n      pop\n      dup1\n      mload\n      swap1\n      0x20\n      add\n      swap1\n      dup1\n      dup4\n      dup4\n        /* \"--CODEGEN--\":23:24   */\n      0x0\n        /* \"--CODEGEN--\":8:108   */\n    tag_53:\n        /* \"--CODEGEN--\":33:36   */\n      dup4\n        /* \"--CODEGEN--\":30:31   */\n      dup2\n        /* \"--CODEGEN--\":27:37   */\n      lt\n        /* \"--CODEGEN--\":8:108   */\n      iszero\n      tag_54\n      jumpi\n        /* \"--CODEGEN--\":99:100   */\n      dup1\n        /* \"--CODEGEN--\":94:97   */\n      dup3\n        /* \"--CODEGEN--\":90:101   */\n      add\n        /* \"--CODEGEN--\":84:102   */\n      mload\n        /* \"--CODEGEN--\":80:81   */\n      dup2\n        /* \"--CODEGEN--\":75:78   */\n      dup5\n        /* \"--CODEGEN--\":71:82   */\n      add\n        /* \"--CODEGEN--\":64:103   */\n      mstore\n        /* \"--CODEGEN--\":52:54   */\n      0x20\n        /* \"--CODEGEN--\":49:50   */\n      dup2\n        /* \"--CODEGEN--\":45:55   */\n      add\n        /* \"--CODEGEN--\":40:55   */\n      swap1\n      pop\n        /* \"--CODEGEN--\":8:108   */\n      jump(tag_53)\n    tag_54:\n        /* \"--CODEGEN--\":12:26   */\n      pop\n        /* \"src/funding/src/contracts/Funding.sol\":3916:4352  function getRequestDetailByIndex(uint256 _requestId)    public view returns (string, uint256, address, uint256, bool, uint256){\r... */\n      pop\n      pop\n      pop\n      swap1\n      pop\n      swap1\n      dup2\n      add\n      swap1\n      0x1f\n      and\n      dup1\n      iszero\n      tag_56\n      jumpi\n      dup1\n      dup3\n      sub\n      dup1\n      mload\n      0x1\n      dup4\n      0x20\n      sub\n      0x100\n      exp\n      sub\n      not\n      and\n      dup2\n      mstore\n      0x20\n      add\n      swap2\n      pop\n    tag_56:\n      pop\n      swap8\n      pop\n      pop\n      pop\n      pop\n      pop\n      pop\n      pop\n      pop\n      mload(0x40)\n      dup1\n      swap2\n      sub\n      swap1\n      return\n        /* \"src/funding/src/contracts/Funding.sol\":1854:2280  function createRequest(string _purpose, uint256 _cost, address _shopAddress) public {\r... */\n    tag_13:\n      callvalue\n        /* \"--CODEGEN--\":8:17   */\n      dup1\n        /* \"--CODEGEN--\":5:7   */\n      iszero\n      tag_57\n      jumpi\n        /* \"--CODEGEN--\":30:31   */\n      0x0\n        /* \"--CODEGEN--\":27:28   */\n      dup1\n        /* \"--CODEGEN--\":20:32   */\n      revert\n        /* \"--CODEGEN--\":5:7   */\n    tag_57:\n        /* \"src/funding/src/contracts/Funding.sol\":1854:2280  function createRequest(string _purpose, uint256 _cost, address _shopAddress) public {\r... */\n      pop\n      tag_58\n      0x4\n      dup1\n      calldatasize\n      sub\n      dup2\n      add\n      swap1\n      dup1\n      dup1\n      calldataload\n      swap1\n      0x20\n      add\n      swap1\n      dup3\n      add\n      dup1\n      calldataload\n      swap1\n      0x20\n      add\n      swap1\n      dup1\n      dup1\n      0x1f\n      add\n      0x20\n      dup1\n      swap2\n      div\n      mul\n      0x20\n      add\n      mload(0x40)\n      swap1\n      dup2\n      add\n      0x40\n      mstore\n      dup1\n      swap4\n      swap3\n      swap2\n      swap1\n      dup2\n      dup2\n      mstore\n      0x20\n      add\n      dup4\n      dup4\n      dup1\n      dup3\n      dup5\n      calldatacopy\n      dup3\n      add\n      swap2\n      pop\n      pop\n      pop\n      pop\n      pop\n      pop\n      swap2\n      swap3\n      swap2\n      swap3\n      swap1\n      dup1\n      calldataload\n      swap1\n      0x20\n      add\n      swap1\n      swap3\n      swap2\n      swap1\n      dup1\n      calldataload\n      0xffffffffffffffffffffffffffffffffffffffff\n      and\n      swap1\n      0x20\n      add\n      swap1\n      swap3\n      swap2\n      swap1\n      pop\n      pop\n      pop\n      jump(tag_59)\n    tag_58:\n      stop\n        /* \"src/funding/src/contracts/Funding.sol\":115:141  uint256 public targetMoney */\n    tag_14:\n      callvalue\n        /* \"--CODEGEN--\":8:17   */\n      dup1\n        /* \"--CODEGEN--\":5:7   */\n      iszero\n      tag_60\n      jumpi\n        /* \"--CODEGEN--\":30:31   */\n      0x0\n        /* \"--CODEGEN--\":27:28   */\n      dup1\n        /* \"--CODEGEN--\":20:32   */\n      revert\n        /* \"--CODEGEN--\":5:7   */\n    tag_60:\n        /* \"src/funding/src/contracts/Funding.sol\":115:141  uint256 public targetMoney */\n      pop\n      tag_61\n      jump(tag_62)\n    tag_61:\n      mload(0x40)\n      dup1\n      dup3\n      dup2\n      mstore\n      0x20\n      add\n      swap2\n      pop\n      pop\n      mload(0x40)\n      dup1\n      swap2\n      sub\n      swap1\n      return\n        /* \"src/funding/src/contracts/Funding.sol\":83:108  string public projectName */\n    tag_15:\n      callvalue\n        /* \"--CODEGEN--\":8:17   */\n      dup1\n        /* \"--CODEGEN--\":5:7   */\n      iszero\n      tag_63\n      jumpi\n        /* \"--CODEGEN--\":30:31   */\n      0x0\n        /* \"--CODEGEN--\":27:28   */\n      dup1\n        /* \"--CODEGEN--\":20:32   */\n      revert\n        /* \"--CODEGEN--\":5:7   */\n    tag_63:\n        /* \"src/funding/src/contracts/Funding.sol\":83:108  string public projectName */\n      pop\n      tag_64\n      jump(tag_65)\n    tag_64:\n      mload(0x40)\n      dup1\n      dup1\n      0x20\n      add\n      dup3\n      dup2\n      sub\n      dup3\n      mstore\n      dup4\n      dup2\n      dup2\n      mload\n      dup2\n      mstore\n      0x20\n      add\n      swap2\n      pop\n      dup1\n      mload\n      swap1\n      0x20\n      add\n      swap1\n      dup1\n      dup4\n      dup4\n        /* \"--CODEGEN--\":23:24   */\n      0x0\n        /* \"--CODEGEN--\":8:108   */\n    tag_66:\n        /* \"--CODEGEN--\":33:36   */\n      dup4\n        /* \"--CODEGEN--\":30:31   */\n      dup2\n        /* \"--CODEGEN--\":27:37   */\n      lt\n        /* \"--CODEGEN--\":8:108   */\n      iszero\n      tag_67\n      jumpi\n        /* \"--CODEGEN--\":99:100   */\n      dup1\n        /* \"--CODEGEN--\":94:97   */\n      dup3\n        /* \"--CODEGEN--\":90:101   */\n      add\n        /* \"--CODEGEN--\":84:102   */\n      mload\n        /* \"--CODEGEN--\":80:81   */\n      dup2\n        /* \"--CODEGEN--\":75:78   */\n      dup5\n        /* \"--CODEGEN--\":71:82   */\n      add\n        /* \"--CODEGEN--\":64:103   */\n      mstore\n        /* \"--CODEGEN--\":52:54   */\n      0x20\n        /* \"--CODEGEN--\":49:50   */\n      dup2\n        /* \"--CODEGEN--\":45:55   */\n      add\n        /* \"--CODEGEN--\":40:55   */\n      swap1\n      pop\n        /* \"--CODEGEN--\":8:108   */\n      jump(tag_66)\n    tag_67:\n        /* \"--CODEGEN--\":12:26   */\n      pop\n        /* \"src/funding/src/contracts/Funding.sol\":83:108  string public projectName */\n      pop\n      pop\n      pop\n      swap1\n      pop\n      swap1\n      dup2\n      add\n      swap1\n      0x1f\n      and\n      dup1\n      iszero\n      tag_69\n      jumpi\n      dup1\n      dup3\n      sub\n      dup1\n      mload\n      0x1\n      dup4\n      0x20\n      sub\n      0x100\n      exp\n      sub\n      not\n      and\n      dup2\n      mstore\n      0x20\n      add\n      swap2\n      pop\n    tag_69:\n      pop\n      swap3\n      pop\n      pop\n      pop\n      mload(0x40)\n      dup1\n      swap2\n      sub\n      swap1\n      return\n        /* \"src/funding/src/contracts/Funding.sol\":148:175  uint256 public supportMoney */\n    tag_16:\n      callvalue\n        /* \"--CODEGEN--\":8:17   */\n      dup1\n        /* \"--CODEGEN--\":5:7   */\n      iszero\n      tag_70\n      jumpi\n        /* \"--CODEGEN--\":30:31   */\n      0x0\n        /* \"--CODEGEN--\":27:28   */\n      dup1\n        /* \"--CODEGEN--\":20:32   */\n      revert\n        /* \"--CODEGEN--\":5:7   */\n    tag_70:\n        /* \"src/funding/src/contracts/Funding.sol\":148:175  uint256 public supportMoney */\n      pop\n      tag_71\n      jump(tag_72)\n    tag_71:\n      mload(0x40)\n      dup1\n      dup3\n      dup2\n      mstore\n      0x20\n      add\n      swap2\n      pop\n      pop\n      mload(0x40)\n      dup1\n      swap2\n      sub\n      swap1\n      return\n        /* \"src/funding/src/contracts/Funding.sol\":2309:3008  function approveRequest(uint256 _requestId) public {\r... */\n    tag_17:\n      callvalue\n        /* \"--CODEGEN--\":8:17   */\n      dup1\n        /* \"--CODEGEN--\":5:7   */\n      iszero\n      tag_73\n      jumpi\n        /* \"--CODEGEN--\":30:31   */\n      0x0\n        /* \"--CODEGEN--\":27:28   */\n      dup1\n        /* \"--CODEGEN--\":20:32   */\n      revert\n        /* \"--CODEGEN--\":5:7   */\n    tag_73:\n        /* \"src/funding/src/contracts/Funding.sol\":2309:3008  function approveRequest(uint256 _requestId) public {\r... */\n      pop\n      tag_74\n      0x4\n      dup1\n      calldatasize\n      sub\n      dup2\n      add\n      swap1\n      dup1\n      dup1\n      calldataload\n      swap1\n      0x20\n      add\n      swap1\n      swap3\n      swap2\n      swap1\n      pop\n      pop\n      pop\n      jump(tag_75)\n    tag_74:\n      stop\n        /* \"src/funding/src/contracts/Funding.sol\":3686:3796  function getRemainTime() public view returns (uint256){\r... */\n    tag_18:\n      callvalue\n        /* \"--CODEGEN--\":8:17   */\n      dup1\n        /* \"--CODEGEN--\":5:7   */\n      iszero\n      tag_76\n      jumpi\n        /* \"--CODEGEN--\":30:31   */\n      0x0\n        /* \"--CODEGEN--\":27:28   */\n      dup1\n        /* \"--CODEGEN--\":20:32   */\n      revert\n        /* \"--CODEGEN--\":5:7   */\n    tag_76:\n        /* \"src/funding/src/contracts/Funding.sol\":3686:3796  function getRemainTime() public view returns (uint256){\r... */\n      pop\n      tag_77\n      jump(tag_78)\n    tag_77:\n      mload(0x40)\n      dup1\n      dup3\n      dup2\n      mstore\n      0x20\n      add\n      swap2\n      pop\n      pop\n      mload(0x40)\n      dup1\n      swap2\n      sub\n      swap1\n      return\n        /* \"src/funding/src/contracts/Funding.sol\":3037:3568  function finalizeRequest(uint256 _requestId) public payable {\r... */\n    tag_20:\n        /* \"src/funding/src/contracts/Funding.sol\":3148:3171  Request storage request */\n      0x0\n        /* \"src/funding/src/contracts/Funding.sol\":3174:3182  requests */\n      0x7\n        /* \"src/funding/src/contracts/Funding.sol\":3183:3193  _requestId */\n      dup3\n        /* \"src/funding/src/contracts/Funding.sol\":3174:3194  requests[_requestId] */\n      dup2\n      sload\n      dup2\n      lt\n      iszero\n      iszero\n      tag_80\n      jumpi\n      invalid\n    tag_80:\n      swap1\n      0x0\n      mstore\n      keccak256(0x0, 0x20)\n      swap1\n      0x6\n      mul\n      add\n        /* \"src/funding/src/contracts/Funding.sol\":3148:3194  Request storage request = requests[_requestId] */\n      swap1\n      pop\n        /* \"src/funding/src/contracts/Funding.sol\":3284:3291  request */\n      dup1\n        /* \"src/funding/src/contracts/Funding.sol\":3284:3296  request.cost */\n      0x1\n      add\n      sload\n        /* \"src/funding/src/contracts/Funding.sol\":3267:3271  this */\n      address\n        /* \"src/funding/src/contracts/Funding.sol\":3259:3280  address(this).balance */\n      0xffffffffffffffffffffffffffffffffffffffff\n      and\n      balance\n        /* \"src/funding/src/contracts/Funding.sol\":3259:3296  address(this).balance >= request.cost */\n      lt\n      iszero\n        /* \"src/funding/src/contracts/Funding.sol\":3251:3297  require(address(this).balance >= request.cost) */\n      iszero\n      iszero\n      tag_82\n      jumpi\n      0x0\n      dup1\n      revert\n    tag_82:\n        /* \"src/funding/src/contracts/Funding.sol\":3393:3394  2 */\n      0x2\n        /* \"src/funding/src/contracts/Funding.sol\":3373:3383  supporters */\n      0x5\n        /* \"src/funding/src/contracts/Funding.sol\":3373:3390  supporters.length */\n      dup1\n      sload\n      swap1\n      pop\n        /* \"src/funding/src/contracts/Funding.sol\":3373:3394  supporters.length / 2 */\n      dup2\n      iszero\n      iszero\n      tag_83\n      jumpi\n      invalid\n    tag_83:\n      div\n        /* \"src/funding/src/contracts/Funding.sol\":3353:3360  request */\n      dup2\n        /* \"src/funding/src/contracts/Funding.sol\":3353:3370  request.voteCount */\n      0x3\n      add\n      sload\n        /* \"src/funding/src/contracts/Funding.sol\":3353:3394  request.voteCount > supporters.length / 2 */\n      gt\n        /* \"src/funding/src/contracts/Funding.sol\":3345:3395  require(request.voteCount > supporters.length / 2) */\n      iszero\n      iszero\n      tag_84\n      jumpi\n      0x0\n      dup1\n      revert\n    tag_84:\n        /* \"src/funding/src/contracts/Funding.sol\":3440:3447  request */\n      dup1\n        /* \"src/funding/src/contracts/Funding.sol\":3440:3459  request.shopAddress */\n      0x2\n      add\n      0x0\n      swap1\n      sload\n      swap1\n      0x100\n      exp\n      swap1\n      div\n      0xffffffffffffffffffffffffffffffffffffffff\n      and\n        /* \"src/funding/src/contracts/Funding.sol\":3440:3468  request.shopAddress.transfer */\n      0xffffffffffffffffffffffffffffffffffffffff\n      and\n        /* \"src/funding/src/contracts/Funding.sol\":3440:3482  request.shopAddress.transfer(request.cost) */\n      0x8fc\n        /* \"src/funding/src/contracts/Funding.sol\":3469:3476  request */\n      dup3\n        /* \"src/funding/src/contracts/Funding.sol\":3469:3481  request.cost */\n      0x1\n      add\n      sload\n        /* \"src/funding/src/contracts/Funding.sol\":3440:3482  request.shopAddress.transfer(request.cost) */\n      swap1\n      dup2\n      iszero\n      mul\n      swap1\n      mload(0x40)\n      0x0\n      mload(0x40)\n      dup1\n      dup4\n      sub\n      dup2\n      dup6\n      dup9\n      dup9\n      call\n      swap4\n      pop\n      pop\n      pop\n      pop\n      iszero\n        /* \"--CODEGEN--\":8:17   */\n      dup1\n        /* \"--CODEGEN--\":5:7   */\n      iszero\n      tag_85\n      jumpi\n        /* \"--CODEGEN--\":45:61   */\n      returndatasize\n        /* \"--CODEGEN--\":42:43   */\n      0x0\n        /* \"--CODEGEN--\":39:40   */\n      dup1\n        /* \"--CODEGEN--\":24:62   */\n      returndatacopy\n        /* \"--CODEGEN--\":77:93   */\n      returndatasize\n        /* \"--CODEGEN--\":74:75   */\n      0x0\n        /* \"--CODEGEN--\":67:94   */\n      revert\n        /* \"--CODEGEN--\":5:7   */\n    tag_85:\n        /* \"src/funding/src/contracts/Funding.sol\":3440:3482  request.shopAddress.transfer(request.cost) */\n      pop\n        /* \"src/funding/src/contracts/Funding.sol\":3535:3558  RequestStatus.Completed */\n      0x2\n        /* \"src/funding/src/contracts/Funding.sol\":3518:3525  request */\n      dup2\n        /* \"src/funding/src/contracts/Funding.sol\":3518:3532  request.status */\n      0x5\n      add\n      0x0\n        /* \"src/funding/src/contracts/Funding.sol\":3518:3558  request.status = RequestStatus.Completed */\n      0x100\n      exp\n      dup2\n      sload\n      dup2\n      0xff\n      mul\n      not\n      and\n      swap1\n      dup4\n      0x3\n      dup2\n      gt\n      iszero\n      tag_86\n      jumpi\n      invalid\n    tag_86:\n      mul\n      or\n      swap1\n      sstore\n      pop\n        /* \"src/funding/src/contracts/Funding.sol\":3037:3568  function finalizeRequest(uint256 _requestId) public payable {\r... */\n      pop\n      pop\n      jump\t// out\n        /* \"src/funding/src/contracts/Funding.sol\":754:944  function support() payable public {\r... */\n    tag_22:\n        /* \"src/funding/src/contracts/Funding.sol\":820:832  supportMoney */\n      sload(0x3)\n        /* \"src/funding/src/contracts/Funding.sol\":807:816  msg.value */\n      callvalue\n        /* \"src/funding/src/contracts/Funding.sol\":807:832  msg.value == supportMoney */\n      eq\n        /* \"src/funding/src/contracts/Funding.sol\":799:855  require(msg.value == supportMoney, \"投资金额错误\") */\n      iszero\n      iszero\n      tag_88\n      jumpi\n      mload(0x40)\n      0x8c379a000000000000000000000000000000000000000000000000000000000\n      dup2\n      mstore\n      0x4\n      add\n      dup1\n      dup1\n      0x20\n      add\n      dup3\n      dup2\n      sub\n      dup3\n      mstore\n      0x12\n      dup2\n      mstore\n      0x20\n      add\n      dup1\n      0xe68a95e8b584e98791e9a29de99499e8afaf0000000000000000000000000000\n      dup2\n      mstore\n      pop\n      0x20\n      add\n      swap2\n      pop\n      pop\n      mload(0x40)\n      dup1\n      swap2\n      sub\n      swap1\n      revert\n    tag_88:\n        /* \"src/funding/src/contracts/Funding.sol\":866:876  supporters */\n      0x5\n        /* \"src/funding/src/contracts/Funding.sol\":882:892  msg.sender */\n      caller\n        /* \"src/funding/src/contracts/Funding.sol\":866:893  supporters.push(msg.sender) */\n      swap1\n      dup1\n        /* \"--CODEGEN--\":39:40   */\n      0x1\n        /* \"--CODEGEN--\":33:36   */\n      dup2\n        /* \"--CODEGEN--\":27:37   */\n      sload\n        /* \"--CODEGEN--\":23:41   */\n      add\n        /* \"--CODEGEN--\":57:67   */\n      dup1\n        /* \"--CODEGEN--\":52:55   */\n      dup3\n        /* \"--CODEGEN--\":45:68   */\n      sstore\n        /* \"--CODEGEN--\":79:89   */\n      dup1\n        /* \"--CODEGEN--\":72:89   */\n      swap2\n      pop\n        /* \"--CODEGEN--\":0:93   */\n      pop\n        /* \"src/funding/src/contracts/Funding.sol\":866:893  supporters.push(msg.sender) */\n      swap1\n      0x1\n      dup3\n      sub\n      swap1\n      0x0\n      mstore\n      keccak256(0x0, 0x20)\n      add\n      0x0\n      swap1\n      swap2\n      swap3\n      swap1\n      swap2\n      swap1\n      swap2\n      0x100\n      exp\n      dup2\n      sload\n      dup2\n      0xffffffffffffffffffffffffffffffffffffffff\n      mul\n      not\n      and\n      swap1\n      dup4\n      0xffffffffffffffffffffffffffffffffffffffff\n      and\n      mul\n      or\n      swap1\n      sstore\n      pop\n      pop\n        /* \"src/funding/src/contracts/Funding.sol\":932:936  true */\n      0x1\n        /* \"src/funding/src/contracts/Funding.sol\":904:917  supportersMap */\n      0x6\n        /* \"src/funding/src/contracts/Funding.sol\":904:929  supportersMap[msg.sender] */\n      0x0\n        /* \"src/funding/src/contracts/Funding.sol\":918:928  msg.sender */\n      caller\n        /* \"src/funding/src/contracts/Funding.sol\":904:929  supportersMap[msg.sender] */\n      0xffffffffffffffffffffffffffffffffffffffff\n      and\n      0xffffffffffffffffffffffffffffffffffffffff\n      and\n      dup2\n      mstore\n      0x20\n      add\n      swap1\n      dup2\n      mstore\n      0x20\n      add\n      0x0\n      keccak256\n      0x0\n        /* \"src/funding/src/contracts/Funding.sol\":904:936  supportersMap[msg.sender] = true */\n      0x100\n      exp\n      dup2\n      sload\n      dup2\n      0xff\n      mul\n      not\n      and\n      swap1\n      dup4\n      iszero\n      iszero\n      mul\n      or\n      swap1\n      sstore\n      pop\n        /* \"src/funding/src/contracts/Funding.sol\":754:944  function support() payable public {\r... */\n      jump\t// out\n        /* \"src/funding/src/contracts/Funding.sol\":1162:1260  function getBalance() public view returns (uint256){\r... */\n    tag_25:\n        /* \"src/funding/src/contracts/Funding.sol\":1205:1212  uint256 */\n      0x0\n        /* \"src/funding/src/contracts/Funding.sol\":1239:1243  this */\n      address\n        /* \"src/funding/src/contracts/Funding.sol\":1231:1252  address(this).balance */\n      0xffffffffffffffffffffffffffffffffffffffff\n      and\n      balance\n        /* \"src/funding/src/contracts/Funding.sol\":1224:1252  return address(this).balance */\n      swap1\n      pop\n        /* \"src/funding/src/contracts/Funding.sol\":1162:1260  function getBalance() public view returns (uint256){\r... */\n      swap1\n      jump\t// out\n        /* \"src/funding/src/contracts/Funding.sol\":182:204  uint256 public endTime */\n    tag_28:\n      sload(0x4)\n      dup2\n      jump\t// out\n        /* \"src/funding/src/contracts/Funding.sol\":3804:3902  function getRequestsCount() public view returns (uint256){\r... */\n    tag_31:\n        /* \"src/funding/src/contracts/Funding.sol\":3853:3860  uint256 */\n      0x0\n        /* \"src/funding/src/contracts/Funding.sol\":3879:3887  requests */\n      0x7\n        /* \"src/funding/src/contracts/Funding.sol\":3879:3894  requests.length */\n      dup1\n      sload\n      swap1\n      pop\n        /* \"src/funding/src/contracts/Funding.sol\":3872:3894  return requests.length */\n      swap1\n      pop\n        /* \"src/funding/src/contracts/Funding.sol\":3804:3902  function getRequestsCount() public view returns (uint256){\r... */\n      swap1\n      jump\t// out\n        /* \"src/funding/src/contracts/Funding.sol\":237:264  address[] public supporters */\n    tag_34:\n      0x5\n      dup2\n      dup2\n      sload\n      dup2\n      lt\n      iszero\n      iszero\n      tag_92\n      jumpi\n      invalid\n    tag_92:\n      swap1\n      0x0\n      mstore\n      keccak256(0x0, 0x20)\n      add\n      0x0\n      swap2\n      pop\n      sload\n      swap1\n      0x100\n      exp\n      swap1\n      div\n      0xffffffffffffffffffffffffffffffffffffffff\n      and\n      dup2\n      jump\t// out\n        /* \"src/funding/src/contracts/Funding.sol\":1268:1360  function getSupporters() public view returns (address[]){\r... */\n    tag_37:\n        /* \"src/funding/src/contracts/Funding.sol\":1314:1323  address[] */\n      0x60\n        /* \"src/funding/src/contracts/Funding.sol\":1342:1352  supporters */\n      0x5\n        /* \"src/funding/src/contracts/Funding.sol\":1335:1352  return supporters */\n      dup1\n      sload\n      dup1\n      0x20\n      mul\n      0x20\n      add\n      mload(0x40)\n      swap1\n      dup2\n      add\n      0x40\n      mstore\n      dup1\n      swap3\n      swap2\n      swap1\n      dup2\n      dup2\n      mstore\n      0x20\n      add\n      dup3\n      dup1\n      sload\n      dup1\n      iszero\n      tag_95\n      jumpi\n      0x20\n      mul\n      dup3\n      add\n      swap2\n      swap1\n      0x0\n      mstore\n      keccak256(0x0, 0x20)\n      swap1\n    tag_96:\n      dup2\n      0x0\n      swap1\n      sload\n      swap1\n      0x100\n      exp\n      swap1\n      div\n      0xffffffffffffffffffffffffffffffffffffffff\n      and\n      0xffffffffffffffffffffffffffffffffffffffff\n      and\n      dup2\n      mstore\n      0x20\n      add\n      swap1\n      0x1\n      add\n      swap1\n      dup1\n      dup4\n      gt\n      tag_96\n      jumpi\n    tag_95:\n      pop\n      pop\n      pop\n      pop\n      pop\n      swap1\n      pop\n        /* \"src/funding/src/contracts/Funding.sol\":1268:1360  function getSupporters() public view returns (address[]){\r... */\n      swap1\n      jump\t// out\n        /* \"src/funding/src/contracts/Funding.sol\":54:76  address public manager */\n    tag_43:\n      0x0\n      dup1\n      swap1\n      sload\n      swap1\n      0x100\n      exp\n      swap1\n      div\n      0xffffffffffffffffffffffffffffffffffffffff\n      and\n      dup2\n      jump\t// out\n        /* \"src/funding/src/contracts/Funding.sol\":970:1154  function refund() public {\r... */\n    tag_46:\n        /* \"src/funding/src/contracts/Funding.sol\":1011:1020  uint256 i */\n      0x0\n        /* \"src/funding/src/contracts/Funding.sol\":1023:1024  0 */\n      dup1\n        /* \"src/funding/src/contracts/Funding.sol\":1011:1024  uint256 i = 0 */\n      swap1\n      pop\n        /* \"src/funding/src/contracts/Funding.sol\":1006:1117  for (uint256 i = 0; i < supporters.length; i++) {\r... */\n    tag_98:\n        /* \"src/funding/src/contracts/Funding.sol\":1030:1040  supporters */\n      0x5\n        /* \"src/funding/src/contracts/Funding.sol\":1030:1047  supporters.length */\n      dup1\n      sload\n      swap1\n      pop\n        /* \"src/funding/src/contracts/Funding.sol\":1026:1027  i */\n      dup2\n        /* \"src/funding/src/contracts/Funding.sol\":1026:1047  i < supporters.length */\n      lt\n        /* \"src/funding/src/contracts/Funding.sol\":1006:1117  for (uint256 i = 0; i < supporters.length; i++) {\r... */\n      iszero\n      tag_99\n      jumpi\n        /* \"src/funding/src/contracts/Funding.sol\":1069:1079  supporters */\n      0x5\n        /* \"src/funding/src/contracts/Funding.sol\":1080:1081  i */\n      dup2\n        /* \"src/funding/src/contracts/Funding.sol\":1069:1082  supporters[i] */\n      dup2\n      sload\n      dup2\n      lt\n      iszero\n      iszero\n      tag_101\n      jumpi\n      invalid\n    tag_101:\n      swap1\n      0x0\n      mstore\n      keccak256(0x0, 0x20)\n      add\n      0x0\n      swap1\n      sload\n      swap1\n      0x100\n      exp\n      swap1\n      div\n      0xffffffffffffffffffffffffffffffffffffffff\n      and\n        /* \"src/funding/src/contracts/Funding.sol\":1069:1091  supporters[i].transfer */\n      0xffffffffffffffffffffffffffffffffffffffff\n      and\n        /* \"src/funding/src/contracts/Funding.sol\":1069:1105  supporters[i].transfer(supportMoney) */\n      0x8fc\n        /* \"src/funding/src/contracts/Funding.sol\":1092:1104  supportMoney */\n      sload(0x3)\n        /* \"src/funding/src/contracts/Funding.sol\":1069:1105  supporters[i].transfer(supportMoney) */\n      swap1\n      dup2\n      iszero\n      mul\n      swap1\n      mload(0x40)\n      0x0\n      mload(0x40)\n      dup1\n      dup4\n      sub\n      dup2\n      dup6\n      dup9\n      dup9\n      call\n      swap4\n      pop\n      pop\n      pop\n      pop\n      iszero\n        /* \"--CODEGEN--\":8:17   */\n      dup1\n        /* \"--CODEGEN--\":5:7   */\n      iszero\n      tag_103\n      jumpi\n        /* \"--CODEGEN--\":45:61   */\n      returndatasize\n        /* \"--CODEGEN--\":42:43   */\n      0x0\n        /* \"--CODEGEN--\":39:40   */\n      dup1\n        /* \"--CODEGEN--\":24:62   */\n      returndatacopy\n        /* \"--CODEGEN--\":77:93   */\n      returndatasize\n        /* \"--CODEGEN--\":74:75   */\n      0x0\n        /* \"--CODEGEN--\":67:94   */\n      revert\n        /* \"--CODEGEN--\":5:7   */\n    tag_103:\n        /* \"src/funding/src/contracts/Funding.sol\":1069:1105  supporters[i].transfer(supportMoney) */\n      pop\n        /* \"src/funding/src/contracts/Funding.sol\":1049:1052  i++ */\n      dup1\n      dup1\n      0x1\n      add\n      swap2\n      pop\n      pop\n        /* \"src/funding/src/contracts/Funding.sol\":1006:1117  for (uint256 i = 0; i < supporters.length; i++) {\r... */\n      jump(tag_98)\n    tag_99:\n        /* \"src/funding/src/contracts/Funding.sol\":1135:1145  supporters */\n      0x5\n      0x0\n        /* \"src/funding/src/contracts/Funding.sol\":1127:1146  delete (supporters) */\n      tag_104\n      swap2\n      swap1\n      jump\t// in(tag_105)\n    tag_104:\n        /* \"src/funding/src/contracts/Funding.sol\":970:1154  function refund() public {\r... */\n      pop\n      jump\t// out\n        /* \"src/funding/src/contracts/Funding.sol\":3576:3678  function getSupportersCount() public view returns (uint256){\r... */\n    tag_49:\n        /* \"src/funding/src/contracts/Funding.sol\":3627:3634  uint256 */\n      0x0\n        /* \"src/funding/src/contracts/Funding.sol\":3653:3663  supporters */\n      0x5\n        /* \"src/funding/src/contracts/Funding.sol\":3653:3670  supporters.length */\n      dup1\n      sload\n      swap1\n      pop\n        /* \"src/funding/src/contracts/Funding.sol\":3646:3670  return supporters.length */\n      swap1\n      pop\n        /* \"src/funding/src/contracts/Funding.sol\":3576:3678  function getSupportersCount() public view returns (uint256){\r... */\n      swap1\n      jump\t// out\n        /* \"src/funding/src/contracts/Funding.sol\":3916:4352  function getRequestDetailByIndex(uint256 _requestId)    public view returns (string, uint256, address, uint256, bool, uint256){\r... */\n    tag_52:\n        /* \"src/funding/src/contracts/Funding.sol\":3993:3999  string */\n      0x60\n        /* \"src/funding/src/contracts/Funding.sol\":4001:4008  uint256 */\n      0x0\n        /* \"src/funding/src/contracts/Funding.sol\":4010:4017  address */\n      dup1\n        /* \"src/funding/src/contracts/Funding.sol\":4019:4026  uint256 */\n      0x0\n        /* \"src/funding/src/contracts/Funding.sol\":4028:4032  bool */\n      dup1\n        /* \"src/funding/src/contracts/Funding.sol\":4034:4041  uint256 */\n      0x0\n        /* \"src/funding/src/contracts/Funding.sol\":4119:4142  Request storage request */\n      dup1\n        /* \"src/funding/src/contracts/Funding.sol\":4176:4188  bool isVoted */\n      0x0\n        /* \"src/funding/src/contracts/Funding.sol\":4074:4082  requests */\n      0x7\n        /* \"src/funding/src/contracts/Funding.sol\":4074:4089  requests.length */\n      dup1\n      sload\n      swap1\n      pop\n        /* \"src/funding/src/contracts/Funding.sol\":4061:4071  _requestId */\n      dup10\n        /* \"src/funding/src/contracts/Funding.sol\":4061:4089  _requestId < requests.length */\n      lt\n        /* \"src/funding/src/contracts/Funding.sol\":4053:4108  require(_requestId < requests.length, \"未知请求id\") */\n      iszero\n      iszero\n      tag_108\n      jumpi\n      mload(0x40)\n      0x8c379a000000000000000000000000000000000000000000000000000000000\n      dup2\n      mstore\n      0x4\n      add\n      dup1\n      dup1\n      0x20\n      add\n      dup3\n      dup2\n      sub\n      dup3\n      mstore\n      0xe\n      dup2\n      mstore\n      0x20\n      add\n      dup1\n      0xe69caae79fa5e8afb7e6b1826964000000000000000000000000000000000000\n      dup2\n      mstore\n      pop\n      0x20\n      add\n      swap2\n      pop\n      pop\n      mload(0x40)\n      dup1\n      swap2\n      sub\n      swap1\n      revert\n    tag_108:\n        /* \"src/funding/src/contracts/Funding.sol\":4145:4153  requests */\n      0x7\n        /* \"src/funding/src/contracts/Funding.sol\":4154:4164  _requestId */\n      dup10\n        /* \"src/funding/src/contracts/Funding.sol\":4145:4165  requests[_requestId] */\n      dup2\n      sload\n      dup2\n      lt\n      iszero\n      iszero\n      tag_109\n      jumpi\n      invalid\n    tag_109:\n      swap1\n      0x0\n      mstore\n      keccak256(0x0, 0x20)\n      swap1\n      0x6\n      mul\n      add\n        /* \"src/funding/src/contracts/Funding.sol\":4119:4165  Request storage request = requests[_requestId] */\n      swap2\n      pop\n        /* \"src/funding/src/contracts/Funding.sol\":4191:4198  request */\n      dup2\n        /* \"src/funding/src/contracts/Funding.sol\":4191:4207  request.votedMap */\n      0x4\n      add\n        /* \"src/funding/src/contracts/Funding.sol\":4191:4219  request.votedMap[msg.sender] */\n      0x0\n        /* \"src/funding/src/contracts/Funding.sol\":4208:4218  msg.sender */\n      caller\n        /* \"src/funding/src/contracts/Funding.sol\":4191:4219  request.votedMap[msg.sender] */\n      0xffffffffffffffffffffffffffffffffffffffff\n      and\n      0xffffffffffffffffffffffffffffffffffffffff\n      and\n      dup2\n      mstore\n      0x20\n      add\n      swap1\n      dup2\n      mstore\n      0x20\n      add\n      0x0\n      keccak256\n      0x0\n      swap1\n      sload\n      swap1\n      0x100\n      exp\n      swap1\n      div\n      0xff\n      and\n        /* \"src/funding/src/contracts/Funding.sol\":4176:4219  bool isVoted = request.votedMap[msg.sender] */\n      swap1\n      pop\n        /* \"src/funding/src/contracts/Funding.sol\":4238:4245  request */\n      dup2\n        /* \"src/funding/src/contracts/Funding.sol\":4238:4253  request.purpose */\n      0x0\n      add\n        /* \"src/funding/src/contracts/Funding.sol\":4255:4262  request */\n      dup3\n        /* \"src/funding/src/contracts/Funding.sol\":4255:4267  request.cost */\n      0x1\n      add\n      sload\n        /* \"src/funding/src/contracts/Funding.sol\":4269:4276  request */\n      dup4\n        /* \"src/funding/src/contracts/Funding.sol\":4269:4288  request.shopAddress */\n      0x2\n      add\n      0x0\n      swap1\n      sload\n      swap1\n      0x100\n      exp\n      swap1\n      div\n      0xffffffffffffffffffffffffffffffffffffffff\n      and\n        /* \"src/funding/src/contracts/Funding.sol\":4290:4297  request */\n      dup5\n        /* \"src/funding/src/contracts/Funding.sol\":4290:4307  request.voteCount */\n      0x3\n      add\n      sload\n        /* \"src/funding/src/contracts/Funding.sol\":4309:4316  isVoted */\n      dup5\n        /* \"src/funding/src/contracts/Funding.sol\":4326:4333  request */\n      dup7\n        /* \"src/funding/src/contracts/Funding.sol\":4326:4340  request.status */\n      0x5\n      add\n      0x0\n      swap1\n      sload\n      swap1\n      0x100\n      exp\n      swap1\n      div\n      0xff\n      and\n        /* \"src/funding/src/contracts/Funding.sol\":4318:4341  uint256(request.status) */\n      0x3\n      dup2\n      gt\n      iszero\n      tag_111\n      jumpi\n      invalid\n    tag_111:\n        /* \"src/funding/src/contracts/Funding.sol\":4230:4342  return (request.purpose, request.cost, request.shopAddress, request.voteCount, isVoted, uint256(request.status)) */\n      dup6\n      dup1\n      sload\n      0x1\n      dup2\n      0x1\n      and\n      iszero\n      0x100\n      mul\n      sub\n      and\n      0x2\n      swap1\n      div\n      dup1\n      0x1f\n      add\n      0x20\n      dup1\n      swap2\n      div\n      mul\n      0x20\n      add\n      mload(0x40)\n      swap1\n      dup2\n      add\n      0x40\n      mstore\n      dup1\n      swap3\n      swap2\n      swap1\n      dup2\n      dup2\n      mstore\n      0x20\n      add\n      dup3\n      dup1\n      sload\n      0x1\n      dup2\n      0x1\n      and\n      iszero\n      0x100\n      mul\n      sub\n      and\n      0x2\n      swap1\n      div\n      dup1\n      iszero\n      tag_112\n      jumpi\n      dup1\n      0x1f\n      lt\n      tag_113\n      jumpi\n      0x100\n      dup1\n      dup4\n      sload\n      div\n      mul\n      dup4\n      mstore\n      swap2\n      0x20\n      add\n      swap2\n      jump(tag_112)\n    tag_113:\n      dup3\n      add\n      swap2\n      swap1\n      0x0\n      mstore\n      keccak256(0x0, 0x20)\n      swap1\n    tag_114:\n      dup2\n      sload\n      dup2\n      mstore\n      swap1\n      0x1\n      add\n      swap1\n      0x20\n      add\n      dup1\n      dup4\n      gt\n      tag_114\n      jumpi\n      dup3\n      swap1\n      sub\n      0x1f\n      and\n      dup3\n      add\n      swap2\n    tag_112:\n      pop\n      pop\n      pop\n      pop\n      pop\n      swap6\n      pop\n      swap8\n      pop\n      swap8\n      pop\n      swap8\n      pop\n      swap8\n      pop\n      swap8\n      pop\n      swap8\n      pop\n        /* \"src/funding/src/contracts/Funding.sol\":3916:4352  function getRequestDetailByIndex(uint256 _requestId)    public view returns (string, uint256, address, uint256, bool, uint256){\r... */\n      pop\n      pop\n      swap2\n      swap4\n      swap6\n      pop\n      swap2\n      swap4\n      swap6\n      jump\t// out\n        /* \"src/funding/src/contracts/Funding.sol\":1854:2280  function createRequest(string _purpose, uint256 _cost, address _shopAddress) public {\r... */\n    tag_59:\n        /* \"src/funding/src/contracts/Funding.sol\":2039:2061  Request memory request */\n      tag_115\n      jump\t// in(tag_116)\n    tag_115:\n        /* \"src/funding/src/contracts/Funding.sol\":1971:1978  manager */\n      0x0\n      dup1\n      swap1\n      sload\n      swap1\n      0x100\n      exp\n      swap1\n      div\n      0xffffffffffffffffffffffffffffffffffffffff\n      and\n        /* \"src/funding/src/contracts/Funding.sol\":1957:1978  msg.sender == manager */\n      0xffffffffffffffffffffffffffffffffffffffff\n      and\n        /* \"src/funding/src/contracts/Funding.sol\":1957:1967  msg.sender */\n      caller\n        /* \"src/funding/src/contracts/Funding.sol\":1957:1978  msg.sender == manager */\n      0xffffffffffffffffffffffffffffffffffffffff\n      and\n      eq\n        /* \"src/funding/src/contracts/Funding.sol\":1949:2028  require(msg.sender == manager, \"只有项目发起人可以发起支付请求\") */\n      iszero\n      iszero\n      tag_118\n      jumpi\n      mload(0x40)\n      0x8c379a000000000000000000000000000000000000000000000000000000000\n      dup2\n      mstore\n      0x4\n      add\n      dup1\n      dup1\n      0x20\n      add\n      dup3\n      dup2\n      sub\n      dup3\n      mstore\n      0x2d\n      dup2\n      mstore\n      0x20\n      add\n      dup1\n      0xe58faae69c89e9a1b9e79baee58f91e8b5b7e4babae58fafe4bba5e58f91e8b5\n      dup2\n      mstore\n      0x20\n      add\n      0xb7e694afe4bb98e8afb7e6b18200000000000000000000000000000000000000\n      dup2\n      mstore\n      pop\n      0x40\n      add\n      swap2\n      pop\n      pop\n      mload(0x40)\n      dup1\n      swap2\n      sub\n      swap1\n      revert\n    tag_118:\n        /* \"src/funding/src/contracts/Funding.sol\":2064:2237  Request({\r... */\n      0xa0\n      mload(0x40)\n      swap1\n      dup2\n      add\n      0x40\n      mstore\n      dup1\n        /* \"src/funding/src/contracts/Funding.sol\":2093:2101  _purpose */\n      dup6\n        /* \"src/funding/src/contracts/Funding.sol\":2064:2237  Request({\r... */\n      dup2\n      mstore\n      0x20\n      add\n        /* \"src/funding/src/contracts/Funding.sol\":2119:2124  _cost */\n      dup5\n        /* \"src/funding/src/contracts/Funding.sol\":2064:2237  Request({\r... */\n      dup2\n      mstore\n      0x20\n      add\n        /* \"src/funding/src/contracts/Funding.sol\":2149:2161  _shopAddress */\n      dup4\n        /* \"src/funding/src/contracts/Funding.sol\":2064:2237  Request({\r... */\n      0xffffffffffffffffffffffffffffffffffffffff\n      and\n      dup2\n      mstore\n      0x20\n      add\n        /* \"src/funding/src/contracts/Funding.sol\":2184:2185  0 */\n      0x0\n        /* \"src/funding/src/contracts/Funding.sol\":2064:2237  Request({\r... */\n      dup2\n      mstore\n      0x20\n      add\n        /* \"src/funding/src/contracts/Funding.sol\":2205:2225  RequestStatus.Voting */\n      0x0\n        /* \"src/funding/src/contracts/Funding.sol\":2064:2237  Request({\r... */\n      0x3\n      dup2\n      gt\n      iszero\n      tag_119\n      jumpi\n      invalid\n    tag_119:\n      dup2\n      mstore\n      pop\n        /* \"src/funding/src/contracts/Funding.sol\":2039:2237  Request memory request = Request({\r... */\n      swap1\n      pop\n        /* \"src/funding/src/contracts/Funding.sol\":2250:2258  requests */\n      0x7\n        /* \"src/funding/src/contracts/Funding.sol\":2264:2271  request */\n      dup2\n        /* \"src/funding/src/contracts/Funding.sol\":2250:2272  requests.push(request) */\n      swap1\n      dup1\n        /* \"--CODEGEN--\":39:40   */\n      0x1\n        /* \"--CODEGEN--\":33:36   */\n      dup2\n        /* \"--CODEGEN--\":27:37   */\n      sload\n        /* \"--CODEGEN--\":23:41   */\n      add\n        /* \"--CODEGEN--\":57:67   */\n      dup1\n        /* \"--CODEGEN--\":52:55   */\n      dup3\n        /* \"--CODEGEN--\":45:68   */\n      sstore\n        /* \"--CODEGEN--\":79:89   */\n      dup1\n        /* \"--CODEGEN--\":72:89   */\n      swap2\n      pop\n        /* \"--CODEGEN--\":0:93   */\n      pop\n        /* \"src/funding/src/contracts/Funding.sol\":2250:2272  requests.push(request) */\n      swap1\n      0x1\n      dup3\n      sub\n      swap1\n      0x0\n      mstore\n      keccak256(0x0, 0x20)\n      swap1\n      0x6\n      mul\n      add\n      0x0\n      swap1\n      swap2\n      swap3\n      swap1\n      swap2\n      swap1\n      swap2\n      pop\n      0x0\n      dup3\n      add\n      mload\n      dup2\n      0x0\n      add\n      swap1\n      dup1\n      mload\n      swap1\n      0x20\n      add\n      swap1\n      tag_121\n      swap3\n      swap2\n      swap1\n      jump\t// in(tag_122)\n    tag_121:\n      pop\n      0x20\n      dup3\n      add\n      mload\n      dup2\n      0x1\n      add\n      sstore\n      0x40\n      dup3\n      add\n      mload\n      dup2\n      0x2\n      add\n      exp(0x100, 0x0)\n      dup2\n      sload\n      dup2\n      0xffffffffffffffffffffffffffffffffffffffff\n      mul\n      not\n      and\n      swap1\n      dup4\n      0xffffffffffffffffffffffffffffffffffffffff\n      and\n      mul\n      or\n      swap1\n      sstore\n      pop\n      0x60\n      dup3\n      add\n      mload\n      dup2\n      0x3\n      add\n      sstore\n      0x80\n      dup3\n      add\n      mload\n      dup2\n      0x5\n      add\n      exp(0x100, 0x0)\n      dup2\n      sload\n      dup2\n      0xff\n      mul\n      not\n      and\n      swap1\n      dup4\n      0x3\n      dup2\n      gt\n      iszero\n      tag_123\n      jumpi\n      invalid\n    tag_123:\n      mul\n      or\n      swap1\n      sstore\n      pop\n      pop\n      pop\n      pop\n        /* \"src/funding/src/contracts/Funding.sol\":1854:2280  function createRequest(string _purpose, uint256 _cost, address _shopAddress) public {\r... */\n      pop\n      pop\n      pop\n      pop\n      jump\t// out\n        /* \"src/funding/src/contracts/Funding.sol\":115:141  uint256 public targetMoney */\n    tag_62:\n      sload(0x2)\n      dup2\n      jump\t// out\n        /* \"src/funding/src/contracts/Funding.sol\":83:108  string public projectName */\n    tag_65:\n      0x1\n      dup1\n      sload\n      0x1\n      dup2\n      0x1\n      and\n      iszero\n      0x100\n      mul\n      sub\n      and\n      0x2\n      swap1\n      div\n      dup1\n      0x1f\n      add\n      0x20\n      dup1\n      swap2\n      div\n      mul\n      0x20\n      add\n      mload(0x40)\n      swap1\n      dup2\n      add\n      0x40\n      mstore\n      dup1\n      swap3\n      swap2\n      swap1\n      dup2\n      dup2\n      mstore\n      0x20\n      add\n      dup3\n      dup1\n      sload\n      0x1\n      dup2\n      0x1\n      and\n      iszero\n      0x100\n      mul\n      sub\n      and\n      0x2\n      swap1\n      div\n      dup1\n      iszero\n      tag_124\n      jumpi\n      dup1\n      0x1f\n      lt\n      tag_125\n      jumpi\n      0x100\n      dup1\n      dup4\n      sload\n      div\n      mul\n      dup4\n      mstore\n      swap2\n      0x20\n      add\n      swap2\n      jump(tag_124)\n    tag_125:\n      dup3\n      add\n      swap2\n      swap1\n      0x0\n      mstore\n      keccak256(0x0, 0x20)\n      swap1\n    tag_126:\n      dup2\n      sload\n      dup2\n      mstore\n      swap1\n      0x1\n      add\n      swap1\n      0x20\n      add\n      dup1\n      dup4\n      gt\n      tag_126\n      jumpi\n      dup3\n      swap1\n      sub\n      0x1f\n      and\n      dup3\n      add\n      swap2\n    tag_124:\n      pop\n      pop\n      pop\n      pop\n      pop\n      dup2\n      jump\t// out\n        /* \"src/funding/src/contracts/Funding.sol\":148:175  uint256 public supportMoney */\n    tag_72:\n      sload(0x3)\n      dup2\n      jump\t// out\n        /* \"src/funding/src/contracts/Funding.sol\":2309:3008  function approveRequest(uint256 _requestId) public {\r... */\n    tag_75:\n        /* \"src/funding/src/contracts/Funding.sol\":2411:2434  Request storage request */\n      0x0\n        /* \"src/funding/src/contracts/Funding.sol\":2437:2445  requests */\n      0x7\n        /* \"src/funding/src/contracts/Funding.sol\":2446:2456  _requestId */\n      dup3\n        /* \"src/funding/src/contracts/Funding.sol\":2437:2457  requests[_requestId] */\n      dup2\n      sload\n      dup2\n      lt\n      iszero\n      iszero\n      tag_128\n      jumpi\n      invalid\n    tag_128:\n      swap1\n      0x0\n      mstore\n      keccak256(0x0, 0x20)\n      swap1\n      0x6\n      mul\n      add\n        /* \"src/funding/src/contracts/Funding.sol\":2411:2457  Request storage request = requests[_requestId] */\n      swap1\n      pop\n        /* \"src/funding/src/contracts/Funding.sol\":2513:2526  supportersMap */\n      0x6\n        /* \"src/funding/src/contracts/Funding.sol\":2513:2538  supportersMap[msg.sender] */\n      0x0\n        /* \"src/funding/src/contracts/Funding.sol\":2527:2537  msg.sender */\n      caller\n        /* \"src/funding/src/contracts/Funding.sol\":2513:2538  supportersMap[msg.sender] */\n      0xffffffffffffffffffffffffffffffffffffffff\n      and\n      0xffffffffffffffffffffffffffffffffffffffff\n      and\n      dup2\n      mstore\n      0x20\n      add\n      swap1\n      dup2\n      mstore\n      0x20\n      add\n      0x0\n      keccak256\n      0x0\n      swap1\n      sload\n      swap1\n      0x100\n      exp\n      swap1\n      div\n      0xff\n      and\n        /* \"src/funding/src/contracts/Funding.sol\":2505:2570  require(supportersMap[msg.sender], \"只有投资人有投票权\") */\n      iszero\n      iszero\n      tag_130\n      jumpi\n      mload(0x40)\n      0x8c379a000000000000000000000000000000000000000000000000000000000\n      dup2\n      mstore\n      0x4\n      add\n      dup1\n      dup1\n      0x20\n      add\n      dup3\n      dup2\n      sub\n      dup3\n      mstore\n      0x1b\n      dup2\n      mstore\n      0x20\n      add\n      dup1\n      0xe58faae69c89e68a95e8b584e4babae69c89e68a95e7a5a8e69d830000000000\n      dup2\n      mstore\n      pop\n      0x20\n      add\n      swap2\n      pop\n      pop\n      mload(0x40)\n      dup1\n      swap2\n      sub\n      swap1\n      revert\n    tag_130:\n        /* \"src/funding/src/contracts/Funding.sol\":2664:2669  false */\n      0x0\n        /* \"src/funding/src/contracts/Funding.sol\":2632:2669  request.votedMap[msg.sender] == false */\n      iszero\n      iszero\n        /* \"src/funding/src/contracts/Funding.sol\":2632:2639  request */\n      dup2\n        /* \"src/funding/src/contracts/Funding.sol\":2632:2648  request.votedMap */\n      0x4\n      add\n        /* \"src/funding/src/contracts/Funding.sol\":2632:2660  request.votedMap[msg.sender] */\n      0x0\n        /* \"src/funding/src/contracts/Funding.sol\":2649:2659  msg.sender */\n      caller\n        /* \"src/funding/src/contracts/Funding.sol\":2632:2660  request.votedMap[msg.sender] */\n      0xffffffffffffffffffffffffffffffffffffffff\n      and\n      0xffffffffffffffffffffffffffffffffffffffff\n      and\n      dup2\n      mstore\n      0x20\n      add\n      swap1\n      dup2\n      mstore\n      0x20\n      add\n      0x0\n      keccak256\n      0x0\n      swap1\n      sload\n      swap1\n      0x100\n      exp\n      swap1\n      div\n      0xff\n      and\n        /* \"src/funding/src/contracts/Funding.sol\":2632:2669  request.votedMap[msg.sender] == false */\n      iszero\n      iszero\n      eq\n        /* \"src/funding/src/contracts/Funding.sol\":2624:2692  require(request.votedMap[msg.sender] == false, \"已经投过票了\") */\n      iszero\n      iszero\n      tag_131\n      jumpi\n      mload(0x40)\n      0x8c379a000000000000000000000000000000000000000000000000000000000\n      dup2\n      mstore\n      0x4\n      add\n      dup1\n      dup1\n      0x20\n      add\n      dup3\n      dup2\n      sub\n      dup3\n      mstore\n      0x12\n      dup2\n      mstore\n      0x20\n      add\n      dup1\n      0xe5b7b2e7bb8fe68a95e8bf87e7a5a8e4ba860000000000000000000000000000\n      dup2\n      mstore\n      pop\n      0x20\n      add\n      swap2\n      pop\n      pop\n      mload(0x40)\n      dup1\n      swap2\n      sub\n      swap1\n      revert\n    tag_131:\n        /* \"src/funding/src/contracts/Funding.sol\":2776:2780  true */\n      0x1\n        /* \"src/funding/src/contracts/Funding.sol\":2745:2752  request */\n      dup2\n        /* \"src/funding/src/contracts/Funding.sol\":2745:2761  request.votedMap */\n      0x4\n      add\n        /* \"src/funding/src/contracts/Funding.sol\":2745:2773  request.votedMap[msg.sender] */\n      0x0\n        /* \"src/funding/src/contracts/Funding.sol\":2762:2772  msg.sender */\n      caller\n        /* \"src/funding/src/contracts/Funding.sol\":2745:2773  request.votedMap[msg.sender] */\n      0xffffffffffffffffffffffffffffffffffffffff\n      and\n      0xffffffffffffffffffffffffffffffffffffffff\n      and\n      dup2\n      mstore\n      0x20\n      add\n      swap1\n      dup2\n      mstore\n      0x20\n      add\n      0x0\n      keccak256\n      0x0\n        /* \"src/funding/src/contracts/Funding.sol\":2745:2780  request.votedMap[msg.sender] = true */\n      0x100\n      exp\n      dup2\n      sload\n      dup2\n      0xff\n      mul\n      not\n      and\n      swap1\n      dup4\n      iszero\n      iszero\n      mul\n      or\n      swap1\n      sstore\n      pop\n        /* \"src/funding/src/contracts/Funding.sol\":2791:2798  request */\n      dup1\n        /* \"src/funding/src/contracts/Funding.sol\":2791:2808  request.voteCount */\n      0x3\n      add\n      0x0\n        /* \"src/funding/src/contracts/Funding.sol\":2791:2810  request.voteCount++ */\n      dup2\n      sload\n      dup1\n      swap3\n      swap2\n      swap1\n      0x1\n      add\n      swap2\n      swap1\n      pop\n      sstore\n      pop\n        /* \"src/funding/src/contracts/Funding.sol\":2928:2929  2 */\n      0x2\n        /* \"src/funding/src/contracts/Funding.sol\":2908:2918  supporters */\n      0x5\n        /* \"src/funding/src/contracts/Funding.sol\":2908:2925  supporters.length */\n      dup1\n      sload\n      swap1\n      pop\n        /* \"src/funding/src/contracts/Funding.sol\":2908:2929  supporters.length / 2 */\n      dup2\n      iszero\n      iszero\n      tag_132\n      jumpi\n      invalid\n    tag_132:\n      div\n        /* \"src/funding/src/contracts/Funding.sol\":2888:2895  request */\n      dup2\n        /* \"src/funding/src/contracts/Funding.sol\":2888:2905  request.voteCount */\n      0x3\n      add\n      sload\n        /* \"src/funding/src/contracts/Funding.sol\":2888:2929  request.voteCount > supporters.length / 2 */\n      gt\n        /* \"src/funding/src/contracts/Funding.sol\":2884:2997  if (request.voteCount > supporters.length / 2) {\r... */\n      iszero\n      tag_133\n      jumpi\n        /* \"src/funding/src/contracts/Funding.sol\":2963:2985  RequestStatus.Approved */\n      0x1\n        /* \"src/funding/src/contracts/Funding.sol\":2946:2953  request */\n      dup2\n        /* \"src/funding/src/contracts/Funding.sol\":2946:2960  request.status */\n      0x5\n      add\n      0x0\n        /* \"src/funding/src/contracts/Funding.sol\":2946:2985  request.status = RequestStatus.Approved */\n      0x100\n      exp\n      dup2\n      sload\n      dup2\n      0xff\n      mul\n      not\n      and\n      swap1\n      dup4\n      0x3\n      dup2\n      gt\n      iszero\n      tag_134\n      jumpi\n      invalid\n    tag_134:\n      mul\n      or\n      swap1\n      sstore\n      pop\n        /* \"src/funding/src/contracts/Funding.sol\":2884:2997  if (request.voteCount > supporters.length / 2) {\r... */\n    tag_133:\n        /* \"src/funding/src/contracts/Funding.sol\":2309:3008  function approveRequest(uint256 _requestId) public {\r... */\n      pop\n      pop\n      jump\t// out\n        /* \"src/funding/src/contracts/Funding.sol\":3686:3796  function getRemainTime() public view returns (uint256){\r... */\n    tag_78:\n        /* \"src/funding/src/contracts/Funding.sol\":3732:3739  uint256 */\n      0x0\n        /* \"src/funding/src/contracts/Funding.sol\":3786:3788  24 */\n      0x18\n        /* \"src/funding/src/contracts/Funding.sol\":3781:3783  60 */\n      0x3c\n        /* \"src/funding/src/contracts/Funding.sol\":3776:3778  60 */\n      dup1\n        /* \"src/funding/src/contracts/Funding.sol\":3769:3772  now */\n      timestamp\n        /* \"src/funding/src/contracts/Funding.sol\":3759:3766  endTime */\n      sload(0x4)\n        /* \"src/funding/src/contracts/Funding.sol\":3759:3772  endTime - now */\n      sub\n        /* \"src/funding/src/contracts/Funding.sol\":3758:3778  (endTime - now) / 60 */\n      dup2\n      iszero\n      iszero\n      tag_136\n      jumpi\n      invalid\n    tag_136:\n      div\n        /* \"src/funding/src/contracts/Funding.sol\":3758:3783  (endTime - now) / 60 / 60 */\n      dup2\n      iszero\n      iszero\n      tag_137\n      jumpi\n      invalid\n    tag_137:\n      div\n        /* \"src/funding/src/contracts/Funding.sol\":3758:3788  (endTime - now) / 60 / 60 / 24 */\n      dup2\n      iszero\n      iszero\n      tag_138\n      jumpi\n      invalid\n    tag_138:\n      div\n        /* \"src/funding/src/contracts/Funding.sol\":3751:3788  return (endTime - now) / 60 / 60 / 24 */\n      swap1\n      pop\n        /* \"src/funding/src/contracts/Funding.sol\":3686:3796  function getRemainTime() public view returns (uint256){\r... */\n      swap1\n      jump\t// out\n        /* \"src/funding/src/contracts/Funding.sol\":28:4359  contract Funding {\r... */\n    tag_105:\n      pop\n      dup1\n      sload\n      0x0\n      dup3\n      sstore\n      swap1\n      0x0\n      mstore\n      keccak256(0x0, 0x20)\n      swap1\n      dup2\n      add\n      swap1\n      tag_140\n      swap2\n      swap1\n      jump\t// in(tag_141)\n    tag_140:\n      pop\n      jump\t// out\n    tag_116:\n      0xa0\n      mload(0x40)\n      swap1\n      dup2\n      add\n      0x40\n      mstore\n      dup1\n      0x60\n      dup2\n      mstore\n      0x20\n      add\n      0x0\n      dup2\n      mstore\n      0x20\n      add\n      and(0xffffffffffffffffffffffffffffffffffffffff, 0x0)\n      dup2\n      mstore\n      0x20\n      add\n      0x0\n      dup2\n      mstore\n      0x20\n      add\n      0x0\n      0x3\n      dup2\n      gt\n      iszero\n      tag_142\n      jumpi\n      invalid\n    tag_142:\n      dup2\n      mstore\n      pop\n      swap1\n      jump\t// out\n    tag_122:\n      dup3\n      dup1\n      sload\n      0x1\n      dup2\n      0x1\n      and\n      iszero\n      0x100\n      mul\n      sub\n      and\n      0x2\n      swap1\n      div\n      swap1\n      0x0\n      mstore\n      keccak256(0x0, 0x20)\n      swap1\n      0x1f\n      add\n      0x20\n      swap1\n      div\n      dup2\n      add\n      swap3\n      dup3\n      0x1f\n      lt\n      tag_144\n      jumpi\n      dup1\n      mload\n      not(0xff)\n      and\n      dup4\n      dup1\n      add\n      or\n      dup6\n      sstore\n      jump(tag_143)\n    tag_144:\n      dup3\n      dup1\n      add\n      0x1\n      add\n      dup6\n      sstore\n      dup3\n      iszero\n      tag_143\n      jumpi\n      swap2\n      dup3\n      add\n    tag_145:\n      dup3\n      dup2\n      gt\n      iszero\n      tag_146\n      jumpi\n      dup3\n      mload\n      dup3\n      sstore\n      swap2\n      0x20\n      add\n      swap2\n      swap1\n      0x1\n      add\n      swap1\n      jump(tag_145)\n    tag_146:\n    tag_143:\n      pop\n      swap1\n      pop\n      tag_147\n      swap2\n      swap1\n      jump\t// in(tag_141)\n    tag_147:\n      pop\n      swap1\n      jump\t// out\n    tag_141:\n      tag_148\n      swap2\n      swap1\n    tag_149:\n      dup1\n      dup3\n      gt\n      iszero\n      tag_150\n      jumpi\n      0x0\n      dup2\n      0x0\n      swap1\n      sstore\n      pop\n      0x1\n      add\n      jump(tag_149)\n    tag_150:\n      pop\n      swap1\n      jump\n    tag_148:\n      swap1\n      jump\t// out\n\n    auxdata: 0xa165627a7a72305820cd74913bf91d61b93fa89ab6f46b57357444078fdde7b6c8942f3ca339572b8b0029\n}\n",
				"bytecode": {
					"linkReferences": {},
					"object": "60806040523480156200001157600080fd5b50604051620014223803806200142283398101806040528101908080518201929190602001805190602001909291908051906020019092919080519060200190929190505050336000806101000a81548173ffffffffffffffffffffffffffffffffffffffff021916908373ffffffffffffffffffffffffffffffffffffffff1602179055508360019080519060200190620000af929190620000d1565b5082600281905550816003819055508042016004819055505050505062000180565b828054600181600116156101000203166002900490600052602060002090601f016020900481019282601f106200011457805160ff191683800117855562000145565b8280016001018555821562000145579182015b828111156200014457825182559160200191906001019062000127565b5b50905062000154919062000158565b5090565b6200017d91905b80821115620001795760008160009055506001016200015f565b5090565b90565b61129280620001906000396000f3006080604052600436106100f1576000357c0100000000000000000000000000000000000000000000000000000000900463ffffffff16806303441006146100f6578063119f87471461011657806312065fe0146101205780633197cbb61461014b5780633410452a146101765780633c24b7d7146101a157806343020b1a1461020e578063481c6a751461027a578063590e1ae3146102d157806363b393d8146102e857806369efb694146103135780638a9cfd551461040c5780638d7cdb911461049f5780639a33e300146104ca578063a5d5c5dc1461055a578063d7d1bbdb14610585578063fc2615d5146105b2575b600080fd5b610114600480360381019080803590602001909291905050506105dd565b005b61011e6106e4565b005b34801561012c57600080fd5b5061013561081d565b6040518082815260200191505060405180910390f35b34801561015757600080fd5b5061016061083c565b6040518082815260200191505060405180910390f35b34801561018257600080fd5b5061018b610842565b6040518082815260200191505060405180910390f35b3480156101ad57600080fd5b506101cc6004803603810190808035906020019092919050505061084f565b604051808273ffffffffffffffffffffffffffffffffffffffff1673ffffffffffffffffffffffffffffffffffffffff16815260200191505060405180910390f35b34801561021a57600080fd5b5061022361088d565b6040518080602001828103825283818151815260200191508051906020019060200280838360005b8381101561026657808201518184015260208101905061024b565b505050509050019250505060405180910390f35b34801561028657600080fd5b5061028f61091b565b604051808273ffffffffffffffffffffffffffffffffffffffff1673ffffffffffffffffffffffffffffffffffffffff16815260200191505060405180910390f35b3480156102dd57600080fd5b506102e6610940565b005b3480156102f457600080fd5b506102fd6109f3565b6040518082815260200191505060405180910390f35b34801561031f57600080fd5b5061033e60048036038101908080359060200190929190505050610a00565b60405180806020018781526020018673ffffffffffffffffffffffffffffffffffffffff1673ffffffffffffffffffffffffffffffffffffffff16815260200185815260200184151515158152602001838152602001828103825288818151815260200191508051906020019080838360005b838110156103cc5780820151818401526020810190506103b1565b50505050905090810190601f1680156103f95780820380516001836020036101000a031916815260200191505b5097505050505050505060405180910390f35b34801561041857600080fd5b5061049d600480360381019080803590602001908201803590602001908080601f016020809104026020016040519081016040528093929190818152602001838380828437820191505050505050919291929080359060200190929190803573ffffffffffffffffffffffffffffffffffffffff169060200190929190505050610bfd565b005b3480156104ab57600080fd5b506104b4610e14565b6040518082815260200191505060405180910390f35b3480156104d657600080fd5b506104df610e1a565b6040518080602001828103825283818151815260200191508051906020019080838360005b8381101561051f578082015181840152602081019050610504565b50505050905090810190601f16801561054c5780820380516001836020036101000a031916815260200191505b509250505060405180910390f35b34801561056657600080fd5b5061056f610eb8565b6040518082815260200191505060405180910390f35b34801561059157600080fd5b506105b060048036038101908080359060200190929190505050610ebe565b005b3480156105be57600080fd5b506105c7611120565b6040518082815260200191505060405180910390f35b60006007828154811015156105ee57fe5b9060005260206000209060060201905080600101543073ffffffffffffffffffffffffffffffffffffffff16311015151561062857600080fd5b600260058054905081151561063957fe5b04816003015411151561064b57600080fd5b8060020160009054906101000a900473ffffffffffffffffffffffffffffffffffffffff1673ffffffffffffffffffffffffffffffffffffffff166108fc82600101549081150290604051600060405180830381858888f193505050501580156106b9573d6000803e3d6000fd5b5060028160050160006101000a81548160ff021916908360038111156106db57fe5b02179055505050565b6003543414151561075d576040517f08c379a00000000000000000000000000000000000000000000000000000000081526004018080602001828103825260128152602001807fe68a95e8b584e98791e9a29de99499e8afaf000000000000000000000000000081525060200191505060405180910390fd5b60053390806001815401808255809150509060018203906000526020600020016000909192909190916101000a81548173ffffffffffffffffffffffffffffffffffffffff021916908373ffffffffffffffffffffffffffffffffffffffff160217905550506001600660003373ffffffffffffffffffffffffffffffffffffffff1673ffffffffffffffffffffffffffffffffffffffff16815260200190815260200160002060006101000a81548160ff021916908315150217905550565b60003073ffffffffffffffffffffffffffffffffffffffff1631905090565b60045481565b6000600780549050905090565b60058181548110151561085e57fe5b906000526020600020016000915054906101000a900473ffffffffffffffffffffffffffffffffffffffff1681565b6060600580548060200260200160405190810160405280929190818152602001828054801561091157602002820191906000526020600020905b8160009054906101000a900473ffffffffffffffffffffffffffffffffffffffff1673ffffffffffffffffffffffffffffffffffffffff16815260200190600101908083116108c7575b5050505050905090565b6000809054906101000a900473ffffffffffffffffffffffffffffffffffffffff1681565b60008090505b6005805490508110156109e25760058181548110151561096257fe5b9060005260206000200160009054906101000a900473ffffffffffffffffffffffffffffffffffffffff1673ffffffffffffffffffffffffffffffffffffffff166108fc6003549081150290604051600060405180830381858888f193505050501580156109d4573d6000803e3d6000fd5b508080600101915050610946565b600560006109f0919061114f565b50565b6000600580549050905090565b6060600080600080600080600060078054905089101515610a89576040517f08c379a000000000000000000000000000000000000000000000000000000000815260040180806020018281038252600e8152602001807fe69caae79fa5e8afb7e6b182696400000000000000000000000000000000000081525060200191505060405180910390fd5b600789815481101515610a9857fe5b906000526020600020906006020191508160040160003373ffffffffffffffffffffffffffffffffffffffff1673ffffffffffffffffffffffffffffffffffffffff16815260200190815260200160002060009054906101000a900460ff1690508160000182600101548360020160009054906101000a900473ffffffffffffffffffffffffffffffffffffffff168460030154848660050160009054906101000a900460ff166003811115610b4a57fe5b858054600181600116156101000203166002900480601f016020809104026020016040519081016040528092919081815260200182805460018160011615610100020316600290048015610bdf5780601f10610bb457610100808354040283529160200191610bdf565b820191906000526020600020905b815481529060010190602001808311610bc257829003601f168201915b50505050509550975097509750975097509750505091939550919395565b610c05611170565b6000809054906101000a900473ffffffffffffffffffffffffffffffffffffffff1673ffffffffffffffffffffffffffffffffffffffff163373ffffffffffffffffffffffffffffffffffffffff16141515610cef576040517f08c379a000000000000000000000000000000000000000000000000000000000815260040180806020018281038252602d8152602001807fe58faae69c89e9a1b9e79baee58f91e8b5b7e4babae58fafe4bba5e58f91e8b581526020017fb7e694afe4bb98e8afb7e6b1820000000000000000000000000000000000000081525060400191505060405180910390fd5b60a0604051908101604052808581526020018481526020018373ffffffffffffffffffffffffffffffffffffffff1681526020016000815260200160006003811115610d3757fe5b8152509050600781908060018154018082558091505090600182039060005260206000209060060201600090919290919091506000820151816000019080519060200190610d869291906111c1565b506020820151816001015560408201518160020160006101000a81548173ffffffffffffffffffffffffffffffffffffffff021916908373ffffffffffffffffffffffffffffffffffffffff1602179055506060820151816003015560808201518160050160006101000a81548160ff02191690836003811115610e0657fe5b021790555050505050505050565b60025481565b60018054600181600116156101000203166002900480601f016020809104026020016040519081016040528092919081815260200182805460018160011615610100020316600290048015610eb05780601f10610e8557610100808354040283529160200191610eb0565b820191906000526020600020905b815481529060010190602001808311610e9357829003601f168201915b505050505081565b60035481565b6000600782815481101515610ecf57fe5b90600052602060002090600602019050600660003373ffffffffffffffffffffffffffffffffffffffff1673ffffffffffffffffffffffffffffffffffffffff16815260200190815260200160002060009054906101000a900460ff161515610fa0576040517f08c379a000000000000000000000000000000000000000000000000000000000815260040180806020018281038252601b8152602001807fe58faae69c89e68a95e8b584e4babae69c89e68a95e7a5a8e69d83000000000081525060200191505060405180910390fd5b600015158160040160003373ffffffffffffffffffffffffffffffffffffffff1673ffffffffffffffffffffffffffffffffffffffff16815260200190815260200160002060009054906101000a900460ff16151514151561106a576040517f08c379a00000000000000000000000000000000000000000000000000000000081526004018080602001828103825260128152602001807fe5b7b2e7bb8fe68a95e8bf87e7a5a8e4ba86000000000000000000000000000081525060200191505060405180910390fd5b60018160040160003373ffffffffffffffffffffffffffffffffffffffff1673ffffffffffffffffffffffffffffffffffffffff16815260200190815260200160002060006101000a81548160ff021916908315150217905550806003016000815480929190600101919050555060026005805490508115156110e957fe5b048160030154111561111c5760018160050160006101000a81548160ff0219169083600381111561111657fe5b02179055505b5050565b60006018603c80426004540381151561113557fe5b0481151561113f57fe5b0481151561114957fe5b04905090565b508054600082559060005260206000209081019061116d9190611241565b50565b60a0604051908101604052806060815260200160008152602001600073ffffffffffffffffffffffffffffffffffffffff16815260200160008152602001600060038111156111bb57fe5b81525090565b828054600181600116156101000203166002900490600052602060002090601f016020900481019282601f1061120257805160ff1916838001178555611230565b82800160010185558215611230579182015b8281111561122f578251825591602001919060010190611214565b5b50905061123d9190611241565b5090565b61126391905b8082111561125f576000816000905550600101611247565b5090565b905600a165627a7a72305820cd74913bf91d61b93fa89ab6f46b57357444078fdde7b6c8942f3ca339572b8b0029",
					"opcodes": "PUSH1 0x80 PUSH1 0x40 MSTORE CALLVALUE DUP1 ISZERO PUSH3 0x11 JUMPI PUSH1 0x0 DUP1 REVERT JUMPDEST POP PUSH1 0x40 MLOAD PUSH3 0x1422 CODESIZE SUB DUP1 PUSH3 0x1422 DUP4 CODECOPY DUP2 ADD DUP1 PUSH1 0x40 MSTORE DUP2 ADD SWAP1 DUP1 DUP1 MLOAD DUP3 ADD SWAP3 SWAP2 SWAP1 PUSH1 0x20 ADD DUP1 MLOAD SWAP1 PUSH1 0x20 ADD SWAP1 SWAP3 SWAP2 SWAP1 DUP1 MLOAD SWAP1 PUSH1 0x20 ADD SWAP1 SWAP3 SWAP2 SWAP1 DUP1 MLOAD SWAP1 PUSH1 0x20 ADD SWAP1 SWAP3 SWAP2 SWAP1 POP POP POP CALLER PUSH1 0x0 DUP1 PUSH2 0x100 EXP DUP2 SLOAD DUP2 PUSH20 0xFFFFFFFFFFFFFFFFFFFFFFFFFFFFFFFFFFFFFFFF MUL NOT AND SWAP1 DUP4 PUSH20 0xFFFFFFFFFFFFFFFFFFFFFFFFFFFFFFFFFFFFFFFF AND MUL OR SWAP1 SSTORE POP DUP4 PUSH1 0x1 SWAP1 DUP1 MLOAD SWAP1 PUSH1 0x20 ADD SWAP1 PUSH3 0xAF SWAP3 SWAP2 SWAP1 PUSH3 0xD1 JUMP JUMPDEST POP DUP3 PUSH1 0x2 DUP2 SWAP1 SSTORE POP DUP2 PUSH1 0x3 DUP2 SWAP1 SSTORE POP DUP1 TIMESTAMP ADD PUSH1 0x4 DUP2 SWAP1 SSTORE POP POP POP POP POP PUSH3 0x180 JUMP JUMPDEST DUP3 DUP1 SLOAD PUSH1 0x1 DUP2 PUSH1 0x1 AND ISZERO PUSH2 0x100 MUL SUB AND PUSH1 0x2 SWAP1 DIV SWAP1 PUSH1 0x0 MSTORE PUSH1 0x20 PUSH1 0x0 KECCAK256 SWAP1 PUSH1 0x1F ADD PUSH1 0x20 SWAP1 DIV DUP2 ADD SWAP3 DUP3 PUSH1 0x1F LT PUSH3 0x114 JUMPI DUP1 MLOAD PUSH1 0xFF NOT AND DUP4 DUP1 ADD OR DUP6 SSTORE PUSH3 0x145 JUMP JUMPDEST DUP3 DUP1 ADD PUSH1 0x1 ADD DUP6 SSTORE DUP3 ISZERO PUSH3 0x145 JUMPI SWAP2 DUP3 ADD JUMPDEST DUP3 DUP2 GT ISZERO PUSH3 0x144 JUMPI DUP3 MLOAD DUP3 SSTORE SWAP2 PUSH1 0x20 ADD SWAP2 SWAP1 PUSH1 0x1 ADD SWAP1 PUSH3 0x127 JUMP JUMPDEST JUMPDEST POP SWAP1 POP PUSH3 0x154 SWAP2 SWAP1 PUSH3 0x158 JUMP JUMPDEST POP SWAP1 JUMP JUMPDEST PUSH3 0x17D SWAP2 SWAP1 JUMPDEST DUP1 DUP3 GT ISZERO PUSH3 0x179 JUMPI PUSH1 0x0 DUP2 PUSH1 0x0 SWAP1 SSTORE POP PUSH1 0x1 ADD PUSH3 0x15F JUMP JUMPDEST POP SWAP1 JUMP JUMPDEST SWAP1 JUMP JUMPDEST PUSH2 0x1292 DUP1 PUSH3 0x190 PUSH1 0x0 CODECOPY PUSH1 0x0 RETURN STOP PUSH1 0x80 PUSH1 0x40 MSTORE PUSH1 0x4 CALLDATASIZE LT PUSH2 0xF1 JUMPI PUSH1 0x0 CALLDATALOAD PUSH29 0x100000000000000000000000000000000000000000000000000000000 SWAP1 DIV PUSH4 0xFFFFFFFF AND DUP1 PUSH4 0x3441006 EQ PUSH2 0xF6 JUMPI DUP1 PUSH4 0x119F8747 EQ PUSH2 0x116 JUMPI DUP1 PUSH4 0x12065FE0 EQ PUSH2 0x120 JUMPI DUP1 PUSH4 0x3197CBB6 EQ PUSH2 0x14B JUMPI DUP1 PUSH4 0x3410452A EQ PUSH2 0x176 JUMPI DUP1 PUSH4 0x3C24B7D7 EQ PUSH2 0x1A1 JUMPI DUP1 PUSH4 0x43020B1A EQ PUSH2 0x20E JUMPI DUP1 PUSH4 0x481C6A75 EQ PUSH2 0x27A JUMPI DUP1 PUSH4 0x590E1AE3 EQ PUSH2 0x2D1 JUMPI DUP1 PUSH4 0x63B393D8 EQ PUSH2 0x2E8 JUMPI DUP1 PUSH4 0x69EFB694 EQ PUSH2 0x313 JUMPI DUP1 PUSH4 0x8A9CFD55 EQ PUSH2 0x40C JUMPI DUP1 PUSH4 0x8D7CDB91 EQ PUSH2 0x49F JUMPI DUP1 PUSH4 0x9A33E300 EQ PUSH2 0x4CA JUMPI DUP1 PUSH4 0xA5D5C5DC EQ PUSH2 0x55A JUMPI DUP1 PUSH4 0xD7D1BBDB EQ PUSH2 0x585 JUMPI DUP1 PUSH4 0xFC2615D5 EQ PUSH2 0x5B2 JUMPI JUMPDEST PUSH1 0x0 DUP1 REVERT JUMPDEST PUSH2 0x114 PUSH1 0x4 DUP1 CALLDATASIZE SUB DUP2 ADD SWAP1 DUP1 DUP1 CALLDATALOAD SWAP1 PUSH1 0x20 ADD SWAP1 SWAP3 SWAP2 SWAP1 POP POP POP PUSH2 0x5DD JUMP JUMPDEST STOP JUMPDEST PUSH2 0x11E PUSH2 0x6E4 JUMP JUMPDEST STOP JUMPDEST CALLVALUE DUP1 ISZERO PUSH2 0x12C JUMPI PUSH1 0x0 DUP1 REVERT JUMPDEST POP PUSH2 0x135 PUSH2 0x81D JUMP JUMPDEST PUSH1 0x40 MLOAD DUP1 DUP3 DUP2 MSTORE PUSH1 0x20 ADD SWAP2 POP POP PUSH1 0x40 MLOAD DUP1 SWAP2 SUB SWAP1 RETURN JUMPDEST CALLVALUE DUP1 ISZERO PUSH2 0x157 JUMPI PUSH1 0x0 DUP1 REVERT JUMPDEST POP PUSH2 0x160 PUSH2 0x83C JUMP JUMPDEST PUSH1 0x40 MLOAD DUP1 DUP3 DUP2 MSTORE PUSH1 0x20 ADD SWAP2 POP POP PUSH1 0x40 MLOAD DUP1 SWAP2 SUB SWAP1 RETURN JUMPDEST CALLVALUE DUP1 ISZERO PUSH2 0x182 JUMPI PUSH1 0x0 DUP1 REVERT JUMPDEST POP PUSH2 0x18B PUSH2 0x842 JUMP JUMPDEST PUSH1 0x40 MLOAD DUP1 DUP3 DUP2 MSTORE PUSH1 0x20 ADD SWAP2 POP POP PUSH1 0x40 MLOAD DUP1 SWAP2 SUB SWAP1 RETURN JUMPDEST CALLVALUE DUP1 ISZERO PUSH2 0x1AD JUMPI PUSH1 0x0 DUP1 REVERT JUMPDEST POP PUSH2 0x1CC PUSH1 0x4 DUP1 CALLDATASIZE SUB DUP2 ADD SWAP1 DUP1 DUP1 CALLDATALOAD SWAP1 PUSH1 0x20 ADD SWAP1 SWAP3 SWAP2 SWAP1 POP POP POP PUSH2 0x84F JUMP JUMPDEST PUSH1 0x40 MLOAD DUP1 DUP3 PUSH20 0xFFFFFFFFFFFFFFFFFFFFFFFFFFFFFFFFFFFFFFFF AND PUSH20 0xFFFFFFFFFFFFFFFFFFFFFFFFFFFFFFFFFFFFFFFF AND DUP2 MSTORE PUSH1 0x20 ADD SWAP2 POP POP PUSH1 0x40 MLOAD DUP1 SWAP2 SUB SWAP1 RETURN JUMPDEST CALLVALUE DUP1 ISZERO PUSH2 0x21A JUMPI PUSH1 0x0 DUP1 REVERT JUMPDEST POP PUSH2 0x223 PUSH2 0x88D JUMP JUMPDEST PUSH1 0x40 MLOAD DUP1 DUP1 PUSH1 0x20 ADD DUP3 DUP2 SUB DUP3 MSTORE DUP4 DUP2 DUP2 MLOAD DUP2 MSTORE PUSH1 0x20 ADD SWAP2 POP DUP1 MLOAD SWAP1 PUSH1 0x20 ADD SWAP1 PUSH1 0x20 MUL DUP1 DUP4 DUP4 PUSH1 0x0 JUMPDEST DUP4 DUP2 LT ISZERO PUSH2 0x266 JUMPI DUP1 DUP3 ADD MLOAD DUP2 DUP5 ADD MSTORE PUSH1 0x20 DUP2 ADD SWAP1 POP PUSH2 0x24B JUMP JUMPDEST POP POP POP POP SWAP1 POP ADD SWAP3 POP POP POP PUSH1 0x40 MLOAD DUP1 SWAP2 SUB SWAP1 RETURN JUMPDEST CALLVALUE DUP1 ISZERO PUSH2 0x286 JUMPI PUSH1 0x0 DUP1 REVERT JUMPDEST POP PUSH2 0x28F PUSH2 0x91B JUMP JUMPDEST PUSH1 0x40 MLOAD DUP1 DUP3 PUSH20 0xFFFFFFFFFFFFFFFFFFFFFFFFFFFFFFFFFFFFFFFF AND PUSH20 0xFFFFFFFFFFFFFFFFFFFFFFFFFFFFFFFFFFFFFFFF AND DUP2 MSTORE PUSH1 0x20 ADD SWAP2 POP POP PUSH1 0x40 MLOAD DUP1 SWAP2 SUB SWAP1 RETURN JUMPDEST CALLVALUE DUP1 ISZERO PUSH2 0x2DD JUMPI PUSH1 0x0 DUP1 REVERT JUMPDEST POP PUSH2 0x2E6 PUSH2 0x940 JUMP JUMPDEST STOP JUMPDEST CALLVALUE DUP1 ISZERO PUSH2 0x2F4 JUMPI PUSH1 0x0 DUP1 REVERT JUMPDEST POP PUSH2 0x2FD PUSH2 0x9F3 JUMP JUMPDEST PUSH1 0x40 MLOAD DUP1 DUP3 DUP2 MSTORE PUSH1 0x20 ADD SWAP2 POP POP PUSH1 0x40 MLOAD DUP1 SWAP2 SUB SWAP1 RETURN JUMPDEST CALLVALUE DUP1 ISZERO PUSH2 0x31F JUMPI PUSH1 0x0 DUP1 REVERT JUMPDEST POP PUSH2 0x33E PUSH1 0x4 DUP1 CALLDATASIZE SUB DUP2 ADD SWAP1 DUP1 DUP1 CALLDATALOAD SWAP1 PUSH1 0x20 ADD SWAP1 SWAP3 SWAP2 SWAP1 POP POP POP PUSH2 0xA00 JUMP JUMPDEST PUSH1 0x40 MLOAD DUP1 DUP1 PUSH1 0x20 ADD DUP8 DUP2 MSTORE PUSH1 0x20 ADD DUP7 PUSH20 0xFFFFFFFFFFFFFFFFFFFFFFFFFFFFFFFFFFFFFFFF AND PUSH20 0xFFFFFFFFFFFFFFFFFFFFFFFFFFFFFFFFFFFFFFFF AND DUP2 MSTORE PUSH1 0x20 ADD DUP6 DUP2 MSTORE PUSH1 0x20 ADD DUP5 ISZERO ISZERO ISZERO ISZERO DUP2 MSTORE PUSH1 0x20 ADD DUP4 DUP2 MSTORE PUSH1 0x20 ADD DUP3 DUP2 SUB DUP3 MSTORE DUP9 DUP2 DUP2 MLOAD DUP2 MSTORE PUSH1 0x20 ADD SWAP2 POP DUP1 MLOAD SWAP1 PUSH1 0x20 ADD SWAP1 DUP1 DUP4 DUP4 PUSH1 0x0 JUMPDEST DUP4 DUP2 LT ISZERO PUSH2 0x3CC JUMPI DUP1 DUP3 ADD MLOAD DUP2 DUP5 ADD MSTORE PUSH1 0x20 DUP2 ADD SWAP1 POP PUSH2 0x3B1 JUMP JUMPDEST POP POP POP POP SWAP1 POP SWAP1 DUP2 ADD SWAP1 PUSH1 0x1F AND DUP1 ISZERO PUSH2 0x3F9 JUMPI DUP1 DUP3 SUB DUP1 MLOAD PUSH1 0x1 DUP4 PUSH1 0x20 SUB PUSH2 0x100 EXP SUB NOT AND DUP2 MSTORE PUSH1 0x20 ADD SWAP2 POP JUMPDEST POP SWAP8 POP POP POP POP POP POP POP POP PUSH1 0x40 MLOAD DUP1 SWAP2 SUB SWAP1 RETURN JUMPDEST CALLVALUE DUP1 ISZERO PUSH2 0x418 JUMPI PUSH1 0x0 DUP1 REVERT JUMPDEST POP PUSH2 0x49D PUSH1 0x4 DUP1 CALLDATASIZE SUB DUP2 ADD SWAP1 DUP1 DUP1 CALLDATALOAD SWAP1 PUSH1 0x20 ADD SWAP1 DUP3 ADD DUP1 CALLDATALOAD SWAP1 PUSH1 0x20 ADD SWAP1 DUP1 DUP1 PUSH1 0x1F ADD PUSH1 0x20 DUP1 SWAP2 DIV MUL PUSH1 0x20 ADD PUSH1 0x40 MLOAD SWAP1 DUP2 ADD PUSH1 0x40 MSTORE DUP1 SWAP4 SWAP3 SWAP2 SWAP1 DUP2 DUP2 MSTORE PUSH1 0x20 ADD DUP4 DUP4 DUP1 DUP3 DUP5 CALLDATACOPY DUP3 ADD SWAP2 POP POP POP POP POP POP SWAP2 SWAP3 SWAP2 SWAP3 SWAP1 DUP1 CALLDATALOAD SWAP1 PUSH1 0x20 ADD SWAP1 SWAP3 SWAP2 SWAP1 DUP1 CALLDATALOAD PUSH20 0xFFFFFFFFFFFFFFFFFFFFFFFFFFFFFFFFFFFFFFFF AND SWAP1 PUSH1 0x20 ADD SWAP1 SWAP3 SWAP2 SWAP1 POP POP POP PUSH2 0xBFD JUMP JUMPDEST STOP JUMPDEST CALLVALUE DUP1 ISZERO PUSH2 0x4AB JUMPI PUSH1 0x0 DUP1 REVERT JUMPDEST POP PUSH2 0x4B4 PUSH2 0xE14 JUMP JUMPDEST PUSH1 0x40 MLOAD DUP1 DUP3 DUP2 MSTORE PUSH1 0x20 ADD SWAP2 POP POP PUSH1 0x40 MLOAD DUP1 SWAP2 SUB SWAP1 RETURN JUMPDEST CALLVALUE DUP1 ISZERO PUSH2 0x4D6 JUMPI PUSH1 0x0 DUP1 REVERT JUMPDEST POP PUSH2 0x4DF PUSH2 0xE1A JUMP JUMPDEST PUSH1 0x40 MLOAD DUP1 DUP1 PUSH1 0x20 ADD DUP3 DUP2 SUB DUP3 MSTORE DUP4 DUP2 DUP2 MLOAD DUP2 MSTORE PUSH1 0x20 ADD SWAP2 POP DUP1 MLOAD SWAP1 PUSH1 0x20 ADD SWAP1 DUP1 DUP4 DUP4 PUSH1 0x0 JUMPDEST DUP4 DUP2 LT ISZERO PUSH2 0x51F JUMPI DUP1 DUP3 ADD MLOAD DUP2 DUP5 ADD MSTORE PUSH1 0x20 DUP2 ADD SWAP1 POP PUSH2 0x504 JUMP JUMPDEST POP POP POP POP SWAP1 POP SWAP1 DUP2 ADD SWAP1 PUSH1 0x1F AND DUP1 ISZERO PUSH2 0x54C JUMPI DUP1 DUP3 SUB DUP1 MLOAD PUSH1 0x1 DUP4 PUSH1 0x20 SUB PUSH2 0x100 EXP SUB NOT AND DUP2 MSTORE PUSH1 0x20 ADD SWAP2 POP JUMPDEST POP SWAP3 POP POP POP PUSH1 0x40 MLOAD DUP1 SWAP2 SUB SWAP1 RETURN JUMPDEST CALLVALUE DUP1 ISZERO PUSH2 0x566 JUMPI PUSH1 0x0 DUP1 REVERT JUMPDEST POP PUSH2 0x56F PUSH2 0xEB8 JUMP JUMPDEST PUSH1 0x40 MLOAD DUP1 DUP3 DUP2 MSTORE PUSH1 0x20 ADD SWAP2 POP POP PUSH1 0x40 MLOAD DUP1 SWAP2 SUB SWAP1 RETURN JUMPDEST CALLVALUE DUP1 ISZERO PUSH2 0x591 JUMPI PUSH1 0x0 DUP1 REVERT JUMPDEST POP PUSH2 0x5B0 PUSH1 0x4 DUP1 CALLDATASIZE SUB DUP2 ADD SWAP1 DUP1 DUP1 CALLDATALOAD SWAP1 PUSH1 0x20 ADD SWAP1 SWAP3 SWAP2 SWAP1 POP POP POP PUSH2 0xEBE JUMP JUMPDEST STOP JUMPDEST CALLVALUE DUP1 ISZERO PUSH2 0x5BE JUMPI PUSH1 0x0 DUP1 REVERT JUMPDEST POP PUSH2 0x5C7 PUSH2 0x1120 JUMP JUMPDEST PUSH1 0x40 MLOAD DUP1 DUP3 DUP2 MSTORE PUSH1 0x20 ADD SWAP2 POP POP PUSH1 0x40 MLOAD DUP1 SWAP2 SUB SWAP1 RETURN JUMPDEST PUSH1 0x0 PUSH1 0x7 DUP3 DUP2 SLOAD DUP2 LT ISZERO ISZERO PUSH2 0x5EE JUMPI INVALID JUMPDEST SWAP1 PUSH1 0x0 MSTORE PUSH1 0x20 PUSH1 0x0 KECCAK256 SWAP1 PUSH1 0x6 MUL ADD SWAP1 POP DUP1 PUSH1 0x1 ADD SLOAD ADDRESS PUSH20 0xFFFFFFFFFFFFFFFFFFFFFFFFFFFFFFFFFFFFFFFF AND BALANCE LT ISZERO ISZERO ISZERO PUSH2 0x628 JUMPI PUSH1 0x0 DUP1 REVERT JUMPDEST PUSH1 0x2 PUSH1 0x5 DUP1 SLOAD SWAP1 POP DUP2 ISZERO ISZERO PUSH2 0x639 JUMPI INVALID JUMPDEST DIV DUP2 PUSH1 0x3 ADD SLOAD GT ISZERO ISZERO PUSH2 0x64B JUMPI PUSH1 0x0 DUP1 REVERT JUMPDEST DUP1 PUSH1 0x2 ADD PUSH1 0x0 SWAP1 SLOAD SWAP1 PUSH2 0x100 EXP SWAP1 DIV PUSH20 0xFFFFFFFFFFFFFFFFFFFFFFFFFFFFFFFFFFFFFFFF AND PUSH20 0xFFFFFFFFFFFFFFFFFFFFFFFFFFFFFFFFFFFFFFFF AND PUSH2 0x8FC DUP3 PUSH1 0x1 ADD SLOAD SWAP1 DUP2 ISZERO MUL SWAP1 PUSH1 0x40 MLOAD PUSH1 0x0 PUSH1 0x40 MLOAD DUP1 DUP4 SUB DUP2 DUP6 DUP9 DUP9 CALL SWAP4 POP POP POP POP ISZERO DUP1 ISZERO PUSH2 0x6B9 JUMPI RETURNDATASIZE PUSH1 0x0 DUP1 RETURNDATACOPY RETURNDATASIZE PUSH1 0x0 REVERT JUMPDEST POP PUSH1 0x2 DUP2 PUSH1 0x5 ADD PUSH1 0x0 PUSH2 0x100 EXP DUP2 SLOAD DUP2 PUSH1 0xFF MUL NOT AND SWAP1 DUP4 PUSH1 0x3 DUP2 GT ISZERO PUSH2 0x6DB JUMPI INVALID JUMPDEST MUL OR SWAP1 SSTORE POP POP POP JUMP JUMPDEST PUSH1 0x3 SLOAD CALLVALUE EQ ISZERO ISZERO PUSH2 0x75D JUMPI PUSH1 0x40 MLOAD PUSH32 0x8C379A000000000000000000000000000000000000000000000000000000000 DUP2 MSTORE PUSH1 0x4 ADD DUP1 DUP1 PUSH1 0x20 ADD DUP3 DUP2 SUB DUP3 MSTORE PUSH1 0x12 DUP2 MSTORE PUSH1 0x20 ADD DUP1 PUSH32 0xE68A95E8B584E98791E9A29DE99499E8AFAF0000000000000000000000000000 DUP2 MSTORE POP PUSH1 0x20 ADD SWAP2 POP POP PUSH1 0x40 MLOAD DUP1 SWAP2 SUB SWAP1 REVERT JUMPDEST PUSH1 0x5 CALLER SWAP1 DUP1 PUSH1 0x1 DUP2 SLOAD ADD DUP1 DUP3 SSTORE DUP1 SWAP2 POP POP SWAP1 PUSH1 0x1 DUP3 SUB SWAP1 PUSH1 0x0 MSTORE PUSH1 0x20 PUSH1 0x0 KECCAK256 ADD PUSH1 0x0 SWAP1 SWAP2 SWAP3 SWAP1 SWAP2 SWAP1 SWAP2 PUSH2 0x100 EXP DUP2 SLOAD DUP2 PUSH20 0xFFFFFFFFFFFFFFFFFFFFFFFFFFFFFFFFFFFFFFFF MUL NOT AND SWAP1 DUP4 PUSH20 0xFFFFFFFFFFFFFFFFFFFFFFFFFFFFFFFFFFFFFFFF AND MUL OR SWAP1 SSTORE POP POP PUSH1 0x1 PUSH1 0x6 PUSH1 0x0 CALLER PUSH20 0xFFFFFFFFFFFFFFFFFFFFFFFFFFFFFFFFFFFFFFFF AND PUSH20 0xFFFFFFFFFFFFFFFFFFFFFFFFFFFFFFFFFFFFFFFF AND DUP2 MSTORE PUSH1 0x20 ADD SWAP1 DUP2 MSTORE PUSH1 0x20 ADD PUSH1 0x0 KECCAK256 PUSH1 0x0 PUSH2 0x100 EXP DUP2 SLOAD DUP2 PUSH1 0xFF MUL NOT AND SWAP1 DUP4 ISZERO ISZERO MUL OR SWAP1 SSTORE POP JUMP JUMPDEST PUSH1 0x0 ADDRESS PUSH20 0xFFFFFFFFFFFFFFFFFFFFFFFFFFFFFFFFFFFFFFFF AND BALANCE SWAP1 POP SWAP1 JUMP JUMPDEST PUSH1 0x4 SLOAD DUP2 JUMP JUMPDEST PUSH1 0x0 PUSH1 0x7 DUP1 SLOAD SWAP1 POP SWAP1 POP SWAP1 JUMP JUMPDEST PUSH1 0x5 DUP2 DUP2 SLOAD DUP2 LT ISZERO ISZERO PUSH2 0x85E JUMPI INVALID JUMPDEST SWAP1 PUSH1 0x0 MSTORE PUSH1 0x20 PUSH1 0x0 KECCAK256 ADD PUSH1 0x0 SWAP2 POP SLOAD SWAP1 PUSH2 0x100 EXP SWAP1 DIV PUSH20 0xFFFFFFFFFFFFFFFFFFFFFFFFFFFFFFFFFFFFFFFF AND DUP2 JUMP JUMPDEST PUSH1 0x60 PUSH1 0x5 DUP1 SLOAD DUP1 PUSH1 0x20 MUL PUSH1 0x20 ADD PUSH1 0x40 MLOAD SWAP1 DUP2 ADD PUSH1 0x40 MSTORE DUP1 SWAP3 SWAP2 SWAP1 DUP2 DUP2 MSTORE PUSH1 0x20 ADD DUP3 DUP1 SLOAD DUP1 ISZERO PUSH2 0x911 JUMPI PUSH1 0x20 MUL DUP3 ADD SWAP2 SWAP1 PUSH1 0x0 MSTORE PUSH1 0x20 PUSH1 0x0 KECCAK256 SWAP1 JUMPDEST DUP2 PUSH1 0x0 SWAP1 SLOAD SWAP1 PUSH2 0x100 EXP SWAP1 DIV PUSH20 0xFFFFFFFFFFFFFFFFFFFFFFFFFFFFFFFFFFFFFFFF AND PUSH20 0xFFFFFFFFFFFFFFFFFFFFFFFFFFFFFFFFFFFFFFFF AND DUP2 MSTORE PUSH1 0x20 ADD SWAP1 PUSH1 0x1 ADD SWAP1 DUP1 DUP4 GT PUSH2 0x8C7 JUMPI JUMPDEST POP POP POP POP POP SWAP1 POP SWAP1 JUMP JUMPDEST PUSH1 0x0 DUP1 SWAP1 SLOAD SWAP1 PUSH2 0x100 EXP SWAP1 DIV PUSH20 0xFFFFFFFFFFFFFFFFFFFFFFFFFFFFFFFFFFFFFFFF AND DUP2 JUMP JUMPDEST PUSH1 0x0 DUP1 SWAP1 POP JUMPDEST PUSH1 0x5 DUP1 SLOAD SWAP1 POP DUP2 LT ISZERO PUSH2 0x9E2 JUMPI PUSH1 0x5 DUP2 DUP2 SLOAD DUP2 LT ISZERO ISZERO PUSH2 0x962 JUMPI INVALID JUMPDEST SWAP1 PUSH1 0x0 MSTORE PUSH1 0x20 PUSH1 0x0 KECCAK256 ADD PUSH1 0x0 SWAP1 SLOAD SWAP1 PUSH2 0x100 EXP SWAP1 DIV PUSH20 0xFFFFFFFFFFFFFFFFFFFFFFFFFFFFFFFFFFFFFFFF AND PUSH20 0xFFFFFFFFFFFFFFFFFFFFFFFFFFFFFFFFFFFFFFFF AND PUSH2 0x8FC PUSH1 0x3 SLOAD SWAP1 DUP2 ISZERO MUL SWAP1 PUSH1 0x40 MLOAD PUSH1 0x0 PUSH1 0x40 MLOAD DUP1 DUP4 SUB DUP2 DUP6 DUP9 DUP9 CALL SWAP4 POP POP POP POP ISZERO DUP1 ISZERO PUSH2 0x9D4 JUMPI RETURNDATASIZE PUSH1 0x0 DUP1 RETURNDATACOPY RETURNDATASIZE PUSH1 0x0 REVERT JUMPDEST POP DUP1 DUP1 PUSH1 0x1 ADD SWAP2 POP POP PUSH2 0x946 JUMP JUMPDEST PUSH1 0x5 PUSH1 0x0 PUSH2 0x9F0 SWAP2 SWAP1 PUSH2 0x114F JUMP JUMPDEST POP JUMP JUMPDEST PUSH1 0x0 PUSH1 0x5 DUP1 SLOAD SWAP1 POP SWAP1 POP SWAP1 JUMP JUMPDEST PUSH1 0x60 PUSH1 0x0 DUP1 PUSH1 0x0 DUP1 PUSH1 0x0 DUP1 PUSH1 0x0 PUSH1 0x7 DUP1 SLOAD SWAP1 POP DUP10 LT ISZERO ISZERO PUSH2 0xA89 JUMPI PUSH1 0x40 MLOAD PUSH32 0x8C379A000000000000000000000000000000000000000000000000000000000 DUP2 MSTORE PUSH1 0x4 ADD DUP1 DUP1 PUSH1 0x20 ADD DUP3 DUP2 SUB DUP3 MSTORE PUSH1 0xE DUP2 MSTORE PUSH1 0x20 ADD DUP1 PUSH32 0xE69CAAE79FA5E8AFB7E6B1826964000000000000000000000000000000000000 DUP2 MSTORE POP PUSH1 0x20 ADD SWAP2 POP POP PUSH1 0x40 MLOAD DUP1 SWAP2 SUB SWAP1 REVERT JUMPDEST PUSH1 0x7 DUP10 DUP2 SLOAD DUP2 LT ISZERO ISZERO PUSH2 0xA98 JUMPI INVALID JUMPDEST SWAP1 PUSH1 0x0 MSTORE PUSH1 0x20 PUSH1 0x0 KECCAK256 SWAP1 PUSH1 0x6 MUL ADD SWAP2 POP DUP2 PUSH1 0x4 ADD PUSH1 0x0 CALLER PUSH20 0xFFFFFFFFFFFFFFFFFFFFFFFFFFFFFFFFFFFFFFFF AND PUSH20 0xFFFFFFFFFFFFFFFFFFFFFFFFFFFFFFFFFFFFFFFF AND DUP2 MSTORE PUSH1 0x20 ADD SWAP1 DUP2 MSTORE PUSH1 0x20 ADD PUSH1 0x0 KECCAK256 PUSH1 0x0 SWAP1 SLOAD SWAP1 PUSH2 0x100 EXP SWAP1 DIV PUSH1 0xFF AND SWAP1 POP DUP2 PUSH1 0x0 ADD DUP3 PUSH1 0x1 ADD SLOAD DUP4 PUSH1 0x2 ADD PUSH1 0x0 SWAP1 SLOAD SWAP1 PUSH2 0x100 EXP SWAP1 DIV PUSH20 0xFFFFFFFFFFFFFFFFFFFFFFFFFFFFFFFFFFFFFFFF AND DUP5 PUSH1 0x3 ADD SLOAD DUP5 DUP7 PUSH1 0x5 ADD PUSH1 0x0 SWAP1 SLOAD SWAP1 PUSH2 0x100 EXP SWAP1 DIV PUSH1 0xFF AND PUSH1 0x3 DUP2 GT ISZERO PUSH2 0xB4A JUMPI INVALID JUMPDEST DUP6 DUP1 SLOAD PUSH1 0x1 DUP2 PUSH1 0x1 AND ISZERO PUSH2 0x100 MUL SUB AND PUSH1 0x2 SWAP1 DIV DUP1 PUSH1 0x1F ADD PUSH1 0x20 DUP1 SWAP2 DIV MUL PUSH1 0x20 ADD PUSH1 0x40 MLOAD SWAP1 DUP2 ADD PUSH1 0x40 MSTORE DUP1 SWAP3 SWAP2 SWAP1 DUP2 DUP2 MSTORE PUSH1 0x20 ADD DUP3 DUP1 SLOAD PUSH1 0x1 DUP2 PUSH1 0x1 AND ISZERO PUSH2 0x100 MUL SUB AND PUSH1 0x2 SWAP1 DIV DUP1 ISZERO PUSH2 0xBDF JUMPI DUP1 PUSH1 0x1F LT PUSH2 0xBB4 JUMPI PUSH2 0x100 DUP1 DUP4 SLOAD DIV MUL DUP4 MSTORE SWAP2 PUSH1 0x20 ADD SWAP2 PUSH2 0xBDF JUMP JUMPDEST DUP3 ADD SWAP2 SWAP1 PUSH1 0x0 MSTORE PUSH1 0x20 PUSH1 0x0 KECCAK256 SWAP1 JUMPDEST DUP2 SLOAD DUP2 MSTORE SWAP1 PUSH1 0x1 ADD SWAP1 PUSH1 0x20 ADD DUP1 DUP4 GT PUSH2 0xBC2 JUMPI DUP3 SWAP1 SUB PUSH1 0x1F AND DUP3 ADD SWAP2 JUMPDEST POP POP POP POP POP SWAP6 POP SWAP8 POP SWAP8 POP SWAP8 POP SWAP8 POP SWAP8 POP SWAP8 POP POP POP SWAP2 SWAP4 SWAP6 POP SWAP2 SWAP4 SWAP6 JUMP JUMPDEST PUSH2 0xC05 PUSH2 0x1170 JUMP JUMPDEST PUSH1 0x0 DUP1 SWAP1 SLOAD SWAP1 PUSH2 0x100 EXP SWAP1 DIV PUSH20 0xFFFFFFFFFFFFFFFFFFFFFFFFFFFFFFFFFFFFFFFF AND PUSH20 0xFFFFFFFFFFFFFFFFFFFFFFFFFFFFFFFFFFFFFFFF AND CALLER PUSH20 0xFFFFFFFFFFFFFFFFFFFFFFFFFFFFFFFFFFFFFFFF AND EQ ISZERO ISZERO PUSH2 0xCEF JUMPI PUSH1 0x40 MLOAD PUSH32 0x8C379A000000000000000000000000000000000000000000000000000000000 DUP2 MSTORE PUSH1 0x4 ADD DUP1 DUP1 PUSH1 0x20 ADD DUP3 DUP2 SUB DUP3 MSTORE PUSH1 0x2D DUP2 MSTORE PUSH1 0x20 ADD DUP1 PUSH32 0xE58FAAE69C89E9A1B9E79BAEE58F91E8B5B7E4BABAE58FAFE4BBA5E58F91E8B5 DUP2 MSTORE PUSH1 0x20 ADD PUSH32 0xB7E694AFE4BB98E8AFB7E6B18200000000000000000000000000000000000000 DUP2 MSTORE POP PUSH1 0x40 ADD SWAP2 POP POP PUSH1 0x40 MLOAD DUP1 SWAP2 SUB SWAP1 REVERT JUMPDEST PUSH1 0xA0 PUSH1 0x40 MLOAD SWAP1 DUP2 ADD PUSH1 0x40 MSTORE DUP1 DUP6 DUP2 MSTORE PUSH1 0x20 ADD DUP5 DUP2 MSTORE PUSH1 0x20 ADD DUP4 PUSH20 0xFFFFFFFFFFFFFFFFFFFFFFFFFFFFFFFFFFFFFFFF AND DUP2 MSTORE PUSH1 0x20 ADD PUSH1 0x0 DUP2 MSTORE PUSH1 0x20 ADD PUSH1 0x0 PUSH1 0x3 DUP2 GT ISZERO PUSH2 0xD37 JUMPI INVALID JUMPDEST DUP2 MSTORE POP SWAP1 POP PUSH1 0x7 DUP2 SWAP1 DUP1 PUSH1 0x1 DUP2 SLOAD ADD DUP1 DUP3 SSTORE DUP1 SWAP2 POP POP SWAP1 PUSH1 0x1 DUP3 SUB SWAP1 PUSH1 0x0 MSTORE PUSH1 0x20 PUSH1 0x0 KECCAK256 SWAP1 PUSH1 0x6 MUL ADD PUSH1 0x0 SWAP1 SWAP2 SWAP3 SWAP1 SWAP2 SWAP1 SWAP2 POP PUSH1 0x0 DUP3 ADD MLOAD DUP2 PUSH1 0x0 ADD SWAP1 DUP1 MLOAD SWAP1 PUSH1 0x20 ADD SWAP1 PUSH2 0xD86 SWAP3 SWAP2 SWAP1 PUSH2 0x11C1 JUMP JUMPDEST POP PUSH1 0x20 DUP3 ADD MLOAD DUP2 PUSH1 0x1 ADD SSTORE PUSH1 0x40 DUP3 ADD MLOAD DUP2 PUSH1 0x2 ADD PUSH1 0x0 PUSH2 0x100 EXP DUP2 SLOAD DUP2 PUSH20 0xFFFFFFFFFFFFFFFFFFFFFFFFFFFFFFFFFFFFFFFF MUL NOT AND SWAP1 DUP4 PUSH20 0xFFFFFFFFFFFFFFFFFFFFFFFFFFFFFFFFFFFFFFFF AND MUL OR SWAP1 SSTORE POP PUSH1 0x60 DUP3 ADD MLOAD DUP2 PUSH1 0x3 ADD SSTORE PUSH1 0x80 DUP3 ADD MLOAD DUP2 PUSH1 0x5 ADD PUSH1 0x0 PUSH2 0x100 EXP DUP2 SLOAD DUP2 PUSH1 0xFF MUL NOT AND SWAP1 DUP4 PUSH1 0x3 DUP2 GT ISZERO PUSH2 0xE06 JUMPI INVALID JUMPDEST MUL OR SWAP1 SSTORE POP POP POP POP POP POP POP POP JUMP JUMPDEST PUSH1 0x2 SLOAD DUP2 JUMP JUMPDEST PUSH1 0x1 DUP1 SLOAD PUSH1 0x1 DUP2 PUSH1 0x1 AND ISZERO PUSH2 0x100 MUL SUB AND PUSH1 0x2 SWAP1 DIV DUP1 PUSH1 0x1F ADD PUSH1 0x20 DUP1 SWAP2 DIV MUL PUSH1 0x20 ADD PUSH1 0x40 MLOAD SWAP1 DUP2 ADD PUSH1 0x40 MSTORE DUP1 SWAP3 SWAP2 SWAP1 DUP2 DUP2 MSTORE PUSH1 0x20 ADD DUP3 DUP1 SLOAD PUSH1 0x1 DUP2 PUSH1 0x1 AND ISZERO PUSH2 0x100 MUL SUB AND PUSH1 0x2 SWAP1 DIV DUP1 ISZERO PUSH2 0xEB0 JUMPI DUP1 PUSH1 0x1F LT PUSH2 0xE85 JUMPI PUSH2 0x100 DUP1 DUP4 SLOAD DIV MUL DUP4 MSTORE SWAP2 PUSH1 0x20 ADD SWAP2 PUSH2 0xEB0 JUMP JUMPDEST DUP3 ADD SWAP2 SWAP1 PUSH1 0x0 MSTORE PUSH1 0x20 PUSH1 0x0 KECCAK256 SWAP1 JUMPDEST DUP2 SLOAD DUP2 MSTORE SWAP1 PUSH1 0x1 ADD SWAP1 PUSH1 0x20 ADD DUP1 DUP4 GT PUSH2 0xE93 JUMPI DUP3 SWAP1 SUB PUSH1 0x1F AND DUP3 ADD SWAP2 JUMPDEST POP POP POP POP POP DUP2 JUMP JUMPDEST PUSH1 0x3 SLOAD DUP2 JUMP JUMPDEST PUSH1 0x0 PUSH1 0x7 DUP3 DUP2 SLOAD DUP2 LT ISZERO ISZERO PUSH2 0xECF JUMPI INVALID JUMPDEST SWAP1 PUSH1 0x0 MSTORE PUSH1 0x20 PUSH1 0x0 KECCAK256 SWAP1 PUSH1 0x6 MUL ADD SWAP1 POP PUSH1 0x6 PUSH1 0x0 CALLER PUSH20 0xFFFFFFFFFFFFFFFFFFFFFFFFFFFFFFFFFFFFFFFF AND PUSH20 0xFFFFFFFFFFFFFFFFFFFFFFFFFFFFFFFFFFFFFFFF AND DUP2 MSTORE PUSH1 0x20 ADD SWAP1 DUP2 MSTORE PUSH1 0x20 ADD PUSH1 0x0 KECCAK256 PUSH1 0x0 SWAP1 SLOAD SWAP1 PUSH2 0x100 EXP SWAP1 DIV PUSH1 0xFF AND ISZERO ISZERO PUSH2 0xFA0 JUMPI PUSH1 0x40 MLOAD PUSH32 0x8C379A000000000000000000000000000000000000000000000000000000000 DUP2 MSTORE PUSH1 0x4 ADD DUP1 DUP1 PUSH1 0x20 ADD DUP3 DUP2 SUB DUP3 MSTORE PUSH1 0x1B DUP2 MSTORE PUSH1 0x20 ADD DUP1 PUSH32 0xE58FAAE69C89E68A95E8B584E4BABAE69C89E68A95E7A5A8E69D830000000000 DUP2 MSTORE POP PUSH1 0x20 ADD SWAP2 POP POP PUSH1 0x40 MLOAD DUP1 SWAP2 SUB SWAP1 REVERT JUMPDEST PUSH1 0x0 ISZERO ISZERO DUP2 PUSH1 0x4 ADD PUSH1 0x0 CALLER PUSH20 0xFFFFFFFFFFFFFFFFFFFFFFFFFFFFFFFFFFFFFFFF AND PUSH20 0xFFFFFFFFFFFFFFFFFFFFFFFFFFFFFFFFFFFFFFFF AND DUP2 MSTORE PUSH1 0x20 ADD SWAP1 DUP2 MSTORE PUSH1 0x20 ADD PUSH1 0x0 KECCAK256 PUSH1 0x0 SWAP1 SLOAD SWAP1 PUSH2 0x100 EXP SWAP1 DIV PUSH1 0xFF AND ISZERO ISZERO EQ ISZERO ISZERO PUSH2 0x106A JUMPI PUSH1 0x40 MLOAD PUSH32 0x8C379A000000000000000000000000000000000000000000000000000000000 DUP2 MSTORE PUSH1 0x4 ADD DUP1 DUP1 PUSH1 0x20 ADD DUP3 DUP2 SUB DUP3 MSTORE PUSH1 0x12 DUP2 MSTORE PUSH1 0x20 ADD DUP1 PUSH32 0xE5B7B2E7BB8FE68A95E8BF87E7A5A8E4BA860000000000000000000000000000 DUP2 MSTORE POP PUSH1 0x20 ADD SWAP2 POP POP PUSH1 0x40 MLOAD DUP1 SWAP2 SUB SWAP1 REVERT JUMPDEST PUSH1 0x1 DUP2 PUSH1 0x4 ADD PUSH1 0x0 CALLER PUSH20 0xFFFFFFFFFFFFFFFFFFFFFFFFFFFFFFFFFFFFFFFF AND PUSH20 0xFFFFFFFFFFFFFFFFFFFFFFFFFFFFFFFFFFFFFFFF AND DUP2 MSTORE PUSH1 0x20 ADD SWAP1 DUP2 MSTORE PUSH1 0x20 ADD PUSH1 0x0 KECCAK256 PUSH1 0x0 PUSH2 0x100 EXP DUP2 SLOAD DUP2 PUSH1 0xFF MUL NOT AND SWAP1 DUP4 ISZERO ISZERO MUL OR SWAP1 SSTORE POP DUP1 PUSH1 0x3 ADD PUSH1 0x0 DUP2 SLOAD DUP1 SWAP3 SWAP2 SWAP1 PUSH1 0x1 ADD SWAP2 SWAP1 POP SSTORE POP PUSH1 0x2 PUSH1 0x5 DUP1 SLOAD SWAP1 POP DUP2 ISZERO ISZERO PUSH2 0x10E9 JUMPI INVALID JUMPDEST DIV DUP2 PUSH1 0x3 ADD SLOAD GT ISZERO PUSH2 0x111C JUMPI PUSH1 0x1 DUP2 PUSH1 0x5 ADD PUSH1 0x0 PUSH2 0x100 EXP DUP2 SLOAD DUP2 PUSH1 0xFF MUL NOT AND SWAP1 DUP4 PUSH1 0x3 DUP2 GT ISZERO PUSH2 0x1116 JUMPI INVALID JUMPDEST MUL OR SWAP1 SSTORE POP JUMPDEST POP POP JUMP JUMPDEST PUSH1 0x0 PUSH1 0x18 PUSH1 0x3C DUP1 TIMESTAMP PUSH1 0x4 SLOAD SUB DUP2 ISZERO ISZERO PUSH2 0x1135 JUMPI INVALID JUMPDEST DIV DUP2 ISZERO ISZERO PUSH2 0x113F JUMPI INVALID JUMPDEST DIV DUP2 ISZERO ISZERO PUSH2 0x1149 JUMPI INVALID JUMPDEST DIV SWAP1 POP SWAP1 JUMP JUMPDEST POP DUP1 SLOAD PUSH1 0x0 DUP3 SSTORE SWAP1 PUSH1 0x0 MSTORE PUSH1 0x20 PUSH1 0x0 KECCAK256 SWAP1 DUP2 ADD SWAP1 PUSH2 0x116D SWAP2 SWAP1 PUSH2 0x1241 JUMP JUMPDEST POP JUMP JUMPDEST PUSH1 0xA0 PUSH1 0x40 MLOAD SWAP1 DUP2 ADD PUSH1 0x40 MSTORE DUP1 PUSH1 0x60 DUP2 MSTORE PUSH1 0x20 ADD PUSH1 0x0 DUP2 MSTORE PUSH1 0x20 ADD PUSH1 0x0 PUSH20 0xFFFFFFFFFFFFFFFFFFFFFFFFFFFFFFFFFFFFFFFF AND DUP2 MSTORE PUSH1 0x20 ADD PUSH1 0x0 DUP2 MSTORE PUSH1 0x20 ADD PUSH1 0x0 PUSH1 0x3 DUP2 GT ISZERO PUSH2 0x11BB JUMPI INVALID JUMPDEST DUP2 MSTORE POP SWAP1 JUMP JUMPDEST DUP3 DUP1 SLOAD PUSH1 0x1 DUP2 PUSH1 0x1 AND ISZERO PUSH2 0x100 MUL SUB AND PUSH1 0x2 SWAP1 DIV SWAP1 PUSH1 0x0 MSTORE PUSH1 0x20 PUSH1 0x0 KECCAK256 SWAP1 PUSH1 0x1F ADD PUSH1 0x20 SWAP1 DIV DUP2 ADD SWAP3 DUP3 PUSH1 0x1F LT PUSH2 0x1202 JUMPI DUP1 MLOAD PUSH1 0xFF NOT AND DUP4 DUP1 ADD OR DUP6 SSTORE PUSH2 0x1230 JUMP JUMPDEST DUP3 DUP1 ADD PUSH1 0x1 ADD DUP6 SSTORE DUP3 ISZERO PUSH2 0x1230 JUMPI SWAP2 DUP3 ADD JUMPDEST DUP3 DUP2 GT ISZERO PUSH2 0x122F JUMPI DUP3 MLOAD DUP3 SSTORE SWAP2 PUSH1 0x20 ADD SWAP2 SWAP1 PUSH1 0x1 ADD SWAP1 PUSH2 0x1214 JUMP JUMPDEST JUMPDEST POP SWAP1 POP PUSH2 0x123D SWAP2 SWAP1 PUSH2 0x1241 JUMP JUMPDEST POP SWAP1 JUMP JUMPDEST PUSH2 0x1263 SWAP2 SWAP1 JUMPDEST DUP1 DUP3 GT ISZERO PUSH2 0x125F JUMPI PUSH1 0x0 DUP2 PUSH1 0x0 SWAP1 SSTORE POP PUSH1 0x1 ADD PUSH2 0x1247 JUMP JUMPDEST POP SWAP1 JUMP JUMPDEST SWAP1 JUMP STOP LOG1 PUSH6 0x627A7A723058 KECCAK256 0xcd PUSH21 0x913BF91D61B93FA89AB6F46B57357444078FDDE7B6 0xc8 SWAP5 0x2f EXTCODECOPY LOG3 CODECOPY JUMPI 0x2b DUP12 STOP 0x29 "
				},
				"gasEstimates": {
					"creation": {
						"codeDepositCost": "950800",
						"executionCost": "infinite",
						"totalCost": "infinite"
					},
					"external": {
						"approveRequest(uint256)": "62920",
						"createRequest(string,uint256,address)": "infinite",
						"endTime()": "460",
						"finalizeRequest(uint256)": "infinite",
						"getBalance()": "651",
						"getRemainTime()": "852",
						"getRequestDetailByIndex(uint256)": "infinite",
						"getRequestsCount()": "498",
						"getSupporters()": "infinite",
						"getSupportersCount()": "608",
						"manager()": "596",
						"projectName()": "infinite",
						"refund()": "infinite",
						"support()": "61301",
						"supportMoney()": "702",
						"supporters(uint256)": "896",
						"targetMoney()": "658"
					}
				},
				"methodIdentifiers": {
					"approveRequest(uint256)": "d7d1bbdb",
					"createRequest(string,uint256,address)": "8a9cfd55",
					"endTime()": "3197cbb6",
					"finalizeRequest(uint256)": "03441006",
					"getBalance()": "12065fe0",
					"getRemainTime()": "fc2615d5",
					"getRequestDetailByIndex(uint256)": "69efb694",
					"getRequestsCount()": "3410452a",
					"getSupporters()": "43020b1a",
					"getSupportersCount()": "63b393d8",
					"manager()": "481c6a75",
					"projectName()": "9a33e300",
					"refund()": "590e1ae3",
					"support()": "119f8747",
					"supportMoney()": "a5d5c5dc",
					"supporters(uint256)": "3c24b7d7",
					"targetMoney()": "8d7cdb91"
				}
			},
			"userdoc": {
				"methods": {}
			}
		}
	}
}