{
	"data": {
		"bytecode": {
			"linkReferences": {},
			"object": "6080604052670de0b6b3a764000060045534801561001c57600080fd5b50336000806101000a81548173ffffffffffffffffffffffffffffffffffffffff021916908373ffffffffffffffffffffffffffffffffffffffff160217905550610a648061006c6000396000f3006080604052600436106100af576000357c0100000000000000000000000000000000000000000000000000000000900463ffffffff16806312065fe0146100b4578063146ca531146100df578063481c6a751461010a5780637fcfa983146101615780638b5b9ccc1461018c57806393e84cd9146101f8578063a76594bf14610202578063d271d0c91461022d578063dfbf53ae14610244578063eaa4c3b01461029b578063f71d96cb146102b2575b600080fd5b3480156100c057600080fd5b506100c961031f565b6040518082815260200191505060405180910390f35b3480156100eb57600080fd5b506100f461033e565b6040518082815260200191505060405180910390f35b34801561011657600080fd5b5061011f610344565b604051808273ffffffffffffffffffffffffffffffffffffffff1673ffffffffffffffffffffffffffffffffffffffff16815260200191505060405180910390f35b34801561016d57600080fd5b50610176610369565b6040518082815260200191505060405180910390f35b34801561019857600080fd5b506101a161036f565b6040518080602001828103825283818151815260200191508051906020019060200280838360005b838110156101e45780820151818401526020810190506101c9565b505050509050019250505060405180910390f35b6102006103fd565b005b34801561020e57600080fd5b506102176104de565b6040518082815260200191505060405180910390f35b34801561023957600080fd5b506102426104eb565b005b34801561025057600080fd5b50610259610675565b604051808273ffffffffffffffffffffffffffffffffffffffff1673ffffffffffffffffffffffffffffffffffffffff16815260200191505060405180910390f35b3480156102a757600080fd5b506102b061069b565b005b3480156102be57600080fd5b506102dd600480360381019080803590602001909291905050506109b4565b604051808273ffffffffffffffffffffffffffffffffffffffff1673ffffffffffffffffffffffffffffffffffffffff16815260200191505060405180910390f35b60003073ffffffffffffffffffffffffffffffffffffffff1631905090565b60025481565b6000809054906101000a900473ffffffffffffffffffffffffffffffffffffffff1681565b60045481565b606060018054806020026020016040519081016040528092919081815260200182805480156103f357602002820191906000526020600020905b8160009054906101000a900473ffffffffffffffffffffffffffffffffffffffff1673ffffffffffffffffffffffffffffffffffffffff16815260200190600101908083116103a9575b5050505050905090565b60045434141515610476576040517f08c379a00000000000000000000000000000000000000000000000000000000081526004018080602001828103825260168152602001807fe6af8fe6aca1e58faae883bde68a95e6b3a8316574680000000000000000000081525060200191505060405180910390fd5b60013390806001815401808255809150509060018203906000526020600020016000909192909190916101000a81548173ffffffffffffffffffffffffffffffffffffffff021916908373ffffffffffffffffffffffffffffffffffffffff16021790555050565b6000600180549050905090565b60008060009054906101000a900473ffffffffffffffffffffffffffffffffffffffff1673ffffffffffffffffffffffffffffffffffffffff163373ffffffffffffffffffffffffffffffffffffffff161415156105b1576040517f08c379a000000000000000000000000000000000000000000000000000000000815260040180806020018281038252601b8152602001807fe58faae69c89e7aea1e79086e59198e58fafe4bba5e5bc80e5a596000000000081525060200191505060405180910390fd5b600090505b600180549050811015610652576001818154811015156105d257fe5b9060005260206000200160009054906101000a900473ffffffffffffffffffffffffffffffffffffffff1673ffffffffffffffffffffffffffffffffffffffff166108fc6004549081150290604051600060405180830381858888f19350505050158015610644573d6000803e3d6000fd5b5080806001019150506105b6565b6002600081548092919060010191905055506001600061067291906109f2565b50565b600360009054906101000a900473ffffffffffffffffffffffffffffffffffffffff1681565b6000806000806000809054906101000a900473ffffffffffffffffffffffffffffffffffffffff1673ffffffffffffffffffffffffffffffffffffffff163373ffffffffffffffffffffffffffffffffffffffff16141515610765576040517f08c379a000000000000000000000000000000000000000000000000000000000815260040180806020018281038252601b8152602001807fe58faae69c89e7aea1e79086e59198e58fafe4bba5e5bc80e5a596000000000081525060200191505060405180910390fd5b42446001805490506040516020018084815260200183815260200182815260200193505050506040516020818303038152906040526040518082805190602001908083835b6020831015156107cf57805182526020820191506020810190506020830392506107aa565b6001836020036101000a03801982511681845116808217855250505050505090500191505060405180910390206001900493506001805490508481151561081257fe5b06925060018381548110151561082457fe5b9060005260206000200160009054906101000a900473ffffffffffffffffffffffffffffffffffffffff16600360006101000a81548173ffffffffffffffffffffffffffffffffffffffff021916908373ffffffffffffffffffffffffffffffffffffffff1602179055503073ffffffffffffffffffffffffffffffffffffffff163191506064605a83028115156108b857fe5b049050600360009054906101000a900473ffffffffffffffffffffffffffffffffffffffff1673ffffffffffffffffffffffffffffffffffffffff166108fc829081150290604051600060405180830381858888f19350505050158015610923573d6000803e3d6000fd5b506000809054906101000a900473ffffffffffffffffffffffffffffffffffffffff1673ffffffffffffffffffffffffffffffffffffffff166108fc8284039081150290604051600060405180830381858888f1935050505015801561098d573d6000803e3d6000fd5b50600260008154809291906001019190505550600160006109ae91906109f2565b50505050565b6001818154811015156109c357fe5b906000526020600020016000915054906101000a900473ffffffffffffffffffffffffffffffffffffffff1681565b5080546000825590600052602060002090810190610a109190610a13565b50565b610a3591905b80821115610a31576000816000905550600101610a19565b5090565b905600a165627a7a723058208b175a43038a83fc1d409b2c0fec0e251a1d2496a4df80634f8d876280f562fb0029",
			"opcodes": "PUSH1 0x80 PUSH1 0x40 MSTORE PUSH8 0xDE0B6B3A7640000 PUSH1 0x4 SSTORE CALLVALUE DUP1 ISZERO PUSH2 0x1C JUMPI PUSH1 0x0 DUP1 REVERT JUMPDEST POP CALLER PUSH1 0x0 DUP1 PUSH2 0x100 EXP DUP2 SLOAD DUP2 PUSH20 0xFFFFFFFFFFFFFFFFFFFFFFFFFFFFFFFFFFFFFFFF MUL NOT AND SWAP1 DUP4 PUSH20 0xFFFFFFFFFFFFFFFFFFFFFFFFFFFFFFFFFFFFFFFF AND MUL OR SWAP1 SSTORE POP PUSH2 0xA64 DUP1 PUSH2 0x6C PUSH1 0x0 CODECOPY PUSH1 0x0 RETURN STOP PUSH1 0x80 PUSH1 0x40 MSTORE PUSH1 0x4 CALLDATASIZE LT PUSH2 0xAF JUMPI PUSH1 0x0 CALLDATALOAD PUSH29 0x100000000000000000000000000000000000000000000000000000000 SWAP1 DIV PUSH4 0xFFFFFFFF AND DUP1 PUSH4 0x12065FE0 EQ PUSH2 0xB4 JUMPI DUP1 PUSH4 0x146CA531 EQ PUSH2 0xDF JUMPI DUP1 PUSH4 0x481C6A75 EQ PUSH2 0x10A JUMPI DUP1 PUSH4 0x7FCFA983 EQ PUSH2 0x161 JUMPI DUP1 PUSH4 0x8B5B9CCC EQ PUSH2 0x18C JUMPI DUP1 PUSH4 0x93E84CD9 EQ PUSH2 0x1F8 JUMPI DUP1 PUSH4 0xA76594BF EQ PUSH2 0x202 JUMPI DUP1 PUSH4 0xD271D0C9 EQ PUSH2 0x22D JUMPI DUP1 PUSH4 0xDFBF53AE EQ PUSH2 0x244 JUMPI DUP1 PUSH4 0xEAA4C3B0 EQ PUSH2 0x29B JUMPI DUP1 PUSH4 0xF71D96CB EQ PUSH2 0x2B2 JUMPI JUMPDEST PUSH1 0x0 DUP1 REVERT JUMPDEST CALLVALUE DUP1 ISZERO PUSH2 0xC0 JUMPI PUSH1 0x0 DUP1 REVERT JUMPDEST POP PUSH2 0xC9 PUSH2 0x31F JUMP JUMPDEST PUSH1 0x40 MLOAD DUP1 DUP3 DUP2 MSTORE PUSH1 0x20 ADD SWAP2 POP POP PUSH1 0x40 MLOAD DUP1 SWAP2 SUB SWAP1 RETURN JUMPDEST CALLVALUE DUP1 ISZERO PUSH2 0xEB JUMPI PUSH1 0x0 DUP1 REVERT JUMPDEST POP PUSH2 0xF4 PUSH2 0x33E JUMP JUMPDEST PUSH1 0x40 MLOAD DUP1 DUP3 DUP2 MSTORE PUSH1 0x20 ADD SWAP2 POP POP PUSH1 0x40 MLOAD DUP1 SWAP2 SUB SWAP1 RETURN JUMPDEST CALLVALUE DUP1 ISZERO PUSH2 0x116 JUMPI PUSH1 0x0 DUP1 REVERT JUMPDEST POP PUSH2 0x11F PUSH2 0x344 JUMP JUMPDEST PUSH1 0x40 MLOAD DUP1 DUP3 PUSH20 0xFFFFFFFFFFFFFFFFFFFFFFFFFFFFFFFFFFFFFFFF AND PUSH20 0xFFFFFFFFFFFFFFFFFFFFFFFFFFFFFFFFFFFFFFFF AND DUP2 MSTORE PUSH1 0x20 ADD SWAP2 POP POP PUSH1 0x40 MLOAD DUP1 SWAP2 SUB SWAP1 RETURN JUMPDEST CALLVALUE DUP1 ISZERO PUSH2 0x16D JUMPI PUSH1 0x0 DUP1 REVERT JUMPDEST POP PUSH2 0x176 PUSH2 0x369 JUMP JUMPDEST PUSH1 0x40 MLOAD DUP1 DUP3 DUP2 MSTORE PUSH1 0x20 ADD SWAP2 POP POP PUSH1 0x40 MLOAD DUP1 SWAP2 SUB SWAP1 RETURN JUMPDEST CALLVALUE DUP1 ISZERO PUSH2 0x198 JUMPI PUSH1 0x0 DUP1 REVERT JUMPDEST POP PUSH2 0x1A1 PUSH2 0x36F JUMP JUMPDEST PUSH1 0x40 MLOAD DUP1 DUP1 PUSH1 0x20 ADD DUP3 DUP2 SUB DUP3 MSTORE DUP4 DUP2 DUP2 MLOAD DUP2 MSTORE PUSH1 0x20 ADD SWAP2 POP DUP1 MLOAD SWAP1 PUSH1 0x20 ADD SWAP1 PUSH1 0x20 MUL DUP1 DUP4 DUP4 PUSH1 0x0 JUMPDEST DUP4 DUP2 LT ISZERO PUSH2 0x1E4 JUMPI DUP1 DUP3 ADD MLOAD DUP2 DUP5 ADD MSTORE PUSH1 0x20 DUP2 ADD SWAP1 POP PUSH2 0x1C9 JUMP JUMPDEST POP POP POP POP SWAP1 POP ADD SWAP3 POP POP POP PUSH1 0x40 MLOAD DUP1 SWAP2 SUB SWAP1 RETURN JUMPDEST PUSH2 0x200 PUSH2 0x3FD JUMP JUMPDEST STOP JUMPDEST CALLVALUE DUP1 ISZERO PUSH2 0x20E JUMPI PUSH1 0x0 DUP1 REVERT JUMPDEST POP PUSH2 0x217 PUSH2 0x4DE JUMP JUMPDEST PUSH1 0x40 MLOAD DUP1 DUP3 DUP2 MSTORE PUSH1 0x20 ADD SWAP2 POP POP PUSH1 0x40 MLOAD DUP1 SWAP2 SUB SWAP1 RETURN JUMPDEST CALLVALUE DUP1 ISZERO PUSH2 0x239 JUMPI PUSH1 0x0 DUP1 REVERT JUMPDEST POP PUSH2 0x242 PUSH2 0x4EB JUMP JUMPDEST STOP JUMPDEST CALLVALUE DUP1 ISZERO PUSH2 0x250 JUMPI PUSH1 0x0 DUP1 REVERT JUMPDEST POP PUSH2 0x259 PUSH2 0x675 JUMP JUMPDEST PUSH1 0x40 MLOAD DUP1 DUP3 PUSH20 0xFFFFFFFFFFFFFFFFFFFFFFFFFFFFFFFFFFFFFFFF AND PUSH20 0xFFFFFFFFFFFFFFFFFFFFFFFFFFFFFFFFFFFFFFFF AND DUP2 MSTORE PUSH1 0x20 ADD SWAP2 POP POP PUSH1 0x40 MLOAD DUP1 SWAP2 SUB SWAP1 RETURN JUMPDEST CALLVALUE DUP1 ISZERO PUSH2 0x2A7 JUMPI PUSH1 0x0 DUP1 REVERT JUMPDEST POP PUSH2 0x2B0 PUSH2 0x69B JUMP JUMPDEST STOP JUMPDEST CALLVALUE DUP1 ISZERO PUSH2 0x2BE JUMPI PUSH1 0x0 DUP1 REVERT JUMPDEST POP PUSH2 0x2DD PUSH1 0x4 DUP1 CALLDATASIZE SUB DUP2 ADD SWAP1 DUP1 DUP1 CALLDATALOAD SWAP1 PUSH1 0x20 ADD SWAP1 SWAP3 SWAP2 SWAP1 POP POP POP PUSH2 0x9B4 JUMP JUMPDEST PUSH1 0x40 MLOAD DUP1 DUP3 PUSH20 0xFFFFFFFFFFFFFFFFFFFFFFFFFFFFFFFFFFFFFFFF AND PUSH20 0xFFFFFFFFFFFFFFFFFFFFFFFFFFFFFFFFFFFFFFFF AND DUP2 MSTORE PUSH1 0x20 ADD SWAP2 POP POP PUSH1 0x40 MLOAD DUP1 SWAP2 SUB SWAP1 RETURN JUMPDEST PUSH1 0x0 ADDRESS PUSH20 0xFFFFFFFFFFFFFFFFFFFFFFFFFFFFFFFFFFFFFFFF AND BALANCE SWAP1 POP SWAP1 JUMP JUMPDEST PUSH1 0x2 SLOAD DUP2 JUMP JUMPDEST PUSH1 0x0 DUP1 SWAP1 SLOAD SWAP1 PUSH2 0x100 EXP SWAP1 DIV PUSH20 0xFFFFFFFFFFFFFFFFFFFFFFFFFFFFFFFFFFFFFFFF AND DUP2 JUMP JUMPDEST PUSH1 0x4 SLOAD DUP2 JUMP JUMPDEST PUSH1 0x60 PUSH1 0x1 DUP1 SLOAD DUP1 PUSH1 0x20 MUL PUSH1 0x20 ADD PUSH1 0x40 MLOAD SWAP1 DUP2 ADD PUSH1 0x40 MSTORE DUP1 SWAP3 SWAP2 SWAP1 DUP2 DUP2 MSTORE PUSH1 0x20 ADD DUP3 DUP1 SLOAD DUP1 ISZERO PUSH2 0x3F3 JUMPI PUSH1 0x20 MUL DUP3 ADD SWAP2 SWAP1 PUSH1 0x0 MSTORE PUSH1 0x20 PUSH1 0x0 KECCAK256 SWAP1 JUMPDEST DUP2 PUSH1 0x0 SWAP1 SLOAD SWAP1 PUSH2 0x100 EXP SWAP1 DIV PUSH20 0xFFFFFFFFFFFFFFFFFFFFFFFFFFFFFFFFFFFFFFFF AND PUSH20 0xFFFFFFFFFFFFFFFFFFFFFFFFFFFFFFFFFFFFFFFF AND DUP2 MSTORE PUSH1 0x20 ADD SWAP1 PUSH1 0x1 ADD SWAP1 DUP1 DUP4 GT PUSH2 0x3A9 JUMPI JUMPDEST POP POP POP POP POP SWAP1 POP SWAP1 JUMP JUMPDEST PUSH1 0x4 SLOAD CALLVALUE EQ ISZERO ISZERO PUSH2 0x476 JUMPI PUSH1 0x40 MLOAD PUSH32 0x8C379A000000000000000000000000000000000000000000000000000000000 DUP2 MSTORE PUSH1 0x4 ADD DUP1 DUP1 PUSH1 0x20 ADD DUP3 DUP2 SUB DUP3 MSTORE PUSH1 0x16 DUP2 MSTORE PUSH1 0x20 ADD DUP1 PUSH32 0xE6AF8FE6ACA1E58FAAE883BDE68A95E6B3A83165746800000000000000000000 DUP2 MSTORE POP PUSH1 0x20 ADD SWAP2 POP POP PUSH1 0x40 MLOAD DUP1 SWAP2 SUB SWAP1 REVERT JUMPDEST PUSH1 0x1 CALLER SWAP1 DUP1 PUSH1 0x1 DUP2 SLOAD ADD DUP1 DUP3 SSTORE DUP1 SWAP2 POP POP SWAP1 PUSH1 0x1 DUP3 SUB SWAP1 PUSH1 0x0 MSTORE PUSH1 0x20 PUSH1 0x0 KECCAK256 ADD PUSH1 0x0 SWAP1 SWAP2 SWAP3 SWAP1 SWAP2 SWAP1 SWAP2 PUSH2 0x100 EXP DUP2 SLOAD DUP2 PUSH20 0xFFFFFFFFFFFFFFFFFFFFFFFFFFFFFFFFFFFFFFFF MUL NOT AND SWAP1 DUP4 PUSH20 0xFFFFFFFFFFFFFFFFFFFFFFFFFFFFFFFFFFFFFFFF AND MUL OR SWAP1 SSTORE POP POP JUMP JUMPDEST PUSH1 0x0 PUSH1 0x1 DUP1 SLOAD SWAP1 POP SWAP1 POP SWAP1 JUMP JUMPDEST PUSH1 0x0 DUP1 PUSH1 0x0 SWAP1 SLOAD SWAP1 PUSH2 0x100 EXP SWAP1 DIV PUSH20 0xFFFFFFFFFFFFFFFFFFFFFFFFFFFFFFFFFFFFFFFF AND PUSH20 0xFFFFFFFFFFFFFFFFFFFFFFFFFFFFFFFFFFFFFFFF AND CALLER PUSH20 0xFFFFFFFFFFFFFFFFFFFFFFFFFFFFFFFFFFFFFFFF AND EQ ISZERO ISZERO PUSH2 0x5B1 JUMPI PUSH1 0x40 MLOAD PUSH32 0x8C379A000000000000000000000000000000000000000000000000000000000 DUP2 MSTORE PUSH1 0x4 ADD DUP1 DUP1 PUSH1 0x20 ADD DUP3 DUP2 SUB DUP3 MSTORE PUSH1 0x1B DUP2 MSTORE PUSH1 0x20 ADD DUP1 PUSH32 0xE58FAAE69C89E7AEA1E79086E59198E58FAFE4BBA5E5BC80E5A5960000000000 DUP2 MSTORE POP PUSH1 0x20 ADD SWAP2 POP POP PUSH1 0x40 MLOAD DUP1 SWAP2 SUB SWAP1 REVERT JUMPDEST PUSH1 0x0 SWAP1 POP JUMPDEST PUSH1 0x1 DUP1 SLOAD SWAP1 POP DUP2 LT ISZERO PUSH2 0x652 JUMPI PUSH1 0x1 DUP2 DUP2 SLOAD DUP2 LT ISZERO ISZERO PUSH2 0x5D2 JUMPI INVALID JUMPDEST SWAP1 PUSH1 0x0 MSTORE PUSH1 0x20 PUSH1 0x0 KECCAK256 ADD PUSH1 0x0 SWAP1 SLOAD SWAP1 PUSH2 0x100 EXP SWAP1 DIV PUSH20 0xFFFFFFFFFFFFFFFFFFFFFFFFFFFFFFFFFFFFFFFF AND PUSH20 0xFFFFFFFFFFFFFFFFFFFFFFFFFFFFFFFFFFFFFFFF AND PUSH2 0x8FC PUSH1 0x4 SLOAD SWAP1 DUP2 ISZERO MUL SWAP1 PUSH1 0x40 MLOAD PUSH1 0x0 PUSH1 0x40 MLOAD DUP1 DUP4 SUB DUP2 DUP6 DUP9 DUP9 CALL SWAP4 POP POP POP POP ISZERO DUP1 ISZERO PUSH2 0x644 JUMPI RETURNDATASIZE PUSH1 0x0 DUP1 RETURNDATACOPY RETURNDATASIZE PUSH1 0x0 REVERT JUMPDEST POP DUP1 DUP1 PUSH1 0x1 ADD SWAP2 POP POP PUSH2 0x5B6 JUMP JUMPDEST PUSH1 0x2 PUSH1 0x0 DUP2 SLOAD DUP1 SWAP3 SWAP2 SWAP1 PUSH1 0x1 ADD SWAP2 SWAP1 POP SSTORE POP PUSH1 0x1 PUSH1 0x0 PUSH2 0x672 SWAP2 SWAP1 PUSH2 0x9F2 JUMP JUMPDEST POP JUMP JUMPDEST PUSH1 0x3 PUSH1 0x0 SWAP1 SLOAD SWAP1 PUSH2 0x100 EXP SWAP1 DIV PUSH20 0xFFFFFFFFFFFFFFFFFFFFFFFFFFFFFFFFFFFFFFFF AND DUP2 JUMP JUMPDEST PUSH1 0x0 DUP1 PUSH1 0x0 DUP1 PUSH1 0x0 DUP1 SWAP1 SLOAD SWAP1 PUSH2 0x100 EXP SWAP1 DIV PUSH20 0xFFFFFFFFFFFFFFFFFFFFFFFFFFFFFFFFFFFFFFFF AND PUSH20 0xFFFFFFFFFFFFFFFFFFFFFFFFFFFFFFFFFFFFFFFF AND CALLER PUSH20 0xFFFFFFFFFFFFFFFFFFFFFFFFFFFFFFFFFFFFFFFF AND EQ ISZERO ISZERO PUSH2 0x765 JUMPI PUSH1 0x40 MLOAD PUSH32 0x8C379A000000000000000000000000000000000000000000000000000000000 DUP2 MSTORE PUSH1 0x4 ADD DUP1 DUP1 PUSH1 0x20 ADD DUP3 DUP2 SUB DUP3 MSTORE PUSH1 0x1B DUP2 MSTORE PUSH1 0x20 ADD DUP1 PUSH32 0xE58FAAE69C89E7AEA1E79086E59198E58FAFE4BBA5E5BC80E5A5960000000000 DUP2 MSTORE POP PUSH1 0x20 ADD SWAP2 POP POP PUSH1 0x40 MLOAD DUP1 SWAP2 SUB SWAP1 REVERT JUMPDEST TIMESTAMP DIFFICULTY PUSH1 0x1 DUP1 SLOAD SWAP1 POP PUSH1 0x40 MLOAD PUSH1 0x20 ADD DUP1 DUP5 DUP2 MSTORE PUSH1 0x20 ADD DUP4 DUP2 MSTORE PUSH1 0x20 ADD DUP3 DUP2 MSTORE PUSH1 0x20 ADD SWAP4 POP POP POP POP PUSH1 0x40 MLOAD PUSH1 0x20 DUP2 DUP4 SUB SUB DUP2 MSTORE SWAP1 PUSH1 0x40 MSTORE PUSH1 0x40 MLOAD DUP1 DUP3 DUP1 MLOAD SWAP1 PUSH1 0x20 ADD SWAP1 DUP1 DUP4 DUP4 JUMPDEST PUSH1 0x20 DUP4 LT ISZERO ISZERO PUSH2 0x7CF JUMPI DUP1 MLOAD DUP3 MSTORE PUSH1 0x20 DUP3 ADD SWAP2 POP PUSH1 0x20 DUP2 ADD SWAP1 POP PUSH1 0x20 DUP4 SUB SWAP3 POP PUSH2 0x7AA JUMP JUMPDEST PUSH1 0x1 DUP4 PUSH1 0x20 SUB PUSH2 0x100 EXP SUB DUP1 NOT DUP3 MLOAD AND DUP2 DUP5 MLOAD AND DUP1 DUP3 OR DUP6 MSTORE POP POP POP POP POP POP SWAP1 POP ADD SWAP2 POP POP PUSH1 0x40 MLOAD DUP1 SWAP2 SUB SWAP1 KECCAK256 PUSH1 0x1 SWAP1 DIV SWAP4 POP PUSH1 0x1 DUP1 SLOAD SWAP1 POP DUP5 DUP2 ISZERO ISZERO PUSH2 0x812 JUMPI INVALID JUMPDEST MOD SWAP3 POP PUSH1 0x1 DUP4 DUP2 SLOAD DUP2 LT ISZERO ISZERO PUSH2 0x824 JUMPI INVALID JUMPDEST SWAP1 PUSH1 0x0 MSTORE PUSH1 0x20 PUSH1 0x0 KECCAK256 ADD PUSH1 0x0 SWAP1 SLOAD SWAP1 PUSH2 0x100 EXP SWAP1 DIV PUSH20 0xFFFFFFFFFFFFFFFFFFFFFFFFFFFFFFFFFFFFFFFF AND PUSH1 0x3 PUSH1 0x0 PUSH2 0x100 EXP DUP2 SLOAD DUP2 PUSH20 0xFFFFFFFFFFFFFFFFFFFFFFFFFFFFFFFFFFFFFFFF MUL NOT AND SWAP1 DUP4 PUSH20 0xFFFFFFFFFFFFFFFFFFFFFFFFFFFFFFFFFFFFFFFF AND MUL OR SWAP1 SSTORE POP ADDRESS PUSH20 0xFFFFFFFFFFFFFFFFFFFFFFFFFFFFFFFFFFFFFFFF AND BALANCE SWAP2 POP PUSH1 0x64 PUSH1 0x5A DUP4 MUL DUP2 ISZERO ISZERO PUSH2 0x8B8 JUMPI INVALID JUMPDEST DIV SWAP1 POP PUSH1 0x3 PUSH1 0x0 SWAP1 SLOAD SWAP1 PUSH2 0x100 EXP SWAP1 DIV PUSH20 0xFFFFFFFFFFFFFFFFFFFFFFFFFFFFFFFFFFFFFFFF AND PUSH20 0xFFFFFFFFFFFFFFFFFFFFFFFFFFFFFFFFFFFFFFFF AND PUSH2 0x8FC DUP3 SWAP1 DUP2 ISZERO MUL SWAP1 PUSH1 0x40 MLOAD PUSH1 0x0 PUSH1 0x40 MLOAD DUP1 DUP4 SUB DUP2 DUP6 DUP9 DUP9 CALL SWAP4 POP POP POP POP ISZERO DUP1 ISZERO PUSH2 0x923 JUMPI RETURNDATASIZE PUSH1 0x0 DUP1 RETURNDATACOPY RETURNDATASIZE PUSH1 0x0 REVERT JUMPDEST POP PUSH1 0x0 DUP1 SWAP1 SLOAD SWAP1 PUSH2 0x100 EXP SWAP1 DIV PUSH20 0xFFFFFFFFFFFFFFFFFFFFFFFFFFFFFFFFFFFFFFFF AND PUSH20 0xFFFFFFFFFFFFFFFFFFFFFFFFFFFFFFFFFFFFFFFF AND PUSH2 0x8FC DUP3 DUP5 SUB SWAP1 DUP2 ISZERO MUL SWAP1 PUSH1 0x40 MLOAD PUSH1 0x0 PUSH1 0x40 MLOAD DUP1 DUP4 SUB DUP2 DUP6 DUP9 DUP9 CALL SWAP4 POP POP POP POP ISZERO DUP1 ISZERO PUSH2 0x98D JUMPI RETURNDATASIZE PUSH1 0x0 DUP1 RETURNDATACOPY RETURNDATASIZE PUSH1 0x0 REVERT JUMPDEST POP PUSH1 0x2 PUSH1 0x0 DUP2 SLOAD DUP1 SWAP3 SWAP2 SWAP1 PUSH1 0x1 ADD SWAP2 SWAP1 POP SSTORE POP PUSH1 0x1 PUSH1 0x0 PUSH2 0x9AE SWAP2 SWAP1 PUSH2 0x9F2 JUMP JUMPDEST POP POP POP POP JUMP JUMPDEST PUSH1 0x1 DUP2 DUP2 SLOAD DUP2 LT ISZERO ISZERO PUSH2 0x9C3 JUMPI INVALID JUMPDEST SWAP1 PUSH1 0x0 MSTORE PUSH1 0x20 PUSH1 0x0 KECCAK256 ADD PUSH1 0x0 SWAP2 POP SLOAD SWAP1 PUSH2 0x100 EXP SWAP1 DIV PUSH20 0xFFFFFFFFFFFFFFFFFFFFFFFFFFFFFFFFFFFFFFFF AND DUP2 JUMP JUMPDEST POP DUP1 SLOAD PUSH1 0x0 DUP3 SSTORE SWAP1 PUSH1 0x0 MSTORE PUSH1 0x20 PUSH1 0x0 KECCAK256 SWAP1 DUP2 ADD SWAP1 PUSH2 0xA10 SWAP2 SWAP1 PUSH2 0xA13 JUMP JUMPDEST POP JUMP JUMPDEST PUSH2 0xA35 SWAP2 SWAP1 JUMPDEST DUP1 DUP3 GT ISZERO PUSH2 0xA31 JUMPI PUSH1 0x0 DUP2 PUSH1 0x0 SWAP1 SSTORE POP PUSH1 0x1 ADD PUSH2 0xA19 JUMP JUMPDEST POP SWAP1 JUMP JUMPDEST SWAP1 JUMP STOP LOG1 PUSH6 0x627A7A723058 KECCAK256 DUP12 OR GAS NUMBER SUB DUP11 DUP4 0xfc SAR BLOCKHASH SWAP12 0x2c 0xf 0xec 0xe 0x25 BYTE SAR 0x24 SWAP7 LOG4 0xdf DUP1 PUSH4 0x4F8D8762 DUP1 0xf5 PUSH3 0xFB0029 "
		},
		"gasEstimates": {
			"creation": {
				"codeDepositCost": "532000",
				"executionCost": "40840",
				"totalCost": "572840"
			},
			"external": {
				"backMoney()": "infinite",
				"getBalance()": "607",
				"getPlayers()": "infinite",
				"getPlayersCount()": "542",
				"manager()": "486",
				"oneLotteryMoney()": "460",
				"openReward()": "infinite",
				"play()": "41033",
				"players(uint256)": "1006",
				"round()": "416",
				"winner()": "618"
			}
		},
		"methodIdentifiers": {
			"backMoney()": "d271d0c9",
			"getBalance()": "12065fe0",
			"getPlayers()": "8b5b9ccc",
			"getPlayersCount()": "a76594bf",
			"manager()": "481c6a75",
			"oneLotteryMoney()": "7fcfa983",
			"openReward()": "eaa4c3b0",
			"play()": "93e84cd9",
			"players(uint256)": "f71d96cb",
			"round()": "146ca531",
			"winner()": "dfbf53ae"
		}
	},
	"abi": [
		{
			"constant": true,
			"inputs": [],
			"name": "getBalance",
			"outputs": [
				{
					"name": "",
					"type": "uint256"
				}
			],
			"payable": false,
			"stateMutability": "view",
			"type": "function"
		},
		{
			"constant": true,
			"inputs": [],
			"name": "round",
			"outputs": [
				{
					"name": "",
					"type": "uint256"
				}
			],
			"payable": false,
			"stateMutability": "view",
			"type": "function"
		},
		{
			"constant": true,
			"inputs": [],
			"name": "manager",
			"outputs": [
				{
					"name": "",
					"type": "address"
				}
			],
			"payable": false,
			"stateMutability": "view",
			"type": "function"
		},
		{
			"constant": true,
			"inputs": [],
			"name": "oneLotteryMoney",
			"outputs": [
				{
					"name": "",
					"type": "uint256"
				}
			],
			"payable": false,
			"stateMutability": "view",
			"type": "function"
		},
		{
			"constant": true,
			"inputs": [],
			"name": "getPlayers",
			"outputs": [
				{
					"name": "",
					"type": "address[]"
				}
			],
			"payable": false,
			"stateMutability": "view",
			"type": "function"
		},
		{
			"constant": false,
			"inputs": [],
			"name": "play",
			"outputs": [],
			"payable": true,
			"stateMutability": "payable",
			"type": "function"
		},
		{
			"constant": true,
			"inputs": [],
			"name": "getPlayersCount",
			"outputs": [
				{
					"name": "",
					"type": "uint256"
				}
			],
			"payable": false,
			"stateMutability": "view",
			"type": "function"
		},
		{
			"constant": false,
			"inputs": [],
			"name": "backMoney",
			"outputs": [],
			"payable": false,
			"stateMutability": "nonpayable",
			"type": "function"
		},
		{
			"constant": true,
			"inputs": [],
			"name": "winner",
			"outputs": [
				{
					"name": "",
					"type": "address"
				}
			],
			"payable": false,
			"stateMutability": "view",
			"type": "function"
		},
		{
			"constant": false,
			"inputs": [],
			"name": "openReward",
			"outputs": [],
			"payable": false,
			"stateMutability": "nonpayable",
			"type": "function"
		},
		{
			"constant": true,
			"inputs": [
				{
					"name": "",
					"type": "uint256"
				}
			],
			"name": "players",
			"outputs": [
				{
					"name": "",
					"type": "address"
				}
			],
			"payable": false,
			"stateMutability": "view",
			"type": "function"
		},
		{
			"inputs": [],
			"payable": false,
			"stateMutability": "nonpayable",
			"type": "constructor"
		}
	]
}